:020000040800F2
:10000000B0140020DD0100085F160008F714000896
:100010005D16000899020008A91D000800000000F4
:100020000000000000000000000000004501000882
:100030009B0200080000000089010008291A00083E
:10004000F7010008F7010008F7010008F7010008B0
:10005000F7010008F7010008F7010008F7010008A0
:10006000F7010008F7010008F7010008F701000890
:10007000F7010008F7010008F7010008F701000880
:10008000F7010008F7010008F7010008F701000870
:10009000F7010008F7010008F7010008F701000860
:1000A000F7010008F7010008F7010008F701000850
:1000B000F7010008F7010008F7010008F701000840
:1000C000F7010008F7010008F7010008F701000830
:1000D000F70100089D1D0008F7010008F70100085E
:1000E000F7010008F7010008F7010008F701000810
:1000F000B51A0008F7010008F7010008F701000829
:10010000F7010008F7010008F7010008F7010008EF
:10011000F7010008F7010008F7010008F7010008DF
:10012000F7010008F7010008F7010008F7010008CF
:10013000DFF80CD000F09EF800480047851F00084B
:10014000B0140020224B19680868B0E8F00F80F363
:100150000988BFF36F8F4FF0000080F311884EF0D5
:100160000D0E70470000000006480068006880F32C
:10017000088862B661B6BFF34F8FBFF36F8F00DFA1
:1001800000BF00BF08ED00E0EFF30980BFF36F8F01
:100190000F4B1A6820E9F00F106008B54FF05000BF
:1001A00080F31188BFF34F8FBFF36F8F02F0BEFC57
:1001B0004FF0000080F31188BDE808401968086816
:1001C000B0E8F00F80F30988BFF36F8F704700BF6E
:1001D00024000020EFF305807047000006488047A8
:1001E00006480047FEE7FEE7FEE7FEE7FEE7FEE71C
:1001F000FEE7FEE7FEE7FEE7B31A0008310100085C
:1002000040EA01039B0703D009E008C9121F08C098
:10021000042AFAD203E011F8013B00F8013B521E18
:10022000F9D27047D2B201E000F8012B491EFBD28F
:1002300070470022F6E710B513460A4604461946F1
:10024000FFF7F0FF204610BD30B50B4601460020F9
:100250002022012409E021FA02F59D4205D303FA88
:1002600002F5491B04FA02F52844151EA2F1010209
:10027000F1DC30BD064C074D06E0E06840F00103BC
:1002800094E8070098471034AC42F6D3FFF754FFC8
:10029000803C0008A03C0008FEE7704772B6FEE70D
:1002A00010B590F821100022022905D004218163A5
:1002B00080F82020012010BD01680B6823F00E0398
:1002C0000B6001680B6823F001030B6090F840306D
:1002D000C46B012101FA03F3636080F8211080F8F8
:1002E0002020104610BD00002DE9F05F90F821108D
:1002F0000024022903D004218163012485E00168E0
:100300000A6822F00E020A6001680A6822F00102FF
:100310000A603F4E3E4FB215DFF8F4C0DFF8F090B0
:10032000DFF8ECA0DFF8E8B0DFF8E4E00168783F40
:1003300013011502ACF1640CA9F15009AAF13C0AB1
:10034000ABF1280BAEF1140E4FF48018B14227D94F
:10035000B9420ED0614512D049451DD0514518D043
:10036000594518D0714501D1424615E0294EB14298
:1003700001D1012210E0274E1436B14201D11022E2
:100380000AE0244E2836B14206D0224A3C3291423D
:1003900001D11A4600E02A461E49091F0A602BE0D7
:1003A000B94213D0614517D0494522D051451DD0DF
:1003B00059451DD0714501D142461AE0B14202D1E2
:1003C0004FF0807215E0134EB14201D1012210E0CE
:1003D000104E1436B14201D110220AE00D4E2836DB
:1003E000B14206D00B4A3C32914201D11A4600E09C
:1003F0002A46074980394A60012180F821100021EE
:1004000080F82010416B01B188472046BDE8F09F7D
:1004100080000240080402402DE9F84FDFF8C8913F
:100420000024A9F1040B23460F2709F1040AABF1BC
:10043000040ED1E00125A54006EA0502AA4276D1C4
:10044000DFF8A8C14E68A6EB0C0866452BD00DDC82
:10045000032E34D005DC36B3012E19D0022E2FD155
:100460001BE0112E16D0122E2AD119E0B8F5881FE4
:1004700019D006DCB8F5803F15D0B8F5801F1FD124
:1004800011E0B8F5001F0ED0B8F5041F18D10AE02E
:10049000CB6815E0CB681B1D12E0CB6808330FE07A
:1004A000CB680C330CE08B682BB1012B4FF00803A9
:1004B00003D0456104E0042302E0056100E000236D
:1004C000FF2A01D8064601E000F104064FEA840540
:1004D00001D9A5F12005D6F8008007FA05FC28EA25
:1004E0000C0803FA05F548EA0508C6F800804D68CF
:1004F000ED0070D53E4DAE6946F00106AE61AD69C6
:1005000024F0030605F0010500953A4D06EB050CB5
:10051000DCF80850A607360F07FA06F825EA0805A2
:10052000DFF8D480404503D14FF0000825E052E0C9
:10053000DFF8C880404502D14FF001081DE0DFF828
:10054000C080404502D14FF0020816E0DFF8B480C9
:10055000404502D14FF003080FE0DFF8AC80404582
:1005600002D14FF0040808E0DFF8A080404502D136
:100570004FF0050801E04FF0060808FA06F848EACF
:100580000508CCF808804D68D9F80060ED024D46AA
:1005900001D5164300E096432E604D68DAF80060FE
:1005A000AD02554601D5164300E096432E604D68D6
:1005B000DBF80060AD035D4601D5164300E09643CD
:1005C0002E604D68DEF80060ED03754601D51643D8
:1005D00000E096432E60641C0A681646E2407FF4F1
:1005E00029AFBDE8F88F0000080401400000111099
:1005F000001002400000014000080140000C0140D2
:10060000001001400014014000180140001C01408E
:100610008068084000D0012070470AB1016170472E
:100620000904FBE7014880687047000014000020BF
:1006300070B5040025D094F83D00002520B984F859
:100640003C50204600F0B8F8242084F83D00206893
:10065000016821F0010101602068016841F4004156
:1006600001602068016821F40041016000F04CFA4B
:100670004D4A6168914201D84C4900E04C4988429A
:1006800001D2012070BD4B492368B0FBF1F15E68D7
:1006900026F03F060E435E606368934206D94FF42E
:1006A000967359434FF47A73B1FBF3F12368491CF5
:1006B0001E6A26F03F06314319626168914210D8E4
:1006C0004900401EB0FBF1F2521CC2F30B02042A97
:1006D00001D2042022E0B0FBF1F0401CC0F30B007B
:1006E0001CE0A268F2B301EBC10303EB0116431E49
:1006F000B3FBF6F35B1C43F480431B0549D092B374
:1007000001EBC10202EB0111401EB0FBF1F0401CF5
:10071000C0F30B0040F4804040F400402168CA69F7
:100720004CF6FF739A431043C861D4E907100143A4
:100730002068026822F0C00211430160D4E903017D
:1007400001432068826848F2FF339A431143816075
:10075000D4E9050108432168CA6822F0FF0210436A
:10076000C86001E00EE016E02068016841F0010178
:1007700001602564202084F83D00256384F83E5004
:10078000002070BD01EB4106431EB3FBF6F35B1C7A
:10079000B3E70120C2E701EB4101401EB0FBF1F0DD
:1007A000401CC0F30B00B7E7A086010080841E0048
:1007B00000093D0040420F0010B586B000210091B5
:1007C00001910291039100680F4988421AD10F4CA0
:1007D000A06940F00800A061A069694600F0080027
:1007E0000490C0200090122001900320039008483C
:1007F000FFF712FEE06940F40010E061E06900F4E8
:100800000010049006B010BD0054004000100240DB
:10081000000C0140024881680278114481607047F1
:1008200014000020074810B5016841F01001016074
:10083000032000F0A1F80F2000F006F800F04AF8BD
:10084000002010BD0020024030B505461C4887B08E
:10085000816941F400518161806906A900F400506A
:10086000009001A800F030F900F05EF91549164A31
:10087000B0FBF1F11548491E0260416040F2E732D9
:100880000021C0E903218160816100F015FB0400B3
:1008900012D10E4800F03EFB04000DD12C2000F0D8
:1008A0003DF8102D07D2002229462C2000F044F8F4
:1008B0000748056000E0012407B0204630BD000075
:1008C0000010024040420F00003401407803002035
:1008D000180000200F4808B5816941F001018161CD
:1008E000816901F001010091C16941F08051C1614C
:1008F000C069002200F0805000900F21901E00F08F
:100900001BF80548416821F0E06141F00071416049
:1009100008BD00000010024000000140002809DB73
:1009200000F01F02012191404009800000F1E02009
:10093000C0F8001170470000F0B40E4B1B680C4665
:10094000C3F30223C3F10705042D00D90425191DA3
:10095000072901D2002300E0DB1E012606FA05F17B
:10096000491E214099409E40761E16403143F0BCFE
:1009700001F02CBA0CED00E0064900F0070208680F
:100980004FF6FF03184040EA0220034A1043086074
:10099000704700000CED00E00000FA052DE9F0477B
:1009A0000F46050061D0434E306800F00700B842A2
:1009B00009D2306820F0070038433060306800F01A
:1009C0000700B84251D128683B4C810712D5400737
:1009D00003D5606840F4E06060602878000703D5C4
:1009E000606840F4605060606068A96820F0F000C2
:1009F000084360602878C00728D06868012810D0B4
:100A00002168022810D0890700292EDA616821F0B8
:100A1000030101436160FFF705FE804641F288391A
:100A20000DE021688903EFE78901EDE7FFF7FAFDA3
:100A3000A0EB0801494502D90320BDE8F0876068B2
:100A4000696800F00C00B0EB810FEFD1306800F066
:100A50000700B8420BD9306820F0070038433060F7
:100A6000306800F00700B84201D00120E5E728789F
:100A7000400705D56068E96820F4E06008436060DD
:100A80002878000706D56068296920F4605040EA9C
:100A9000C100606000F058F86168084AC1F30311B2
:100AA000515CC8400649086006480068FFF7CCFE64
:100AB0000020C2E70020024000100240B2350008CA
:100AC00020000020180000200F2202600C4A53680A
:100AD00003F003034360536803F0F003836053683B
:100AE00003F4E063C36052684FF4E06303EAD202A8
:100AF00002610448006800F00700086070470000C9
:100B0000001002400020024004480549006849687E
:100B1000044AC1F30221515CC84070472000002004
:100B200000100240C23500080448054900684968C1
:100B3000044AC1F3C221515CC84070472000002024
:100B400000100240C23500080E4A51680E4801F0FC
:100B50000C03042B11D0082B0FD10C48C1F3834395
:100B6000C903C05C0AD55168084AC1F34041921ECE
:100B7000515C054A5043B0FBF1F0704704494843CB
:100B8000704700000010024000127A00A2350008F1
:100B900000093D002DE9F84F040070D02078C04DC9
:100BA000C00749D06868C0F38100012807D0686891
:100BB000C0F38100022809D16868C00306D52868FF
:100BC000800339D560680028E7D035E06068B0F56B
:100BD000803F0BD010B1B0F5A02F11D0286820F4C1
:100BE00080302860286820F4802002E0286840F4E3
:100BF00080302860606890B1FFF714FD06460AE077
:100C0000286840F480202860F0E700BFFFF70AFD65
:100C1000801B642873D828688003F7D50CE0FFF7A1
:100C200001FD064605E000BFFFF7FCFC801B6428C1
:100C3000F0D828688003F7D420789A4E80074FF0C8
:100C400001094FF0000839D5686810F00C0F07D083
:100C50006868C0F38100022809D16868C00306D41F
:100C60002868800714D52069012808D110E0206980
:100C7000B0B1C6F80090FFF7D5FC074605E00AE1E1
:100C8000FFF7D0FCC01B0228C4D828688007F7D51E
:100C90002868616920F0F80040EAC10028600DE092
:100CA000C6F80080FFF7BEFC074604E0FFF7BAFC79
:100CB000C01B022823D828688007F7D420780007B3
:100CC0002CD57948A169D9B1C0F80090FFF7AAFCEA
:100CD000074604E0FFF7A6FCC01B02280FD8686A8D
:100CE0008007F7D571484FF4FA510068B0FBF1F076
:100CF000009000BF0098411E0091FAD20EE080E003
:100D0000C0F80080FFF78EFC074604E0FFF78AFC7E
:100D1000C01B022875D8686A8007F7D4207840077E
:100D200060D5E8690027C00008D4E86940F0805029
:100D3000E861E869012700F0805000905C48016894
:100D4000C90513D40168834641F480710160FFF73F
:100D500069FC824606E000BFFFF764FCA0EB0A00D6
:100D600064284ED8DBF80000C005F5D5E0680128FE
:100D70000AD008B1052813D0286A20F001002862A3
:100D8000286A20F0040002E0286A40F0010028628E
:100D9000E06841F2883B98B1FFF744FC82460BE0E3
:100DA000286A40F004002862EEE700BFFFF73AFC33
:100DB000A0EB0A0159455AD8286A8007F6D50CE0FD
:100DC000FFF730FC824605E0FFF72CFCA0EB0A01A0
:100DD00059454CD8286A8007F6D41FB1E86920F03D
:100DE0008050E861E06988B36968C1F38101022934
:100DF00044D00228C6F8608004D0FFF713FC0446F4
:100E000038E034E0FFF70EFC074604E0FFF70AFC89
:100E1000C01B02282BD828688001F7D4206AB0F5BF
:100E2000803F05D16868A16820F4003008436860FD
:100E3000D4E908010843696821F474110843686023
:100E4000C6F86090FFF7EEFB044606E025E000BF21
:100E5000FFF7E8FB001B022809D828688001F7D5B6
:100E60001BE000BFFFF7DEFB001B022802D90320B6
:100E7000BDE8F88F28688001F4D40EE00128F7D08F
:100E80006868226A00F48031914204D1616A00F4FA
:100E90007010884201D00120EAE70020E8E7000056
:100EA0000010024000004242800442422000002024
:100EB000007000407047704710B5040003D094F8EC
:100EC0003D0010B107E0012010BD002084F83C0077
:100ED000204600F01EF8022084F83D00211D206805
:100EE00000F0EEFD012084F8460084F83E0084F80E
:100EF0003F0084F8400084F8410084F8420084F800
:100F0000430084F8440084F8450084F83D00002044
:100F100010BD704790F83D10012901D001207047A5
:100F2000022180F83D100168CA6842F00102CA60DF
:100F300000680E4988420ED00D4988420BD0B0F1AE
:100F4000804F08D00B49884205D00B49884202D017
:100F50000A49884204D1816801F00701062903D0BB
:100F6000016841F00101016000207047002C014040
:100F7000003401400004004000080040000C004024
:100F8000704770B50446006801694FF00005C94319
:100F9000890715D4C168C943890711D4E91E0161C5
:100FA00001202077206880698007204602D0FFF763
:100FB000E7FF04E000F098F8204600F096F8257767
:100FC00020680169C943490717D4C168C943490763
:100FD00013D46FF00401016102202077206880693A
:100FE00010F4407F204602D0FFF7CAFF04E000F073
:100FF0007BF8204600F079F8257720680169C9431D
:10100000090716D4C168C943090712D46FF0080153
:101010000161042020772068C0698007204602D043
:10102000FFF7AEFF04E000F05FF8204600F05DF847
:10103000257720680169C943C90617D4C168C94327
:10104000C90613D46FF010010161082020772068D1
:10105000C06910F4407F204602D0FFF791FF04E002
:1010600000F042F8204600F040F82577206801693A
:10107000C943C90708D1C168C943C90704D1891E3A
:101080000161204600F032F820680169C943090671
:1010900009D4C168C943090605D46FF08001016114
:1010A0002046FFF707FF20680169C943490609D4B4
:1010B000C168C943490605D46FF04001016120466B
:1010C00000F01EF820680169C94389060BD4C16885
:1010D000C943890607D46FF0200101612046BDE8AD
:1010E0007040FFF7E8BE70BD704770470068034965
:1010F000884201D1FFF78EBB7047000000340140E9
:101100007047704770470000F8B5016804460868EA
:10111000CA684B6910F00F0F4FF0000559D003F06B
:10112000010602F49077374365D0C10705D0D10599
:1011300003D5616C41F001016164410705D5D90710
:1011400003D0616C41F002016164810705D5D907C4
:1011500003D0616C41F004016164010707D502F01E
:101160002001314303D0616C41F008016164616C7E
:1011700000293AD0800604D5900602D5204600F01A
:1011800014FD20684069616CC0F38010090700D429
:1011900060B3204600F0E2FC20684069400621D59B
:1011A0002068143050E8001F21F0400140E8001290
:1011B000002AF5D1E06BA8B16D494163E06BFFF700
:1011C00093F8002811D0E06B416B01B0BDE8F0400E
:1011D000084783060FD593060DD52046BDE8F84095
:1011E00000F0E3BC2046FFF78DFFF8BD2046FFF777
:1011F00089FF6564F8BD266B2023012E7CD1C606CD
:101200007AD5D60678D508684868009048694FF0C6
:101210000206400640D5E16B086840680004000CF7
:10122000E8D0A28D8242E5D9E085886920282DD0BA
:1012300020680C3050E8001F21F4807140E8001253
:10124000002AF5D12068143050E8001F21F0010178
:1012500040E80012002AF5D12068143050E8001F41
:1012600021F0400140E80012002AF5D184F8423014
:10127000256320680C3050E8001F21F0100140E881
:101280000012002AF5D1E06BFFF70AF86663A08D23
:10129000E18D401A81B22AE0A08DE18D401A81B221
:1012A000E08D0028A6D00029A4D022680C3252E894
:1012B000000F20F4907042E80007002FF5D120685D
:1012C000143050E8002F22F0010240E80027002FE0
:1012D000F5D184F84230256320680C3050E8002FA7
:1012E00022F0100240E80023002BF5D1666320466F
:1012F000FFF707FFF8BDFFE705062BD5150629D533
:1013000094F841002128F5D1A068B0F5805F01D1A3
:101310002069B0B1206A411C2162216800784860D0
:10132000E08C401E0004000CE084E3D12068C1681A
:1013300021F08001C1602068C16841F04001C160B6
:10134000D8E7206A0088C0F308004860206A801C43
:101350002062E5E74006CDD55006CBD5CA682046C9
:1013600022F04002CA6084F8413000F0C3F8C1E7BF
:101370004D1B000870B5040004D094F8410000250E
:1013800010B106E0012070BD84F84050204600F006
:1013900023F8242084F841002068C16821F400511A
:1013A000C160204600F062FC2068016921F4904190
:1013B00001612068416921F02A0141612068C1680A
:1013C00041F40051C1606564202084F8410084F834
:1013D00042006563002070BD30B585B000240094E4
:1013E0000194029403940068184988422CD118484B
:1013F000816941F480418161816901F480410491F6
:10140000816941F0040181618069124D00F004009E
:1014100004904FF40070009002200190032003908C
:1014200069462846FEF7F8FF2815CDE9000469460D
:1014300028460294FEF7F0FF002205212520FFF741
:101440007BFA2520FFF76AFA05B030BD003801406D
:10145000001002400008014070472DE9F84304469F
:1014600090F841001F4616460D46202802D0022063
:10147000BDE8F8837DB176B100206064212084F856
:101480004100FFF7CFF8A6848046E684A068B0F557
:10149000805F02D003E00120EAE7206910B12E4608
:1014A00000250EE000260CE08021204600F03AFCEA
:1014B000A0B9AEB116F8010B21684860E08C401E5F
:1014C000E084E08C43464FF0000200970028EBD107
:1014D0004FF04001204600F025FC30B10320C7E763
:1014E00035F8020BC0F30800E6E7202084F841003D
:1014F0000020BDE77047FEE730B51E4D9DB0D5E931
:101500000001CDE919011CA81B90002119A800F0C9
:101510006BFD194C0C35206095E80F0015AD85E882
:101520000F00002115A800F009FE124920611C22BD
:101530001C316846FEF764FE0021684600F08DFE0F
:101540000C4960601C22383107A8FEF759FE0021C3
:1015500007A800F082FE0749A0601C2254310EA8A3
:10156000FEF74EFE00210EA800F077FEE0601DB0F1
:1015700030BD0000303500080000002000B585B007
:101580000020019003901548816941F0200181619C
:10159000816901F020010491816941F010018161AC
:1015A000816901F010010491816941F004018161B8
:1015B000816901F004010491816941F008018161B0
:1015C0008069694600F008000490012000900290B4
:1015D0000348FEF721FF05B000BD000000100240E7
:1015E000001001400D4810B50B4901600C494160E5
:1015F00000214FF480428160C0E9031241618161A2
:10160000C1610162FFF714F8002803D0BDE8104063
:10161000FEF744BE10BD000000540040DC02002074
:10162000A08601000C4810B50A4901604FF4E13171
:101630004160002181600C22C160C0E90412816117
:10164000C161FFF797FE002803D0BDE81040FEF708
:1016500025BE10BD0038014030030020FEE7FEE744
:1016600070B500240021204600F0F4F80025002089
:1016700000F05AF96D1CEDB2802DF8D3641CE4B271
:10168000082CEFD370BD0000124810B5816986B0F8
:1016900041F00801816180690F4C00F0080004905E
:1016A0004FF4407000901120019000200290032020
:1016B000039069462046FEF7AFFE01221102204644
:1016C000FEF7ABFF012251022046FEF7A6FF06B04F
:1016D00010BD000000100240000C01402DE9F04751
:1016E000164E002407464FF080084FF40079B515D8
:1016F00028FA04F23A4049463046FEF78EFF0122AE
:1017000029463046FEF789FF002229463046FEF77B
:1017100084FF641CE4B2082CEAD301224946304617
:10172000FEF77BFF012229463046FEF776FF294669
:101730003046BDE8F0470022FEF76FBF000C0140C5
:1017400070B501220B4D540221462846FEF765FF75
:101750000122160231462846FEF75FFF002221468D
:101760002846FEF75AFF31462846BDE87040002261
:10177000FEF753BF000C014070B50A4D4FF40074E2
:10178000002221462846FEF748FF01221102284682
:10179000FEF743FF21462846BDE870400122FEF7D0
:1017A0003CBF0000000C014010B500204FF47A72DD
:1017B0000021491C9142FCD3401C9042F8D3FFF712
:1017C00063FFAE2000F09FF8D52000F09CF8802049
:1017D00000F099F8A82000F096F83F2000F093F868
:1017E000D32000F090F8002000F08DF8402000F0A9
:1017F0008AF8A12000F087F8C82000F084F8DA20E9
:1018000000F081F8122000F07EF8812000F07BF8D3
:10181000CF2000F078F8D92000F075F8F12000F022
:1018200072F8DB2000F06FF8302000F06CF8A42094
:1018300000F069F8A62000F066F88D2000F063F84B
:10184000142000F060F8AF2000F05DF8BDE8104013
:10185000FFF706BF10B50C4640F0B00000F053F89B
:10186000102040EA141000F04EF804F00F00BDE81C
:10187000104000F048B800002DE9F0410746CE00C6
:101880004000083E801E15464FF0FF38F1B2C0B24E
:10189000FFF7E0FF1148002400EB05152819A0F51B
:1018A000805090F8000E00F03FF8641CE4B2082C61
:1018B000F4D308EB4700F1B2C0B2FFF7CBFF00242E
:1018C0002819A0F5805090F8080E00F02DF8641C3F
:1018D000E4B2082CF4D3BDE8F0810000CA3500085A
:1018E0002DE9F04115460E460746002406E0301962
:1018F000C1B23846FFF7C0FF641CE4B22A5D002A7B
:10190000F5D1BDE8F08110B50446FFF719FF782046
:10191000FFF7E4FE0020FFF7E1FE2046FFF7DEFEC2
:10192000BDE81040FFF728BF10B50446FFF708FFD9
:101930007820FFF7D3FE4020FFF7D0FE2046FFF7C8
:10194000CDFEBDE81040FFF717BF00000EB50D4DEE
:101950004FF0FF3632466846296800F079FBDDE932
:101960000004202809D1D4E90012237A06A000F04F
:101970001DFA2146286800F065FB012000F022FBDB
:10198000E8E700000000002025642025642025648D
:10199000200A0000012000F015FBFBE700261D4F88
:1019A0003546344601213846FEF732FE68BB0A2030
:1019B00000F008FB01213846FEF72AFE28BB00F0A4
:1019C0007FFC15A000F0F2F900F071FCDFF8548004
:1019D0004FF0FF31D8F8000000F000FB0146C1E9EC
:1019E00000650472D8F8000000F07AFB38B9E41CF6
:1019F000AD1CE4B2761C02E00A2000F0E3FA0121FB
:101A00003846FEF705FE0028F6D0012000F0DAFA8D
:101A1000C8E70000001001404B4559B0B4CFC20ADE
:101A2000000000000000002010B5502080F3118855
:101A3000BFF34F8FBFF36F8F01F02EFC18B1044935
:101A40004FF080500860002080F3118810BD000026
:101A500004ED00E030B58FB028216846FEF7E9FBC1
:101A600014210AA8FEF7E5FB01210804CDE90010C6
:101A70000024029402250491CDE907504FF4E010B0
:101A800009906846FFF786F808B172B6FEE70F20A6
:101A9000CDE90A054FF48060CDE90C4002210AA887
:101AA0000E94FEF77BFF002801D072B6FEE70FB060
:101AB00030BD70470148FFF764BA0000780300208A
:101AC000F0B502681C4B1D4D1D4E1E4F1E4C4FF0B5
:101AD000804C984209D0A04207D0604505D0A8426A
:101AE00003D0B04201D0B84204D122F0700E4A684F
:101AF00042EA0E02984209D0A04207D0604505D0C4
:101B0000A84203D0B04201D0B84203D122F44075BC
:101B1000CA682A434D6922F080022A4302608A681B
:101B2000C2620A688262984201D0A04201D109696A
:101B3000016301214161F0BD002C0140000400401F
:101B400000080040000C00400034014010B5406A1D
:101B50000021C185C184FFF7D5FA10BD01680C31A1
:101B600051E8002F22F4907241E80023002BF5D1B8
:101B70000168143151E8002F22F0010241E80023EE
:101B8000002BF5D1016B012909D101680C3151E815
:101B9000002F22F0100241E80023002BF5D1202174
:101BA00080F8421000210163704708B590F8421098
:101BB000222901D0022008BD82684FF480539A4246
:101BC00001D1016921B1816A9A421BD04AB10AE070
:101BD0000268816A5268C2F308020A80816A891C1D
:101BE00008E0026972B10268526802F07F020A706E
:101BF000816A491C8162C18D491E0904090CC18595
:101C000003D01BE002685268F1E70168CA6822F05D
:101C10002002CA600168CA6822F48072CA60016842
:101C20004A6922F001024A61202180F84210002115
:101C30004163026B012A03D0FFF70EFC002008BDB0
:101C4000016301680C3151E8002F22F0100241E8D5
:101C50000023002BF5D101680A68D20602D50A6874
:101C600049680091818DFFF74CFAE7E770B50446AB
:101C700000680169E26821F4405111430161216962
:101C8000A0680843616908432168CA6841F20C638F
:101C90009A430243CA6020684169A26921F44071F5
:101CA000114341611E492068884202D1FEF73CFF82
:101CB00001E0FEF729FF00EBC00101EB00126068B4
:101CC00064218000B2FBF0F3B3FBF1F36FF0180670
:101CD0007343B2FBF0F5B2FBF0F605EB830532235C
:101CE00003EB0515B5FBF1F5B6FBF1F605F0F005D4
:101CF00005EB0615B2FBF0F6B2FBF0F0B0FBF1F02D
:101D00006FF01802504306EB800003EB0010B0FBAD
:101D1000F1F0216800F00F002844886070BD0000D9
:101D2000003801402DE9F041984617460E4604461A
:101D3000069D27E0681C25D02DB1FEF773FCA0EBB3
:101D40000800A8421ED920680C3050E8001F21F47A
:101D5000D07140E80012002AF5D12068143050E814
:101D6000001F21F0010140E80012002AF5D12020D7
:101D700084F8410084F84200002084F840000320E9
:101D8000BDE8F0812068006836EA000004D0002039
:101D9000B842CFD00020F3E70120F9E70148FFF770
:101DA000B3B9000030030020FEE700000FB4054B7C
:101DB00010B503A9044A029800F028F810BC5DF899
:101DC00014FB0000611F0008840000200907090EB1
:101DD000002804DB00F1E02080F80014704700F0D8
:101DE0000F0000F1E02080F8141D704702E008C8E1
:101DF000121F08C1002AFAD170477047002001E085
:101E000001C1121F002AFBD1704700002DE9FF4FCE
:101E100089B09B460446002506E025280BD05A468B
:101E20000B999047641C6D1C20780028F5D10DB0EB
:101E30002846BDE8F08F0027B8460122474900E058
:101E4000074314F8013F203B02FA03F00842F7D1A0
:101E500020782E2819D114F8010F47F004072A28FA
:101E60000ED06FF02F022078A0F1300109290CD894
:101E700008EB880102EB410100EB0108641CF2E76A
:101E80000A98641C50F8048B0A9020780028CED061
:101E9000642808D0692806D075281ED05A460B99A8
:101EA00090476D1C58E00A994FF00A0901C90A9140
:101EB000002802DA40422D2102E0390504D52B2109
:101EC0008DF82010012103E0F90704D02021F7E765
:101ED0008A4608AE0DE00021FAE70A994FF00A0998
:101EE00001C90A91F7E74946FEF7AEF9303106F825
:101EF000011D0028F7D1ADEB060000F1200978079D
:101F000001D44FF00108C84502DDA8EB090000E04C
:101F100000208046002706E008A85A46C05D0B99BD
:101F200090476D1C7F1C5745F6DB04E030205A4675
:101F30000B9990476D1CB8F10001A8F10108F5DC80
:101F400005E016F8010B5A460B9990476D1CB9F144
:101F50000001A9F10109F4DC641C65E7092801000E
:101F600013B54FF6FF73012269460248FFF775FA71
:101F700000981CBD30030020EFF30580002800D03E
:101F800001207047FEF74EFCFFF764FDFFF7F6FAFD
:101F9000FFF728FBFFF746FBFFF706FCFFF7ACFA5D
:101FA00000F017F802A201210420FFF799FCF9E7DD
:101FB000574F524E0000000001460020842900D0F7
:101FC000C81C704710B500B9012000F025FD0020A5
:101FD00010BD10B500F06CFD002010BD002802D02F
:101FE000806800F0BEB870473EB5044600200090FF
:101FF0000190029020680090606801900C2000F031
:102000009FFBA1680028086019D004600022042109
:10201000206800F00DFEA16809684860A1680968A1
:1020200070B1684600F0D2F80100A06800688160D5
:10203000A068006803D100BF00F084FC00203EBD12
:102040000846F9E710B1806800F0EFB880207047CB
:102050002DE9FF410D000646029522D04FF0000801
:102060004446CDF80C80501C20D002B11446FFF736
:1020700083FF20270028686869461CD003AA091D31
:1020800001F01CF8012814D0CDF800800398D8B1D5
:1020900012494FF080500860BFF34F8FBFF36F8F2E
:1020A00012E0802000902A4601990FE04FF0FF34A3
:1020B000DDE70097EAE72246091D00F063FF0128EB
:1020C00008D04CB1402000909DE8070086E807004A
:1020D000BDE8FF810097F7E70020F4E704ED00E09A
:1020E00013B582B004000FD000200090FFF744FF2A
:1020F000002860684FF0000314D06A4603A900F07E
:10210000E3FE012814D102E0802004B010BD009845
:1021100080B109494FF080500860BFF34F8FBFF383
:102120006F8F07E0002203A900F01EFE012801D0F6
:10213000FF20EAE70020E8E704ED00E038B5D0E949
:10214000011204683AB1C3682BB100200090204608
:1021500000F092FD38BD2046BDE83840002200F076
:1021600067BD70B5002504462E46FFF705FF48B150
:102170005020EFF3118580F31188BFF34F8FBFF329
:102180006F8F01E000F0AAFB0021A26809E020693E
:102190000844B0FBF2F302FB130063681B5C43B11D
:1021A000491C8A42F3D8FFF7E7FE58B185F311883E
:1021B0000AE0626801211154E2682168206100FB95
:1021C0000216F0E700F0AAFB304670BD2DE9F041A1
:1021D00005464068C01C20F00307142000F0B0FA48
:1021E00004001FD0002628682661C4E90207286879
:1021F00000F0A6FA606088B12868784300F0A0FA81
:10220000206040B1002002E061680E54401C296843
:102210008142F9D806E0606800F094FB204600F0A7
:1022200091FB00242046BDE8F08178B171B10268CD
:102230008A420BD8891AC268B1FBF2F302FB13136E
:1022400023B9B1FBF2F182688A4201D8802070473D
:10225000406800224254104670477FB50D46044640
:102260004169B0F9080081B1A16971B1FFF7A4FE1D
:10227000D4E905128DE80700D4E900102B46226945
:1022800000F0D1FF039004B070BDFFF795FE03A9E5
:10229000CDE90001208A2B4682B2D4E9001000F07B
:1022A00095FF012801D00020EDE70398EBE710B57A
:1022B00001F0DCF8012801D0FF2010BD002010BD86
:1022C00010B500F02BFC002010BD00002DE9F041FE
:1022D000184C0F46054666692068001D00F0AEFAEE
:1022E00038B9206890F82C1001208840A1698143FA
:1022F000A161681C07D137B12168BDE8F0410E48E3
:10230000091D00F0DFBA20683544B54245602168F8
:1023100005D2A068BDE8F041091D00F0BBBA6068B5
:10232000091D00F0B7FA206B854200D22563BDE895
:10233000F0810000240000209C0400202DE9F041E1
:10234000054600F0CBFA2E4C2069401C2061206825
:102350002C4F10B1E06940B32DE0256020690128C1
:1023600029D1002606EB860007EB800000F084FAF6
:10237000761C072EF6D323488C3000F07DFA2148D6
:10238000A03000F079FA1F48B43000F075FA1D480B
:10239000C83000F071FA1B48DC3000F06DFA1948C3
:1023A0008C3060601430A06005E02068E96AC06A83
:1023B000884200D82560E06A401CE062E96A01209A
:1023C000A26988401043A06101EB810007EB800007
:1023D000291D00F077FA00F0A1FAE06900280CD07E
:1023E0002068E96AC06A884207D207494FF08050E6
:1023F0000860BFF34F8FBFF36F8FBDE8F08100001F
:1024000024000020C003002004ED00E030B4026C82
:102410000B46002A0BD0C1681144C1604468A14238
:1024200001D30168C16030BC1846FDF7E9BE30BC7D
:1024300070472DE9F041856B174604460026026C73
:1024400082B1C7B1E068FDF7DBFEE168206C091AD4
:10245000E1602268914202D26168081AE060022FAE
:1024600016D017E02068A8B9606800F079FF06462A
:10247000002060600EE0A068FDF7C2FE216CA0683D
:102480000844A0606168884204D32068A06001E02D
:1024900005B16D1E6D1CA5633046BDE8F08110B519
:1024A000044690F8510058B101280CD002280FD0F2
:1024B000502080F31188BFF34F8FBFF36F8FFEE77B
:1024C000206B00F03FFA2046BDE8104000F03ABA19
:1024D00010BD000010484FF44061420706D0C01DF7
:1024E0000D4920F00700411AC1F540610B4A002355
:1024F0000144C2E900030839103A21F007011160D4
:102500004B600B600B1AC0E9001393604FF0004062
:102510005360D06070470000B004002070000020BD
:10252000144E154CA6F1C8074FF08058DFF84C90B8
:1025300012E000BF00F0D2F9F068C568281D00F075
:102540007DF92069401E2061E068401EE06000F0D7
:10255000E5F92846FFF7A3FFE0680028EAD13868CC
:102560000128F9D9C9F80080BFF34F8FBFF36F8FEF
:10257000F2E70000880400202400002004ED00E0C1
:102580000346009829B10260C0E90F31012100F033
:10259000A7BB0060F8E72DE9F0479A46DDE909841A
:1025A00081466FF00303206B03EB82021044089D09
:1025B00020F00706700707D0502080F31188BFF382
:1025C0004F8FBFF36F8FFEE723180A5C83F8342028
:1025D0000A5C12B1401C1028F6D3002784F843701F
:1025E000072D00D30625E562C4E91157201D00F030
:1025F0004EF904F1180000F04AF92461C5F1070012
:102600006462A061E76484F85070524649463046DF
:1026100000F002F92060B8F1000F01D0C8F80040C6
:10262000BDE8F08730B5114900E011460A688242E2
:10263000FBD34B685C18844203D14068184448605F
:10264000084643681C18944209D1084C103C246881
:10265000A24209D052681A4442600A6812680260B5
:10266000814200D0086030BD0460F9E770000020AE
:1026700010B5044600F032F9A06B28B15FF00004F9
:1026800000F04CF9204610BD0124F9E706484168E6
:10269000096829B14168C968C96849680163704718
:1026A0004FF0FF31FAE7000024000020084840689E
:1026B000401C4FF0500080F3118804D0BFF34F8FBF
:1026C000BFF36F8FFEE7BFF34F8FBFF36F8FFEE750
:1026D000780000202DE9F041044600F0FFF894F95D
:1026E000455004F1240609E0606A48B1304600F024
:1026F00083FE08B100F0BEF96D1E6DB2002DF3DC53
:102700004FF0FF3684F8456000F008F900F0E6F875
:1027100094F9445004F1100709E0206948B13846A3
:1027200000F06AFE08B100F0A5F96D1E6DB2002D33
:10273000F3DC84F84460BDE8F04100F0EFB800003D
:102740002DE9F0410546002700F0E8F9314E3068E8
:1027500008B9FFF7BFFEF06805424BD1C5B3083595
:1027600068070ED005F00700C0F1080005446807AF
:1027700007D0502080F31188BFF34F8FBFF36F8FC6
:10278000FEE72DB37068854234D8224810300146E8
:102790000C6801E020460C466168A94202D221681B
:1027A0000029F7D131688C4224D007682168016084
:1027B00060680837411B10290FD96019420708D0FB
:1027C000502080F31188BFF34F8FBFF36F8FFEE768
:1027D00010E041606560FFF725FF61687068401A8E
:1027E0007060B268904200D2B060F068014300208F
:1027F000C4E9000100F03AFE780707D0502080F3CA
:102800001188BFF34F8FBFF36F8FFEE73846BDE8E7
:10281000F08100006000002010B5031F4FF08074AD
:102820001C601B1F21F001011960191F024B0B6076
:10283000143940380A6010BDAD260008D0E90132D5
:1028400001699A60D0E901235A604A68824201D145
:1028500082684A60002202610868401E08600868B9
:1028600070470000034B036003F1540008608020B0
:10287000106070478800002000F108014FF0FF321F
:10288000C0E90112C16001610021016070470021AF
:102890000161704730B50B685A1C02D000F1080284
:1028A00002E0026904E02246546825689D42FAD994
:1028B00053684B6099608A60516008610168491CE7
:1028C000016030BD42684A6093688B6093685960CC
:1028D000916008610168491C01607047502080F3D5
:1028E0001188BFF34F8FBFF36F8F0A494868401CB0
:1028F000486001280CD10848006810F0FF0F07D08D
:10290000502080F31188BFF34F8FBFF36F8FFEE726
:10291000704700007800002004ED00E00849486896
:1029200028B1401E486001D180F3118870475020C3
:1029300080F31188BFF34F8FBFF36F8FFEE7000066
:102940007800002070B5002827D0144DA0F10804AD
:102950006168E868014207D1502080F31188BFF315
:102960004F8FBFF36F8FFEE722683AB1502080F39C
:102970001188BFF34F8FBFF36F8FFEE78143616014
:1029800000F0CCF860686968084468602046FFF78A
:1029900049FEBDE8704000F069BD70BD60000020D8
:1029A0004FF0E02000210161816105494FF47A7206
:1029B0000968B1FBF2F1491E4161072101617047CD
:1029C0002000002010B5FDF705FC114910280ED39A
:1029D00000F1E02090F8F0030A78904207D25020EE
:1029E00080F31188BFF34F8FBFF36F8FFEE7094865
:1029F0000068896800F4E060884207D9502080F3BD
:102A00001188BFF34F8FBFF36F8FFEE710BD00003B
:102A1000780000200CED00E010B5020014D00F4843
:102A2000806B38B1502080F31188BFF34F8FBFF314
:102A30006F8FFEE700F072F800211046FFF746FCAA
:102A400000F014FD002807D105494FF080500860C0
:102A5000BFF34F8FBFF36F8F10BD00002400002025
:102A600004ED00E002498A6A0260496941607047EA
:102A70002400002001490120486270472400002002
:102A800010B50C4650B1094909681831FFF702FF2B
:102A90002046BDE810400121FFF718BC502080F30C
:102AA0001188BFF34F8FBFF36F8FFEE72400002024
:102AB00010B586B00024039405AA04A903A80494C1
:102AC000FFF7D0FEDDE903010094CDE901100023FA
:102AD0000EA11048059A00F0A6FB0F490028486394
:102AE00011D0502080F31188BFF34F8FBFF36F8F49
:102AF0004FF0FF3008630120C8614C6106B0BDE8AB
:102B0000104000F041B806B010BD000049444C45EB
:102B10000000000021250008240000200248816BED
:102B2000491C816370470000240000201448816B19
:102B300011B1012141627047002141628169B1FAFE
:102B400081F1C1F11F0101EB81020E4951F82230E0
:102B50006BB101EB820101F108034A6852684A60D7
:102B60009A4201D152684A60D16801607047502092
:102B700080F31188BFF34F8FBFF36F8FFEE7000024
:102B800024000020C00300201CB5264908780190CD
:102B9000FF20087008788DF800009DF800009DF86F
:102BA000002000F0F000904207D0502080F3118800
:102BB000BFF34F8FBFF36F8FFEE79DF800001A4BF6
:102BC00000F0500018700720986005E09DF8002084
:102BD00052008DF80020401E9DF800201206F5D40A
:102BE0009860032807D0502080F31188BFF34F8FDF
:102BF000BFF36F8FFEE74FF4407098600198087044
:102C00000A48016841F470010160016841F07041B7
:102C10000160FFF7C5FE00205860FDF7A5FA00200F
:102C20001CBD000000E400E07800002020ED00E082
:102C3000F8B517460E46050014D0DEB105FB06F0C8
:102C40004830FFF77DFD04000AD0002084F84600DC
:102C500004F148023B46314628460094FFF790FCB9
:102C60002046F8BD502080F31188BFF34F8FBFF38B
:102C70006F8FFEE70020E3E738B5049D18B153B12C
:102C8000CAB181B120E0502080F31188BFF34F8F8B
:102C9000BFF36F8FFEE7502080F31188BFF34F8F93
:102CA000BFF36F8FFEE7502080F31188BFF34F8F83
:102CB000BFF36F8FFEE739B1502080F31188BFF367
:102CC0004F8FBFF36F8FFEE748241C46012384F823
:102CD00046302B460094FFF753FC204638BD0000D9
:102CE00070B50D46040025D0FFF7F8FDD4E90F209C
:102CF000216802FB001161600021A1632168A160CD
:102D00000A46D4E90F01401E00FB0121E160214683
:102D10004FF0FF3001F8440F487004F110008DB1FE
:102D2000FFF7AAFD04F12400FFF7A6FDFFF7F6FD6B
:102D3000012070BD502080F31188BFF34F8FBFF387
:102D40006F8FFEE721690029F0D000F055FB0028C5
:102D5000ECD004494FF080500860BFF34F8FBFF3B1
:102D60006F8FE3E704ED00E02DE9FF4782B01D46D9
:102D70008A464FF00008040003D0BAF1000F08D0D3
:102D800011E0502080F31188BFF34F8FBFF36F8F96
:102D9000FEE7206C38B1502080F31188BFF34F8FCD
:102DA000BFF36F8FFEE7022D0AD1E06B012807D039
:102DB000502080F31188BFF34F8FBFF36F8FFEE772
:102DC00000F05CFA3F4F4FF000094FF0805648B9D1
:102DD000049838B1502080F31188BFF34F8FBFF3B0
:102DE0006F8FFEE7FFF77AFDA06BE16B884207D398
:102DF000022D05D00498D0B1B8F1000F1AD01EE012
:102E00002A4651462046FFF714FB616A19B104F1C6
:102E1000240000F0F1FA20B13E60BFF34F8FBFF302
:102E20006F8FFFF77BFD012006B0BDE8F087FFF74D
:102E300075FD22E06846FFF715FE4FF00108FFF729
:102E40006DFDFFF76BFEFFF749FD94F94400401C50
:102E500001D184F8449094F94500401C01D184F8D4
:102E60004590FFF75BFD04A9684600F075F930B1A5
:102E70002046FFF72FFC00F0F9FA0020D4E7FFF717
:102E80002DFDA06BE16B884213D1FFF747FD04F1E4
:102E900010000499FFF7F4FD2046FFF71BFC00F03B
:102EA000E5FA00289ED13E60BFF34F8FBFF36F8FCE
:102EB00098E7FFF733FD2046FFF70CFC00F0D6FA49
:102EC00090E7000004ED00E02DE9F0471F46904632
:102ED0008946040003D0B9F1000F08D011E050205A
:102EE00080F31188BFF34F8FBFF36F8FFEE7206C25
:102EF00038B1502080F31188BFF34F8FBFF36F8F2D
:102F0000FEE7022F0AD1E06B012807D0502080F3A2
:102F10001188BFF34F8FBFF36F8FFEE7FFF752FDAE
:102F20005020EFF3118680F31188BFF34F8FBFF36A
:102F30006F8FA06BE16B884206D3022F04D0002074
:102F400086F31188BDE8F08794F945503A46494622
:102F50002046FFF76EFA681C04D06D1C84F84550BB
:102F60000120EDE7606A0028FAD004F1240000F0A7
:102F700043FA0028F4D0B8F1000FF1D00121C8F8CD
:102F80000010EDE72DE9F747002683B08A460400DC
:102F900003D0BAF1000F08D011E0502080F311885F
:102FA000BFF34F8FBFF36F8FFEE7206C38B1502017
:102FB00080F31188BFF34F8FBFF36F8FFEE700F0F0
:102FC0005DF9DFF8F4804FF000094FF0805748B901
:102FD000059838B1502080F31188BFF34F8FBFF3AD
:102FE0006F8FFEE7FFF77AFCA56BC5B1514620460F
:102FF000FFF70CFA6D1EA563206950B104F11000B3
:1030000000F0FAF928B1C8F80070BFF34F8FBFF392
:103010006F8FFFF783FC012006B0BDE8F0870598AD
:1030200008B11EB106E0FFF779FC27E06846FFF71C
:1030300019FD0126FFF772FCFFF770FDFFF74EFC4C
:1030400094F94400401C01D184F8449094F945005F
:10305000401C01D184F84590FFF760FC05A9684643
:1030600000F07AF8002820460AD0FFF733FB00F082
:10307000FDF92046FFF7FCFA0028B3D00020CBE78B
:10308000FFF7F6FA90B104F124000599FFF7F8FC78
:103090002046FFF71FFB00F0E9F90028A2D1C8F88D
:1030A0000070BFF34F8FBFF36F8F9BE72046FFF792
:1030B00011FB00F0DBF995E704ED00E02DE9F047A6
:1030C00090468946040003D0B9F1000F08D011E002
:1030D000502080F31188BFF34F8FBFF36F8FFEE74F
:1030E000206C38B1502080F31188BFF34F8FBFF3AD
:1030F0006F8FFEE7FFF766FC5020EFF3118680F339
:103100001188BFF34F8FBFF36F8FA76BF7B194F99F
:10311000445049462046FFF779F97F1EA763681C93
:1031200004D06D1C84F84450012010E02069002870
:10313000FAD004F1100000F05FF90028F4D0B8F1E3
:10314000000FF1D00121C8F80010EDE7002086F350
:103150001188BDE8F08700002DE9F0410C4605001C
:1031600011D0C4B1FFF7BAFB174B5A696E682068DB
:10317000911B471C17D02F689B6A9F4219D096421B
:1031800017D8012410E0502080F31188BFF34F8F2F
:10319000BFF36F8FFEE7502080F31188BFF34F8F8E
:1031A000BFF36F8FFEE70024FFF7B8FB2046BDE8B2
:1031B000F081884205D9401A20602846FFF752FC6A
:1031C000F1E700202060DCE7240000202DE9FF5F0C
:1031D0008346DDE90E87994616468A469000FFF73A
:1031E000AFFA05001CD05420FFF7AAFA040014D04F
:1031F0000020256384F85100CDE90240CDE9008725
:103200004B46324651465846FFF7C5F92046FFF770
:1032100095F8012004B0BDE8F09F2846FFF792FB27
:103220004FF0FF30F6E7F0B585B0DDE90B640A9D9D
:10323000A6B1DCB1542700972663022684F85160BA
:10324000002604AFCDE90246CDE90057FFF7A3F908
:103250002046FFF773F8049805B0F0BD502080F3C6
:103260001188BFF34F8FBFF36F8FFEE7502080F3BD
:103270001188BFF34F8FBFF36F8FFEE70548C16919
:1032800019B1806B18B100207047012070470220EF
:1032900070470000240000202DE9F0412E4C00274B
:1032A000A06B40B1206A401C2062606A00B1012717
:1032B0003846BDE8F0816669761C666113D16068A6
:1032C000006838B1502080F31188BFF34F8FBFF3EF
:1032D0006F8FFEE76068A1686160A060A06A401C13
:1032E000A062FFF7D3F9206BDFF87080864209D324
:1032F0006068006880B16068C068C56868688642B8
:103300000DD220632068C06A00EB800158F82100CC
:103310000128CAD90127C8E74FF0FF30F1E7281D7F
:10332000FFF78CFAA86A18B105F11800FFF786FAC2
:10333000E86A0121A26981401143A16100EB80018B
:1033400008EB8100291DFFF7BDFAE86A2168C96A08
:103350008842CDD30127CBE724000020C003002002
:1033600070B504004FF0000140D0214D2868844220
:1033700007D0502080F31188BFF34F8FBFF36F8FBA
:10338000FEE7A06C38B1401EA064636CE26A9A420A
:103390002CD040B12AE0502080F31188BFF34F8F2A
:1033A000BFF36F8FFEE7201DFFF748FA114A012196
:1033B00050B9E06A00EB800352F8233023B9AB69BF
:1033C00001FA00F08343AB61606CE062C0F107007A
:1033D000A061E06AAB6981401943A96100EB8000FC
:1033E00002EB8000211DFFF76DFA0121084670BD38
:1033F00024000020C00300202DE9F041C068C4680B
:10340000ACB104F118000746FFF718FA154DA86B88
:103410000126A0B139461448FFF754FAE06A29683A
:10342000C96A88421CD901206E62BDE8F081502033
:1034300080F31188BFF34F8FBFF36F8FFEE7201D1E
:10344000FFF7FCF9E16AAA6906FA01F01043A861E6
:1034500001EB81000449B43901EB8000211DDBE759
:103460000020E2E724000020740400202DE9F0474A
:103470002C4D00242746A86B38B1FFF72FFAA86B14
:10348000401EA863A86B40B146E0502080F311882D
:10349000BFF34F8FBFF36F8FFEE72969224E0120E4
:1034A000D1B3A6F1B40980463068E8B1F068C468C9
:1034B00004F11800FFF7C2F9201DFFF7BFF9E06A19
:1034C000AA6908FA00F11143A96100EB800109EB38
:1034D0008100211DFFF7F6F9E06A2968C96A884270
:1034E000E2D3C5F82480DFE70CB1FFF7CFF82C6AF0
:1034F00044B14646FFF7D0FE00B16E62641EF9D1BA
:1035000000202862686A38B1084901273807086036
:10351000BFF34F8FBFF36F8FFFF700FA3846BDE858
:10352000F0870000240000207404002004ED00E077
:10353000200000000C00000000000000100000004F
:10354000040000000000000000000000743C0008BF
:103550009D1900080000000000000000800000002D
:1035600000000000000000005C3C00084D1900084D
:1035700000000000000000008000000000000000CB
:1035800000000000683C000895190008FFFF0000DB
:1035900000000000800000000000000000000000AB
:1035A000010202030405060708090A0B0C0D0E0FA1
:1035B00010100000000000000000010203040607D4
:1035C00008090000000001020304000000000000E0
:1035D00000000000000000000000000000F80000F3
:1035E0000000000000333000000000100C06100C3A
:1035F0000600000000000000000040C07840C078D5
:103600004000043F04043F040400007088FC0830BC
:103610000000001820FF211E0000F008F000E01854
:10362000000000211C031E211E0000F0088870000D
:1036300000001E2123241927211010160E0000005F
:1036400000000000000000000000000000E018047E
:103650000200000000071820400000020418E000EB
:1036600000000040201807000000404080F080402B
:1036700040000202010F01020200000000F0000001
:1036800000000101011F0101010000000000000015
:10369000000080B07000000000000000000000008A
:1036A0000000000101010101010100000000000013
:1036B00000000030300000000000000000008060CA
:1036C0001804006018060100000000E0100808104F
:1036D000E000000F102020100F00001010F8000074
:1036E00000000020203F202000000070080808880B
:1036F00070000030282422213000003008888848DB
:1037000030000018202020110E000000C02010F80A
:10371000000000070424243F240000F808888808DB
:1037200008000019212020110E0000E010888818E0
:103730000000000F112020110E0000380808C838C2
:1037400008000000003F00000000007088080888A2
:103750007000001C222121221C0000E0100808102B
:10376000E0000000312222110F00000000C0C00064
:103770000000000000303000000000000080000069
:103780000000000080600000000000008040201069
:103790000800000102040810200040404040404062
:1037A00040000404040404040400000810204080C5
:1037B00000000020100804020100007048080808FA
:1037C000F0000000003036010000C030C828E810CA
:1037D000E0000718272423140B000000C038E00085
:1037E0000000203C23020227382008F888888870CF
:1037F0000000203F202020110E00C03008080808DB
:103800003800071820202010080008F808080810C1
:10381000E000203F202020100F0008F88888E808EA
:103820001000203F20202320180008F88888E8088E
:103830001000203F200003000000C03008080838B6
:10384000000007182020221E020008F808000008C7
:10385000F808203F210101213F20000808F808084E
:1038600000000020203F2020000000000808F80889
:103870000800C08080807F00000008F888C02818F9
:103880000800203F20012638200008F8080000002A
:103890000000203F20202020300008F8F800F8F831
:1038A0000800203F003F003F200008F830C000081B
:1038B000F808203F200007183F00E0100808081013
:1038C000E0000F10202020100F0008F8080808085A
:1038D000F000203F210101010000E010080808105D
:1038E000E0000F18242438504F0008F88888888892
:1038F0007000203F2000030C30200070880808086A
:1039000038000038202121221C00180808F8080877
:1039100018000000203F2000000008F80800000800
:10392000F808001F202020201F000878880000C809
:103930003808000007380E010000F80800F80008F9
:10394000F800033C0700073C030008186880806803
:10395000180820302C03032C30200838C800C83841
:1039600008000000203F2000000010080808C838A8
:1039700008002038262120201800000000FE020246
:1039800002000000007F40404000000C30C00000FA
:103990000000000000010638C00000020202FE0024
:1039A0000000004040407F000000000004020202CE
:1039B0000400000000000000000000000000000003
:1039C00000008080808080808080000202040000EF
:1039D00000000000000000000000000080808080E7
:1039E00000000019242222223F2008F800808000D5
:1039F0000000003F112020110E0000000080808098
:103A00000000000E1120202011000000008080889E
:103A1000F800000E112020103F20000080808080E0
:103A20000000001F222222221300008080F08888DC
:103A300088180020203F2020000000008080808027
:103A40008000006B94949493600008F8008080805C
:103A50000000203F210000203F20008098980000B7
:103A600000000020203F20200000000000809898E7
:103A7000000000C08080807F000008F80000808087
:103A80008000203F24022D302000000808F80000AC
:103A900000000020203F2020000080808080808067
:103AA0008000203F20003F20003F808000808080F9
:103AB0000000203F210000203F2000008080808007
:103AC0000000001F202020201F0080800080800038
:103AD000000080FFA12020110E00000000808080E7
:103AE0008000000E112020A0FF8080808000808058
:103AF000800020203F212000010000008080808085
:103B000080000033242424241900008080E0808079
:103B100000000000001F20200000808000000080C6
:103B20008000001F202020103F2080808000008027
:103B3000808000010E300806010080800080008037
:103B400080800F300C030C300F00008080008080DC
:103B500080000020312E0E31200080808000008007
:103B6000808080818E7018060100008080808080B7
:103B700080000021302C2221300000000000807CD9
:103B8000020200000000003F404000000000FF0073
:103B9000000000000000FF0000000002027C800026
:103BA00000000040403F000000000006010102024A
:103BB000040400000000000000001060028C0000FF
:103BC000FE9292929292FE00000004047E01407EDA
:103BD00042427E427E42427E40000000FC24242479
:103BE000FC252624FC242424040040308F80844CAF
:103BF00055252525554C808080001060028C00FEE4
:103C0000929292929292FE00000004047E01444837
:103C1000507F40407F50484440000000FC24242452
:103C2000FC252624FC242424040040308F80844C6E
:103C300055252525554C80808000060909E6F80C9D
:103C4000040202020202041E0000000000071F30EE
:103C50002040404040402010000000006D79546139
:103C6000736B3031000000006D795461736B30323A
:103C7000000000005461736B5F4B45590000000069
:103C8000A03C00080000002088000000EC1D000897
:103C9000283D00088800002028140000FC1D0008B2
:103CA0000000000000000000000000000000000014
:103CB00000000000010000001000000000000000F3
:103CC0000024F400000000000000000000000000DC
:103CD00000000000000000000000000000000000E4
:103CE00000000000000000000000000000000000D4
:103CF00000000000000000000000000000000000C4
:103D000000000000000000000000000000000000B3
:103D1000000000000000000000000000AAAAAAAAFB
:083D200000000000000000009B
:0400000508000131BD
:00000001FF
