:020000040800F2
:10000000B0040020010100086B15000875140008F9
:100010006915000875050008951800080000000023
:100020000000000000000000000000004916000869
:1000300077050008000000006D1500084B16000849
:100040001B0100081B0100081B0100081B01000820
:100050001B0100081B0100081B0100081B01000810
:100060001B0100081B0100081B0100081B01000800
:100070001B0100081B0100081B0100081B010008F0
:100080001B0100081B0100081B0100081B010008E0
:100090001B0100081B0100081B0100081B010008D0
:1000A0001B0100081B0100081B0100081B010008C0
:1000B0001B0100081B0100081B0100081B010008B0
:1000C0001B0100081B0100081B0100081B010008A0
:1000D0001B010008891800081B0100081B0100080B
:1000E0001B0100081B0100081B010008DFF80CD0F1
:1000F00000F098F900480047D5180008B004002027
:100100000648804706480047FEE7FEE7FEE7FEE7B1
:10011000FEE7FEE7FEE7FEE7FEE7FEE7AD160008B6
:10012000ED000008202A04DB203A21FA02F0002129
:10013000704721FA02F3D040C2F1200291400843F7
:1001400019467047D2B201E000F8012B491EFBD2DC
:1001500070470022F6E710B513460A4604461946D2
:10016000FFF7F0FF204610BD2DE9FE4F81EA0304A2
:1001700004F0004421F0004100944FF0000B23F004
:10018000004350EA01045ED052EA03045BD0C3F39B
:100190000A54C1F30A552C44A4F2F3340194A0FB91
:1001A0000254C1F3130141F48011C3F3130343F468
:1001B000801301FB024400FB034E840A970A44EAC1
:1001C000815447EA8357A4FB076802958D0A05FB13
:1001D00007854FEA932C04FB0C542705029D4FEA38
:1001E000065847EA1637B5EB08056EEB070C870E85
:1001F000920E47EA811742EA8312A7FB0201B6EB8F
:100200000B0164EB00042B0D43EA0C335E1844EB46
:100210001C50DA465146E7FB0201C5F313044FEACE
:100220000B3343EA14534FEA0432019C43EA0603BA
:10023000A4F10C040294009CCDE900B400F0A3F8F2
:1002400003B0BDE8F08F00200146F9E72DE9F04D3D
:1002500081EA030404F0004B21F0004514464FF0FE
:10026000000A23F0004150EA050220D054EA0102BE
:100270001DD0C5F30A570246C5F31303C1F313009B
:10028000C1F30A5640F4801543F48013A7EB060827
:10029000101BD64608F2FD3873EB050002D308F1B7
:1002A000010801E092185B41B8F1000F03DA002069
:1002B0000146BDE8F08D00204FF4801106468446CB
:1002C0000EE0171B73EB050705D3121B63EB050349
:1002D00006434CEA010C49084FEA300092185B4192
:1002E00050EA0107EDD152EA030012D082EA04007D
:1002F00083EA0501084305D0101BAB4106D2012259
:10030000002306E000224FF0004302E06FF00102FC
:1003100053101AEB06004CEB085110EB0A0041EBAE
:100320000B01BDE8F04D00F01FB870B5C1F30A52E3
:1003300001F000450024C1F3130140F2FF3341F402
:1003400080119A4201DA002070BD40F233439A4294
:10035000A2F2334203DC5242FFF7E4FE00E0904099
:100360002C43F1D0404270BD10B5141E73F100044F
:1003700008DA401C41F1000192185B411A4301D197
:1003800020F0010010BD2DE9F04D92469B4611B1C1
:10039000B1FA81F202E0B0FA80F22032904600F029
:1003A00053F804460F4640EA0A0041EA0B0153465F
:1003B0005A46084313D0114653EA010019D0C8F138
:1003C00040025046FFF7AEFE05460E4650465946DF
:1003D000424600F039F8084305D0012004E02046E9
:1003E0003946BDE8F08D0020054346EAE0762C430F
:1003F00037430A986305E40AA0EB08000022FD0ACF
:1004000044EA47540A3002D500200146E9E70105D5
:1004100010196941DDE9084500196941BDE8F04D51
:10042000A2E70000064C074D06E0E06840F001033B
:1004300094E8070098471034AC42F6D3FFF75AFE11
:100440002C1900084C190008202A04DB203A00FA75
:1004500002F1002070479140C2F1200320FA03F31B
:1004600019439040704700002DE9F04786B01C46C4
:1004700092460022374BDDF83880FFF7E7FE4FF059
:100480008042354BFFF770FEFFF74FFFC0F30D05BD
:10049000C0F38D3731A04FF0FF39006802904E460F
:1004A0004B46022202A92E4800F06CFD2DA03346D7
:1004B00000680390022203A9294800F063FD48F474
:1004C0004040C0F30728C6B2BAF1000F03D0BAF11A
:1004D000010F05D029E045F4804047F4804503E052
:1004E00045F4004047F40045010A8DF800108DF8EE
:1004F00001004F464B4602226946194800F042FD72
:10050000280A8DF804008DF805503B46022201A907
:10051000134800F037FD8DF810808DF811603B46D0
:10052000022204A90E4800F02DFD7CB1022C0FD050
:10053000012C08D10CA04B460068009002226946AD
:10054000074800F01FFD06B0BDE8F08707A0F2E7FE
:1005500007A0F0E780842E41E17A644101000000A9
:1005600010000020210000002000000020020000F8
:1005700020280000FEE7704772B6FEE710B590F83D
:1005800021100022022905D00421816380F8202057
:10059000012010BD01680B6823F00E030B60016899
:1005A0000B6823F001030B6090F84030C46B01210D
:1005B00001FA03F3636080F8211080F820201046D0
:1005C00010BD000010B590F821100024022903D0BE
:1005D0000421816301243DE001680A6822F00E02D3
:1005E0000A6001680A6822F001020A601A4A01687A
:1005F000914201D1012121E0174A1432914201D1E7
:1006000010211BE0144A2832914201D1891515E0CE
:10061000114A3C32914201D189140FE00E4A503206
:10062000914202D14FF4803108E00B4A643291428A
:1006300002D14FF4801101E04FF08071064A083A70
:100640005160012180F82110002180F82010416BB9
:1006500001B18847204610BD080002402DE9F84F3F
:10066000DFF8B8910024A9F1040B23460F2709F104
:10067000040AABF1040EC9E00125A5402A40AA42B4
:100680007DD1674ED1F804C0ACEB0608B44532D03A
:1006900014DCBCF1030F3AD009DCBCF1000F2AD006
:1006A000BCF1010F1CD0BCF1020F31D11DE0BCF137
:1006B000110F17D0BCF1120F2AD119E0B8F5881F1D
:1006C00019D006DCB8F5803F15D0B8F5801F1FD1D2
:1006D00011E0B8F5001F0ED0B8F5041F18D10AE0DC
:1006E000CB6815E0CB681B1D12E0CB6808330FE028
:1006F000CB680C330CE08B682BB1012B4FF0080357
:1007000003D0456104E0042302E0056100E000231A
:10071000FF2A01D8064601E000F104064FEA8405ED
:1007200001D9A5F12005D6F8008007FA05FC28EAD2
:100730000C0803FA05F548EA0508C6F800804D687C
:10074000ED0062D5374DAE6946F00106AE61AD6988
:1007500024F0030605F001050095334D06EB050C6A
:10076000DCF80850A607360F07FA06F825EA080550
:10077000DFF8B880404503D14FF0000817E044E0AF
:10078000DFF8AC80404502D14FF001080FE0DFF800
:10079000A480404502D14FF0020808E0DFF89880BD
:1007A000404502D14FF0030801E04FF0040808FA79
:1007B00006F848EA0508CCF808804D68D9F80060CA
:1007C000ED024D4601D5164300E096432E604D687C
:1007D000DAF80060AD02554601D5164300E09643B5
:1007E0002E604D68DBF80060AD035D4601D5164311
:1007F00000E096432E604D68DEF80060ED0375461C
:1008000001D5164300E096432E60641C0D682A460D
:10081000E5407FF431AFBDE8F88F000008040140E7
:1008200000001110001002400000014000080140CB
:10083000000C014000100140001401400AB10161A8
:1008400070470904FBE7000001488068704700001A
:1008500000000020024881680278114481607047DE
:1008600000000020074810B5016841F01001016048
:10087000032000F075F80F2000F006F800F024F8CF
:10088000002010BD0020024070B50D4D04464FF40D
:100890007A712878B1FBF0F00A490968B1FBF0F0F1
:1008A00000F027FC48B9102C07D200222146501E28
:1008B00000F036F800206C6070BD012070BD0000B3
:1008C000000000200C0000200C4808B5816941F0B0
:1008D00001018161816901F001010091C16941F06B
:1008E0008051C161C06900F08050009004484168A7
:1008F00021F0E06141F00071416008BD001002404C
:1009000000000140002809DB00F01F020121914096
:100910004009800000F1E020C0F80011704700009D
:10092000F0B40E4B1B680C46C3F30223C3F107055A
:10093000042D00D90425191D072901D2002300E048
:10094000DB1E012606FA05F1491E214099409E4012
:10095000761E16403143F0BC00F09DBF0CED00E068
:10096000064900F0070208684FF6FF03184040EA06
:100970000220034A10430860704700000CED00E0BD
:100980000000FA052DE9F0470F46050061D0434EFF
:10099000306800F00700B84209D2306820F0070044
:1009A00038433060306800F00700B84251D1286801
:1009B0003B4C810712D5400703D5606840F4E060E6
:1009C00060602878000703D5606840F4605060607C
:1009D0006068A96820F0F000084360602878C007CC
:1009E00028D06868012810D02168022810D0890713
:1009F00000292EDA616821F0030101436160FFF7ED
:100A000023FF804641F288390DE021688903EFE732
:100A10008901EDE7FFF718FFA0EB0801494502D96E
:100A20000320BDE8F0876068696800F00C00B0EB57
:100A3000810FEFD1306800F00700B8420BD9306861
:100A400020F0070038433060306800F00700B842FB
:100A500001D00120E5E72878400705D56068E968FE
:100A600020F4E060084360602878000706D56068DD
:100A7000296920F4605040EAC100606000F038F855
:100A80006168084AC1F30311515CC8400649086017
:100A900006480068FFF7F8FE0020C2E70020024089
:100AA00000100240121900080C0000200400002071
:100AB0000448054900684968044AC1F30221515CB1
:100AC000C84070470C0000200010024022190008A6
:100AD0000448054900684968044AC1F3C221515CD1
:100AE000C84070470C000020001002402219000886
:100AF0000E4A51680E4801F00C03042B11D0082B4C
:100B00000FD10C48C1F38343C903C05C0AD55168B7
:100B1000084AC1F34041921E515C054A5043B0FB64
:100B2000F1F070470449484370470000001002404C
:100B300000127A000219000800093D002DE9F84F63
:100B4000040070D02078C04DC00749D06868C0F359
:100B50008100012807D06868C0F38100022809D10C
:100B60006868C00306D52868800339D56068002806
:100B7000E7D035E06068B0F5803F0BD010B1B0F53C
:100B8000A02F11D0286820F480302860286820F435
:100B9000802002E0286840F480302860606890B1CE
:100BA000FFF752FE06460AE0286840F480202860DD
:100BB000F0E700BFFFF748FE801B642873D8286861
:100BC0008003F7D50CE0FFF73FFE064605E000BFC7
:100BD000FFF73AFE801B6428F0D828688003F7D41A
:100BE00020789A4E80074FF001094FF0000839D560
:100BF000686810F00C0F07D06868C0F38100022805
:100C000009D16868C00306D42868800714D5206914
:100C1000012808D110E02069B0B1C6F80090FFF7B4
:100C200013FE074605E00AE1FFF70EFEC01B02288F
:100C3000C4D828688007F7D52868616920F0F800D3
:100C400040EAC10028600DE0C6F80080FFF7FCFD17
:100C5000074604E0FFF7F8FDC01B022823D82868E8
:100C60008007F7D4207800072CD57948A169D9B13D
:100C7000C0F80090FFF7E8FD074604E0FFF7E4FD49
:100C8000C01B02280FD8686A8007F7D571484FF457
:100C9000FA510068B0FBF1F0009000BF0098411ECF
:100CA0000091FAD20EE080E0C0F80080FFF7CCFDA2
:100CB000074604E0FFF7C8FDC01B022875D8686A24
:100CC0008007F7D42078400760D5E8690027C00086
:100CD00008D4E86940F08050E861E869012700F035
:100CE000805000905C480168C90513D401688346B0
:100CF00041F480710160FFF7A7FD824606E000BF66
:100D0000FFF7A2FDA0EB0A0064284ED8DBF8000034
:100D1000C005F5D5E06801280AD008B1052813D030
:100D2000286A20F001002862286A20F0040002E00E
:100D3000286A40F001002862E06841F2883B98B1DF
:100D4000FFF782FD82460BE0286A40F0040028622B
:100D5000EEE700BFFFF778FDA0EB0A0159455AD82E
:100D6000286A8007F6D50CE0FFF76EFD824605E0A5
:100D7000FFF76AFDA0EB0A0159454CD8286A8007A5
:100D8000F6D41FB1E86920F08050E861E06988B3CB
:100D90006968C1F38101022944D00228C6F8608045
:100DA00004D0FFF751FD044638E034E0FFF74CFD76
:100DB000074604E0FFF748FDC01B02282BD828682F
:100DC0008001F7D4206AB0F5803F05D16868A1683A
:100DD00020F4003008436860D4E9080108436968DA
:100DE00021F4741108436860C6F86090FFF72CFD89
:100DF000044606E025E000BFFFF726FD001B0228A1
:100E000009D828688001F7D51BE000BFFFF71CFD5B
:100E1000001B022802D90320BDE8F88F2868800152
:100E2000F4D40EE00128F7D06868226A00F480311B
:100E3000914204D1616A00F47010884201D001200F
:100E4000EAE70020E8E7000000100240000042420C
:100E5000800442420C0000200070004070B5040085
:100E600009D0606A002540B125616561A56294F8EA
:100E7000510040B10CE0012070BD6068B0F5827F88
:100E8000F4D0E561F2E784F85050204600F040F8D5
:100E9000022084F851002068016821F040010160BF
:100EA000A088218900F4827001F404410843A189DB
:100EB00001F400610843217C01F002010843217D17
:100EC00001F001010843218B01F400710843217FE7
:100ED00001F03801084394F8201001F08001084324
:100EE000218D01F40051084321680860A0690421A4
:100EF00001EA1040216848602068C16921F400615E
:100F0000C1616565012084F85100002070BD0000BA
:100F100030B585B0002400940194029403940068D5
:100F20001549884225D11548C16941F48041C16104
:100F3000C16901F480410491816941F00801816136
:100F400080690F4D00F0080004904FF4204000909D
:100F5000022001900320039069462846FFF77EFB9C
:100F60004FF48040CDE90004694628460294FFF71B
:100F700075FB05B030BD0000003800400010024095
:100F8000000C01402DE9F84F044690F8500000266F
:100F9000984615468A4601280CD0012784F85070DF
:100FA000FFF752FC814694F85100B346012804D063
:100FB00002269AE00220BDE8F88FBAF1000F6FD048
:100FC000002D6DD0032084F85100C4F854B0C4F84B
:100FD00030A0A586E586C4F838B0A4F83CB0A4F8E3
:100FE0003EB0C4F844B0C4F840B0A068B0F5004FBB
:100FF00009D12068016821F0400101602068016882
:1010000041F48041016020680168490603D4016809
:1010100041F040010160E068B0F5006F606803D006
:1010200058B3012D29D049E008B1012D1FD1206B03
:1010300021680088C86006E020688168890709D5B2
:10104000216B0988C160206B801C2063E08E401EEC
:10105000E0860CE0FFF7F8FBA0EB0901414503D364
:10106000B8F1FF3F03D006E0B8F1000F03D0E08EE7
:101070000028E1D125E0032635E0206B21680078C7
:10108000087306E02068816889070AD5216B097812
:101090000173206B401C2063E08E401EE0860DE053
:1010A0001FE0FFF7D1FBA0EB0901414503D3B8F1E5
:1010B000FF3F03D0DFE7B8F1000FDCD0E08E00285F
:1010C000E0D14A464146204600F051FA08B12020BE
:1010D0006065A06818B92068C16880680090606D7C
:1010E00008B1012601E084F8517084F850B0304610
:1010F00061E710B5401EB0F1807F01D3012010BD23
:101100004FF0E02460610F21601700F0C4FB002065
:10111000A06107202061002010BD704770470000CB
:10112000F8B5016804460868CA684B6910F00F0FEB
:101130004FF0000559D003F0010602F490773743D1
:1011400065D0C10705D0D10503D5616C41F001011F
:101150006164410705D5D90703D0616C41F00201F4
:101160006164810705D5D90703D0616C41F00401A2
:101170006164010707D502F02001314303D0616C9F
:1011800041F008016164616C00293AD0800604D501
:10119000900602D5204600F0B9FA20684069616CDB
:1011A000C0F38010090700D460B3204600F087FA2E
:1011B00020684069400621D52068143050E8001F9F
:1011C00021F0400140E80012002AF5D1E06BA8B1FF
:1011D0006D494163E06BFFF7F5F9002811D0E06B32
:1011E000416B01B0BDE8F040084783060FD5930678
:1011F0000DD52046BDE8F84000F088BA2046FFF73C
:101200008DFFF8BD2046FFF789FF6564F8BD266BAA
:101210002023012E7CD1C6067AD5D60678D508685B
:101220004868009048694FF00206400640D5E16BDF
:10123000086840680004000CE8D0A28D8242E5D91D
:10124000E085886920282DD020680C3050E8001FE8
:1012500021F4807140E80012002AF5D12068143092
:1012600050E8001F21F0010140E80012002AF5D1EA
:101270002068143050E8001F21F0400140E80012BF
:10128000002AF5D184F84230256320680C3050E8FC
:10129000001F21F0100140E80012002AF5D1E06B98
:1012A000FFF76CF96663A08DE18D401A81B22AE0E8
:1012B000A08DE18D401A81B2E08D0028A6D00029D2
:1012C000A4D022680C3252E8000F20F4907042E85B
:1012D0000007002FF5D12068143050E8002F22F0CD
:1012E000010240E80027002FF5D184F84230256341
:1012F00020680C3050E8002F22F0100240E8002354
:10130000002BF5D166632046FFF707FFF8BDFFE726
:1013100005062BD5150629D594F841002128F5D1CD
:10132000A068B0F5805F01D12069B0B1206A411C8E
:101330002162216800784860E08C401E0004000CA7
:10134000E084E3D12068C16821F08001C160206899
:10135000C16841F04001C160D8E7206A0088C0F34D
:1013600008004860206A801C2062E5E74006CDD571
:101370005006CBD5CA68204622F04002CA6084F8E5
:10138000413000F076F8C1E7AF16000870B50400F0
:1013900004D094F84100002510B106E0012070BD92
:1013A00084F84050204600F023F8242084F84100BF
:1013B0002068C16821F40051C160204600F008FA9D
:1013C0002068016921F4904101612068416921F0A0
:1013D0002A0141612068C16841F40051C16065641F
:1013E000202084F8410084F842006563002070BD2D
:1013F00030B585B0002400940194029403940068F1
:10140000184988422CD11848816941F48041816192
:10141000816901F480410491816941F00401816195
:101420008069124D00F0040004904FF400700090A9
:10143000022001900320039069462846FFF70EF929
:101440002815CDE90004694628460294FFF706F9FD
:10145000002211462520FFF763FA2520FFF752FAF4
:1014600005B030BD003801400010024000080140C6
:1014700070477047FEE7000070B586B0002418483A
:101480000094019402940394816941F020018161E8
:10149000816901F020010491816941F008018161B5
:1014A000816901F008010491816941F004018161C1
:1014B00080690C4E00F004004FF480750490002207
:1014C00029463046FFF7BAF901200095CDE901041D
:1014D0000220039069463046FFF7C0F806B070BDA1
:1014E0000010024000080140104810B50E4901608C
:1014F0004FF482714160002102228160C0E9031231
:101500001202C0E905121822C0E907214162816276
:101510000A21C162FFF7A2FC002803D0BDE81040F9
:10152000FFF72AB810BD000000380040100000206E
:101530000C4810B50A4901604FF4E13141600021C7
:1015400081600C22C160C0E904128161C161FFF7B2
:101550001DFF002803D0BDE81040FFF70DB810BDF7
:101560000038014068000020FEE7FEE7704738B50C
:101570000B46009204460022802100F009F8002862
:1015800004D0606D40F020006065032038BD00008D
:101590002DE9F8431E46914688460446089DFFF70C
:1015A00053F9401B351AFFF74FF9074625480068E5
:1015B000C0F3CB30684338E0701C37D0FFF744F9F4
:1015C000C01BA84203D215B1009860B32CE020687C
:1015D000416821F0E00141606068B0F5827F0BD185
:1015E000A068B0F5004F02D0B0F5806F04D120683C
:1015F000016821F040010160A06AB0F5005F09D1E7
:101600002068016821F4005101602068016841F4FC
:1016100000510160012084F85100002084F850003E
:101620000320BDE8F8830025401E009020688168F3
:1016300038EA010004D000214945BDD10020F0E77F
:101640000121F9E70C0000207047FFF703B930B51E
:101650008FB028216846FEF77CFD14210AA8FEF70A
:1016600078FD01210804CDE9001000240294022530
:101670000491CDE907504FF4E01009906846FFF758
:101680005DFA08B172B6FEE70F20CDE90A054FF406
:101690008060CDE90C4002210AA80E94FFF772F990
:1016A000002801D072B6FEE70FB030BD704710B50C
:1016B000406A0021C185C184FFF730FD10BD01687B
:1016C0000C3151E8002F22F4907241E80023002BE6
:1016D000F5D10168143151E8002F22F0010241E8F0
:1016E0000023002BF5D1016B012909D101680C31D0
:1016F00051E8002F22F0100241E80023002BF5D121
:10170000202180F8421000210163704708B590F84D
:101710004210222901D0022008BD82684FF4805374
:101720009A4201D1016921B1816A9A421BD04AB122
:101730000AE00268816A5268C2F308020A80816A7C
:10174000891C08E0026972B10268526802F07F02E7
:101750000A70816A491C8162C18D491E0904090C05
:10176000C18503D01BE002685268F1E70168CA68CE
:1017700022F02002CA600168CA6822F48072CA603E
:1017800001684A6922F001024A61202180F8421072
:1017900000214163026B012A03D0FFF769FE00209C
:1017A00008BD016301680C3151E8002F22F01002DE
:1017B00041E80023002BF5D101680A68D20602D562
:1017C0000A6849680091818DFFF7A7FCE7E70000F0
:1017D00070B5044600680169E26821F44051114384
:1017E00001612169A0680843616908432168CA68EA
:1017F00041F20C639A430243CA6020684169A269BE
:1018000021F44071114341611E492068884202D190
:10181000FFF75EF901E0FFF74BF900EBC00101EBC8
:101820000012606864218000B2FBF0F3B3FBF1F3B7
:101830006FF018067343B2FBF0F5B2FBF0F605EB60
:101840008305322303EB0515B5FBF1F5B6FBF1F685
:1018500005F0F00505EB0615B2FBF0F6B2FBF0F073
:10186000B0FBF1F06FF01802504306EB800003EB81
:101870000010B0FBF1F0216800F00F0028448860F0
:1018800070BD0000003801400148FFF749BC00006E
:1018900068000020FEE70907090E002804DB00F1BC
:1018A000E02080F80014704700F00F0000F1E02005
:1018B00080F8141D704702E008C8121F08C1002AF2
:1018C000FAD170477047002001E001C1121F002AC1
:1018D000FBD1704708B5FEF7C5FFFFF7B8FEFFF76D
:1018E000CBFDFFF701FEFFF723FE00200123024698
:1018F00002490090FEF7B8FDFEE7000000005940E5
:10190000010202030405060708090A0B0C0D0E0F5D
:101910001010000000000000000001020304060790
:101920000809000000000102030400004C1900082F
:101930000000002010000000B61800085C19000824
:1019400010000020A0040000C618000801000000DC
:0C19500010000000000000000024F40063
:04000005080000ED02
:00000001FF
