:020000040800F2
:10000000E8390020DD010008373F00089735000877
:10001000353F000861130008255200080000000069
:100020000000000000000000000000004501000882
:10003000E51300080000000089010008054C0008D5
:10004000F7010008F7010008F7010008F7010008B0
:10005000F7010008F7010008F7010008F7010008A0
:10006000F7010008F7010008F7010008F701000890
:10007000F7010008F7010008F7010008F701000880
:10008000F7010008F7010008F7010008F701000870
:10009000F7010008F7010008F7010008F701000860
:1000A000F7010008F7010008F7010008F701000850
:1000B000914C00089D4C0008A94C0008F70100086D
:1000C000F7010008F7010008F7010008F701000830
:1000D000F70100080D52000819520008F701000846
:1000E000F7010008F7010008F7010008F701000810
:1000F000D94C0008CD4C0008F7010008F7010008B2
:10010000F7010008F7010008F7010008F7010008EF
:10011000F7010008F7010008B54C0008C14C0008C1
:10012000F7010008F7010008F7010008F7010008CF
:10013000DFF80CD000F0B6FE004800473968000830
:10014000E8390020224B19680868B0E8F00F80F306
:100150000988BFF36F8F4FF0000080F311884EF0D5
:100160000D0E70470000000006480068006880F32C
:10017000088862B661B6BFF34F8FBFF36F8F00DFA1
:1001800000BF00BF08ED00E0EFF30980BFF36F8F01
:100190000F4B1A6820E9F00F106008B54FF05000BF
:1001A00080F31188BFF34F8FBFF36F8F07F02EFEE0
:1001B0004FF0000080F31188BDE808401968086816
:1001C000B0E8F00F80F30988BFF36F8F704700BF6E
:1001D00084000020EFF30580704700000648804748
:1001E00006480047FEE7FEE7FEE7FEE7FEE7FEE71C
:1001F000FEE7FEE7FEE7FEE78F4C0008310100084E
:10020000202A04DB203A21FA02F00021704721FA6B
:1002100002F3D040C2F120029140084319467047D2
:1002200040EA01039B0703D009E008C9121F08C078
:10023000042AFAD203E011F8013B00F8013B521EF8
:10024000F9D27047D2B201E000F8012B491EFBD26F
:1002500070470022F6E710B513460A4604461946D1
:10026000FFF7F0FF204610BDCAB2401E10F8011F74
:100270008A4202D00029F9D100207047421C10F8B0
:10028000011B0029FBD1801A7047000070B50F4D8B
:1002900000B92868002412E00A4602E09E4203D01A
:1002A000521C1378002BF9D1DAB2224305D02BB1BE
:1002B00024B1002100F8011B04E00446401C06782C
:1002C000002EE9D12860204670BD000040010020CA
:1002D0000FB400B58DB010A909900B9000914FF0AC
:1002E000FF300A9000200C900548069005480790C2
:1002F0006A4609A80F9900F059FC0DB05DF814FB8F
:10030000C90B0008E70B00082DE9FF5F1D464FF001
:10031000FF3BD5E9014691465F464FF00008A969C9
:100320007F1C01988847296A824688470028F6D1B1
:10033000BAF1FF3F0CD024F4C064002E19DD600632
:1003400014D5BAF12B0F09D0BAF12D0F0ED103E05D
:10035000584604B0BDE8F09F44F48064A9697F1C4E
:1003600001988847761E8246002E02DDBAF1300FD2
:1003700003D0B9F1000F26D032E0A969761E44F40B
:1003800000747F1C019888478246002E05DDBAF173
:10039000780F06D0BAF1580F03D0B9F1000F10D082
:1003A0001EE0B9F1000F02D0B9F1100F18D1A96900
:1003B000761E24F400747F1C019888478246102022
:1003C00002E0082000E00A20814609E008FB090855
:1003D000A969761E44F400747F1C01988847824600
:1003E000002E05DD4946504600F0CCFB0028EDDA32
:1003F000E96901988847A00502D46FF00100A8E7D9
:10040000E00725D1600613D5600502D5C8F10000CC
:1004100000E0404629680A1D2A600968220501D5C6
:10042000087015E0220701D5088011E008600FE090
:100430002868011D29600068210502D580F8008028
:1004400006E0210702D5A0F8008001E0C0F8008096
:1004500038467EE770B5064604F0B4FF04680546EA
:100460000A220021304600F0CFFB2C6070BDF0B4B2
:1004700080EA0102D40F4200B2EB410F02D20246E1
:10048000084611464A0042D0C30DDDB2C1F3C7523F
:10049000AD1A202D35DAC1F3160141F4000204B182
:1004A0005242C5F1200602FA06F12A411044B3EB8C
:1004B000D05F23D0C4B1012DA0EBC35009DCF0BC48
:1004C0004FF0004202EAC352DBB200F5000000F038
:1004D000DCBB400000F1807000EBC350A0F18070E5
:1004E00040EAD170490009E0490841EAC071A0EB37
:1004F000C35000F50000400800EBC350F0BC00F012
:10050000BBBB6142012202EB4101001BF6E7F0BCDC
:10051000704781F00041AAE780F00040A7E780EA39
:10052000010210B502F00043400022D04A001FD063
:10053000010E01EB1261C0F35600C2F3560240F403
:10054000000042F40002A0FB022000047F391404E2
:1005500000D0401C50EA124001D44000491EC2B2F3
:100560000C0604EBD010401C4008802A02D003E0A7
:10057000002010BD20F00100002900DA00201843FF
:1005800010BD30B480EA010202F0004530F00042B4
:1005900021F0004013D090B1C30DD40DC2F3160169
:1005A000C0F31600E41A41F4000140F400027D3467
:1005B000914201D3641C00E04900002C02DA30BCF7
:1005C000002070474FF400000023914201D3891AA4
:1005D000034340084FEA4101F7D151B1914202D1A2
:1005E0004FF0004105E002D24FF0010101E06FF051
:1005F000010103EBC450284430BC00F03DBB2DE9A1
:10060000FE4F804681EA0300C00F0C46009021F0A7
:10061000004123F00045B8EB0200A94105D2404655
:10062000214690461C460B46024623F000401043EC
:1006300047D0270DC7F30A00C3F30A510290401AAE
:10064000019040286BDAC3F3130040F4801B00983C
:10065000924620B10023D2EB030A63EB0B0B019807
:100660005946C0F14002504600F06BFA06460D466E
:1006700050465946019A00F073FA10EB08006141A8
:10068000002487EA115284EAE7731A4340D0009AA3
:1006900062B3019A012A4FEA075215DC001B61EB95
:1006A00002014FF0004202EA0752CDE90042001C6D
:1006B00041F5801132462B4600F024FB03B0BDE823
:1006C000F08F40462146F9E7001B61EB0201001C58
:1006D00041F5801300185B412018A2F5001747EB85
:1006E000030140EAD570B6196D4111E06D084FEA7B
:1006F000360645EAC0754FEA0752001B61EB02015E
:10070000001C41F5801149084FEA300000195141A1
:1007100032462B4603B0BDE8F04F00F0E4BA009833
:10072000012240000023D0EB020263EBE07300984B
:1007300021464FEAE074B8EB000061EB0401E9E701
:1007400083F000435BE781F0004158E72DE9FE4F5D
:1007500081EA030404F0004421F0004100944FF0CA
:10076000000B23F0004350EA01045ED052EA030478
:100770005BD0C3F30A54C1F30A552C44A4F2F334FA
:100780000194A0FB0254C1F3130141F48011C3F39F
:10079000130343F4801301FB024400FB034E840A5D
:1007A000970A44EA815447EA8357A4FB07680295F5
:1007B0008D0A05FB07854FEA932C04FB0C54270593
:1007C000029D4FEA065847EA1637B5EB08056EEB6F
:1007D000070C870E920E47EA811742EA8312A7FBA5
:1007E0000201B6EB0B0164EB00042B0D43EA0C3362
:1007F0005E1844EB1C50DA465146E7FB0201C5F394
:1008000013044FEA0B3343EA14534FEA0432019CBA
:1008100043EA0603A4F10C040294009CCDE900B461
:1008200000F070FA03B0BDE8F08F00200146F9E750
:100830002DE9F04D81EA030404F0004B21F000455E
:1008400014464FF0000A23F0004150EA050220D080
:1008500054EA01021DD0C5F30A570246C5F313033B
:10086000C1F31300C1F30A5640F4801543F480131A
:10087000A7EB0608101BD64608F2FD3873EB0500FF
:1008800002D308F1010801E092185B41B8F1000FB2
:1008900003DA00200146BDE8F08D00204FF48011FE
:1008A000064684460EE0171B73EB050705D3121BA3
:1008B00063EB050306434CEA010C49084FEA30009C
:1008C00092185B4150EA0107EDD152EA030012D0C1
:1008D00082EA040083EA0501084305D0101BAB41FE
:1008E00006D20122002306E000224FF0004302E07E
:1008F0006FF0010253101AEB06004CEB085110EB9D
:100900000A0041EB0B01BDE8F04D00F0ECB970B509
:1009100021F0004303430CD0C1F30A550024D5EB6A
:10092000040564EB0403D617AD1AB34102DB0020C3
:10093000014670BD201841EB025170BDC10F80EA25
:10094000E0700844CA079623002100F09EB90EB556
:10095000C10F80EAE0700844CA07002140F2334327
:100960008DE80E000A460B4600F0CCF903B000BD3E
:100970000EB540F2334102910021CDE900110A4643
:100980000B4600F0BFF903B000BD00F0004220F0BC
:100990000040C10DC0F3160040F400007F2901DAC9
:1009A00000207047962903DCC1F19601C84001E0A0
:1009B00096398840002AF4D04042704770B5C1F3A0
:1009C0000A5201F000450024C1F3130140F2FF3345
:1009D00041F480119A4201DA002070BD40F23343A5
:1009E0009A42A2F2334203DC5242FFF709FC00E0D4
:1009F00090402C43F1D0404270BDC1F30A5210B573
:100A0000C1F3130140F2FF3341F480119A4201DA3D
:100A1000002010BD40F233439A42A2F2334203DC7D
:100A20005242FFF7EDFB10BD904010BD00F00042B8
:100A300030F000400AD0C10D01F56071C0F316001E
:100A400042EA0151C20840071143704700200146A5
:100A5000704701F0004330B421F0004150EA010238
:100A600006D00A0DA2F56072C1F31301002A02DC60
:100A700030BC00207047440F44EAC104C100E018B4
:100A800030BC00EBC25000F0F7B80000002801DBDA
:100A9000C0F10040002901DBC1F1004181427047F3
:100AA000002801DBC0F10040002901DBC1F1004159
:100AB0008842704730B50B460146002020220124B1
:100AC00009E021FA02F59D4205D303FA02F5491B1C
:100AD00004FA02F52844151EA2F10102F1DC30BD32
:100AE0002DE9F05F0546002092469B468846064663
:100AF000814640241BE02846414647462246FFF7F0
:100B00007FFB53465A46C01A914110D311461846EE
:100B1000224600F016F82D1A67EB01084F462246D0
:100B20000120002100F00DF817EB00094E41201EB6
:100B3000A4F10104DFDC484631462A464346BDE8BD
:100B4000F09F202A04DB203A00FA02F100207047CF
:100B50009140C2F1200320FA03F3194390407047FB
:100B6000202A06DBCB17203A41FA02F043EAE07371
:100B700006E041FA02F3D040C2F12002914008435E
:100B8000194670473A2800D2303820F02002412A16
:100B900001D3A2F13700884201D34FF0FF307047F4
:100BA000026811441378016018467047D160044907
:100BB00051610449116200211161114600F092B99E
:100BC000A10B0008D10E0008426842B1016811F87B
:100BD000013B23B1521EC0E90012184670470121A3
:100BE000C160881E704742685AB1C368016843B942
:100BF00083688B4205D0491E521CC0E900120020B8
:100C000070474FF0FF3070472DE9F04791460F468F
:100C100080460446002614F8015B2DB100F054F91B
:100C20000068405DC007F6D12B2D02D02D2D18D0C5
:100C3000641E4A463946204600F0EAFA27B1396870
:100C4000A14201D1C7F8008071054FF002040BD515
:100C50004042002803DD04F0B5FB0460A007BDE8B6
:100C6000F08746F48066E4E70028F8DA04F0AAFB8F
:100C700004606FF00040F2E70029A8BF7047401CF5
:100C8000490008BF20F00100704710B4B0FA80FCA2
:100C900000FA0CF050EA010404BF10BC704749B1DF
:100CA000CCF1200421FA04F411FA0CF118BF01214F
:100CB00021430843A3EB0C01CB1D4FEA00614FEA2F
:100CC000102042BF002010BC704700EBC3501044FE
:100CD0000029A4BF10BC7047401C490008BF20F089
:100CE000010010BC704710B5141E73F1000408DA3F
:100CF000401C41F1000192185B411A4301D120F0E0
:100D0000010010BD2DE9F04D92469B4611B1B1FA9C
:100D100081F202E0B0FA80F220329046FFF711FF34
:100D200004460F4640EA0A0041EA0B0153465A4680
:100D3000084313D0114653EA010019D0C8F140020C
:100D40005046FFF75DFA05460E4650465946424664
:100D5000FFF7F7FE084305D0012004E0204639469E
:100D6000BDE8F08D0020054346EAE0762C4337438A
:100D70000A986305E40AA0EB08000022FD0A44EA91
:100D800047540A3002D500200146E9E70105101951
:100D90006941DDE9084500196941BDE8F04DA2E768
:100DA0002DE9F04D00231A461B1A8A4103DB00206F
:100DB0000146BDE8F08DC1F30A52C1F3130141F4BD
:100DC00080154FF0000BD10702D100186D41521E63
:100DD0000027044640F2FF11384601EB620A3E4606
:100DE0008046024600204FF48011FFF709FAC2192D
:100DF0007141BB1846EB0100B4EB030C75EB000C22
:100E000004D3E41A65EB000517460E46241908F1D1
:100E100001006D4180463428E3DDF91946EB0600F8
:100E2000091BA84103D24FF0FF32134601E0002214
:100E300013461BEB070046EB0A51BDE8F04DFFF7E8
:100E400052BFC1F30A52C1F3130140F2FF3341F420
:100E500080119A4202DA00200146704740F2334383
:100E60009A42A2F2334202DC5242FFF7C9B9FFF7BD
:100E700068BE000030B5041E71F1000404DB4FF0C1
:100E80000044404264EB0101141E73F1000405DBD1
:100E90001C464FF00043524263EB0403994208BFE3
:100EA000904230BD064C074D06E0E06840F001037B
:100EB00094E8070098471034AC42F6D3FFF73CF9AA
:100EC0001C9800083C98000800487047CC97000820
:100ED00010B50446FFF7F8FF0068005D00F0010060
:100EE00010BD00002DE9F34F8BB04FF0000801F169
:100EF0000C000C464FF0010B46460DF1080A01901C
:100F00006269012101989047051E2DD0252D2CD016
:100F1000216A8847C0B16269012101989047216A1E
:100F200088470028F7D1411E62690198904700E088
:100F3000761CA1690B988847216A88470028F7D159
:100F4000E1690B988847DBE7A1690B98884707465A
:100F5000A84201D1761CD3E7E1690B9888477F1C32
:100F600002D1B8F1000F6FD046E1002762693D461B
:100F70003946019890472A2804D1626901210198D5
:100F800090470125DFF8849262690121019890471A
:100F9000A0F130010A290AD24F45E5DC07EB8701B1
:100FA00000EB4107303FDFD445F01005ECE7E906E0
:100FB00001D46FF000476C280AD04C2814D0682860
:100FC00015D06A280DD074281CD07A281AD01DE0BC
:100FD00062690121019890476C2802D045F0040510
:100FE00014E045F002050DE045F020050AE06269D5
:100FF000012101989047682802D045F0080505E0D6
:1010000045F400656269012101989047C4E90157E0
:1010100065283DD019DC58287AD00CDC452837D01B
:1010200004DC252826D0412831D131E046282FD0B4
:1010300047282CD12CE05B2877D0612828D0632862
:101040007CD0642823D15AE0D0E06F2848D008DC57
:1010500066281DD067281BD0692821D06E2816D19C
:1010600027E0702845D0732868D0752847D07828A5
:101070000DD14DE0A1690B988847054625283FF41E
:1010800069AFE1690B9888476D1C3FF46AAFB3E024
:1010900023466A466FF001000B99AFF300809EE093
:1010A00045F040006060A80723464FF0000236D4A8
:1010B0003EE0E8077FF447AF2068011D216000682B
:1010C000290501D506701BE7290701D5068017E71A
:1010D000A90703D5F117C0E9006111E706600FE722
:1010E00045F040006060A80723464FF0080216D480
:1010F0001EE040F60E0125EA0100606016E045F0B2
:1011000040006060A80723464FF00A0207D40FE0B2
:1011100045F040006060A80708D5234610226FF014
:1011200001000B99AFF3008059E007E0234610223D
:101130006FF001000B99FFF7E7F850E04FF000095E
:101140004F464B46632802D05B2806D040E0E806B5
:1011500001D40120A06001273AE0626901210198D1
:1011600090475E2805D14FF0010962694946019810
:101170009047216939B900210A46534643F8212096
:10118000491C0829FADBB0B3216969B9C11700EB22
:10119000D16253110AEB830122F01F02821A01204F
:1011A0000B68904003430B606269012101989047EE
:1011B0005D28E8D1B9F1000F09D00020514651F85F
:1011C0002020D24341F82020401C0828F7DB02AB46
:1011D000224600976FF001000B99AFF300800028C2
:1011E0000CDA401C08D1BBF1000F05D04FF0FF30E6
:1011F0000DB0BDE8F08FFFE74046F9E7E90701D100
:1012000008F1010806444FF0000B79E6CCCCCC0C79
:101210002DE9F05F82460078002715468B460AF1DB
:101220000104B946302801D09DB113E014F8010B38
:101230000127782803D0582801D045B10AE00DB124
:10124000102D07D10027102514F8010B02E0082506
:1012500000E00A250026B0460EE005FB080005FB6D
:1012600006F1012701EB10461FFA80F8B6F5803F22
:1012700000D3B94614F8010B2946FFF783FC002878
:10128000EBDABBF1000F05D00FB1641E00E054464D
:10129000CBF80040B9F1000F06D004F093F802211A
:1012A0000160C81EBDE8F09F48EA0640FAE770B545
:1012B0008C1810F8015B15F0070301D110F8013B01
:1012C0002A1106D110F8012B03E010F8016B01F888
:1012D000016B5B1EF9D12B0705D40023521E0DD4E0
:1012E00001F8013BFAE710F8013BCB1A921C03E02E
:1012F00013F8015B01F8015B521EF9D5A142D8D366
:10130000002070BD70B5154E00230820F47801222E
:1013100006F10901401E02FA00F52540C540CD54F2
:101320005B1CDBB210F0FF00F4D134790820401EC2
:1013300002FA00F52540C540CD545B1CDBB210F02D
:10134000FF00F4D103460C5C012C05D00A54401C6C
:10135000C0B21028F7D370BD0B54F8E774350020E5
:10136000FEE7000010B50A4800230A4A0370FF2474
:1013700003E003290AD0042908D0017853540178E6
:10138000491CC9B201700929F3D310BD5454F6E7C2
:1013900000010020743500200E490F488A88E73A82
:1013A0000260B2F5FA7F02DB40F20D120260CA88D9
:1013B000A2F53E72426012F5FA7F01DC074A4260F4
:1013C0000A88A2F5FA7282604988A1F5FA71C160B3
:1013D000704700000601002090350020FCFEFFFF52
:1013E00003F012B8704772B6FEE710B503F0AEF81E
:1013F00000F006F8FFF786FFBDE81040FFF7B2BF28
:1014000070B505200C4B0D49FF254FF4FA761A5C98
:101410004FF47A746243B2FBF5F201EB400492B2EE
:1014200024F80A2CA2F5F972052A01D224F80A6CD4
:10143000401C0928EBDB70BD74350020060100203C
:1014400010B590F821100022022905D004218163F3
:1014500080F82020012010BD01680B6823F00E03E6
:101460000B6001680B6823F001030B6090F84030BB
:10147000C46B012101FA03F3636080F8211080F846
:101480002020104610BD00002DE9F05F90F82110DB
:101490000024022903D004218163012485E001682E
:1014A0000A6822F00E020A6001680A6822F001024E
:1014B0000A603F4E3E4FB215DFF8F4C0DFF8F090FF
:1014C000DFF8ECA0DFF8E8B0DFF8E4E00168783F8F
:1014D00013011502ACF1640CA9F15009AAF13C0A00
:1014E000ABF1280BAEF1140E4FF48018B14227D99E
:1014F000B9420ED0614512D049451DD0514518D092
:10150000594518D0714501D1424615E0294EB142E6
:1015100001D1012210E0274E1436B14201D1102230
:101520000AE0244E2836B14206D0224A3C3291428B
:1015300001D11A4600E02A461E49091F0A602BE025
:10154000B94213D0614517D0494522D051451DD02D
:1015500059451DD0714501D142461AE0B14202D130
:101560004FF0807215E0134EB14201D1012210E01C
:10157000104E1436B14201D110220AE00D4E283629
:10158000B14206D00B4A3C32914201D11A4600E0EA
:101590002A46074980394A60012180F8211000213C
:1015A00080F82010416B01B188472046BDE8F09FCC
:1015B000800002400804024070B5044600F014F9AF
:1015C0000546601C02D004480078044400F00CF981
:1015D000401BA042FAD370BD740000202DE9F84FE3
:1015E000DFF8C8910024A9F1040B23460F2709F165
:1015F000040AABF1040ED1E00125A54006EA05027C
:10160000AA4276D1DFF8A8C14E68A6EB0C08664561
:101610002BD00DDC032E34D005DC36B3012E19D0CF
:10162000022E2FD11BE0112E16D0122E2AD119E036
:10163000B8F5881F19D006DCB8F5803F15D0B8F58D
:10164000801F1FD111E0B8F5001F0ED0B8F5041FA0
:1016500018D10AE0CB6815E0CB681B1D12E0CB68FF
:1016600008330FE0CB680C330CE08B682BB1012BF7
:101670004FF0080303D0456104E0042302E0056154
:1016800000E00023FF2A01D8064601E000F104062D
:101690004FEA840501D9A5F12005D6F8008007FAA4
:1016A00005FC28EA0C0803FA05F548EA0508C6F81F
:1016B00000804D68ED0070D53E4DAE6946F00106E4
:1016C000AE61AD6924F0030605F0010500953A4DC1
:1016D00006EB050CDCF80850A607360F07FA06F8EB
:1016E00025EA0805DFF8D480404503D14FF0000813
:1016F00025E052E0DFF8C880404502D14FF00108F4
:101700001DE0DFF8C080404502D14FF0020816E02E
:10171000DFF8B480404502D14FF003080FE0DFF856
:10172000AC80404502D14FF0040808E0DFF8A0800B
:10173000404502D14FF0050801E04FF0060808FAD5
:1017400006F848EA0508CCF808804D68D9F800602A
:10175000ED024D4601D5164300E096432E604D68DC
:10176000DAF80060AD02554601D5164300E0964315
:101770002E604D68DBF80060AD035D4601D5164371
:1017800000E096432E604D68DEF80060ED0375467C
:1017900001D5164300E096432E60641C0A68164685
:1017A000E2407FF429AFBDE8F88F00000804014053
:1017B000000011100010024000000140000801402C
:1017C000000C0140001001400014014000180140CD
:1017D000001C01408068084000D0012070470AB119
:1017E000016170470904FBE7014880687047000009
:1017F0007400002070B5040025D094F83D00002549
:1018000020B984F83C50204600F076FA242084F871
:101810003D002068016821F0010101602068016835
:1018200041F4004101602068016821F40041016039
:1018300000F036FC4D4A6168914201D84C4900E005
:101840004C49884201D2012070BD4B492368B0FB4E
:10185000F1F15E6826F03F060E435E6063689342D6
:1018600006D94FF4967359434FF47A73B1FBF3F1F1
:101870002368491C1E6A26F03F06314319626168DD
:10188000914210D84900401EB0FBF1F2521CC2F345
:101890000B02042A01D2042022E0B0FBF1F0401C2C
:1018A000C0F30B001CE0A268F2B301EBC10303EB31
:1018B0000116431EB3FBF6F35B1C43F480431B0588
:1018C00049D092B301EBC10202EB0111401EB0FB03
:1018D000F1F0401CC0F30B0040F4804040F40040A5
:1018E0002168CA694CF6FF739A431043C861D4E972
:1018F000071001432068026822F0C0021143016012
:10190000D4E9030101432068826848F2FF339A4317
:1019100011438160D4E9050108432168CA6822F0B7
:10192000FF021043C86001E00EE016E02068016885
:1019300041F0010101602564202084F83D00256309
:1019400084F83E50002070BD01EB4106431EB3FBFE
:10195000F6F35B1CB3E70120C2E701EB4101401E37
:10196000B0FBF1F0401CC0F30B00B7E7A08601000C
:1019700080841E0000093D0040420F002DE9F84F11
:101980000025DDF82890984617468A4604460095BB
:10199000FFF72AFF064694F83D0020287AD1192344
:1019A000012286492046009601F0FEFE0028F5D16E
:1019B00094F83C0001286DD0012084F83C00206898
:1019C0000168C90703D1016841F001010160206885
:1019D000016821F400610160222084F83D0010209C
:1019E00084F83E0025646762A4F82A80608D208513
:1019F0007348E06233464A465146204601F0E4FD12
:101A000000287CD1208DDFF8BC81202768B1012817
:101A100014D00228206801681ED041F48061016062
:101A20002068416980690090BBE020684169816954
:101A30000091016841F400710160B2E02068016822
:101A400021F48061016072B620684169816900916A
:101A5000016841F400710AE041F40061016072B66E
:101A60002068416981690091016821F48061016009
:101A700062B696E0032865D801280CD002284B46B0
:101A80004FF000024146204600960BD001F08CFE3C
:101A9000A8BB0CE090E032464946204601F02AFF00
:101AA00068BB71E001F080FE48BB72B633E020688D
:101AB000016821F48061016072B620680069616A82
:101AC0000870606A401C6062208D401E2085608D19
:101AD000401E60853C4846F2A8110068B0FBF1F05A
:101AE000C0EBC00000EB80000090401E009007D0CB
:101AF00020684069C04340070DD50098F5E727E00E
:101B000044F8305F6773A573206940F020002061BE
:101B100062B625731CE02068016841F40071016021
:101B200020680069616A0870606A401C6062218DEB
:101B3000491E2185618D491E618562B6216809694A
:101B4000017025E032464946204601F0D3FE10B12F
:101B50000120BDE8F88F20680069616A0870606A3A
:101B6000401C6062208D401E81B22185608D401E28
:101B7000608520684269D243520712D4032903D1F9
:101B8000016821F48061016020680069616A087061
:101B9000606A401C6062208D401E2085608D401E62
:101BA0006085208D00287FF465AF84F83D7084F84F
:101BB0003E5084F83C50CCE70220CAE702001000F7
:101BC0000000FFFF04000100800000202DE9F84F15
:101BD0001F4690468A460446DDF82890FFF704FE2B
:101BE000054694F83D0020287FD119230122404961
:101BF0002046009501F0D8FD002876D194F83C00ED
:101C0000012872D0012084F83C0020680168C907CF
:101C100003D1016841F0010101602068016821F4ED
:101C200000610160212084F83D00102084F83E000E
:101C300000262664C4F824806785608D20852D48A1
:101C4000E0622B464A465146204601F033FD90B9EA
:101C5000206841698069009036E02A46494620465E
:101C600001F080FE50B1206C042804D12068016886
:101C700041F4007101600120BDE8F88F606A2168BD
:101C800000780861606A401C6062618D491E618550
:101C9000218D491E89B2218522685369DB435B0788
:101CA0000BD451B100781061606A401C6062608D95
:101CB000401E6085208D401E20852A4649462046CC
:101CC00001F046FD0028CED1208D0028C5D154F862
:101CD0003D0B016841F400710160202004F81E09E9
:101CE000E67766770020C7E7FFE70220C4E7000039
:101CF000020010000000FFFF30B585B00021009108
:101D0000019102910391214D0368214C122103227C
:101D10002048AB421DD1A36943F00803A361A36926
:101D2000039203F0080304931302CDE900316946DE
:101D3000FFF754FC1848416841F0E06141F00201AE
:101D40004160E06940F40010E061E06900F40010D7
:101D500019E0124DAB4217D1A36943F00803A36108
:101D6000A369039203F0080304934FF44063CDE9A1
:101D700000316946FFF732FCE06940F48000E06121
:101D8000E06900F48000049005B030BD00540040CC
:101D900000100240000C01400000014000580040CB
:101DA0000248816802781144816070477400002005
:101DB000074810B5016841F010010160032000F0F0
:101DC000A7F80F2000F006F800F050F8002010BD32
:101DD0000020024030B505461F4887B0C16941F078
:101DE0002001C161C06906A900F02000009001A88F
:101DF00000F036F90498B0B100F052F940001749EC
:101E0000174AB0FBF1F11748491E0260416040F2E9
:101E1000E7320021C0E903218160816100F00AFD01
:101E2000040003D015E000F03BF9E8E70D4800F0AE
:101E30007DFD04000DD1372000F03CF8102D07D2B5
:101E400000222946372000F043F80748056000E0EB
:101E5000012407B0204630BD0010024040420F0070
:101E600000140040141B0020780000200F4808B523
:101E7000816941F001018161816901F001010091F5
:101E8000C16941F08051C161C069002200F08050F9
:101E900000900F21901E00F01BF80548416821F0CA
:101EA000E06141F00071416008BD00000010024097
:101EB00000000140002809DB00F01F0201219140D1
:101EC0004009800000F1E020C0F8001170470000D8
:101ED000F0B40E4B1B680C46C3F30223C3F1070595
:101EE000042D00D90425191D072901D2002300E083
:101EF000DB1E012606FA05F1491E214099409E404D
:101F0000761E16403143F0BC03F04CBA0CED00E0F5
:101F1000064900F0070208684FF6FF03184040EA40
:101F20000220034A10430860704700000CED00E0F7
:101F30000000FA052DE9F0470F46050061D0434E39
:101F4000306800F00700B84209D2306820F007007E
:101F500038433060306800F00700B84251D128683B
:101F60003B4C810712D5400703D5606840F4E06020
:101F700060602878000703D5606840F460506060B6
:101F80006068A96820F0F000084360602878C00706
:101F900028D06868012810D02168022810D089074D
:101FA00000292EDA616821F0030101436160FFF727
:101FB0001BFC804641F288390DE021688903EFE778
:101FC0008901EDE7FFF710FCA0EB0801494502D9B4
:101FD0000320BDE8F0876068696800F00C00B0EB92
:101FE000810FEFD1306800F00700B8420BD930689C
:101FF00020F0070038433060306800F00700B84236
:1020000001D00120E5E72878400705D56068E96838
:1020100020F4E060084360602878000706D5606817
:10202000296920F4605040EAC100606000F058F86F
:102030006168084AC1F30311515CC8400649086051
:1020400006480068FFF7C6FE0020C2E700200240F5
:1020500000100240B28F00088000002078000020AD
:102060000F2202600C4A536803F003034360536875
:1020700003F0F0038360536803F4E063C3605268C5
:102080004FF4E06303EAD20202610448006800F002
:102090000700086070470000001002400020024066
:1020A0000448054900684968044AC1F30221515CAB
:1020B000C84070478000002000100240C28F000816
:1020C0000448054900684968044AC1F3C221515CCB
:1020D000C84070478000002000100240C28F0008F6
:1020E0000E4A51680E4801F00C03042B11D0082B46
:1020F0000FD10C48C1F38343C903C05C0AD55168B2
:10210000084AC1F34041921E515C054A5043B0FB5E
:10211000F1F0704704494843704700000010024046
:1021200000127A00A28F000800093D002DE9F84F47
:10213000040070D02078C04DC00749D06868C0F353
:102140008100012807D06868C0F38100022809D106
:102150006868C00306D52868800339D56068002800
:10216000E7D035E06068B0F5803F0BD010B1B0F536
:10217000A02F11D0286820F480302860286820F42F
:10218000802002E0286840F480302860606890B1C8
:10219000FFF72AFB06460AE0286840F48020286002
:1021A000F0E700BFFFF720FB801B642873D8286886
:1021B0008003F7D50CE0FFF717FB064605E000BFEC
:1021C000FFF712FB801B6428F0D828688003F7D43F
:1021D00020789A4E80074FF001094FF0000839D55A
:1021E000686810F00C0F07D06868C0F381000228FF
:1021F00009D16868C00306D42868800714D520690F
:10220000012808D110E02069B0B1C6F80090FFF7AE
:10221000EBFA074605E00AE1FFF7E6FAC01B0228E1
:10222000C4D828688007F7D52868616920F0F800CD
:1022300040EAC10028600DE0C6F80080FFF7D4FA3C
:10224000074604E0FFF7D0FAC01B022823D828680D
:102250008007F7D4207800072CD57948A169D9B137
:10226000C0F80090FFF7C0FA074604E0FFF7BCFA99
:10227000C01B02280FD8686A8007F7D571484FF451
:10228000FA510068B0FBF1F0009000BF0098411EC9
:102290000091FAD20EE080E0C0F80080FFF7A4FAC7
:1022A000074604E0FFF7A0FAC01B022875D8686A49
:1022B0008007F7D42078400760D5E8690027C00080
:1022C00008D4E86940F08050E861E869012700F02F
:1022D000805000905C480168C90513D401688346AA
:1022E00041F480710160FFF77FFA824606E000BF8B
:1022F000FFF77AFAA0EB0A0064284ED8DBF800005A
:10230000C005F5D5E06801280AD008B1052813D02A
:10231000286A20F001002862286A20F0040002E008
:10232000286A40F001002862E06841F2883B98B1D9
:10233000FFF75AFA82460BE0286A40F00400286250
:10234000EEE700BFFFF750FAA0EB0A0159455AD853
:10235000286A8007F6D50CE0FFF746FA824605E0CA
:10236000FFF742FAA0EB0A0159454CD8286A8007CA
:10237000F6D41FB1E86920F08050E861E06988B3C5
:102380006968C1F38101022944D00228C6F860803F
:1023900004D0FFF729FA044638E034E0FFF724FAC6
:1023A000074604E0FFF720FAC01B02282BD8286854
:1023B0008001F7D4206AB0F5803F05D16868A16834
:1023C00020F4003008436860D4E9080108436968D4
:1023D00021F4741108436860C6F86090FFF704FAAE
:1023E000044606E025E000BFFFF7FEF9001B0228C7
:1023F00009D828688001F7D51BE000BFFFF7F4F982
:10240000001B022802D90320BDE8F88F286880014C
:10241000F4D40EE00128F7D06868226A00F4803115
:10242000914204D1616A00F47010884201D0012009
:10243000EAE70020E8E70000001002400000424206
:1024400080044242800000200070004070B504000B
:1024500009D0606A002540B125616561A56294F8E4
:10246000510040B10CE0012070BD6068B0F5827F82
:10247000F4D0E561F2E784F85050204600F040F8CF
:10248000022084F851002068016821F040010160B9
:10249000A088218900F4827001F404410843A189D5
:1024A00001F400610843217C01F002010843217D11
:1024B00001F001010843218B01F400710843217FE1
:1024C00001F03801084394F8201001F0800108431E
:1024D000218D01F40051084321680860A06904219E
:1024E00001EA1040216848602068C16921F4006158
:1024F000C1616565012084F85100002070BD0000B5
:1025000030B585B0002400940194029403940068CF
:102510001449884223D11448816941F48051816172
:10252000816901F480510491816941F00401816164
:1025300080690E4D00F004000490A020009002205D
:1025400001900320039069462846FFF747F8402092
:10255000CDE90004694628460294FFF73FF805B02C
:1025600030BD000000300140001002400008014072
:102570002DE9FF4F81B01D46934604464FF00109F7
:102580000E9EFFF731F9074694F851006168012863
:1025900006D0B1F5827F3CD1A168C9BB042838D1EF
:1025A0000298002871D0BBF1000FFBD0002DF9D0AC
:1025B00094F8500001282CD04FF0010A84F850A064
:1025C00094F85100042802D0052084F851004FF0FF
:1025D0000008C4F85480C4F838B0E587A58702998C
:1025E0002163E586A586C4F84080C4F8448020684D
:1025F0000168490603D4016841F040010160E068C8
:10260000B0F5006F606808D0F0B3012D49D081E0CB
:10261000FFE7022005B0BDE8F08F08B1012D39D1E8
:10262000206B21680088C860206B801C2063E08ECE
:10263000401EE0862EE02068816889070FD5E18E74
:1026400069B1B9F1010F0AD1216B0988C160206B12
:10265000801C2063E08E401EE0864FF00009206859
:102660008168C9070CD0E18F51B1C068A16B0880A7
:10267000A06B801CA063E08F401EE0874FF0010933
:10268000FFF7B2F8C01B01E00BE067E0B04201D3F6
:10269000701C50D1E08E0028CDD1E08F0028CAD127
:1026A0003EE0206B216800780873206B401C20639B
:1026B000E08E401EE0862DE02068816889070FD5F6
:1026C000E18E69B1B9F1010F0AD1216B097801736B
:1026D000206B401C2063E08E401EE0864FF0000916
:1026E00020688168C9070CD0E18F51B1C068A16B27
:1026F0000870A06B401CA063E08F401EE0874FF085
:102700000109FFF771F8C01BB04202D3701C01D061
:1027100011E086B1E08E0028CED1E08F0028CBD129
:102720003A463146204602F077F850B120206065E5
:1027300084F8508012E084F851A084F8508003207F
:1027400068E7A06818B92068C1688068009084F8BC
:1027500051A084F85080606D0028F1D0012059E725
:102760007047704710B590F83C20012A22D0012212
:1027700080F83C20CA688C6822F4407222434C687E
:1027800022F4806222430C6822F4006222430C6926
:1027900022F4805222434C6922F400522243C96938
:1027A000002322F480420A4301684A6480F83C30E6
:1027B000002010BD022010BD70B590F83C20012A09
:1027C0002CD0012480F83C40022280F83D20036890
:1027D0005A689D6822F070060A6832435A60104BAE
:1027E00002689A420ED00F4B9A420BD0B2F1804F42
:1027F00008D00D4B9A4205D00C4B9A4202D00C4B9C
:102800009A4204D1496825F080031943916080F809
:102810003D40002180F83C10084670BD022070BD8C
:10282000002C01400034014000040040000800403A
:10283000000C004010B5040003D094F83D0010B126
:1028400007E0012010BD002084F83C00204600F085
:102850001FF8022084F83D00211D206802F042FA92
:10286000012084F8460084F83E0084F83F0084F894
:10287000400084F8410084F8420084F8430084F862
:10288000440084F8450084F83D00002010BD00009D
:1028900008B5224A0168224891420ED1C16941F02F
:1028A0000201C161C069002200F002000090052110
:1028B0001D20FFF70DFB1D202AE01A4A91420ED180
:1028C000C16941F01001C161C069002200F010002F
:1028D000009005213620FFF7FBFA362018E0124A57
:1028E000914219D1816941F40051816180690022CE
:1028F00000F40050009005212C20FFF7E9FA2C206D
:10290000FFF7D8FA002205212D20FFF7E1FA2D204C
:10291000BDE80840FFF7CEBA08BD00000004004043
:1029200000100240001000400034014090F83D10BB
:10293000012901D001207047022180F83D10016873
:10294000CA6842F00102CA6000680E4988420ED08F
:102950000D4988420BD0B0F1804F08D00B49884216
:1029600005D00B49884202D00A49884204D18168C7
:1029700001F00701062903D0016841F0010101605F
:1029800000207047002C014000340140000400404A
:1029900000080040000C00400168CA6822F00102F3
:1029A000CA6001680A6A41F211131A4207D10A6A21
:1029B0009B101A4203D10A6822F001020A60012129
:1029C00080F83D100020704770B5044690F83C0038
:1029D0000025012817D0012684F83C60022084F8E5
:1029E0003D002068826822F0770222F47F428260F4
:1029F0000868502838D00DDC20284FD005DC90B373
:102A0000102811D14AE0022070BD302846D040285D
:102A10000AD13BE060282FD070280DD0B0F5805F40
:102A200003D0B0F5005F12D0012584F83D6000208E
:102A300084F83C00284670BDCB68D1E901212068AC
:102A400002F0ABF92068816841F0770109E0CB68BA
:102A5000D1E90121206802F0A0F92068816841F4E1
:102A600080418160E1E719E0CA684968206802F0A6
:102A700069FA5021206806E0CA684968206802F0B7
:102A800072FA6021206802F092F9CEE7CA684968BC
:102A9000206802F057FA40212068F4E722680146D6
:102AA0001046F0E72DE9F0410D46040003D094F8FC
:102AB0003D0018B108E00120BDE8F081002084F855
:102AC0003C00204600F040F8022084F83D002068D9
:102AD000816844F2070291438160211D206802F061
:102AE00001F9226890689169166A2B68AF690343FF
:102AF00040F20330814341EA0721A868EF690843A7
:102B00004FF6FC418843E96840EA07200143286901
:102B10002F6A000140EA0730084369686D6926F0B2
:102B2000220646EA0515294393602268906154F80D
:102B3000460B0162012004F81F09E0752076E0765B
:102B40002077A0750020B7E700B585B0002100917F
:102B5000019102910391026823480121B2F1804F53
:102B600024D0224B9A421FD1C26942F00402C261B2
:102B7000C26902F004020492826942F00802826192
:102B80008069029100F008000490C020009069461E
:102B90001748FEF723FD002205211E20FFF798F9B4
:102BA0005FF01E00FFF786F905B000BDC26942F074
:102BB0000102C261C26902F001020492826942F01C
:102BC000040282618069029100F0040004900320F5
:102BD000009069460748FEF701FD002205211C20F0
:102BE000FFF776F91C20DDE70010024000080040E6
:102BF000000C01400008014070B590F83E600446AA
:102C000090F83F5090F8423090F84320022021B1D4
:102C100004290ED0012E1BD114E0012E18D1012B56
:102C200016D184F83E0084F8420001220021206879
:102C300020E0012D0CD1012A0AD184F83F0084F84C
:102C4000430014E0012D03D1012B01D1012A01D051
:102C5000012070BD84F83E0084F83F0084F84200F3
:102C600084F8430001220021206802F089F8012243
:102C70000421206802F084F82068016841F0010115
:102C80000160002070BD70472DE9F04104460068E6
:102C9000C66805694FF00007A90713D5B10711D51C
:102CA000F91E016101202077206880698007204695
:102CB00002D0FFF7E8FF04E000F0A4F8204600F09F
:102CC00036F92777680716D5700714D521686FF095
:102CD00004000861022020772068806910F4407F9A
:102CE000204602D0FFF7CFFF04E000F08BF820462B
:102CF00000F01DF92777280715D5300713D521686F
:102D00006FF008000861042020772068C069800700
:102D1000204602D0FFF7B7FF04E000F073F820462A
:102D200000F005F92777E80616D5F00614D52168D6
:102D30006FF010000861082020772068C06910F447
:102D4000407F204602D0FFF79EFF04E000F05AF8D3
:102D5000204600F0ECF82777E80708D0F00706D007
:102D600021686FF001000861204600F03BF9280659
:102D700008D5300606D521686FF08000086120462E
:102D8000FFF7EEFC680608D5700606D521686FF0DF
:102D900040000861204600F05BF9A8060AD5B0069D
:102DA00008D521686FF0200008612046BDE8F04199
:102DB000FFF7D7BCBDE8F08100B585B000210091D8
:102DC00001910291039100680B49884211D10B488F
:102DD000816941F0100181618069694600F010004D
:102DE0000490C02000900220019003900448FEF758
:102DF000F5FB05B000BD00000034014000100240AA
:102E000000100140704770B5044690F83C00002661
:102E10000D4601280FD0012084F83C006AB1042A35
:102E20001DD0082A2FD00C2A3FD00126002084F87C
:102E30003C00304670BD022070BD206801F0C0FF2C
:102E40002068816941F0080181612068816921F071
:102E500004018161206881692A69114311E02068B9
:102E600001F0DEFF2068816941F400618161206822
:102E7000816921F480618161206881692A6941EA60
:102E800002218161D2E7206802F000F82068C16960
:102E900041F00801C1612068C16921F00401C161EC
:102EA0002068C1692A69114311E0206802F022F804
:102EB0002068C16941F40061C1612068C16921F4E1
:102EC0008061C1612068C1692A6941EA0221C1614A
:102ED000ACE710B5040003D094F83D0010B107E052
:102EE000012010BD002084F83C00204600F01EF8B0
:102EF000022084F83D00211D206801F0F3FE01202E
:102F000084F8460084F83E0084F83F0084F84000CE
:102F100084F8410084F8420084F8430084F84400B7
:102F200084F8450084F83D00002010BD70477047CC
:102F300010B50446022249B104290ED0082913D045
:102F400094F84100012816D0012010BD94F83E00ED
:102F50000128F9D184F83E200FE094F83F000128C1
:102F6000F2D184F83F2008E094F840000128EBD12A
:102F700084F8402001E084F841200122206801F01B
:102F8000FFFE13492068134A884201D0904203D1C2
:102F9000436C43F400434364206888420DD0904260
:102FA0000BD0B0F1804F08D00B49884205D00B49B7
:102FB000884202D00A49884204D1816801F00701A1
:102FC000062903D0016841F001010160002010BD15
:102FD000002C014000340140000400400008004083
:102FE000000C004070B5044600681149884201D1C8
:102FF000FEF7D6FE0F49206801260F4D884207D103
:103000002E700E48FFF7C8FC0D48006803F048FE1C
:103010000C492068884209D16E700B48FFF7BCFC50
:103020000A480068BDE8704003F03ABE70BD000079
:10303000001400400010004000000020F41900209F
:103040005800002000040040641900205C000020AB
:10305000704700002DE9F041054600681D49002732
:10306000BE1E884216D11C4801684F621B4C218845
:1030700021B9006806611848FFF758FC1848194A3A
:10308000017820881154401C2080012214491648E0
:1030900000F00EFA15492868884218D114480168D2
:1030A0004F62144C218821B9006806611048FFF76F
:1030B0003DFC1148114A017820881154401C2080A1
:1030C000BDE8F04101220C490D4800F0F1B9BDE81E
:1030D000F081000000380140F419002010000020A9
:1030E0001200002074010020841A002000440040D7
:1030F000641900201400002016000020740900202C
:10310000CC1A002070477047F8B50168044608687B
:10311000CA684B6910F00F0F4FF0000559D003F04B
:10312000010602F49077374365D0C10705D0D10579
:1031300003D5616C41F001016164410705D5D907F0
:1031400003D0616C41F002016164810705D5D907A4
:1031500003D0616C41F004016164010707D502F0FE
:103160002001314303D0616C41F008016164616C5E
:1031700000293AD0800604D5900602D5204601F0F9
:1031800033FF20684069616CC0F38010090700D4E8
:1031900060B3204601F001FF20684069400621D558
:1031A0002068143050E8001F21F0400140E8001270
:1031B000002AF5D1E06BA8B16D494163E06BFEF7E1
:1031C00063F9002811D0E06B416B01B0BDE8F0401D
:1031D000084783060FD593060DD52046BDE8F84075
:1031E00001F002BF2046FFF78EFFF8BD2046FFF733
:1031F0008AFF6564F8BD266B2023012E7CD1C606AC
:103200007AD5D60678D508684868009048694FF0A6
:103210000206400640D5E16B086840680004000CD7
:10322000E8D0A28D8242E5D9E085886920282DD09A
:1032300020680C3050E8001F21F4807140E8001233
:10324000002AF5D12068143050E8001F21F0010158
:1032500040E80012002AF5D12068143050E8001F21
:1032600021F0400140E80012002AF5D184F84230F4
:10327000256320680C3050E8001F21F0100140E861
:103280000012002AF5D1E06BFEF7DAF86663A08D34
:10329000E18D401A81B22AE0A08DE18D401A81B201
:1032A000E08D0028A6D00029A4D022680C3252E874
:1032B000000F20F4907042E80007002FF5D120683D
:1032C000143050E8002F22F0010240E80027002FC0
:1032D000F5D184F84230256320680C3050E8002F87
:1032E00022F0100240E80023002BF5D1666320464F
:1032F000FFF708FFF8BDFFE705062BD5150629D512
:1033000094F841002128F5D1A068B0F5805F01D183
:103310002069B0B1206A411C2162216800784860B0
:10332000E08C401E0004000CE084E3D12068C168FA
:1033300021F08001C1602068C16841F04001C16096
:10334000D8E7206A0088C0F308004860206A801C23
:103350002062E5E74006CDD55006CBD5CA682046A9
:1033600022F04002CA6084F8413000F013F9C1E74E
:103370008B4F000870B5040004D094F8410000257C
:1033800010B106E0012070BD84F84050204600F0E6
:1033900023F8242084F841002068C16821F40051FA
:1033A000C160204601F082FE2068016921F490414D
:1033B00001612068416921F02A0141612068C168EA
:1033C00041F40051C1606564202084F8410084F814
:1033D00042006563002070BD70B586B00024009483
:1033E0000194029403942E4E03682E490220032276
:1033F0002D4DB34226D18B6943F480438B618B6999
:1034000003F4804304938B6943F004038B6189695F
:10341000039201F0040104910102CDE90010694614
:103420002846FEF7DBF82815CDE900046946284652
:103430000294FEF7D3F8002205212520FEF748FD6F
:10344000252028E0194EB34227D1CB6943F400333D
:10345000CB61CB6903F4003304938B6943F004031D
:103460008B618969039201F0040104910421CDE983
:10347000001069462846FEF7B1F80820CDE900049F
:10348000694628460294FEF7A9F800220521262065
:10349000FEF71EFD2620FEF70DFD06B070BD0000F4
:1034A0000038014000100240000801400044004084
:1034B00090F84230202B01D00220704721B11AB180
:1034C0000023036301F04EBE0120704700680649E7
:1034D000884201D1054804E00549884203D10348E8
:1034E0004830FFF7B7BD704700380140841A00200C
:1034F000004400402DE9F843044690F84100984606
:1035000016460D46202802D00220BDE8F88385B17A
:103510007EB100206064212084F84100FEF764F948
:10352000A6848146E684A0682027B0F5805F02D09B
:1035300003E00120E9E7206910B12E4600250EE0E6
:1035400000260CE08021204601F027FEA8B9C6B174
:1035500016F8010B21684860E08C401EE084E08C86
:103560004B464FF00002CDF800800028EAD14FF022
:103570004001204601F011FE40B184F84170032063
:10358000C3E735F8020BC0F30800E3E784F84170A5
:103590000020BAE77047FEE701684A69D243520546
:1035A0000FD46FF480624A61002140F8301F20225E
:1035B00042738173026942F00402026101730120C7
:1035C00070470020704700002DE9F84F0446C06A9C
:1035D0001E4693460D4621680A6842F480620A60DE
:1035E000082807D0012805D010F5803F02D0206BB5
:1035F000112804D12068016841F4807101604FF006
:1036000001195B46002249462046009600F0CCF89E
:103610004FF4007840B120680068C00501D5C4F8B7
:1036200040800320BDE8F88F2069DFF884A0B0F562
:10363000804F0FD00620216800EAD51747F0F00030
:10364000086133465A460AF10601204600F0F4F8B4
:1036500058BB03E0E8B240F001001CE02168E8B28A
:10366000086133465A465146204600F0E5F8E0B975
:103670002068416981690091016841F480710160AD
:103680005B46002249462046009600F08DF800284F
:10369000C1D147F0F1002168086133465A465146CE
:1036A000204600F0C9F80028BCD00120BAE700008D
:1036B00002000100F8B50446C06A1E460D461746D2
:1036C000082807D0012805D010F5803F02D0206BD4
:1036D000122804D12068016841F48071016013460A
:1036E00000224FF001112046009600F05DF840B135
:1036F00020680068C00502D54FF4007020640320E4
:10370000F8BD2069B0F5804F0ED00620216800EA90
:10371000D51040F0F000086133463A460B49204688
:1037200000F08AF878B902E005F0FE0000E0E8B2A7
:1037300021680861054933463A46891F204600F052
:103740007BF80028DCD00120F8BD00000800010053
:1037500070B516460D4604461EE02046FFF71CFFD6
:1037600008B1012070BD681C16D0FEF73DF8801B23
:10377000A84200D885B920684069C04340070BD5EE
:10378000002044F8300F20216173A073216941F0BB
:10379000200121612073E4E720684069C0434007AD
:1037A000DBD4002070BD00002DE9F0479846174695
:1037B0000D460446C1F30746DDF820902AE000BF1D
:1037C000B8F1FF3F26D0FEF70FF8A0EB0901414505
:1037D00002D8B8F1000F1DD12068012E16D08069E3
:1037E00025EA00000004000C12D00020B84211D1DC
:1037F000002044F8300F20216173A073216941F04B
:103800002001216120730120BDE8F0874069E7E7CE
:103810000120EBE72068012E0AD0806925EA00002C
:103820000004000C06D00020B842C9D00020EBE70D
:103830004069F3E70120F7E72DE9F047984616467F
:103840000D4604464FF000094FF0200AC1F3074728
:1038500023E020684069C043400515D42068016812
:1038600041F40071016021686FF480604861C4F820
:10387000309084F83DA084F83E90216C41F0040122
:10388000216484F83C9021E0701C06D0FDF7ACFF69
:10389000A0EB0800B04203D816B1012F1FD021E0E1
:1038A0002068012F15D0806925EA00000004000C73
:1038B00018D000BF44F8309F84F80DA084F80E9013
:1038C000216941F02001216184F80C900120BDE8BC
:1038D000F087406925EA00000004000CEAD1206866
:1038E000406901E02068806925EA00000004000CBE
:1038F000AFD1ECE72DE9F041002590460E46044695
:10390000202728E04069C043C0060CD454F8301B7F
:103910006FF01000486144F810596777A577206A66
:103920002062257714E0FDF75FFFA0EB0800B042AE
:1039300000D886B920684069C04340060BD544F8DA
:10394000305F6773A573206940F020002061257304
:103950000120BDE8F08120684169C9434906D1D4FE
:103960000020F6E770B516460D4604461EE02046D8
:10397000FFF712FE08B1012070BD681C16D0FDF7DC
:1039800033FF801BA84200D885B920684069C04336
:1039900000060BD5002044F8300F20216173A0737E
:1039A000216941F0200121612073E4E7206840692A
:1039B000C0430006DBD4002070BD10B54FF4FA738D
:1039C00004685A429C4201DB036002E0944200DC3E
:1039D00002600868984201DB0B6010BD9042FCDC7D
:1039E0000A6010BD30B5B9B000253195012131A86C
:1039F000329503F02DF93A4C01212064339533A818
:103A0000349503F025F9374D60640022D5E90001B3
:103A1000CDE93501012135A803F02EFAA063D5E9DF
:103A20000201CDE937010022012137A803F024FA71
:103A3000E0636421A06B03F03FFA3221E06B03F0F6
:103A40003BFA1C2205F110016846FCF7E9FB002156
:103A5000684603F0D8F9E0611C2205F12C0107A8A3
:103A6000FCF7DEFB002107A803F0CDF920621C2241
:103A700005F148010EA8FCF7D3FB00210EA803F0C6
:103A8000C2F960621C2205F1640115A8FCF7C8FBAD
:103A9000002115A803F0B7F9A0621C2205F18001EE
:103AA0001CA8FCF7BDFB00211CA803F0ACF9E062E8
:103AB0001C2205F19C0123A8FCF7B2FB002123A8DE
:103AC00003F0A1F920631C2205F1B8012AA8FCF734
:103AD000A7FB00212AA803F096F9606339B030BD36
:103AE00018000020CC8E00082DE9F04385B000249A
:103AF00028480094019402940394816941F02001C4
:103B00008161816901F020010491816941F0100116
:103B10008161816901F010010491816941F0040122
:103B20008161816901F004010491816941F008011A
:103B300081618069DFF8608000F008000490002255
:103B400010214046FDF74BFEDFF850904FF47047D0
:103B5000002239464846FDF742FE0F2001258DE838
:103B6000310069460E48FDF739FD10200226CDE9E7
:103B70000005CDE9024669464046FDF72FFD009756
:103B80000396CDE9015469464846FDF727FD05B087
:103B9000BDE8F0830010024000080140000C014025
:103BA000001001400D4810B50B4901600C494160FF
:103BB00000214FF480428160C0E9031241618161BC
:103BC000C1610162FDF716FE002803D0BDE8104078
:103BD000FDF709BC10BD0000005400401C18002077
:103BE000A08601000D4810B50B4901600C494160E9
:103BF00000214FF480428160C0E90312416181617C
:103C0000C1610162FDF7F6FD002803D0BDE8104058
:103C1000FDF7E9BB10BD00000058004070180020FF
:103C2000A0860100104810B50E4901604FF4827162
:103C30004160002102228160C0E903121202C0E942
:103C400005123822C2618022C0E9082181620A215E
:103C5000C162FEF7FBFB002803D0BDE81040FDF772
:103C6000C2BB10BD00300140C418002010B58CB09C
:103C700024216846FCF7EDFA0024154809944FF01A
:103C800080410A94C0E900144FF6FF71C0E9024177
:103C9000046184610120CDE90004CDE902040494AB
:103CA000CDE905400794694609480894FEF7FAFEF5
:103CB00008B1FDF798FB099409A905480A94FEF795
:103CC0007BFD002801D0FDF78EFB0CB010BD00007D
:103CD0001C19002010B586B00024174800940194E8
:103CE00002940394049413490594016041F61F4122
:103CF000C0E901143121C0E903148461FEF79AFD83
:103D000008B1FDF770FB4FF48050009069460A48F7
:103D1000FEF75AFE08B1FDF766FB049404A90648B5
:103D20000594FEF749FD002801D0FDF75CFB06B0C5
:103D300010BD0000000400406419002010B58CB0D4
:103D400024216846FCF785FA002415480994134994
:103D50000A94C0E900144FF6FF71C0E90241046102
:103D600084610120CDE90004CDE902040494CDE989
:103D70000540079469460A480894FEF793FE08B187
:103D8000FDF731FB099409A905480A94FEF714FDD3
:103D9000002801D0FDF727FB0CB010BD0008004043
:103DA000AC1900201CB500240E4800940C49019465
:103DB000016041F61F41C0E9011431218461C160F5
:103DC000FEF738FD08B1FDF70EFB00946946054883
:103DD0000194FEF7F1FC002801D0FDF704FB1CBDA7
:103DE00000100040F419002010B596B000240F9484
:103DF00010941194129413941C2168461494FCF7A7
:103E000028FA202107A8FCF724FA2D482B49016045
:103E100040F2CF21C0E9011440F2E731C0E90314B8
:103E200044618461FEF706FD08B1FDF7DCFA4FF44A
:103E300080500F900FA92248FEF7C6FD08B1FDF78C
:103E4000D2FA1F48FFF745F808B1FDF7CCFA1394F2
:103E500013A91B481494FEF7AFFC08B1FDF7C3FA91
:103E60006020CDE900040294039404940594002298
:103E7000694613480694FEF7C6FF08B1FDF7B3FA8A
:103E8000042269460E48FEF7BEFF08B1FDF7ABFA03
:103E90000794089409944FF400500A94CDE90B401C
:103EA00007A907480E94FEF75DFC08B1FDF79BFAE1
:103EB0000348FEF781FF16B010BD0000003401403A
:103EC0003C1A00200C4810B50A4901604FF4E1315A
:103ED0004160002181600C22C160C0E9041281614F
:103EE000C161FFF747FA002803D0BDE81040FDF795
:103EF0007ABA10BD00380140841A00200C4810B571
:103F00000A4901604FF4E1314160002181600C22D7
:103F1000C160C0E904128161C161FFF72BFA00287A
:103F200003D0BDE81040FDF75EBA10BD004400406C
:103F3000CC1A0020FEE7FEE770B5002400212046E1
:103F400000F0FBF80025002000F0ADF96D1CEDB28B
:103F5000802DF8D3641CE4B2082CEFD370BD0000B0
:103F6000124810B5816986B041F00801816180690D
:103F70000F4C00F0080004904FF4407000901120A6
:103F80000190002002900320039069462046FDF72F
:103F900025FB012211022046FDF721FC01225102DE
:103FA0002046FDF71CFC06B010BD000000100240CA
:103FB000000C01402DE9F047164E002407464FF053
:103FC00080084FF40079B51528FA04F23A404946C2
:103FD0003046FDF704FC012229463046FDF7FFFB81
:103FE000002229463046FDF7FAFB641CE4B2082C97
:103FF000EAD3012249463046FDF7F1FB012229466A
:104000003046FDF7ECFB29463046BDE8F04700227C
:10401000FDF7E5BB000C014070B501220B4D5402C9
:1040200021462846FDF7DBFB0122160231462846D1
:10403000FDF7D5FB002221462846FDF7D0FB31468F
:104040002846BDE870400022FDF7C9BB000C0140C6
:1040500070B50A4D4FF40074002221462846FDF742
:10406000BEFB012211022846FDF7B9FB2146284676
:10407000BDE870400122FDF7B2BB0000000C01401A
:1040800010B500204FF47A720021491C9142FCD3F4
:10409000401C9042F8D3FFF763FFAE2000F0F2F827
:1040A000D52000F0EFF8802000F0ECF8A82000F018
:1040B000E9F83F2000F0E6F8D32000F0E3F8002014
:1040C00000F0E0F8402000F0DDF8A12000F0DAF880
:1040D000C82000F0D7F8DA2000F0D4F8122000F061
:1040E000D1F8812000F0CEF8CF2000F0CBF8D92015
:1040F00000F0C8F8F12000F0C5F8DB2000F0C2F8AD
:10410000302000F0BFF8A42000F0BCF8A62000F09A
:10411000B9F88D2000F0B6F8142000F0B3F8AF2005
:1041200000F0B0F8BDE81040FFF706BF02460120DE
:1041300000E05043491EFCD2704710B50C4640F0D9
:10414000B00000F09FF8102040EA141000F09AF838
:1041500004F00F00BDE8104000F094B82DE9F041E4
:104160000746CE004000083E801E15464FF0FF383F
:10417000F1B2C0B2FFF7E1FF1148002400EB0515D2
:104180002819A0F5805090F8000E00F08CF8641CFF
:10419000E4B2082CF4D308EB4700F1B2C0B2FFF749
:1041A000CCFF00242819A0F5805090F8080E00F0EC
:1041B0007AF8641CE4B2082CF4D3BDE8F081000066
:1041C000CA8F00082DE9F04700241D461646884690
:1041D00081460A2713E0291B0A20491EFFF7A6FF84
:1041E000B6FBF0F0B0FBF7F107FB110208EB04009F
:1041F000C1B248463032FFF7B1FF641CE4B2AC42B2
:10420000E9D3BDE8F0872DE9F0471E461400884643
:10421000814604D42B22FFF7A1FF254603E02D227F
:10422000FFF79CFF654200240A2714E0311B0A2097
:10423000491EFFF77BFFB5FBF0F0B0FBF7F107FB82
:10424000110208EB0400401CC1B248463032FFF7AF
:1042500085FF641CE4B2B442E8D3BDE8F0872DE9E1
:10426000F04115460E460746002406E03019C1B25B
:104270003846FFF773FF641CE4B22A5D002AF5D1CB
:10428000BDE8F08110B50446FFF7C6FE7820FFF7C1
:1042900091FE0020FFF78EFE2046FFF78BFEBDE863
:1042A0001040FFF7D5BE10B50446FFF7B5FE7820E5
:1042B000FFF780FE4020FFF77DFE2046FFF77AFEE5
:1042C000BDE81040FFF7C4BE10B504460846FCF731
:1042D0004FFB084A084BFCF739FA0022074BFCF762
:1042E0008EF9FCF78AFB02462046BDE8104000210B
:1042F00002F078BE9A9999999999014000C063405B
:1043000070B50D4604460021084602F08FFE204697
:1043100002F018FE2846FCF72BFB4FF03332314BEE
:10432000FCF714FA0022304BFCF769F9FCF765FB47
:10433000044640F2691500212A46084602F052FE62
:104340002A460021012002F04DFE2A4600210220CB
:1043500002F048FE22460021032002F043FE2246DE
:104360000021042002F03EFE22460021052002F03A
:1043700039FE22460021062002F034FE22460021AA
:10438000072002F02FFE22460021082002F02AFE1C
:1043900022460021092002F025FE224600210A20A3
:1043A00002F020FE224600210B2002F01BFE2246D6
:1043B00000210C2002F016FE224600210D2002F002
:1043C00011FE224600210E2002F00CFE22460021A2
:1043D0000F2002F007FEBDE870404FF4FA70FDF7C1
:1043E000EBB8000033330340002062400548044A24
:1043F0000021C0E900218160C0E906210162704707
:1044000000002041B4350020F8B5FCF7EEFFFCF7C2
:10441000C3FF3048C168009190E80E002EA000F064
:104420009DFF0026304D2B4F133F6E7007F1230484
:104430006878395C002941D010283FD2DFE800F0CD
:10444000080A0C0E10120812161B20252A2F3439C8
:1044500026A008E027A006E028A004E029A002E0AA
:1044600029A000E02AA000F079FF27E02AA000F0B0
:1044700075FF266122E02AA000F070FF03201CE0F7
:1044800029A000F06BFF022017E029A000F066FFD2
:10449000012012E029A000F061FF04200DE028A017
:1044A00000F05CFF052008E026A000F057FF062082
:1044B00003E025A000F052FF072020616878401C2F
:1044C000C0B268701028B3D3BDE8F84005A000F072
:1044D00045BF00009035002025642C25642C256400
:1044E0002C25640D0A00000000010020204C6566A8
:1044F0007400000020446F776E000000205269674E
:1045000068740000205570002053746172740000BC
:104510002053656C6563740020537175617265008A
:104520002043726F7373000020436972636C6500EF
:1045300020547269616E676C650000002052310082
:10454000204C310020523200204C32002DE9F8433B
:10455000DFF87C80002210214046FDF740F94FF63D
:10456000FF7401231B4A1C491C480094FEF700F805
:104570000A2001F023FF174D174E01236A1C711CFE
:1045800016480094FDF7F4FF0A2001F017FF0123FD
:10459000AA1CB11C11480094FDF7EAFF0A2001F0A3
:1045A0000DFF0327EA190123B11C0C480094FDF705
:1045B000DFFF0A2001F002FF7F1C3FB2092FF1DB71
:1045C0004046BDE8F84301221021FDF708B900007C
:1045D000000801407435002002010020C4180020AA
:1045E00010B5044600210348FEF7A2FC024804600F
:1045F00010BD00003C1A00203434014010B50446C0
:1046000004210348FEF794FC0248046010BD00003A
:104610003C1A00203834014070B513480068016826
:10462000406AC1F30011114C114D49B1FCF786F9F4
:104630001049FBF771FF2146FBF7A3FF0E4905E088
:10464000FCF77CF92146FBF79CFF0C49FBF767FF61
:104650002946FBF764FF0A49884202DA0949884281
:1046600000D3002070BD00001C1900200000FA4398
:104670000000704200FF7F470000A0410000A0C181
:1046800000504347005043C770B5114800680168A7
:10469000406AC1F300110F4C0F4D104E29B1FCF7C9
:1046A0004DF90F49FBF735FF01E0FCF747F92146CB
:1046B000FBF767FF2946FBF732FF3146FBF72FFF79
:1046C0000849884202DA0849884200D3002070BDB8
:1046D000AC1900200000FA430000A0410000704225
:1046E00000FF7F4700504347005043C770B5194C47
:1046F00088B02046FBF7C2FD0F2802D216A000F0BA
:104700002DFE06A905AACDE9002107A8029004AB59
:1047100003AA15A12046FBF7DBFD174C0398174EA3
:104720002060049860600598A0600698E060079893
:10473000206101200025B06006E000BF54F825107C
:104740000FA000F00BFE6D1C30798542F6DB08B03F
:1047500070BD000075010020CAFDBEDDB3A4B6C85F
:10476000B2BBD7E3A1A30A00253364253364253304
:1047700064253364253364004C01002018000020B8
:10478000256400002DE9F04100251FA11F48FBF71B
:104790007DFD074600261E4C0FE00A21FBF764FD55
:1047A00000B106703846FBF755FE44F8250016A107
:1047B0000020FBF76BFD07466D1C17B1072DECDBE6
:1047C00001E0072D05DB012300220E210420FFF765
:1047D000F9FC0223012103202269FFF7F3FC0223E5
:1047E000042103206269FFF7EDFC02230821032066
:1047F000A269FFF7E7FCA069052802D10548C66059
:104800004662BDE8F08100003A0000007409002013
:1048100060010020B4350020F8B515460E460B4661
:10482000009204460122022100F010F840B93346FC
:10483000002280212046009500F008F8002804D0CE
:10484000606D40F0200060650320F8BD2DE9F8435D
:104850001E46914688460446089DFCF7C5FF401B4E
:10486000351AFCF7C1FF074625480068C0F3CB3076
:10487000684338E0701C37D0FCF7B6FFC01BA84275
:1048800003D215B1009860B32CE02068416821F094
:10489000E00141606068B0F5827F0BD1A068B0F59F
:1048A000004F02D0B0F5806F04D12068016821F07C
:1048B00040010160A06AB0F5005F09D1206801687D
:1048C00021F4005101602068016841F40051016049
:1048D000012084F85100002084F850000320BDE836
:1048E000F8830025401E00902068816838EA0100A6
:1048F00004D000214945BDD10020F0E70121F9E7AE
:1049000080000020012206490648FEF7D1FD012261
:1049100005490648FEF7CCFD012002F08DF9FBE7C2
:1049200012000020841A002016000020CC1A00205B
:10493000464D474C01212046FCF74CFFE0B90A20C8
:1049400002F07AF901212046FCF744FFA0B902F0F9
:104950008DFA40A000F002FD02F07FFA0221A86A61
:1049600002F0F8F902E00A2002F066F9012120467F
:10497000FCF730FF0028F6D002212046FCF72AFF82
:10498000E0B90A2002F058F902212046FCF722FF84
:10499000A0B902F06BFA32A000F0E0FC02F05DFA80
:1049A0000421A86A02F0D6F902E00A2002F044F9D4
:1049B00002212046FCF70EFF0028F6D004212046F5
:1049C000FCF708FFE0B90A2002F036F9042120467E
:1049D000FCF700FFA0B902F049FA24A000F0BEFCE9
:1049E00002F03BFA0821A86A02F0B4F902E00A20BA
:1049F00002F022F904212046FCF7ECFE0028F6D054
:104A000008212046FCF7E6FEE0B90A2002F014F97E
:104A100008212046FCF7DEFEA0B902F027FA16A016
:104A200000F09CFC02F019FA1021A86A02F092F939
:104A300002E00A2002F000F908212046FCF7CAFE35
:104A40000028F6D0012002F0F7F873E718000020E4
:104A5000001001404B455931B0B4CFC2200A0000CC
:104A60004B455932B0B4CFC2200A00004B455933F0
:104A7000B0B4CFC2200A00004B455934B0B4CFC205
:104A8000200A00000F4D104C012110A20846FFF72C
:104A9000E6FB0123062118462A69FFF793FBE0682D
:104AA000FBF773FF0246042319460220FFF7ABFB16
:104AB000606AFBF76AFF024604230C210220FFF71D
:104AC000A2FBE1E7A0350020B43500204D4F44455E
:104AD0003A000000154FDFF85880164D164E4FF083
:104AE00000094FF4006A6421386C02F001F928785B
:104AF000012817D1FFF7FAFD002405E018F804108B
:104B00000EA000F02BFC641C30888442F6DB0CA065
:104B100000F024FC85F80090A6F800905146044867
:104B2000FBF797FB012002F087F8DCE71800002074
:104B30007401002000000020100000202563000008
:104B40000D0A0000154FDFF85880164D164E4FF035
:104B500000094FF4006A6421786C02F0C9F82878E3
:104B6000012817D1FFF70EFE002405E018F8041005
:104B70000EA000F0F3FB641C30888442F6DB0CA02E
:104B800000F0ECFB85F80090A6F800905146044830
:104B9000FBF75FFB012002F04FF8DCE71800002074
:104BA000740900200100002014000020256300008B
:104BB0000D0A0000012002F03FF8FBE70EB50025CA
:104BC0006F1E0F4C01263A461E21684602F0F0F88F
:104BD000019825706570A570E570810701D5267074
:104BE0000AE0410701D5667006E0010701D5A6700D
:104BF00002E0C00600D5E670012002F01DF8E2E7F1
:104C00001800002010B5502080F31188BFF34F8F9B
:104C1000BFF36F8F03F0EEFE18B104494FF08050E0
:104C20000860002080F3118810BD000004ED00E052
:104C300030B58FB028216846FBF70BFB14210AA87A
:104C4000FBF707FB01210804CDE9001000240294C2
:104C500002250491CDE907504FF4E0100990684611
:104C6000FDF764FA08B172B6FEE70F20CDE90A0538
:104C70004FF48060CDE90C4002210AA80E94FDF7A4
:104C800059F9002801D072B6FEE70FB030BD704769
:104C90000148FDF7F9BF00001C1900200148FDF78D
:104CA000F3BF0000641900200148FDF7EDBF0000CC
:104CB000AC1900200148FDF7E7BF0000F4190020FF
:104CC0000148FDF7E1BF0000141B00200148FDF77B
:104CD000DBBF00003C1A00200148FDF7D5BF0000F3
:104CE0003C1A0020F0B50268204C214D214E224F85
:104CF000224B4FF0804CA04209D0984207D060452B
:104D000005D0A84203D0B04201D0B84204D122F06D
:104D1000700E4A6842EA0E02A04209D0984207D0BB
:104D2000604505D0A84203D0B04201D0B84203D1BB
:104D300022F44075CA682A434D6922F080022A4352
:104D400002608A68C2620A688262A04201D0984208
:104D500001D109690163012141610169C90703D0DA
:104D6000016921F001010161F0BD0000002C01404A
:104D70000004004000080040000C004000340140E6
:104D800010B501F01F030121046A99408C430462AD
:104D9000016A9A401143016210BD10B5846842EA6D
:104DA000032224F47F440A432243826010BD8268B8
:104DB00022F070020A4342F0070181607047000050
:104DC000F0B5036A026A22F0010202624268846955
:104DD000124E24F073050C682C4323F002058B68F7
:104DE0002B430D4DA84201D0B04205D123F0080756
:104DF000CB683B4323F00403A84201D0B04205D165
:104E00004D6922F4407215438A692A4342608461E5
:104E1000496841630362F0BD002C01400034014049
:104E2000F0B5026A036A23F01003036243688469E1
:104E30000D6824F4E64444EA05248D6822F020023B
:104E400042EA05120F4D104EA84201D0B04206D1E1
:104E5000CF6822F0800242EA071222F04002A84204
:104E600001D0B04207D14D6923F4406343EA850382
:104E70008D6943EA85034360846149688163026206
:104E8000F0BD0000002C014000340140F0B5026A82
:104E9000036A23F4807303624368C46922F40072D6
:104EA00024F073050C68124E2C438D6842EA0522EB
:104EB0000E4DA84201D0B04206D1CF6822F4006264
:104EC00042EA072222F48062A84201D0B04207D110
:104ED0004D6923F4405343EA05138D6943EA0513F2
:104EE0004360C4614968C1630262F0BD002C0140A7
:104EF0000034014030B5046A026A22F48052026232
:104F00004268C3690D6823F4E64343EA05238D68CC
:104F100024F4005444EA0534084DA84202D0084D58
:104F2000A84204D14D6922F4804242EA85124260CF
:104F3000C36149680164046230BD0000002C014077
:104F40000034014010B5036A046A24F001040462CD
:104F5000846924F0F00444EA021423F00A020A43AC
:104F60008461026210BD10B5036A046A24F0100463
:104F70000462846923F0A00324F4704444EA0232FA
:104F800043EA01118261016210BD10B5406A00213F
:104F9000C185C184FEF7B7F810BD01680C3151E836
:104FA000002F22F4907241E80023002BF5D1016814
:104FB000143151E8002F22F0010241E80023002BB8
:104FC000F5D1016B012909D101680C3151E8002F9D
:104FD00022F0100241E80023002BF5D1202180F8B7
:104FE000421000210163704708B590F84210222951
:104FF00001D0022008BD82684FF480539A4201D14B
:10500000016921B1816A9A421BD04AB10AE0026863
:10501000816A5268C2F308020A80816A891C08E02A
:10502000026972B10268526802F07F020A70816AF6
:10503000491C8162C18D491E0904090CC18503D038
:105040001BE002685268F1E70168CA6822F020029A
:10505000CA600168CA6822F48072CA6001684A693D
:1050600022F001024A61202180F8421000214163B0
:10507000026B012A03D0FEF729FA002008BD016364
:1050800001680C3151E8002F22F0100241E80023A2
:10509000002BF5D101680A68D20602D50A68496872
:1050A0000091818DFEF72EF8E7E7000070B5044609
:1050B00000680169E26821F44051114301612169EE
:1050C000A0680843616908432168CA6841F20C631B
:1050D0009A430243CA6020684169A26921F4407181
:1050E000114341611E492068884202D1FCF7E8FF64
:1050F00001E0FCF7D5FF00EBC00101EB0012606896
:1051000064218000B2FBF0F3B3FBF1F36FF01806FB
:105110007343B2FBF0F5B2FBF0F605EB83053223E7
:1051200003EB0515B5FBF1F5B6FBF1F605F0F0055F
:1051300005EB0615B2FBF0F6B2FBF0F0B0FBF1F0B8
:105140006FF01802504306EB800003EB0010B0FB39
:10515000F1F0216800F00F002844886070BD000065
:105160000038014081628285C2850021416422218C
:1051700080F84210016921B10168CA6842F4807266
:10518000CA6001684A6942F001024A610068C16868
:1051900041F02001C160002070472DE9F843984696
:1051A00017460D460446089E24E0701C22D0FCF7EA
:1051B0001BFBA0EB0800B0421AD8CEB12068C16832
:1051C000490717D5802D15D0402D13D00168C9434C
:1051D00009070FD401680025406800902046FFF7BA
:1051E000DCFE0820606484F840500120BDE8F883AC
:1051F0000320FBE72068006835EA000004D00020A7
:10520000B842D2D00020F1E70120F9E70148FDF7CC
:105210007BBF0000841A00200148FDF775BF000025
:10522000CC1A0020FEE70000054810B50068FBF727
:1052300085FB04490861BDE8104000F015B8000086
:1052400060000020B4350020054810B54068FBF729
:1052500075FB04498862BDE8104000F043B80000C7
:1052600060000020B43500202DE9F041194EF168AE
:10527000FBF752F90546B0F17C5F03DAB5F13F4F19
:1052800000D20025144C2946A068FBF7F0F813491A
:10529000A060884202DC1249884200D9A1602846F9
:1052A0006168FBF736F9B168FBF739F907467068B2
:1052B000A168FBF734F9804629463068FBF72FF9DF
:1052C0004146FBF7D4F83946FBF7D1F86560E0605A
:1052D000BDE8F081B43500201001002000802C448E
:1052E00000802CC42DE9F041184E716AFBF714F9C7
:1052F000174C804601466069FBF7B9F81549054629
:105300006061884201DD0D4603E01348854200D903
:105310000546656140462169FBF7FBF8316AFBF7FA
:10532000FEF807462946F069FBF7F9F805464146BD
:10533000B069FBF7F4F82946FBF799F83946FBF713
:1053400096F8C4F81080BDE8F0810000B435002064
:105350001001002000004843000048C30FB4054B73
:1053600010B503A9044A029800F06EF910BC5DF86C
:1053700014FB0000E564000844010020490050EAE5
:10538000C12018BF04204A0D18BF40F0010040F2B0
:10539000FF72B2EB515F08BF40F00200012808BF66
:1053A000052070470907090E002804DB00F1E02002
:1053B00080F80014704700F00F0000F1E02080F842
:1053C000141D704700487047480100202DE9F04146
:1053D0004F1E00EBC7010446D1E9000115461E46E9
:1053E00037F006020DD02A463346FBF7AFF97F1E91
:1053F00004EBC703D3E90023FBF701F937F00602FA
:10540000F1D1022F25D0042F13D0062F18BFBDE8ED
:10541000F0812A463346FBF799F9D4E90A23FBF7D2
:10542000EEF82A463346FBF791F9D4E90823FBF757
:10543000E6F82A463346FBF789F9D4E90623FBF759
:10544000DEF82A463346FBF781F9D4E90423FBF75B
:10545000D6F82A463346FBF779F9D4E90223FBF75D
:10546000CEF82A463346FBF771F9D4E90023BDE8AC
:10547000F041FBF7C4B80122FBF749BA00221346FA
:1054800010461146FBF7D4B9024A00201107FBF77A
:105490003EBA000001FDFFFF02E008C8121F08C16C
:1054A000002AFAD170477047002001E001C1121FA5
:1054B000002AFBD1704700000149086070470000D6
:1054C000480100202DE9FF5F82B00021DDE90430B2
:1054D000020DDDF840B0034318D044F61050A2F29C
:1054E000FF3242431514119801281FD0A5EB0B0081
:1054F000401C5FEA000A4FF000064E4FDFF838917B
:10550000B046504615D5CAF1000413E011980124A5
:105510004AA3012801D16FEA0B010298119AC0E950
:105520000031C0E9024206B0BDE8F09FCBF10000B7
:10553000DFE704460021404A491842EB0450CDE918
:10554000001012E0E00707D032463B46404649468D
:10555000FBF7FCF88046894632463B461046194622
:10556000FBF7F4F806460F466410002CEAD1DDE99B
:105570000401DDE90023BAF1000F06DAFBF7E6F8D3
:1055800042464B46FBF7E2F805E0FBF751F942468D
:105590004B46FBF74DF904460E460022284BFBF71D
:1055A00069FC03D84FF0FF30014607E00022254B8D
:1055B00020463146FBF723F8FBF743FC102409E0B3
:1055C000002C0ADB0A220023FBF78AFA039B303205
:1055D0001A55641E50EA0102F2D1641C039AC4F108
:1055E00011031444119A012A03D0012208430DD15A
:1055F0000AE0084304D000204FF0110B119072E72D
:10560000A3EB0B056D1E0DE05B4504DD4FF00002C2
:1056100005F1010504E003DA4FF00002A5F10105F0
:10562000002AECD002981199C0E90231C0E9004586
:1056300079E70000000014400000F03F3000000057
:105640000000F0430000E03F2DE9FF4F95B09B467E
:105650008946064600250FE2252877D100242746F3
:10566000F84A0121059400E0044316F8013F203B6D
:1056700001FA03F01042F7D130782A2811D06FF0E8
:105680002F033078A0F13002092A16D8059A44F089
:10569000020402EB820203EB42021044761C0590E6
:1056A000EFE759F8042B0592002A03DA504244F43C
:1056B0000054059044F00204761C30782E2816D150
:1056C00016F8010F44F004042A280DD06FF02F02C1
:1056D0003078A0F13003092B09D807EB870302EBE0
:1056E0004303C718761CF3E759F8047B761C30781F
:1056F0006C280FD006DC4C2817D068280DD06A28FB
:1057000014D104E0742810D07A280FD10DE044F4AD
:1057100000140AE044F4801401E044F44014727868
:10572000824202D104F58014761C761C30786628FB
:105730000BD013DC582877D009DC002875D0452819
:10574000F6D04628F4D047281AD19DE118E0632806
:1057500035D0642879D0652812D195E1702873D0AE
:1057600008DC6728F1D069286FD06E280DD06F282B
:1057700006D1B5E073282CD0752875D0782874D060
:105780005A46179990476D1C75E1C4F302500228E0
:1057900009D003280DD0D9F8001004280DD00D60D1
:1057A00009F1040967E1D9F80010EA17C1E90052CC
:1057B000F6E7D9F800100D80F2E70D70F0E719F860
:1057C000041B8DF8001000208DF80100EA4601202E
:1057D00003E059F804AB4FF0FF3061074FF00001D0
:1057E00002D40DE008F101018846B9420FDA804584
:1057F000F8DB1AF808100029F4D108E008F10101DB
:1058000088468142FADB1AF808100029F6D105987B
:105810005B46A0EB080721463846179A00F094FA39
:10582000284400EB080507E04DE029E10DE01AF8F7
:10583000010B5A4617999047B8F10108F7D25B4619
:1058400021463846179A13E142E00A220092C4F337
:1058500002524FF0000A022A08D059F804CB032A5A
:105860004FEAEC710AD00DE029E02AE009F10701C6
:1058700021F00702F2E802C1914609E00FFA8CFC20
:105880004FEAEC71042A03D14FFA8CFC4FEAEC7119
:10589000002907DA0A460021DCF1000C61EB020165
:1058A0002D2202E0220504D52B228DF804200122AE
:1058B00003E0E20701D02022F7E7904659E00A21F1
:1058C00002E010220DE010214FF0000A00910BE0E1
:1058D00010224FF0000A44F004040827009203E06D
:1058E00008224FF0000A0092C4F30252022A05D0A7
:1058F00059F804CB0021032A08D009E009F1070177
:1059000021F00702F2E802C1914605E01FFA8CFC83
:10591000042A01D10CF0FF0C4FF00008220728D513
:10592000702806D0009B83F0100353EA0A0305D0C9
:105930000EE040228DF80420012208E05CEA01021A
:1059400006D030228DF804208DF805000222904602
:10595000009B83F0080353EA0A030AD15CEA0102C0
:1059600001D1620705D530228DF804204FF00108DF
:105970007F1E582804D034A003900EA802900DE09A
:1059800036A0F9E753466046009AFBF7A9F884462B
:105990000398825C0298401E029002705CEA01004B
:1059A000F0D1029806A9081A00F1200A600702D572
:1059B00024F4803400E00127574502DDA7EB0A00FC
:1059C00000E0002000EB0A01009005984144401AD5
:1059D0000590E00306D45B462146179A059800F02F
:1059E000B3F90544002706E001A85A46C05D17999F
:1059F00090476D1C7F1C4745F6DBE0030CD55B46EA
:105A00002146179A059800F09FF9054404E03020DC
:105A10005A46179990476D1C0099481E009000291E
:105A2000F5DC08E0029802995A460078491C029178
:105A3000179990476D1CBAF10001AAF1010AF1DC37
:105A400065E1000009280100303132333435363742
:105A500038396162636465660000000030313233BA
:105A6000343536373839414243444546000000005A
:105A700000F058F90544761C307800287FF4ECAD2E
:105A800019B02846BDE8F08F620700D4062709F157
:105A9000070222F0070CFCE80223E14603F000486D
:105AA0005FEA080C02D00FF2702C0DE05FEA045C94
:105AB00002D50FF2682C07E05FEAC47C02D00FF237
:105AC000602C01E0AFF2700C4FF0FF3823F0004380
:105AD000CDF850C065280CD006DC452809D04628F2
