:020000040800F2
:1000000018170020990100089313000891120008A6
:10001000911300084D020008D117000800000000ED
:1000200000000000000000000000000001010008C6
:100030004F020008000000004501000839140008C4
:10004000B3010008B3010008B3010008B3010008C0
:10005000B3010008B3010008B3010008B3010008B0
:10006000B3010008B3010008B3010008B3010008A0
:10007000B3010008B3010008B3010008B301000890
:10008000B3010008B3010008B3010008B301000880
:10009000B3010008B3010008B3010008B301000870
:1000A000B3010008C5140008B3010008B30100083B
:1000B000B3010008B3010008B3010008B301000850
:1000C000B3010008B3010008B3010008B301000840
:1000D000B3010008C5170008B3010008B301000808
:1000E000B3010008B3010008B3010008DFF80CD029
:1000F00000F09AF800480047691800081817002017
:10010000224B19680868B0E8F00F80F30988BFF344
:100110006F8F4FF0000080F311884EF00D0E704786
:100120000000000006480068006880F3088862B696
:1001300061B6BFF34F8FBFF36F8F00DF00BF00BF0B
:1001400008ED00E0EFF30980BFF36F8F0F4B1A68E3
:1001500020E9F00F106008B54FF0500080F31188CF
:10016000BFF34F8FBFF36F8F02F06AF84FF00000BC
:1001700080F31188BDE8084019680868B0E8F00FFE
:1001800080F30988BFF36F8F704700BF2400002001
:10019000EFF3058070470000064880470648004797
:1001A000FEE7FEE7FEE7FEE7FEE7FEE7FEE7FEE727
:1001B000FEE7FEE7C3140008ED00000840EA010373
:1001C0009B0703D009E008C9121F08C0042AFAD20D
:1001D00003E011F8013B00F8013B521EF9D27047D1
:1001E000D2B201E000F8012B491EFBD27047002279
:1001F000F6E710B513460A4604461946FFF7F0FF26
:10020000204610BD30B505462A460B4612F8010BB4
:1002100013F8014B08B1A042F8D01CB1002802D05D
:100220006D1CF1E7284630BD064C074D06E0E0683E
:1002300040F0010394E8070098471034AC42F6D32D
:10024000FFF758FFAC260008CC260008FEE77047F1
:1002500072B6FEE710B590F821100022022905D0F1
:100260000421816380F82020012010BD01680B6803
:1002700023F00E030B6001680B6823F001030B6091
:1002800090F84030C46B012101FA03F3636080F8F9
:10029000211080F82020104610BD000010B590F805
:1002A00021100024022903D00421816301243DE0B0
:1002B00001680A6822F00E020A6001680A6822F0EA
:1002C00001020A601A4A0168914201D1012121E02C
:1002D000174A1432914201D110211BE0144A2832EE
:1002E000914201D1891515E0114A3C32914201D168
:1002F00089140FE00E4A5032914202D14FF48031FE
:1003000008E00B4A6432914202D14FF4801101E0BF
:100310004FF08071064A083A5160012180F821109F
:10032000002180F82010416B01B18847204610BDA4
:10033000080002402DE9F84FDFF8B8910024A9F138
:10034000040B23460F2709F1040AABF1040EC9E0A0
:100350000125A5402A40AA427DD1674ED1F804C0AC
:10036000ACEB0608B44532D014DCBCF1030F3AD034
:1003700009DCBCF1000F2AD0BCF1010F1CD0BCF18C
:10038000020F31D11DE0BCF1110F17D0BCF1120FDB
:100390002AD119E0B8F5881F19D006DCB8F5803FDE
:1003A00015D0B8F5801F1FD111E0B8F5001F0ED091
:1003B000B8F5041F18D10AE0CB6815E0CB681B1D07
:1003C00012E0CB6808330FE0CB680C330CE08B688D
:1003D0002BB1012B4FF0080303D0456104E0042347
:1003E00002E0056100E00023FF2A01D8064601E093
:1003F00000F104064FEA840501D9A5F12005D6F8DD
:10040000008007FA05FC28EA0C0803FA05F548EA1B
:100410000508C6F800804D68ED0062D5374DAE691D
:1004200046F00106AE61AD6924F0030605F0010552
:100430000095334D06EB050CDCF80850A607360F87
:1004400007FA06F825EA0805DFF8B880404503D129
:100450004FF0000817E044E0DFF8AC80404502D1DF
:100460004FF001080FE0DFF8A480404502D14FF0C3
:10047000020808E0DFF89880404502D14FF00308F9
:1004800001E04FF0040808FA06F848EA0508CCF83D
:1004900008804D68D9F80060ED024D4601D516433D
:1004A00000E096432E604D68DAF80060AD025546D4
:1004B00001D5164300E096432E604D68DBF80060DE
:1004C000AD035D4601D5164300E096432E604D68AE
:1004D000DEF80060ED03754601D5164300E0964353
:1004E0002E60641C0D682A46E5407FF431AFBDE8FC
:1004F000F88F0000080401400000111000100240B5
:100500000000014000080140000C014000100140C3
:10051000001401400AB1016170470904FBE70000C3
:10052000014880687047000014000020024881687C
:10053000027811448160704714000020074810B50C
:10054000016841F010010160032000F0A1F80F20C4
:1005500000F006F800F04AF8002010BD002002402C
:1005600030B505461C4887B0816941F4006181615E
:10057000806906A900F40060009001A800F030F93D
:1005800000F05EF91549164AB0FBF1F11548491E15
:100590000260416040F2E7320021C0E9032181603E
:1005A000816100F015FB040012D10E4800F03EFB03
:1005B00004000DD1192000F03DF8102D07D20022C3
:1005C0002946192000F044F80748056000E001249E
:1005D00007B0204630BD00000010024040420F002E
:1005E000002C01407C050020180000200F4808B5B1
:1005F000816941F001018161816901F0010100918E
:10060000C16941F08051C161C069002200F0805091
:1006100000900F21901E00F01BF80548416821F062
:10062000E06141F00071416008BD0000001002402F
:1006300000000140002809DB00F01F020121914069
:100640004009800000F1E020C0F800117047000070
:10065000F0B40E4B1B680C46C3F30223C3F107052D
:10066000042D00D90425191D072901D2002300E01B
:10067000DB1E012606FA05F1491E214099409E40E5
:10068000761E16403143F0BC01F0ACB80CED00E032
:10069000064900F0070208684FF6FF03184040EAD9
:1006A0000220034A10430860704700000CED00E090
:1006B0000000FA052DE9F0470F46050061D0434ED2
:1006C000306800F00700B84209D2306820F0070017
:1006D00038433060306800F00700B84251D12868D4
:1006E0003B4C810712D5400703D5606840F4E060B9
:1006F00060602878000703D5606840F4605060604F
:100700006068A96820F0F000084360602878C0079E
:1007100028D06868012810D02168022810D08907E5
:1007200000292EDA616821F0030101436160FFF7BF
:10073000F7FE804641F288390DE021688903EFE732
:100740008901EDE7FFF7ECFEA0EB0801494502D96E
:100750000320BDE8F0876068696800F00C00B0EB2A
:10076000810FEFD1306800F00700B8420BD9306834
:1007700020F0070038433060306800F00700B842CE
:1007800001D00120E5E72878400705D56068E968D1
:1007900020F4E060084360602878000706D56068B0
:1007A000296920F4605040EAC100606000F058F808
:1007B0006168084AC1F30311515CC84006490860EA
:1007C00006480068FFF7CCFE0020C2E70020024088
:1007D000001002406E2600082000002018000020B3
:1007E0000F2202600C4A536803F00303436053680E
:1007F00003F0F0038360536803F4E063C36052685E
:100800004FF4E06303EAD20202610448006800F09A
:1008100007000860704700000010024000200240FE
:100820000448054900684968044AC1F30221515C43
:10083000C840704720000020001002407E260008BB
:100840000448054900684968044AC1F3C221515C63
:10085000C840704720000020001002407E2600089B
:100860000E4A51680E4801F00C03042B11D0082BDE
:100870000FD10C48C1F38343C903C05C0AD551684A
:10088000084AC1F34041921E515C054A5043B0FBF7
:10089000F1F07047044948437047000000100240DF
:1008A00000127A005E26000800093D002DE9F84F8D
:1008B000040070D02078C04DC00749D06868C0F3EC
:1008C0008100012807D06868C0F38100022809D19F
:1008D0006868C00306D52868800339D56068002899
:1008E000E7D035E06068B0F5803F0BD010B1B0F5CF
:1008F000A02F11D0286820F480302860286820F4C8
:10090000802002E0286840F480302860606890B160
:10091000FFF706FE06460AE0286840F480202860BB
:10092000F0E700BFFFF7FCFD801B642873D8286840
:100930008003F7D50CE0FFF7F3FD064605E000BFA6
:10094000FFF7EEFD801B6428F0D828688003F7D4F9
:1009500020789A4E80074FF001094FF0000839D5F2
:10096000686810F00C0F07D06868C0F38100022897
:1009700009D16868C00306D42868800714D52069A7
:10098000012808D110E02069B0B1C6F80090FFF747
:10099000C7FD074605E00AE1FFF7C2FDC01B0228BC
:1009A000C4D828688007F7D52868616920F0F80066
:1009B00040EAC10028600DE0C6F80080FFF7B0FDF6
:1009C000074604E0FFF7ACFDC01B022823D82868C7
:1009D0008007F7D4207800072CD57948A169D9B1D0
:1009E000C0F80090FFF79CFD074604E0FFF798FD74
:1009F000C01B02280FD8686A8007F7D571484FF4EA
:100A0000FA510068B0FBF1F0009000BF0098411E61
:100A10000091FAD20EE080E0C0F80080FFF780FD80
:100A2000074604E0FFF77CFDC01B022875D8686A02
:100A30008007F7D42078400760D5E8690027C00018
:100A400008D4E86940F08050E861E869012700F0C7
:100A5000805000905C480168C90513D40168834642
:100A600041F480710160FFF75BFD824606E000BF44
:100A7000FFF756FDA0EB0A0064284ED8DBF8000013
:100A8000C005F5D5E06801280AD008B1052813D0C3
:100A9000286A20F001002862286A20F0040002E0A1
:100AA000286A40F001002862E06841F2883B98B172
:100AB000FFF736FD82460BE0286A40F0040028620A
:100AC000EEE700BFFFF72CFDA0EB0A0159455AD80D
:100AD000286A8007F6D50CE0FFF722FD824605E084
:100AE000FFF71EFDA0EB0A0159454CD8286A800784
:100AF000F6D41FB1E86920F08050E861E06988B35E
:100B00006968C1F38101022944D00228C6F86080D7
:100B100004D0FFF705FD044638E034E0FFF700FDA0
:100B2000074604E0FFF7FCFCC01B02282BD828680E
:100B30008001F7D4206AB0F5803F05D16868A168CC
:100B400020F4003008436860D4E90801084369686C
:100B500021F4741108436860C6F86090FFF7E0FC68
:100B6000044606E025E000BFFFF7DAFC001B022880
:100B700009D828688001F7D51BE000BFFFF7D0FC3B
:100B8000001B022802D90320BDE8F88F28688001E5
:100B9000F4D40EE00128F7D06868226A00F48031AE
:100BA000914204D1616A00F47010884201D00120A2
:100BB000EAE70020E8E7000000100240000042429F
:100BC00080044242200000200070004070477047BF
:100BD00010B5040003D094F83D0010B107E00120E7
:100BE00010BD002084F83C00204600F01EF80220D2
:100BF00084F83D00211D206800F06AFC012084F883
:100C0000460084F83E0084F83F0084F8400084F8F1
:100C1000410084F8420084F8430084F8440084F8DA
:100C2000450084F83D00002010BD704790F83D104D
:100C3000012901D001207047022180F83D10016890
:100C4000CA6842F00102CA6000680B49884208D0B5
:100C5000B0F1804F05D00949884202D00849884246
:100C600004D1816801F00701062903D0016841F031
:100C70000101016000207047002C01400004004089
:100C800000080040704770B50446006801694FF0E5
:100C90000005C943890715D4C168C943890711D420
:100CA000E91E0161012020772068806980072046C5
:100CB00002D0FFF7E7FF04E000F098F8204600F0CC
:100CC00096F8257720680169C943490717D4C16898
:100CD000C943490713D46FF0040101610220207752
:100CE0002068806910F4407F204602D0FFF7CAFFD9
:100CF00004E000F07BF8204600F079F825772068C2
:100D00000169C943090716D4C168C943090712D448
:100D10006FF008010161042020772068C069800716
:100D2000204602D0FFF7AEFF04E000F05FF8204657
:100D300000F05DF8257720680169C943C90617D41A
:100D4000C168C943C90613D46FF0100101610820BE
:100D500020772068C06910F4407F204602D0FFF75A
:100D600091FF04E000F042F8204600F040F82577BB
:100D700020680169C943C90708D1C168C943C907C7
:100D800004D1891E0161204600F032F82068016913
:100D9000C943090609D4C168C943090605D46FF0DF
:100DA000800101612046FFF711FF20680169C943F6
:100DB000490609D4C168C943490605D46FF040010A
:100DC0000161204600F01EF820680169C9438906C8
:100DD0000BD4C168C943890607D46FF020010161B3
:100DE0002046BDE87040FFF7F2BE70BD7047704707
:100DF00000680349884201D1FFF798BB70470000A3
:100E0000002C01407047000070B5154C0026154DB0
:100E10002188632917D26A1812F8012C0A2A0AD0ED
:100E2000006840686854491C88B22080284410F843
:100E3000010C0A280CD12088401E81B2094800F01C
:100E4000B7FF268004E0268064210648FFF7CFF92B
:100E500020882918BDE870400122034800F0B0B98D
:100E600084000020B4120020340500207047704731
:100E7000F8B5016804460868CA684B6910F00F0F9E
:100E80004FF0000559D003F0010602F49077374384
:100E900065D0C10705D0D10503D5616C41F00101D2
:100EA0006164410705D5D90703D0616C41F00201A7
:100EB0006164810705D5D90703D0616C41F0040155
:100EC0006164010707D502F02001314303D0616C52
:100ED00041F008016164616C00293AD0800604D5B4
:100EE000900602D5204600F058FB20684069616CEE
:100EF000C0F38010090700D460B3204600F026FB41
:100F000020684069400621D52068143050E8001F51
:100F100021F0400140E80012002AF5D1E06BA8B1B1
:100F20006D494163E06BFFF7B9F9002811D0E06B20
:100F3000416B01B0BDE8F040084783060FD593062A
:100F40000DD52046BDE8F84000F027BB2046FFF74E
:100F50008EFFF8BD2046FFF78AFF6564F8BD266B5B
:100F60002023012E7CD1C6067AD5D60678D508680E
:100F70004868009048694FF00206400640D5E16B92
:100F8000086840680004000CE8D0A28D8242E5D9D0
:100F9000E085886920282DD020680C3050E8001F9B
:100FA00021F4807140E80012002AF5D12068143045
:100FB00050E8001F21F0010140E80012002AF5D19D
:100FC0002068143050E8001F21F0400140E8001272
:100FD000002AF5D184F84230256320680C3050E8AF
:100FE000001F21F0100140E80012002AF5D1E06B4B
:100FF000FFF730F96663A08DE18D401A81B22AE0D7
:10100000A08DE18D401A81B2E08D0028A6D0002984
:10101000A4D022680C3252E8000F20F4907042E80D
:101020000007002FF5D12068143050E8002F22F07F
:10103000010240E80027002FF5D184F842302563F3
:1010400020680C3050E8002F22F0100240E8002306
:10105000002BF5D166632046FFF708FFF8BDFFE7D8
:1010600005062BD5150629D594F841002128F5D180
:10107000A068B0F5805F01D12069B0B1206A411C41
:101080002162216800784860E08C401E0004000C5A
:10109000E084E3D12068C16821F08001C16020684C
:1010A000C16841F04001C160D8E7206A0088C0F300
:1010B00008004860206A801C2062E5E74006CDD524
:1010C0005006CBD5CA68204622F04002CA6084F898
:1010D000413000F0DCF8C1E73D15000870B50400B0
:1010E00004D094F84100002510B106E0012070BD45
:1010F00084F84050204600F023F8242084F8410072
:101100002068C16821F40051C160204600F0A6FAB1
:101110002068016921F4904101612068416921F052
:101120002A0141612068C16841F40051C1606564D1
:10113000202084F8410084F842006563002070BDDF
:1011400030B585B0002400940194029403940068A3
:10115000184988422CD11848816941F48041816145
:10116000816901F480410491816941F00401816148
:101170008069124D00F0040004904FF4007000905C
:10118000022001900320039069462846FFF7D2F819
:101190002815CDE90004694628460294FFF7CAF8ED
:1011A000002205212520FFF753FA2520FFF742FAF8
:1011B00005B030BD00380140001002400008014079
:1011C00090F84230202B01D00220704721B11AB193
:1011D0000023036300F09EBA0120704700680349B2
:1011E000884202D10248FFF70FBE70470038014025
:1011F000340500202DE9F843044690F841001F46CD
:1012000016460D46202802D00220BDE8F8837DB1A5
:1012100076B100206064212084F84100FFF780F956
:10122000A6848046E684A068B0F5805F02D003E023
:101230000120EAE7206910B12E4600250EE00026C5
:101240000CE08021204600F080FAA0B9AEB116F87B
:10125000010B21684860E08C401EE084E08C43462E
:101260004FF0000200970028EBD14FF040012046DC
:1012700000F06BFA30B10320C7E735F8020BC0F37A
:101280000800E6E7202084F841000020BDE7704711
:10129000FEE7000010B596B01C2211496846FEF723
:1012A0008DFF0021684600F0FEFA0E4C0C491C220E
:1012B000A0601C3107A8FEF781FF002107A800F0FD
:1012C000F2FA0749E0601C2238310EA8FEF776FFDB
:1012D00000210EA800F0E7FA206116B010BD000052
:1012E000082600080000002070B586B000241848C9
:1012F0000094019402940394816941F0100181618A
:10130000816901F010010491816941F0200181613E
:10131000816901F020010491816941F0040181613A
:1013200080690C4E00F004004FF400550490002238
:1013300029463046FFF7EEF801200095CDE901047B
:101340000220039069463046FEF7F4FF06B070BDF8
:1013500000100240001001400C4810B50A4901601D
:101360004FF4E1314160002181600C22C160C0E98D
:1013700004128161C161FFF7B1FE002803D0BDE80E
:101380001040FEF765BF10BD003801403405002055
:10139000FEE7FEE7012000F07AFAFBE70A4C4FF483
:1013A0007A752068401C20600A2805D107A000F04B
:1013B00011FA206900F0A2FA09A000F00BFA284601
:1013C00000F065FAEDE70000000000205461736B47
:1013D0003320697320526573756D650D0A00000036
:1013E0005461736B320D0A000A4C4FF47A756068D1
:1013F000401C6060052805D107A000F0EBF9002033
:1014000000F096FA09A000F0E5F9284600F03FFA4E
:10141000EDE70000000000205461736B3320697316
:101420002053757370656E640D0A00005461736B10
:101430003320656E640D0A0010B5502080F31188CA
:10144000BFF34F8FBFF36F8F00F0D4FF18B1044983
:101450004FF080500860002080F3118810BD00001C
:1014600004ED00E030B58FB028216846FEF7BFFEDE
:1014700014210AA8FEF7BBFE01210804CDE90010E3
:101480000024029402250491CDE907504FF4E010A6
:1014900009906846FFF70AFA08B172B6FEE70F2016
:1014A000CDE90A054FF48060CDE90C4002210AA87D
:1014B0000E94FFF7FFF8002801D072B6FEE70FB0D8
:1014C00030BD70470148FFF7DEBB00007C050020FF
:1014D000F0B50268164B174C174D4FF080479842F5
:1014E00005D0B84203D0A04201D0A84203D122F0D7
:1014F00070064A683243984205D0B84203D0A042F1
:1015000001D0A84203D122F44074CA6822434C6936
:1015100022F08002224302608A68C2620A68826204
:10152000984201D10969016301214161F0BD0000C8
:10153000002C0140000400400008004010B5406A43
:101540000021C185C184FFF792FC10BD01680C31F8
:1015500051E8002F22F4907241E80023002BF5D1CE
:101560000168143151E8002F22F0010241E8002304
:10157000002BF5D1016B012909D101680C3151E82B
:10158000002F22F0100241E80023002BF5D120218A
:1015900080F8421000210163704708B590F84210AE
:1015A000222901D0022008BD82684FF480539A425C
:1015B00001D1016921B1816A9A421BD04AB10AE086
:1015C0000268816A5268C2F308020A80816A891C33
:1015D00008E0026972B10268526802F07F020A7084
:1015E000816A491C8162C18D491E0904090CC185AB
:1015F00003D01BE002685268F1E70168CA6822F074
:101600002002CA600168CA6822F48072CA60016858
:101610004A6922F001024A61202180F8421000212B
:101620004163026B012A03D0FFF7D8FD002008BDFB
:10163000016301680C3151E8002F22F0100241E8EB
:101640000023002BF5D101680A68D20602D50A688A
:1016500049680091818DFFF709FCE7E770B5044602
:1016600000680169E26821F4405111430161216978
:10167000A0680843616908432168CA6841F20C63A5
:101680009A430243CA6020684169A26921F440710B
:10169000114341611E492068884202D1FFF7D0F80A
:1016A00001E0FFF7BDF800EBC00101EB001260683C
:1016B00064218000B2FBF0F3B3FBF1F36FF0180686
:1016C0007343B2FBF0F5B2FBF0F605EB8305322372
:1016D00003EB0515B5FBF1F5B6FBF1F605F0F005EA
:1016E00005EB0615B2FBF0F6B2FBF0F0B0FBF1F043
:1016F0006FF01802504306EB800003EB0010B0FBC4
:10170000F1F0216800F00F002844886070BD0000EF
:101710000038014081628285C28500214164222116
:1017200080F84210016921B10168CA6842F48072F0
:10173000CA6001684A6942F001024A610068C168F2
:1017400041F02001C160002070472DE9F04198462A
:1017500017460E460446069D27E0681C25D02DB18D
:10176000FEF7DEFEA0EB0800A8421ED920680C3070
:1017700050E8001F21F4D07140E80012002AF5D192
:101780002068143050E8001F21F0010140E80012E9
:10179000002AF5D1202084F8410084F8420000207E
:1017A00084F840000320BDE8F0812068006836EA34
:1017B000000004D00020B842CFD00020F3E7012081
:1017C000F9E700000148FFF753BB00003405002093
:1017D000FEE70000014A024900F023B8451800085E
:1017E000880000200907090E002804DB00F1E02032
:1017F00080F80014704700F00F0000F1E02080F83E
:10180000141D704702E008C8121F08C1002AFAD14F
:1018100070477047002001E001C1121F002AFBD170
:1018200070472DE9F04116460F460446002503E0B7
:101830003946B047641C6D1C20780028F8D1284632
:10184000BDE8F08113B54FF47A730122694602486E
:10185000FFF7D0FC00981CBD34050020EFF3058095
:10186000002800D001207047FEF768FEFFF7FAFD60
:10187000FFF73AFDFFF770FDFFF70CFD00F00EF8E3
:10188000FEE701460020842900D0C81C704710B52F
:1018900000B9012000F0D4FB002010BD10B500F00D
:1018A00033FC002010BD7FB50D4604464169B0F9F8
:1018B000080081B1A16971B1FFF7E3FFD4E9051216
:1018C0008DE80700D4E900102B46226900F067FD7F
:1018D000039004B070BDFFF7D4FF03A9CDE9000168
:1018E000208A2B4682B2D4E9001000F02BFD01289B
:1018F00001D00020EDE70398EBE7000010B50446A7
:10190000FFF7ACFF002820460BD000F039FE01287D
:1019100009D1064900070860BFF34F8FBFF36F8FEF
:1019200001E000F0B3FB002010BD000004ED00E07A
:1019300010B500F01FFC002010BD00002DE9F041A3
:10194000184C0F46054666692068001D00F08AFAAB
:1019500038B9206890F82C1001208840A169814393
:10196000A161681C07D137B12168BDE8F0410E487C
:10197000091D00F0BBBA20683544B54245602168B6
:1019800005D2A068BDE8F041091D00F097BA606873
:10199000091D00F093FA206B854200D22563BDE853
:1019A000F081000024000020A00600202DE9F04175
:1019B000054600F0A7FA2E4C2069401C20612068E3
:1019C0002C4F10B1E06940B32DE02560206901285B
:1019D00029D1002606EB860007EB800000F060FAB4
:1019E000761C072EF6D323488C3000F059FA214894
:1019F000A03000F055FA1F48B43000F051FA1D48ED
:101A0000C83000F04DFA1B48DC3000F049FA1948A4
:101A10008C3060601430A06005E02068E96AC06A1C
:101A2000884200D82560E06A401CE062E96A012033
:101A3000A26988401043A06101EB810007EB8000A0
:101A4000291D00F053FA00F07DFAE06900280CD05F
:101A50002068E96AC06A884207D207494FF080507F
:101A60000860BFF34F8FBFF36F8FBDE8F0810000B8
:101A700024000020C405002004ED00E010B5044659
:101A800090F8510058B101280CD002280FD05020F6
:101A900080F31188BFF34F8FBFF36F8FFEE7206B8A
:101AA00000F064FA2046BDE8104000F05FBA10BDB7
:101AB00010484FF44061420706D0C01D0D4920F088
:101AC0000700411AC1F540610B4A00230144C2E9F5
:101AD00000030839103A21F0070111604B600B60D8
:101AE0000B1AC0E9001393604FF000405360D060C0
:101AF00070470000B406002070000020144E154C02
:101B0000A6F1C8074FF08058DFF84C9012E000BFF4
:101B100000F0F8F9F068C568281D00F0A3F9206905
:101B2000401E2061E068401EE06000F00BFA28468D
:101B3000FFF7A4FFE0680028EAD138680128F9D946
:101B4000C9F80080BFF34F8FBFF36F8FF2E700003B
:101B50008C0600202400002004ED00E02DE9F04771
:101B60009A46DDE9098481466FF00303206B03EB9D
:101B700082021044089D20F00706700707D050200D
:101B800080F31188BFF34F8FBFF36F8FFEE72318E9
:101B90000A5C83F834200A5C12B1401C1028F6D38A
:101BA000002784F84370072D00D30625E562C4E9B9
:101BB0001157201D00F07FF904F1180000F07BF9A7
:101BC0002461C5F107006462A061E76484F8507085
:101BD00052464946304600F0D9F82060B8F1000F6F
:101BE00001D0C8F80040BDE8F087000030B51149C9
:101BF00000E011460A688242FBD34B685C188442BD
:101C000003D1406818444860084643681C18944251
:101C100009D1084C103C2468A24209D052681A44E9
:101C200042600A6812680260814200D0086030BDDC
:101C30000460F9E77000002006484168096829B18E
:101C40004168C968C9684968016370474FF0FF314E
:101C5000FAE700002400002008484068401C4FF0CC
:101C6000500080F3118804D0BFF34F8FBFF36F8F04
:101C7000FEE7BFF34F8FBFF36F8FFEE778000020C2
:101C8000002150B10A4B42699A420FD1806AA3F1F8
:101C9000280290420AD040B108E0502080F3118819
:101CA000BFF34F8FBFF36F8FFEE7012108467047E8
:101CB000A00600202DE9F0410546002700F0B8FA03
:101CC000314E306808B9FFF7F3FEF06805424BD19A
:101CD000C5B3083568070ED005F00700C0F108004D
:101CE0000544680707D0502080F31188BFF34F8F59
:101CF000BFF36F8FFEE72DB37068854234D822485A
:101D0000103001460C6801E020460C466168A9428B
:101D100002D221680029F7D131688C4224D00768AB
:101D20002168016060680837411B10290FD96019CC
:101D3000420708D0502080F31188BFF34F8FBFF3C4
:101D40006F8FFEE710E041606560FFF74FFF61684D
:101D50007068401A7060B268904200D2B060F0685B
:101D600001430020C4E9000100F0A8FB780707D078
:101D7000502080F31188BFF34F8FBFF36F8FFEE7C2
:101D80003846BDE8F08100006000002010B5031F58
:101D90004FF080741C601B1F21F001011960191F96
:101DA000024B0B60143940380A6010BD591C000802
:101DB00070B5054614A1FEF725FA164C18B116A009
:101DC000FFF708FD0EE018A12846FEF71BFA18B130
:101DD00018A0FFF7FFFC0CE01AA12846FEF712FA44
:101DE0001B4C08B1002205E01AA12846FEF70AFAAA
:101DF00020B1012220212046FEF78CFBBDE8704077
:101E000064211748FEF7F3B94C454431204F4E0D7D
:101E10000A000000000C01404C4544312069732049
:101E20004F4E0D0A000000004C454431204F4646FD
:101E30000D0A00004C454431206973204F46460D81
:101E40000A0000004C454432204F4E0D0A000000AD
:101E5000001801404C454432204F46460D0A000010
:101E6000B4120020D0E9013201699A60D0E901235F
:101E70005A604A68824201D182684A600022026147
:101E80000868401E0860086870470000034B036044
:101E900003F154000860802010607047E0020020C9
:101EA00000F108014FF0FF32C0E90112C160016189
:101EB00000210160704700210161704730B50B6857
:101EC0005A1C02D000F1080202E0026904E0224636
:101ED000546825689D42FAD953684B6099608A60BE
:101EE000516008610168491C016030BD42684A6068
:101EF00093688B6093685960916008610168491C20
:101F000001607047502080F31188BFF34F8FBFF3FB
:101F10006F8F0A494868401C486001280CD1084866
:101F2000006810F0FF0F07D0502080F31188BFF336
:101F30004F8FBFF36F8FFEE77047000078000020DF
:101F400004ED00E00849486828B1401E486001D10E
:101F500080F311887047502080F31188BFF34F8FB2
:101F6000BFF36F8FFEE700007800002070B50028F7
:101F700027D0144DA0F108046168E868014207D138
:101F8000502080F31188BFF34F8FBFF36F8FFEE7B0
:101F900022683AB1502080F31188BFF34F8FBFF30E
:101FA0006F8FFEE78143616000F042F96068696805
:101FB000084468602046FFF719FEBDE8704000F055
:101FC0007DBA70BD600000204FF0E020002101616B
:101FD000816105494FF47A720968B1FBF2F1491E3B
:101FE00041610721016170472000002010B5FEF714
:101FF000CFF8114910280ED300F1E02090F8F0033B
:102000000A78904207D2502080F31188BFF34F8F97
:10201000BFF36F8FFEE709480068896800F4E0604D
:10202000884207D9502080F31188BFF34F8FBFF348
:102030006F8FFEE710BD0000780000200CED00E07F
:1020400010B5020014D00F48806B38B1502080F3D7
:102050001188BFF34F8FBFF36F8FFEE700F0E8F8F2
:1020600000211046FFF76AFC00F028FA002807D18B
:1020700005494FF080500860BFF34F8FBFF36F8F5B
:1020800010BD00002400002004ED00E070B5040045
:102090002BD01A4D286884422FD0FFF733FF2046FB
:1020A000FFF7EEFDE8B1201DFFF7DCFEE06A01213D
:1020B000AA6981401143A961114900EB800001EB3D
:1020C0008000211DFFF712FFE06A2968C96A884273
:1020D00007D30C494FF080500860BFF34F8FBFF318
:1020E0006F8FBDE87040FFF72DBF502080F311883F
:1020F000BFF34F8FBFF36F8FFEE770BD240000204A
:10210000C405002004ED00E010B586B0002403945F
:1021100005AA04A903A80494FFF7B8FEDDE90301AA
:102120000094CDE9011000230EA11048059A00F09B
:1021300036F90F490028486311D0502080F31188E8
:10214000BFF34F8FBFF36F8F4FF0FF300863012055
:10215000C8614C6106B0BDE8104000F09FB806B001
:1021600010BD000049444C4500000000FD1A000865
:102170002400002070B50446FFF7C4FE294D04B9C1
:102180002C68201DFFF76EFE58B9E06A264A00EB66
:10219000800152F8211021B901218140A8698843AA
:1021A000A861A06A18B104F11800FFF75BFE1E4891
:1021B000211DDC30FFF79AFE94F85000002601281C
:1021C00001D184F85060FFF7BDFEE86928B1FFF740
:1021D00099FEFFF731FDFFF7B5FE2868844213D161
:1021E000E86990B1A86B38B1502080F31188BFF333
:1021F0004F8FBFF36F8FFEE70C494FF080500860A0
:10220000BFF34F8FBFF36F8F70BD0748DC3000689E
:102210002969884201D12E6070BDBDE8704000F090
:102220000FB8000024000020C405002004ED00E0E9
:102230000248816B491C8163704700002400002024
:102240001448816B11B10121416270470021416244
:102250008169B1FA81F1C1F11F0101EB81020E49DF
:1022600051F822306BB101EB820101F108034A6899
:1022700052684A609A4201D152684A60D16801604E
:102280007047502080F31188BFF34F8FBFF36F8FDB
:10229000FEE7000024000020C40500201CB52649EC
:1022A00008780190FF20087008788DF800009DF8EC
:1022B00000009DF8002000F0F000904207D0502070
:1022C00080F31188BFF34F8FBFF36F8FFEE79DF848
:1022D00000001A4B00F0500018700720986005E0CD
:1022E0009DF8002052008DF80020401E9DF800202F
:1022F0001206F5D49860032807D0502080F3118887
:10230000BFF34F8FBFF36F8FFEE74FF440709860BD
:10231000019808700A48016841F470010160016881
:1023200041F070410160FFF74FFE00205860FDF75B
:10233000F9FE00201CBD000000E400E07800002051
:1023400020ED00E02DE9FF5F8346DDE90E87994629
:1023500016468A469000FFF7ADFC05001CD05420BD
:10236000FFF7A8FC040014D00020256384F8510076
:10237000CDE90240CDE900874B46324651465846EA
:10238000FFF7ECFB2046FFF711FB012004B0BDE88E
:10239000F09F2846FFF7EAFD4FF0FF30F6E7F0B573
:1023A00085B0DDE90B640A9DA6B1DCB15427009726
:1023B0002663022684F85160002604AFCDE9024668
:1023C000CDE90057FFF7CAFB2046FFF7EFFA049864
:1023D00005B0F0BD502080F31188BFF34F8FBFF3DD
:1023E0006F8FFEE7502080F31188BFF34F8FBFF34C
:1023F0006F8FFEE72DE9F0412E4C0027A06B40B116
:10240000206A401C2062606A00B101273846BDE89E
:10241000F0816669761C666113D16068006838B126
:10242000502080F31188BFF34F8FBFF36F8FFEE70B
:102430006068A1686160A060A06A401CA062FFF7AC
:10244000FBFB206BDFF87080864209D36068006870
:1024500080B16068C068C568686886420DD2206334
:102460002068C06A00EB800158F821000128CAD911
:102470000127C8E74FF0FF30F1E7281DFFF7F2FC16
:10248000A86A18B105F11800FFF7ECFCE86A012111
:10249000A26981401143A16100EB800108EB81003A
:1024A000291DFFF723FDE86A2168C96A8842CDD358
:1024B0000127CBE724000020C40500202DE9F047C8
:1024C0002C4D00242746A86B38B1FFF71BFDA86BE5
:1024D000401EA863A86B40B146E0502080F31188ED
:1024E000BFF34F8FBFF36F8FFEE72969224E0120A4
:1024F000D1B3A6F1B40980463068E8B1F068C46889
:1025000004F11800FFF7AEFC201DFFF7ABFCE06AFA
:10251000AA6908FA00F11143A96100EB800109EBF7
:102520008100211DFFF7E2FCE06A2968C96A884240
:10253000E2D3C5F82480DFE70CB1FFF77DFB2C6AFE
:1025400044B14646FFF756FF00B16E62641EF9D1F2
:1025500000202862686A38B10849012738070860F6
:10256000BFF34F8FBFF36F8FFFF7ECFC3846BDE82A
:10257000F0870000240000207806002004ED00E031
:102580002DE9F0410027040015D0FFF72FFD502062
:10259000EFF3118580F31188BFF34F8FBFF36F8F77
:1025A0002046FFF76DFB30B3154EB06B58B104F108
:1025B000180114481DE0502080F31188BFF34F8F9D
:1025C000BFF36F8FFEE7E06A3168C96A884200D3C3
:1025D0000127201DFFF746FCE16A0120B26988400F
:1025E0001043B06101EB81000649B43901EB800072
:1025F000211DFFF77BFC85F311883846BDE8F0818B
:102600002400002078060020A0260008951300086A
:10261000000000000000000080000000000000003A
:1026200000000000882600089D130008000000003C
:1026300000000000800000008C0000208C020020C0
:1026400094260008E91300080200000000000000C2
:1026500080000000000000000000000001020203F2
:102660000405060708090A0B0C0D0E0F10100000D8
:102670000000000000000102030406070809000032
:1026800000000102030400006D795461736B303265
:10269000000000006D795461736B3033000000005E
:1026A00064656661756C745461736B00CC260008B8
:1026B000000000208C0000000418000858270008C3
:1026C0008C0000208C160000141800080000000088
:1026D00000000000000000000000000000000000FA
:1026E0000100000010000000000000000024F400C1
:1026F00000000000000000000000000000000000DA
:1027000000000000000000000000000000000000C9
:1027100000000000000000000000000000000000B9
:1027200000000000000000000000000000000000A9
:102730000000000000000000000000000000000099
:102740000000000000000000AAAAAAAA00000000E1
:08275000000000000000000081
:04000005080000ED02
:00000001FF
