:020000040800F2
:10000000D82A0020DD0100089F170008E31500082A
:100010009D1700086D020008F51C00080000000094
:100020000000000000000000000000004501000882
:100030006F0200080000000089010008CD170008C9
:10004000F7010008F7010008F7010008F7010008B0
:10005000F7010008F7010008F7010008F7010008A0
:10006000F7010008F7010008F7010008F701000890
:10007000F7010008F7010008F7010008F701000880
:10008000F7010008F7010008F7010008F701000870
:10009000F7010008F7010008F7010008F701000860
:1000A000F7010008F7010008F7010008F701000850
:1000B000F701000859180008F7010008F7010008C7
:1000C000F7010008F7010008F7010008F701000830
:1000D000F7010008DD1C0008E91C0008F701000812
:1000E000F7010008F7010008F7010008F701000810
:1000F000F7010008F7010008F7010008F701000800
:10010000F7010008F7010008F7010008F7010008EF
:10011000F7010008F70100086518000871180008C9
:10012000F7010008F7010008F7010008F7010008CF
:10013000DFF80CD000F088F800480047511E000896
:10014000D82A0020224B19680868B0E8F00F80F325
:100150000988BFF36F8F4FF0000080F311884EF0D5
:100160000D0E70470000000006480068006880F32C
:10017000088862B661B6BFF34F8FBFF36F8F00DFA1
:1001800000BF00BF08ED00E0EFF30980BFF36F8F01
:100190000F4B1A6820E9F00F106008B54FF05000BF
:1001A00080F31188BFF34F8FBFF36F8F02F098FD7C
:1001B0004FF0000080F31188BDE808401968086816
:1001C000B0E8F00F80F30988BFF36F8F704700BF6E
:1001D00030000020EFF3058070470000064880479C
:1001E00006480047FEE7FEE7FEE7FEE7FEE7FEE71C
:1001F000FEE7FEE7FEE7FEE75718000831010008BA
:1002000040EA01039B0703D009E008C9121F08C098
:10021000042AFAD203E011F8013B00F8013B521E18
:10022000F9D27047D2B201E000F8012B491EFBD28F
:1002300070470022F6E710B513460A4604461946F1
:10024000FFF7F0FF204610BD064C074D06E0E068C2
:1002500040F0010394E8070098471034AC42F6D30D
:10026000FFF76AFFEC3A00080C3B0008FEE7704716
:1002700072B6FEE710B590F821100022022905D0D1
:100280000421816380F82020012010BD01680B68E3
:1002900023F00E030B6001680B6823F001030B6071
:1002A00090F84030C46B012101FA03F3636080F8D9
:1002B000211080F82020104610BD00002DE9F05FCD
:1002C00090F821100024022903D004218163012425
:1002D00085E001680A6822F00E020A6001680A6877
:1002E00022F001020A603F4E3E4FB215DFF8F4C023
:1002F000DFF8F090DFF8ECA0DFF8E8B0DFF8E4E03A
:100300000168783F13011502ACF1640CA9F15009A2
:10031000AAF13C0AABF1280BAEF1140E4FF4801891
:10032000B14227D9B9420ED0614512D049451DD0FE
:10033000514518D0594518D0714501D1424615E0B4
:10034000294EB14201D1012210E0274E1436B142AC
:1003500001D110220AE0244E2836B14206D0224AAA
:100360003C32914201D11A4600E02A461E49091F3B
:100370000A602BE0B94213D0614517D0494522D01D
:1003800051451DD059451DD0714501D142461AE055
:10039000B14202D14FF0807215E0134EB14201D14B
:1003A000012210E0104E1436B14201D110220AE0B1
:1003B0000D4E2836B14206D00B4A3C32914201D153
:1003C0001A4600E02A46074980394A60012180F830
:1003D0002110002180F82010416B01B18847204690
:1003E000BDE8F09F80000240080402402DE9F84F6C
:1003F000DFF8C8910024A9F1040B23460F2709F167
:10040000040AABF1040ED1E00125A54006EA05027D
:10041000AA4276D1DFF8A8C14E68A6EB0C08664563
:100420002BD00DDC032E34D005DC36B3012E19D0D1
:10043000022E2FD11BE0112E16D0122E2AD119E038
:10044000B8F5881F19D006DCB8F5803F15D0B8F58F
:10045000801F1FD111E0B8F5001F0ED0B8F5041FA2
:1004600018D10AE0CB6815E0CB681B1D12E0CB6801
:1004700008330FE0CB680C330CE08B682BB1012BF9
:100480004FF0080303D0456104E0042302E0056156
:1004900000E00023FF2A01D8064601E000F104062F
:1004A0004FEA840501D9A5F12005D6F8008007FAA6
:1004B00005FC28EA0C0803FA05F548EA0508C6F821
:1004C00000804D68ED0070D53E4DAE6946F00106E6
:1004D000AE61AD6924F0030605F0010500953A4DC3
:1004E00006EB050CDCF80850A607360F07FA06F8ED
:1004F00025EA0805DFF8D480404503D14FF0000815
:1005000025E052E0DFF8C880404502D14FF00108F5
:100510001DE0DFF8C080404502D14FF0020816E030
:10052000DFF8B480404502D14FF003080FE0DFF858
:10053000AC80404502D14FF0040808E0DFF8A0800D
:10054000404502D14FF0050801E04FF0060808FAD7
:1005500006F848EA0508CCF808804D68D9F800602C
:10056000ED024D4601D5164300E096432E604D68DE
:10057000DAF80060AD02554601D5164300E0964317
:100580002E604D68DBF80060AD035D4601D5164373
:1005900000E096432E604D68DEF80060ED0375467E
:1005A00001D5164300E096432E60641C0A68164687
:1005B000E2407FF429AFBDE8F88F00000804014055
:1005C000000011100010024000000140000801402E
:1005D000000C0140001001400014014000180140CF
:1005E000001C014001488068704700002000002086
:1005F0000248816802781144816070472000002021
:10060000074810B5016841F010010160032000F0B7
:10061000A7F80F2000F006F800F050F8002010BDF9
:100620000020024030B505461F4887B0C16941F03F
:100630002001C161C06906A900F02000009001A856
:1006400000F036F90498B0B100F052F940001749B3
:10065000174AB0FBF1F11748491E0260416040F2B1
:10066000E7320021C0E903218160816100F056FB7F
:10067000040003D015E000F03BF9E8E70D4800F076
:10068000ADFB04000DD1372000F03CF8102D07D24F
:1006900000222946372000F043F80748056000E0B3
:1006A000012407B0204630BD0010024040420F0038
:1006B0000014004078180020240000200F4808B5DE
:1006C000816941F001018161816901F001010091BD
:1006D000C16941F08051C161C069002200F08050C1
:1006E00000900F21901E00F01BF80548416821F092
:1006F000E06141F00071416008BD0000001002405F
:1007000000000140002809DB00F01F020121914098
:100710004009800000F1E020C0F80011704700009F
:10072000F0B40E4B1B680C46C3F30223C3F107055C
:10073000042D00D90425191D072901D2002300E04A
:10074000DB1E012606FA05F1491E214099409E4014
:10075000761E16403143F0BC01F0DEBA0CED00E02D
:10076000064900F0070208684FF6FF03184040EA08
:100770000220034A10430860704700000CED00E0BF
:100780000000FA052DE9F0470F46050061D0434E01
:10079000306800F00700B84209D2306820F0070046
:1007A00038433060306800F00700B84251D1286803
:1007B0003B4C810712D5400703D5606840F4E060E8
:1007C00060602878000703D5606840F4605060607E
:1007D0006068A96820F0F000084360602878C007CE
:1007E00028D06868012810D02168022810D0890715
:1007F00000292EDA616821F0030101436160FFF7EF
:10080000F1FE804641F288390DE021688903EFE767
:100810008901EDE7FFF7E6FEA0EB0801494502D9A3
:100820000320BDE8F0876068696800F00C00B0EB59
:10083000810FEFD1306800F00700B8420BD9306863
:1008400020F0070038433060306800F00700B842FD
:1008500001D00120E5E72878400705D56068E96800
:1008600020F4E060084360602878000706D56068DF
:10087000296920F4605040EAC100606000F058F837
:100880006168084AC1F30311515CC8400649086019
:1008900006480068FFF7C6FE0020C2E700200240BD
:1008A00000100240B63A00082C000020240000206E
:1008B0000F2202600C4A536803F00303436053683D
:1008C00003F0F0038360536803F4E063C36052688D
:1008D0004FF4E06303EAD20202610448006800F0CA
:1008E000070008607047000000100240002002402E
:1008F0000448054900684968044AC1F30221515C73
:10090000C84070472C00002000100240C63A000882
:100910000448054900684968044AC1F3C221515C92
:10092000C84070472C00002000100240C63A000862
:100930000E4A51680E4801F00C03042B11D0082B0D
:100940000FD10C48C1F38343C903C05C0AD5516879
:10095000084AC1F34041921E515C054A5043B0FB26
:10096000F1F070470449484370470000001002400E
:1009700000127A00A63A000800093D002DE9F84F60
:10098000040070D02078C04DC00749D06868C0F31B
:100990008100012807D06868C0F38100022809D1CE
:1009A0006868C00306D52868800339D560680028C8
:1009B000E7D035E06068B0F5803F0BD010B1B0F5FE
:1009C000A02F11D0286820F480302860286820F4F7
:1009D000802002E0286840F480302860606890B190
:1009E000FFF700FE06460AE0286840F480202860F1
:1009F000F0E700BFFFF7F6FD801B642873D8286876
:100A00008003F7D50CE0FFF7EDFD064605E000BFDB
:100A1000FFF7E8FD801B6428F0D828688003F7D42E
:100A200020789A4E80074FF001094FF0000839D521
:100A3000686810F00C0F07D06868C0F381000228C6
:100A400009D16868C00306D42868800714D52069D6
:100A5000012808D110E02069B0B1C6F80090FFF776
:100A6000C1FD074605E00AE1FFF7BCFDC01B0228F7
:100A7000C4D828688007F7D52868616920F0F80095
:100A800040EAC10028600DE0C6F80080FFF7AAFD2B
:100A9000074604E0FFF7A6FDC01B022823D82868FC
:100AA0008007F7D4207800072CD57948A169D9B1FF
:100AB000C0F80090FFF796FD074604E0FFF792FDAF
:100AC000C01B02280FD8686A8007F7D571484FF419
:100AD000FA510068B0FBF1F0009000BF0098411E91
:100AE0000091FAD20EE080E0C0F80080FFF77AFDB6
:100AF000074604E0FFF776FDC01B022875D8686A38
:100B00008007F7D42078400760D5E8690027C00047
:100B100008D4E86940F08050E861E869012700F0F6
:100B2000805000905C480168C90513D40168834671
:100B300041F480710160FFF755FD824606E000BF79
:100B4000FFF750FDA0EB0A0064284ED8DBF8000048
:100B5000C005F5D5E06801280AD008B1052813D0F2
:100B6000286A20F001002862286A20F0040002E0D0
:100B7000286A40F001002862E06841F2883B98B1A1
:100B8000FFF730FD82460BE0286A40F0040028623F
:100B9000EEE700BFFFF726FDA0EB0A0159455AD842
:100BA000286A8007F6D50CE0FFF71CFD824605E0B9
:100BB000FFF718FDA0EB0A0159454CD8286A8007B9
:100BC000F6D41FB1E86920F08050E861E06988B38D
:100BD0006968C1F38101022944D00228C6F8608007
:100BE00004D0FFF7FFFC044638E034E0FFF7FAFCDE
:100BF000074604E0FFF7F6FCC01B02282BD8286844
:100C00008001F7D4206AB0F5803F05D16868A168FB
:100C100020F4003008436860D4E90801084369689B
:100C200021F4741108436860C6F86090FFF7DAFC9D
:100C3000044606E025E000BFFFF7D4FC001B0228B5
:100C400009D828688001F7D51BE000BFFFF7CAFC70
:100C5000001B022802D90320BDE8F88F2868800114
:100C6000F4D40EE00128F7D06868226A00F48031DD
:100C7000914204D1616A00F47010884201D00120D1
:100C8000EAE70020E8E700000010024000004242CE
:100C9000800442422C0000200070004070477047E2
:100CA00070B590F83C20012A2CD0012480F83C40FB
:100CB000022280F83D2003685A689D6822F0700681
:100CC0000A6832435A60104B02689A420ED00F4BAA
:100CD0009A420BD0B2F1804F08D00D4B9A4205D00A
:100CE0000C4B9A4202D00C4B9A4204D1496825F031
:100CF00080031943916080F83D40002180F83C104A
:100D0000084670BD022070BD002C01400034014037
:100D10000004004000080040000C004010B5040032
:100D200003D094F83D0010B107E0012010BD002071
:100D300084F83C00204600F01FF8022084F83D00B3
:100D4000211D206800F09AFD012084F8460084F8F7
:100D50003E0084F83F0084F8400084F8410084F8A5
:100D6000420084F8430084F8440084F8450084F885
:100D70003D00002010BD000008B5154A0168154867
:100D800091420ED1C16941F00201C161C0690022E6
:100D900000F00200009005211D20FFF7C1FC1D207E
:100DA00010E00D4A914211D1C16941F01001C161B9
:100DB000C069002200F01000009005213620FFF7E6
:100DC000AFFC3620BDE80840FFF79CBC08BD000022
:100DD00000040040001002400010004090F83D1058
:100DE000012901D001207047022180F83D100168DF
:100DF000CA6842F00102CA6000680E4988420ED0FB
:100E00000D4988420BD0B0F1804F08D00B49884281
:100E100005D00B49884202D00A49884204D1816832
:100E200001F00701062903D0016841F001010160CA
:100E300000207047002C01400034014000040040B5
:100E400000080040000C00400168CA6822F001025E
:100E5000CA6001680A6A41F211131A4207D10A6A8C
:100E60009B101A4203D10A6822F001020A60012194
:100E700080F83D100020704770B5044690F83C00A3
:100E80000025012817D0012684F83C60022084F850
:100E90003D002068826822F0770222F47F4282605F
:100EA0000868502838D00DDC20284FD005DC90B3DE
:100EB000102811D14AE0022070BD302846D04028C9
:100EC0000AD13BE060282FD070280DD0B0F5805FAC
:100ED00003D0B0F5005F12D0012584F83D600020FA
:100EE00084F83C00284670BDCB68D1E90121206818
:100EF00000F012FD2068816841F0770109E0CB68BD
:100F0000D1E90121206800F007FD2068816841F4E3
:100F100080418160E1E719E0CA684968206800F013
:100F20000DFD5021206806E0CA684968206800F07D
:100F300016FD6021206800F0F9FCCEE7CA68496818
:100F4000206800F0FBFC40212068F4E7226801469D
:100F50001046F0E770472DE9F04104460068C66886
:100F600005694FF00007A90713D5B10711D5F91E80
:100F7000016101202077206880698007204602D027
:100F8000FFF7E8FF04E000F07EF8204600F07CF870
:100F90002777680716D5700714D521686FF004000D
:100FA0000861022020772068806910F4407F204685
:100FB00002D0FFF7CFFF04E000F065F8204600F014
:100FC00063F82777280715D5300713D521686FF008
:100FD00008000861042020772068C0698007204647
:100FE00002D0FFF7B7FF04E000F04DF8204600F014
:100FF0004BF82777E80616D5F00614D521686FF070
:1010000010000861082020772068C06910F4407F34
:10101000204602D0FFF79EFF04E000F034F820469F
:1010200000F032F82777E80708D0F00706D02168EB
:101030006FF001000861204600F028F8280608D566
:10104000300606D521686FF0800008612046FFF762
:1010500025FE680608D5700606D521686FF04000A9
:101060000861204600F036F8A8060AD5B00608D573
:1010700021686FF0200008612046BDE8F041FFF7CD
:101080000EBEBDE8F08170477047000010B5044601
:1010900000680B49884201D1FFF7AAFA0949206884
:1010A00088420BD10849012008700848FFF7CCFEA0
:1010B00007480068BDE8104000F00EBF10BD0000FA
:1010C000001400400010004000000020A017002085
:1010D000180000207047704770470000F8B501689D
:1010E00004460868CA684B6910F00F0F4FF00005FE
:1010F00059D003F0010602F49077374365D0C10759
:1011000005D0D10503D5616C41F00101616441074F
:1011100005D5D90703D0616C41F0020161648107F4
:1011200005D5D90703D0616C41F004016164010762
:1011300007D502F02001314303D0616C41F0080172
:101140006164616C00293AD0800604D5900602D50E
:10115000204600F0B2FC20684069616CC0F380104A
:10116000090700D460B3204600F080FC2068406985
:10117000400621D52068143050E8001F21F04001BE
:1011800040E80012002AF5D1E06BA8B16D49416337
:10119000E06BFFF793F8002811D0E06B416B01B0D2
:1011A000BDE8F040084783060FD593060DD52046CD
:1011B000BDE8F84000F081BC2046FFF78DFFF8BD88
:1011C0002046FFF789FF6564F8BD266B2023012EBA
:1011D0007CD1C6067AD5D60678D5086848680090CE
:1011E00048694FF00206400640D5E16B0868406848
:1011F0000004000CE8D0A28D8242E5D9E085886920
:1012000020282DD020680C3050E8001F21F4807178
:1012100040E80012002AF5D12068143050E8001F81
:1012200021F0010140E80012002AF5D120681430B5
:1012300050E8001F21F0400140E80012002AF5D1DB
:1012400084F84230256320680C3050E8001F21F0FC
:10125000100140E80012002AF5D1E06BFFF70AF810
:101260006663A08DE18D401A81B22AE0A08DE18DE8
:10127000401A81B2E08D0028A6D00029A4D02268AF
:101280000C3252E8000F20F4907042E80007002F63
:10129000F5D12068143050E8002F22F0010240E818
:1012A0000027002FF5D184F84230256320680C30E8
:1012B00050E8002F22F0100240E80023002BF5D167
:1012C00066632046FFF707FFF8BDFFE705062BD54D
:1012D000150629D594F841002128F5D1A068B0F56C
:1012E000805F01D12069B0B1206A411C2162216870
:1012F00000784860E08C401E0004000CE084E3D1DC
:101300002068C16821F08001C1602068C16841F097
:101310004001C160D8E7206A0088C0F30800486037
:10132000206A801C2062E5E74006CDD55006CBD56B
:10133000CA68204622F04002CA6084F8413000F0BA
:101340004FF9C1E75D1A000870B5040004D094F8A5
:101350004100002510B106E0012070BD84F8405026
:10136000204600F023F8242084F841002068C1685A
:1013700021F40051C160204600F000FC20680169A2
:1013800021F4904101612068416921F02A01416105
:101390002068C16841F40051C1606564202084F870
:1013A000410084F842006563002070BD70B586B0CE
:1013B000002400940194029403942E4E03682E4955
:1013C000022003222D4DB34226D18B6943F4804382
:1013D0008B618B6903F4804304938B6943F00403AE
:1013E0008B618969039201F0040104910102CDE946
:1013F000001069462846FEF7F9FF2815CDE90004DC
:10140000694628460294FEF7F1FF002205212520B7
:10141000FFF786F9252028E0194EB34227D1CB6982
:1014200043F40033CB61CB6903F4003304938B693D
:1014300043F004038B618969039201F00401049174
:101440000421CDE9001069462846FEF7CFFF0820A9
:10145000CDE90004694628460294FEF7C7FF002242
:1014600005212620FFF75CF92620FFF74BF906B08F
:1014700070BD00000038014000100240000801402B
:101480000044004090F84230202B01D002207047E9
:1014900021B11AB10023036300F0CCBB01207047D7
:1014A00010B51E4B00220168901E1D4C994216D1AA
:1014B0001C490B685A62A28822B909680861194858
:1014C000FFF78CFC1648184A401C0178A08811547C
:1014D000401C1349A0800122491C144818E0144BF9
:1014E000994219D113490B685A62E28822B90968F6
:1014F00008611048FFF772FC09480F4A801C017808
:10150000E0881154401CE080054901220B48891CE9
:10151000BDE81040FFF7B6BF10BD00000038014025
:1015200000000020A0170020B0000020E8170020D5
:101530000044004058170020B00800203018002058
:101540002DE9F843044690F84100984616460D46AA
:10155000202802D00220BDE8F88385B17EB10020AA
:101560006064212084F84100FFF73CF8A68481469E
:10157000E684A0682027B0F5805F02D003E0012058
:10158000E9E7206910B12E4600250EE000260CE0A8
:101590008021204600F069FBA8B9C6B116F8010BFE
:1015A00021684860E08C401EE084E08C4B464FF0A0
:1015B0000002CDF800800028EAD14FF0400120461B
:1015C00000F053FB40B184F841700320C3E735F8C5
:1015D000020BC0F30800E3E784F841700020BAE78B
:1015E0007047FEE730B599B000251595012115A883
:1015F000169500F052FC154C0121E060179517A8D4
:10160000189500F04AFC20611C2211496846FEF73B
:10161000F7FD0021684600F0B9FC0D4920601C224E
:101620001C3107A8FEF7ECFD002107A800F0AEFC76
:10163000074960601C2238310EA8FEF7E1FD002149
:101640000EA800F0A3FCA06019B030BD0C00002073
:10165000503A0008094808B5816941F020018161CC
:10166000816901F020010091816941F004018161EB
:10167000806900F00400009008BD000000100240E6
:1016800010B586B000241748009401940294039486
:10169000049413490594016041F61F41C0E9011407
:1016A0003121C0E903148461FFF738FB08B1FEF76C
:1016B000DFFD4FF48050009069460A48FFF7DCFBDD
:1016C00008B1FEF7D5FD049404A906480594FFF778
:1016D000E7FA002801D0FEF7CBFD06B010BD0000F0
:1016E00000040040581700201CB500240E48009448
:1016F0000C490194016041F61F41C0E901143121F8
:101700008461C160FFF70AFB08B1FEF7B1FD0094E8
:10171000694605480194FFF7C3FA002801D0FEF797
:10172000A7FD1CBD00100040A01700200C4810B5FC
:101730000A4901604FF4E1314160002181600C22CF
:10174000C160C0E904128161C161FFF7FDFD00289D
:1017500003D0BDE81040FEF78BBD10BD003801403E
:10176000E81700200C4810B50A4901604FF4E13138
:101770004160002181600C22C160C0E904128161D6
:10178000C161FFF7E1FD002803D0BDE81040FEF77E
:101790006FBD10BD0044004030180020FEE7FEE79A
:1017A000012206490648FFF76DFE01220549064859
:1017B000FFF768FE012000F064FBFBE7010000205A
:1017C000E8170020020000203018002010B550203B
:1017D00080F31188BFF34F8FBFF36F8F01F044FF89
:1017E00018B104494FF080500860002080F3118840
:1017F00010BD000004ED00E030B58FB02821684630
:10180000FEF717FD14210AA8FEF713FD01210804B5
:10181000CDE900100024029402250491CDE907507F
:101820004FF4E01009906846FFF7A8F808B172B6C7
:10183000FEE70F20CDE90A054FF48060CDE90C40AA
:1018400002210AA80E94FEF79DFF002801D072B66F
:10185000FEE70FB030BD70470148FFF77CBB0000CA
:10186000581700200148FFF776BB0000A0170020A2
:101870000148FFF770BB000078180020F0B502683F
:10188000204C214D214E224F224B4FF0804CA04244
:1018900009D0984207D0604505D0A84203D0B04295
:1018A00001D0B84204D122F0700E4A6842EA0E021A
:1018B000A04209D0984207D0604505D0A84203D085
:1018C000B04201D0B84203D122F44075CA682A431D
:1018D0004D6922F080022A4302608A68C2620A6867
:1018E0008262A04201D0984201D1096901630121BD
:1018F00041610169C90703D0016921F0010101615A
:10190000F0BD0000002C0140000400400008004031
:10191000000C00400034014010B5846842EA032204
:1019200024F47F440A432243826010BD826822F07F
:1019300070020A4342F007018160704710B5036AE4
:10194000046A24F001040462846924F0F00444EA87
:10195000021423F00A020A438461026210BD10B52A
:10196000036A046A24F010040462846923F0A0036B
:1019700024F4704444EA023243EA011182610162B4
:1019800010BD0000144FDFF85480154D154E4FF078
:1019900000094FF4006A6421F86800F0C5FA28785D
:1019A000012815D1002405E018F804100EA000F05D
:1019B000A3F9641C30888442F6DB0CA000F09CF98B
:1019C00085F80090A6F8009051460448FEF731FCD7
:1019D000012000F056FADEE70C000020B0000020E5
:1019E0000000002004000020256300000D0A000014
:1019F000144FDFF85480154D154E4FF000094FF489
:101A0000006A6421386900F08FFA2878012815D11E
:101A1000002405E018F804100EA000F06DF9641C15
:101A200030888442F6DB0CA000F066F985F800905F
:101A3000A6F8009051460448FEF7FBFB012000F099
:101A400020FADEE70C000020B0080020080000208B
:101A500006000020256300000D0A000010B5406A52
:101A60000021C185C184FFF737FB10BD01680C312F
:101A700051E8002F22F4907241E80023002BF5D1A9
:101A80000168143151E8002F22F0010241E80023DF
:101A9000002BF5D1016B012909D101680C3151E806
:101AA000002F22F0100241E80023002BF5D1202165
:101AB00080F8421000210163704708B590F8421089
:101AC000222901D0022008BD82684FF480539A4237
:101AD00001D1016921B1816A9A421BD04AB10AE061
:101AE0000268816A5268C2F308020A80816A891C0E
:101AF00008E0026972B10268526802F07F020A705F
:101B0000816A491C8162C18D491E0904090CC18585
:101B100003D01BE002685268F1E70168CA6822F04E
:101B20002002CA600168CA6822F48072CA60016833
:101B30004A6922F001024A61202180F84210002106
:101B40004163026B012A03D0FFF7AAFC002008BD05
:101B5000016301680C3151E8002F22F0100241E8C6
:101B60000023002BF5D101680A68D20602D50A6865
:101B700049680091818DFFF7AEFAE7E770B504463A
:101B800000680169E26821F4405111430161216953
:101B9000A0680843616908432168CA6841F20C6380
:101BA0009A430243CA6020684169A26921F44071E6
:101BB000114341611E492068884202D1FEF7A8FE08
:101BC00001E0FEF795FE00EBC00101EB001260683A
:101BD00064218000B2FBF0F3B3FBF1F36FF0180661
:101BE0007343B2FBF0F5B2FBF0F605EB830532234D
:101BF00003EB0515B5FBF1F5B6FBF1F605F0F005C5
:101C000005EB0615B2FBF0F6B2FBF0F0B0FBF1F01D
:101C10006FF01802504306EB800003EB0010B0FB9E
:101C2000F1F0216800F00F002844886070BD0000CA
:101C30000038014081628285C285002141642221F1
:101C400080F84210016921B10168CA6842F48072CB
:101C5000CA6001684A6942F001024A610068C168CD
:101C600041F02001C160002070472DE9F8439846FB
:101C700017460D460446089E24E0701C22D0FEF74D
:101C8000B1FCA0EB0800B0421AD8CEB12068C16800
:101C9000490717D5802D15D0402D13D00168C943B1
:101CA00009070FD401680025406800902046FFF71F
:101CB000DDFE0820606484F840500120BDE8F88310
:101CC0000320FBE72068006835EA000004D000200C
:101CD000B842D2D00020F1E70120F9E70148FFF730
:101CE000FDB90000E81700200148FFF7F7B9000030
:101CF00030180020FEE700000FB4054B10B503A913
:101D0000044A029800F027F810BC5DF814FB0000AC
:101D10002D1E0008AC0000200907090E002804DB76
:101D200000F1E02080F80014704700F00F0000F18F
:101D3000E02080F8141D704702E008C8121F08C197
:101D4000002AFAD170477047002001E001C1121F3C
:101D5000002AFBD170472DE9F84F994692468846F4
:101D60000546002706E025280AD051464A469047F6
:101D70006D1C7F1C28780028F5D13846BDE8F88F07
:101D8000002315F8011F18462E2915D115F8011F3B
:101D900004232A290DD06FF02F022978A1F13004F5
:101DA000092C09D800EB800002EB400008446D1CB0
:101DB000F3E758F8040B6D1C2A78002ADDD0632A5B
:101DC00007D0732A0FD0104651464A4690477F1CD1
:101DD0002AE018F8042B8DF8002000218DF801105E
:101DE0006E46012103E058F8046B4FF0FF315A07AB
:101DF0004FF0000401D409E0641C84420BDA8C42E9
:101E0000FADB325D002AF7D105E0641C8C42FCDB72
:101E1000305D0028F9D1274404E016F8010B514643
:101E20004A469047641EF8D26D1CA3E713B54FF4E1
:101E30007A73012269460248FFF782FB00981CBDB5
:101E4000E8170020EFF30580002800D0012070473C
:101E5000FEF7D6FBFFF7D0FCFFF7FCFBFFF744FCD7
:101E6000FFF764FCFFF70CFCFFF77CFCFFF7BAFB05
:101E700000F00EF8FEE701460020842900D0C81CBF
:101E8000704710B500B9012000F026FE002010BDFB
:101E900010B500F0D9FE002010BD38B543684BB135
:101EA000012909D10320002200901146012000F0F1
:101EB000BAFF38BD012901D0002038BD032200211E
:101EC000012000F08FFF040004D000231A461946B9
:101ED00001F020F8204638BD38B5002405460094AE
:101EE000FFF7B0FF90B16946284601F022F90128BA
:101EF00001D0FF2038BD009888B10A494FF08050CA
:101F00000860BFF34F8FBFF36F8F08E000231A46BE
:101F10001946284600F0FEFF012800D0FF24204685
:101F200038BD000004ED00E038B505004FF00000BA
:101F300000900FD00024481C0ED001B10C46FFF7D2
:101F400081FFB8B16A460021284601F0DDF9012879
:101F500016D104E0802038BD4FF0FF34EFE7009841
:101F600080B109494FF080500860BFF34F8FBFF335
:101F70006F8F07E02146284601F014FA012801D0AE
:101F8000FF2038BD002038BD04ED00E07FB50D46D0
:101F900004464169B0F9080081B1A16971B1FFF748
:101FA0006AFFD4E905128DE80700D4E900102B463A
:101FB000226901F01AFB039004B070BDFFF75BFFCC
:101FC00003A9CDE90001208A2B4682B2D4E9001092
:101FD00001F0DEFA012801D00020EDE70398EBE7DD
:101FE0002DE9F041184C0F460546E6682068001DB3
:101FF00000F03EFC38B9206890F82C100120884091
:10200000216981432161681C07D137B12168BDE88E
:10201000F0410E48091D00F07BBC20683544B542F4
:102020004560216805D2A06BBDE8F041091D00F0B4
:1020300057BC606B091D00F053FCA06A854200D2BA
:10204000A562BDE8F081000030000020DC1900200E
:102050002DE9F041054600F067FC2E4CA068401CBD
:10206000A06020682C4F10B1606940B32DE025605E
:10207000A068012829D1002606EB860007EB800026
:1020800000F020FC761C072EF6D323488C3000F09D
:1020900019FC2148A03000F015FC1F48B43000F0B6
:1020A00011FC1D48C83000F00DFC1B48DC3000F06E
:1020B00009FC19488C3060631430A06305E0206887
:1020C000E96AC06A884200D82560606A401C606284
:1020D000E96A0120226988401043206101EB8100F8
:1020E00007EB8000291D00F013FC00F03DFC606947
:1020F00000280CD02068E96AC06A884207D20749E4
:102100004FF080500860BFF34F8FBFF36F8FBDE873
:10211000F0810000300000200019002004ED00E0F4
:1021200038B500F001FC104C2068C8B90F4800F029
:10213000C9FB0E48143000F0C5FB0C48E0601430B9
:1021400020610A4B0020C03B009003F148020C21A3
:102150000A2000F068FE206010B105A100F086FCA6
:10216000BDE8384000F000BC6C000020B01A002030
:10217000546D72510000000030B4026C0B46002A0E
:102180000BD0C1681144C1608468A14201D30168C9
:10219000C16030BC1846FEF733B830BC70472DE93B
:1021A000F041856B174604460026026C82B1C7B128
:1021B000E068FEF725F8E168206C091AE160226802
:1021C000914202D2A168081AE060022F16D017E0EF
:1021D0002068A8B9A06801F0ADFA06460020A0600A
:1021E0000EE06068FEF70CF8216C606808446060DF
:1021F000A168884204D32068606001E005B16D1ECB
:102200006D1CA5633046BDE8F08110B5044690F81A
:10221000510058B101280CD002280FD0502080F373
:102220001188BFF34F8FBFF36F8FFEE7206B00F075
:10223000AFFB2046BDE8104000F0AABB10BD000077
:1022400010484FF44061420706D0C01D0D4920F0F0
:102250000700411AC1F540610B4A00230144C2E95D
:1022600000030839183A21F0070111604B600B6038
:102270000B1AC0E9001393604FF0004053605061A7
:1022800070470000D81A002098000020144E154C0A
:10229000A6F1C8074FF08058DFF84C9012E000BF5D
:1022A00000F042FBF068C568281D00F0E1FAA06864
:1022B000401EA0606068401E606000F055FB28462C
:1022C000FFF7A3FF60680028EAD138680128F9D930
:1022D000C9F80080BFF34F8FBFF36F8FF2E70000A4
:1022E000C81900203000002004ED00E003460098EB
:1022F00029B10260C0E90F31012100F0C7BD0060C3
:10230000F8E72DE9F0479A46DDE9098481466FF048
:102310000303206B03EB82021044089E20F00707A2
:10232000780707D0502080F31188BFF34F8FBFF399
:102330006F8FFEE7002561B1002023180A5C83F847
:1023400034200A5C12B1401C1028F6D384F84350A4
:1023500001E084F83450072E00D30626E662C4E973
:102360001165201D00F0B9FA04F1180000F0B5FA6B
:102370002461C6F107006462A061E56484F85050EE
:1023800052464946384600F061FA2060B8F1000F25
:1023900001D0C8F80040BDE8F087000030B5114911
:1023A00000E011460A688242FBD34B685C18844205
:1023B00003D1406818444860084643681C1894429A
:1023C00009D1084C183C2468A24209D052681A442A
:1023D00042600A6812680260814200D0086030BD25
:1023E0000460F9E79800002070B5002441600B4DAF
:1023F0000061914206D8D11A8269914206D2011D2C
:10240000286907E09A4203D2994201D3012403E0EC
:10241000011DE86800F064FA204670BD6C000020E1
:1024200010B5044600F080FAA06B28B15FF00004FC
:1024300000F09AFA204610BD0124F9E730B587B0C4
:10244000394D67E00498002864DB069C606910B190
:10245000201D00F00DFA03A800F0D8F802460498F9
:102460000A2857D2DFE800F00505052D334A050597
:102470002D3394F8240040F0010084F824000599DD
:10248000A069059B01442046FFF7AEFF68B3216AAF
:102490002046884794F8240040073BD50020009050
:1024A0000598A169002342181946204601F0A0FAB8
:1024B000D8B9502080F31188BFF34F8FBFF36F8FCF
:1024C000FEE714F8240F20F00100207022E094F8B9
:1024D000240040F0010084F824000598A06128B190
:1024E000811813462046FFF77FFF13E0502080F34A
:1024F0001188BFF34F8FBFF36F8FFEE794F824006E
:10250000810703D4204600F043FA03E020F00100E5
:1025100084F82400002204A9286800F059FE00284D
:1025200090D107B030BD00006C0000202DE9FC41C7
:102530000F46054600F0CCFB01A800F067F8044602
:10254000019818B101F0C2F9BDE8FC81254EAFB188
:1025500030690068D0B30027291B3A46306800F084
:1025600099FA01F0B3F90028EED11F494FF08050DD
:102570000860BFF34F8FBFF36F8FE5E7A542EBD83D
:1025800001F0A4F9F0682746C068C468201D00F077
:102590006FF994F82400410719D5A0692B46411919
:1025A0003A462046FFF720FFA8B100200346014627
:1025B00000902A46204601F01BFA60B9502080F3B3
:1025C0001188BFF34F8FBFF36F8FFEE707E020F056
:1025D000010084F82400216A20468847B4E70127D7
:1025E000BAE700006C00002004ED00E00648416BF3
:1025F000096829B1416BC968C96849688162704737
:102600004FF0FF31FAE700003000002070B50546BA
:1026100001F024F8064E0446B068844203D200F06C
:1026200009F8012000E0002028602046B46070BD59
:102630006C000020F8B5194D20E0C068C468066839
:10264000201D00F015F9216A2046884794F82400DF
:10265000400713D5A0693044B04206D924616060B8
:10266000211DE86800F03CF908E00020034601461F
:1026700000903246204601F0BBF938B1E8680168A5
:102680000029DAD12969C5E90310F8BD502080F38B
:102690001188BFF34F8FBFF36F8FFEE76C000020F0
:1026A00008484068401C4FF0500080F3118804D067
:1026B000BFF34F8FBFF36F8FFEE7BFF34F8FBFF3B3
:1026C0006F8FFEE7A0000020074CE068016841B171
:1026D000C0680021D0F80000FFF728FFFFF7AEFE2A
:1026E000F3E701210020F7E76C0000202DE9F0411D
:1026F000044600F019F994F9455004F1240609E064
:10270000606A48B1304601F0A7F808B100F012FA4B
:102710006D1E6DB2002DF3DC4FF0FF3684F845607E
:1027200000F022F900F000F994F9445004F1100788
:1027300009E0206948B1384601F08EF808B100F090
:10274000F9F96D1E6DB2002DF3DC84F84460BDE82C
:10275000F04100F009B900002DE9F04105460027DD
:1027600000F0B6FA324E306808B9FFF769FD7069BB
:1027700005424ED1C5B3083568070ED005F00700F5
:10278000C0F108000544680707D0502080F3118885
:10279000BFF34F8FBFF36F8FFEE72DB37068854295
:1027A00037D82348183001460C6801E020460C4613
:1027B0006168A94202D221680029F7D131688C42B0
:1027C00027D007682168016060680837411B10291D
:1027D0000FD96019420708D0502080F31188BFF349
:1027E0004F8FBFF36F8FFEE713E041606560FFF727
:1027F000D5FD61687068401A7060B268904200D27E
:10280000B060706901430020C4E90001F068401C19
:10281000F06001F05BF8780707D0502080F3118852
:10282000BFF34F8FBFF36F8FFEE73846BDE8F081EF
:10283000800000200449086818B10868826C521CA6
:1028400082640868704700003000002010B5031F44
:102850004FF080741C601B1F21F001011960191FCB
:10286000024B0B60143940380A6010BDA1260008E5
:10287000D0E9013201699A60D0E901235A604A68BF
:10288000824201D182684A60002202610868401ECB
:102890000860086870470000034B036003F15400B0
:1028A0000860802010607047B0100020044B036067
:1028B00003F1540008604FF480701060704700000E
:1028C0000413002000F108014FF0FF32C0E90112AB
:1028D000C160016100210160704700210161704702
:1028E00030B50B685A1C02D000F1080202E0026900
:1028F00004E02246546825689D42FAD953684B602B
:1029000099608A60516008610168491C016030BDAE
:1029100042684A6093688B6093685960916008616F
:102920000168491C01607047502080F31188BFF393
:102930004F8FBFF36F8F0A494868401C48600128D9
:102940000CD10848006810F0FF0F07D0502080F32A
:102950001188BFF34F8FBFF36F8FFEE77047000002
:10296000A000002004ED00E00849486828B1401E9E
:10297000486001D180F311887047502080F311889E
:10298000BFF34F8FBFF36F8FFEE70000A000002062
:1029900070B500282AD0164DA0F108046068696956
:1029A000084207D1502080F31188BFF34F8FBFF347
:1029B0006F8FFEE722683AB1502080F31188BFF391
:1029C0004F8FBFF36F8FFEE78843606000F080F9A0
:1029D00060686968084468602046FFF7DFFC286982
:1029E000401C2861BDE8704000F070BF70BD000061
:1029F000800000204FF0E020002101618161054945
:102A00004FF47A720968B1FBF2F1491E4161072166
:102A1000016170472C00002010B5FDF7DBFB114968
:102A200010280ED300F1E02090F8F0030A789042CD
:102A300007D2502080F31188BFF34F8FBFF36F8F01
:102A4000FEE709480068896800F4E060884207D919
:102A5000502080F31188BFF34F8FBFF36F8FFEE7D5
:102A600010BD0000A00000200CED00E010B5084BE8
:102A7000002200BF53F832401CB1521C082AF9D37F
:102A800010BD43F8321003EBC201486010BD0000D6
:102A9000C018002070B515460E460446FFF744FFE7
:102AA00094F944100020491C01D184F8440094F9A1
:102AB0004510491C01D184F84500FFF755FFA06B74
:102AC00028B92A46314604F1240000F051F8204686
:102AD000BDE87040FFF70ABE10B5020014D00F48E1
:102AE000006B38B1502080F31188BFF34F8FBFF3D4
:102AF0006F8FFEE700F0ECF800211046FFF770FA48
:102B000000F0E4FE002807D105494FF0805008602E
:102B1000BFF34F8FBFF36F8F10BD00003000002058
:102B200004ED00E002490A6A0260C968416070472A
:102B30003000002001490120C861704730000020AA
:102B400010B50C4650B1094909681831FFF7C8FEA5
:102B50002046BDE810400121FFF742BA502080F323
:102B60001188BFF34F8FBFF36F8FFEE73000002057
:102B700070B514460D4668B10A4909681831FFF767
:102B8000C7FE0CB14FF0FF3521462846BDE8704026
:102B9000FFF726BA502080F31188BFF34F8FBFF3A1
:102BA0006F8FFEE73000002070B5040047D0A26CA4
:102BB000A2B1606C884200D30146E06A88423ED0F0
:102BC000012A3CD11E4D2A6894420FD1502080F337
:102BD0001188BFF34F8FBFF36F8FFEE7502080F354
:102BE0001188BFF34F8FBFF36F8FFEE7E162A269D9
:102BF000002A02DBC1F10701A161124E00EB800047
:102C0000616906EB8000814219D1201DFFF730FE7B
:102C1000012130B994F82C002A6901FA00F08243AE
:102C20002A61E06A2A6981401143296100EB800032
:102C300006EB8000211DBDE87040FFF769BE70BD46
:102C4000300000200019002030B587B00024039424
:102C500005AA04A903A80494FFF71EFEDDE90301F9
:102C60000094CDE90110002315A11748059A00F042
:102C7000BCFC164D0028E8621FD000F089FE012838
:102C800009D0401C19D1502080F31188BFF34F8F19
:102C9000BFF36F8FFEE7502080F31188BFF34F8F93
:102CA000BFF36F8F4FF0FF30A86201206861EC60C6
:102CB00007B0BDE8304000F041B807B030BD0000BB
:102CC00049444C45000000008D22000830000020DF
:102CD0000248016B491C016370470000300000206E
:102CE0001448016B11B10121C16170470021C1611C
:102CF0000169B1FA81F1C1F11F0101EB81020E49B5
:102D000051F822306BB101EB820101F108034A68EE
:102D100052684A609A4201D152684A60D1680160A3
:102D20007047502080F31188BFF34F8FBFF36F8F30
:102D3000FEE7000030000020001900201CB52649E5
:102D400008780190FF20087008788DF800009DF841
:102D500000009DF8002000F0F000904207D05020C5
:102D600080F31188BFF34F8FBFF36F8FFEE79DF89D
:102D700000001A4C00F0500020700720A06005E011
:102D80009DF8002052008DF80020401E9DF8002084
:102D90001206F5D4A060032807D0502080F31188D4
:102DA000BFF34F8FBFF36F8FFEE74FF44070A0600B
:102DB000019808700A48016841F4700101600168D7
:102DC00041F070410160FFF715FE00206060FDF7E3
:102DD000CBF900201CBD000000E400E0A0000020B2
:102DE00020ED00E0F8B517460E46050013D005FBB0
:102DF00006F04830FFF7B0FC04000AD0002084F849
:102E0000460004F148023B46314628460094FFF74D
:102E10006DFA2046F8BD502080F31188BFF34F8F24
:102E2000BFF36F8FFEE738B5049D18B153B1CAB137
:102E300081B120E0502080F31188BFF34F8FBFF3A2
:102E40006F8FFEE7502080F31188BFF34F8FBFF3E1
:102E50006F8FFEE7502080F31188BFF34F8FBFF3D1
:102E60006F8FFEE739B1502080F31188BFF34F8F89
:102E7000BFF36F8FFEE748241C46012384F84630D9
:102E80002B460094FFF732FA204638BD70B50D4648
:102E9000040025D0FFF748FDD4E90F20216802FB8C
:102EA0000011A1600021A163216861600A46D4E994
:102EB0000F01401E00FB0121E16021464FF0FF3071
:102EC00001F8440F487004F110008DB1FFF7FAFCCF
:102ED00004F12400FFF7F6FCFFF746FD012070BD6A
:102EE000502080F31188BFF34F8FBFF36F8FFEE741
:102EF00021690029F0D000F0AFFC0028ECD0044993
:102F00004FF080500860BFF34F8FBFF36F8FE3E740
:102F100004ED00E02DE9FF4782B01D468A464FF0E0
:102F20000008040003D0BAF1000F08D011E05020CF
:102F300080F31188BFF34F8FBFF36F8FFEE7206CD4
:102F400038B1502080F31188BFF34F8FBFF36F8FDC
:102F5000FEE7022D0AD1E06B012807D0502080F354
:102F60001188BFF34F8FBFF36F8FFEE700F068FB50
:102F70003F4F4FF000094FF0805648B9049838B1E0
:102F8000502080F31188BFF34F8FBFF36F8FFEE7A0
:102F9000FFF7CAFCA06BE16B884207D3022D05D076
:102FA0000498D0B1B8F1000F1AD01EE02A4651465D
:102FB0002046FFF7F4F8616A19B104F1240000F02B
:102FC0004BFC20B13E60BFF34F8FBFF36F8FFFF715
:102FD000CBFC012006B0BDE8F087FFF7C5FC22E07E
:102FE0006846FFF79FFD4FF00108FFF7BDFCFFF7B4
:102FF0006FFEFFF799FC94F94400401C01D184F85E
:10300000449094F94500401C01D184F84590FFF7A5
:10301000ABFC04A9684600F081FA30B12046FFF706
:1030200065FB00F053FC0020D4E7FFF77DFCA06BAC
:10303000E16B884213D1FFF797FC04F1100004996B
:10304000FFF77EFD2046FFF751FB00F03FFC002814
:103050009ED13E60BFF34F8FBFF36F8F98E7FFF7AE
:1030600083FC2046FFF742FB00F030FC90E70000B5
:1030700004ED00E02DE9F0471F4690468946040024
:1030800003D0B9F1000F08D011E0502080F311886F
:10309000BFF34F8FBFF36F8FFEE7206C38B1502026
:1030A00080F31188BFF34F8FBFF36F8FFEE7022FBE
:1030B0000AD1E06B012807D0502080F31188BFF3BC
:1030C0004F8FBFF36F8FFEE7FFF7A6FC5020EFF3A3
:1030D000118680F31188BFF34F8FBFF36F8FA06B02
:1030E000E16B884206D3022F04D0002086F31188BA
:1030F000BDE8F08794F94550A06B3A464946204612
:10310000FFF74DF8681C04D06D1C84F84550012071
:10311000ECE7606A0028FAD004F1240000F09CFB80
:103120000028F4D0B8F1000FF1D00121C8F8001048
:10313000EDE770B50E46040009D0206C78B1502040
:1031400080F31188BFF34F8FBFF36F8FFEE75020DE
:1031500080F31188BFF34F8FBFF36F8FFEE72068B6
:1031600048B9A06838B1502080F31188BFF34F8F61
:10317000BFF36F8FFEE7FFF74FFC5020EFF3118591
:1031800080F31188BFF34F8FBFF36F8FA16BE06B9C
:10319000884218D994F94500491CA163411C04D008
:1031A000401C84F8450001200EE0606A0028FAD037
:1031B00004F1240000F050FB0028F4D0002EF2D0DF
:1031C00001203060EFE7002085F3118870BD00001A
:1031D0002DE9F747002683B08A46040003D0BAF1F0
:1031E000000F08D011E0502080F31188BFF34F8FFB
:1031F000BFF36F8FFEE7206C38B1502080F3118849
:10320000BFF34F8FBFF36F8FFEE700F019FADFF8BF
:10321000F4804FF000094FF0805748B9059838B155
:10322000502080F31188BFF34F8FBFF36F8FFEE7FD
:10323000FFF77AFBA56BC5B151462046FEF79CFF10
:103240006D1EA563206950B104F1100000F004FB6D
:1032500028B1C8F80070BFF34F8FBFF36F8FFFF72F
:1032600083FB012006B0BDE8F087059808B11EB1C8
:1032700006E0FFF779FB27E06846FFF753FC0126DD
:10328000FFF772FBFFF724FDFFF74EFB94F94400B4
:10329000401C01D184F8449094F94500401C01D1B0
:1032A00084F84590FFF760FB05A9684600F036F901
:1032B000002820460AD0FFF719FA00F007FB204645
:1032C000FFF7AEF80028B3D00020CBE7FFF7A8F84F
:1032D00090B104F124000599FFF732FC2046FFF776
:1032E00005FA00F0F3FA0028A2D1C8F80070BFF385
:1032F0004F8FBFF36F8F9BE72046FFF7F7F900F082
:10330000E5FA95E704ED00E02DE9F047904689469F
:10331000040003D0B9F1000F08D011E0502080F371
:103320001188BFF34F8FBFF36F8FFEE7206C38B16A
:10333000502080F31188BFF34F8FBFF36F8FFEE7EC
:10334000FFF76AFB5020EFF3118680F31188BFF37B
:103350004F8FBFF36F8FA76BF7B194F94450494675
:103360002046FEF709FF7F1EA763681C04D06D1C72
:1033700084F84450012010E020690028FAD004F1BC
:10338000100000F069FA0028F4D0B8F1000FF1D075
:103390000121C8F80010EDE7002086F31188BDE890
:1033A000F08700002DE9F343002683B00400354682
:1033B00009D0206C78B1502080F31188BFF34F8F73
:1033C000BFF36F8FFEE7502080F31188BFF34F8F5C
:1033D000BFF36F8FFEE700F033F9DFF83C814FF069
:1033E00000094FF0805748B9049838B1502080F355
:1033F0001188BFF34F8FBFF36F8FFEE7FFF794FA8B
:10340000A06BC8B1401EA063206810B9FFF712FA84
:10341000A060206950B104F1100000F01DFA28B13D
:10342000C8F80070BFF34F8FBFF36F8FFFF79CFAA0
:10343000012005B0BDE8F083049808B166B10FE043
:103440003DB1502080F31188BFF34F8FBFF36F8FD2
:10345000FEE7FFF789FA5DE06846FFF763FB0126A8
:10346000FFF782FAFFF734FCFFF75EFA94F94400A5
:10347000401C01D184F8449094F94500401C01D1CE
:1034800084F84590FFF770FA04A9684600F046F802
:103490000028204612D0FFF729F900F017FA20463D
:1034A000FEF7BEFF0028A9D09DB3FFF73DFA606A82
:1034B00050B3206B0068C0F1070126E0FEF7B0FFB3
:1034C000E0B1206838B9FFF72FFAA06800F07EF964
:1034D0000546FFF749FA04F124000499FFF730FB91
:1034E0002046FFF703F900F0F1F9002886D1C8F86B
:1034F0000070BFF34F8FBFF36F8F7FE72046FFF75A
:10350000F5F800F0E3F979E70021A068FFF74CFB3C
:103510009FE7FFE700208CE704ED00E02DE9F04194
:103520000C46050011D0C4B1FFF7FEF9174BDA685D
:103530006E682068911B471C17D02F681B6A9F423A
:1035400019D0964217D8012410E0502080F311883A
:10355000BFF34F8FBFF36F8FFEE7502080F31188CA
:10356000BFF34F8FBFF36F8FFEE70024FFF7FCF927
:103570002046BDE8F081884205D9401A20602846DF
:10358000FFF7D0FAF1E700202060DCE730000020F0
:103590002DE9FF5F8346DDE90E87994616468A4688
:1035A0009000FFF7D9F805001CD05420FFF7D4F89D
:1035B000040014D00020256384F85100CDE90240B6
:1035C000CDE900874B46324651465846FEF799FEF4
:1035D0002046FEF73DFD012004B0BDE8F09F2846DF
:1035E000FFF7D6F94FF0FF30F6E7F0B585B0DDE92B
:1035F0000B640A9DA6B1DCB154270097266302260E
:1036000084F85160002604AFCDE90246CDE90057A9
:10361000FEF777FE2046FEF71BFD049805B0F0BDCF
:10362000502080F31188BFF34F8FBFF36F8FFEE7F9
:10363000502080F31188BFF34F8FBFF36F8FFEE7E9
:103640000548416919B1006B18B10020704701208D
:103650007047022070470000300000200148C06819
:1036600070470000300000202DE9F0412F4C00266B
:10367000206B28B1A069401CA0613046BDE8F081F4
:10368000E5686D1CE56013D1606B006838B15020AF
:1036900080F31188BFF34F8FBFF36F8FFEE7606B2E
:1036A000A16B6163A063206A401C2062FEF79EFF4D
:1036B000A06ADFF87C80854209D3606B0068A0B106
:1036C000606BC068C7687868854211D2A0622068C4
:1036D000C06A00EB800158F82100012800D90126BA
:1036E000E0690028C9D00126C7E74FF0FF30EDE7B9
:1036F000381DFFF7BDF8B86A18B107F11800FFF7D9
:10370000B7F8F96A0120226988401043206101EB73
:10371000810108EB8100391DFFF7FAF8F86A21688A
:10372000C96A8842C9D30126C7E7000030000020DB
:103730000019002070B504004FF0000140D0214D69
:103740002868844207D0502080F31188BFF34F8F40
:10375000BFF36F8FFEE7A06C38B1401EA064636CAE
:10376000E26A9A422CD040B12AE0502080F31188BE
:10377000BFF34F8FBFF36F8FFEE7201DFFF778F881
:10378000114A012150B9E06A00EB800352F823305E
:1037900023B92B6901FA00F083432B61606CE0626E
:1037A000C0F10700A061E06A2B69814019432961DB
:1037B00000EB800002EB8000211DFFF7A9F801213A
:1037C000084670BD300000200019002070B50400CC
:1037D0004FF0000034D01E4DE16A2A68D26A91424F
:1037E0002FD2A069002804DB2868C06AC0F1070056
:1037F000A061184E01EB8101606906EB81018842EE
:103800001AD1201DFFF734F8012130B994F82C00AB
:103810002A6901FA00F082432A612868C06AE062DE
:103820002A6981401143296100EB800006EB80008A
:10383000211DFFF76DF802E02868C06AE0620120F0
:1038400070BD616C2A68D26A9142F8D370BD0000E5
:1038500030000020001900202DE9F041C068C46844
:10386000ACB104F118000746FFF702F8154D286BBC
:103870000126A0B139461448FFF74AF8E06A2968E2
:10388000C96A88421CD90120EE61BDE8F081502050
:1038900080F31188BFF34F8FBFF36F8FFEE7201DBA
:1038A000FEF7E6FFE16A2A6906FA01F01043286193
:1038B00001EB81000449B43901EB8000211DDBE7F5
:1038C0000020E2E730000020B41900202DE9F04785
:1038D0002C4D00242746286B38B1FFF725F8286BBC
:1038E000401E2863286B40B146E0502080F31188C9
:1038F000BFF34F8FBFF36F8FFEE7A968224E012001
:10390000D1B3A6F1B40980463068E8B1F068C46864
:1039100004F11800FEF7ACFF201DFEF7A9FFE06AD6
:103920002A6908FA00F11143296100EB800109EBD3
:103930008100211DFEF7ECFFE06A2968C96A884210
:10394000E2D3C5F81C80DFE70CB1FEF74FFEAC698F
:1039500044B14646FFF788FE00B1EE61641EF9D11E
:103960000020A861E86938B10849012738070860D4
:10397000BFF34F8FBFF36F8FFEF7F6FF3846BDE8FA
:10398000F087000030000020B419002004ED00E0B2
:1039900010B586B0FEF7C4FB114C2068B8B100200A
:1039A0000390049005AA04A903A8FEF77FFFDDE9B0
:1039B000032102208DE8070000230AA10B48059A85
:1039C000FFF713FE606010B106B0012010BD50205B
:1039D00080F31188BFF34F8FBFF36F8FFEE70000B6
:1039E0006C000020546D722053766300C9260008D5
:1039F000FEB51E4613460200089D4FF0000014D08D
:103A0000124C2768002F0FD0CDE90013029206292F
:103A100015DAFFF715FE02284FF000030DD0002243
:103A200069462068FFF776FAFEBD502080F31188C2
:103A3000BFF34F8FBFF36F8FFEE72A46F0E70023F7
:103A4000324669463846FFF715FBFEBD6C00002084
:103A5000E03A0008A1170008000000000000000084
:103A6000800000000000000000000000D03A0008C4
:103A70008519000800000000000000008000000020
:103A80000000000000000000D83A0008F11900080A
:103A9000FDFF0000000000008000000000000000AA
:103AA00000000000010202030405060708090A0BD2
:103AB0000C0D0E0F101000000000000000000102AD
:103AC00003040607080900000000010203040000C7
:103AD00055315F5461736B0055325F5461736B00F5
:103AE00064656661756C745461736B000C3B00080F
:103AF00000000020B0000000381D0008BC3B00089A
:103B0000B0000020282A0000481D00080000000026
:103B100000000000000000000000000000000000A5
:103B20000000000000000000000000000100000094
:103B3000100000000000000000127A0000000000E9
:103B40000000000000000000000000000000000075
:103B50000000000000000000000000000000000065
:103B60000000000000000000000000000000000055
:103B70000000000000000000000000000000000045
:103B80000000000000000000000000000000000035
:103B90000000000000000000000000000000000025
:103BA0000000000000000000000000000000000015
:0C3BB000AAAAAAAA000000000000000061
:0400000508000131BD
:00000001FF
