:020000040800F2
:100000004007002001010008DB200008711C0008E7
:10001000D920000801040008612800080000000041
:10002000000000000000000000000000DB220008CB
:100030000304000800000000D9220008DD220008A7
:100040001B0100081B0100081B0100081B01000820
:100050001B0100081B0100081B0100080D0400081B
:100060001B0100081B010008130400081B01000805
:100070001B0100081B0100081B0100081B010008F0
:100080001B0100081B0100081B0100081B010008E0
:100090001B0100081B0100081B0100081B010008D0
:1000A0001B0100084D230008412300081B01000824
:1000B0005923000865230008712300081B0100086C
:1000C0001B0100081B0100081B0100081B010008A0
:1000D0001B0100083D280008492800085528000891
:1000E000050400081B0100081B010008DFF80CD004
:1000F00000F074F900480047C92A000840070020B2
:100100000648804706480047FEE7FEE7FEE7FEE7B1
:10011000FEE7FEE7FEE7FEE7FEE7FEE73F23000817
:10012000ED000008D2B201E000F8012B491EFBD21D
:1001300070470022F6E710B513460A4604461946F2
:10014000FFF7F0FF204610BD30B505462A460B46A6
:1001500012F8010B13F8014B08B1A042F8D01CB102
:10016000002802D06D1CF1E7284630BDF0B480EACB
:100170000102D40F4200B2EB410F02D20246084600
:1001800011464A0042D0C30DDDB2C1F3C752AD1AC9
:10019000202D35DAC1F3160141F4000204B15242B8
:1001A000C5F1200602FA06F12A411044B3EBD05FF4
:1001B00023D0C4B1012DA0EBC35009DCF0BC4FF03B
:1001C000004202EAC352DBB200F5000000F0D7B8EB
:1001D000400000F1807000EBC350A0F1807040EA55
:1001E000D170490009E0490841EAC071A0EBC35051
:1001F00000F50000400800EBC350F0BC00F0B6B8BA
:100200006142012202EB4101001BF6E7F0BC70479E
:1002100081F00041AAE780F00040A7E780EA0102F0
:1002200010B502F00043400022D04A001FD0010E5A
:1002300001EB1261C0F35600C2F3560240F4000015
:1002400042F40002A0FB022000047F39140400D015
:10025000401C50EA124001D44000491EC2B20C06B4
:1002600004EBD010401C4008802A02D003E000209C
:1002700010BD20F00100002900DA0020184310BD55
:1002800030B480EA010202F0004530F0004221F073
:10029000004013D090B1C30DD40DC2F31601C0F3CA
:1002A0001600E41A41F4000140F400027D3491424A
:1002B00001D3641C00E04900002C02DA30BC0020AD
:1002C00070474FF400000023914201D3891A034381
:1002D00040084FEA4101F7D151B1914202D14FF0AC
:1002E000004105E002D24FF0010101E06FF0010191
:1002F00003EBC450284430BC00F038B8C10F80EA8A
:10030000E0700844CA079623002100F038B800F0D6
:10031000004220F00040C10DC0F3160040F4000080
:100320007F2901DA00207047962903DCC1F196018C
:10033000C84001E096398840002AF4D04042704716
:1003400030B50B46014600202022012409E021FAA5
:1003500002F59D4205D303FA02F5491B04FA02F5A2
:100360002844151EA2F10102F1DC30BD0029A8BF0E
:100370007047401C490008BF20F00100704710B4CE
:10038000B0FA80FC00FA0CF050EA010404BF10BC83
:10039000704749B1CCF1200421FA04F411FA0CF1B0
:1003A00018BF012121430843A3EB0C01CB1D4FEAE9
:1003B00000614FEA102042BF002010BC704700EBE4
:1003C000C35010440029A4BF10BC7047401C490012
:1003D00008BF20F0010010BC70470000064C074D1C
:1003E00006E0E06840F0010394E807009847103405
:1003F000AC42F6D3FFF77EFEA4330008C4330008F6
:10040000FEE770474FF4805000F0A0B8022000F0E3
:100410009DB8102000F09AB872B6FEE710B590F8BB
:1004200021100022022905D00421816380F82020B8
:10043000012010BD01680B6823F00E030B600168FA
:100440000B6823F001030B6090F84030C46B01216E
:1004500001FA03F3636080F8211080F82020104631
:1004600010BD000010B590F821100024022903D01F
:100470000421816301243DE001680A6822F00E0234
:100480000A6001680A6822F001020A601A4A0168DB
:10049000914201D1012121E0174A1432914201D148
:1004A00010211BE0144A2832914201D1891515E030
:1004B000114A3C32914201D189140FE00E4A503268
:1004C000914202D14FF4803108E00B4A64329142EC
:1004D00002D14FF4801101E04FF08071064A083AD2
:1004E0005160012180F82110002180F82010416B1B
:1004F00001B18847204610BD0800024010B502280F
:100500000BD00F4C102814D04FF48051884203D1E7
:100510000C4800F017F9A06010BD02F0A3F980F0BC
:100520000040FFF7F4FE0146BDE81040002002F055
:100530000BBB1021044800F005F9606010BD0000FD
:100540004400002000080140000C0140044910B59F
:100550000A68024202D00860FFF7D0FF10BD000019
:10056000140401402DE9F84FDFF8B8910024A9F1F7
:10057000040B23460F2709F1040AABF1040EC9E06E
:100580000125A5402A40AA427DD1674ED1F804C07A
:10059000ACEB0608B44532D014DCBCF1030F3AD002
:1005A00009DCBCF1000F2AD0BCF1010F1CD0BCF15A
:1005B000020F31D11DE0BCF1110F17D0BCF1120FA9
:1005C0002AD119E0B8F5881F19D006DCB8F5803FAC
:1005D00015D0B8F5801F1FD111E0B8F5001F0ED05F
:1005E000B8F5041F18D10AE0CB6815E0CB681B1DD5
:1005F00012E0CB6808330FE0CB680C330CE08B685B
:100600002BB1012B4FF0080303D0456104E0042314
:1006100002E0056100E00023FF2A01D8064601E060
:1006200000F104064FEA840501D9A5F12005D6F8AA
:10063000008007FA05FC28EA0C0803FA05F548EAE9
:100640000508C6F800804D68ED0062D5374DAE69EB
:1006500046F00106AE61AD6924F0030605F0010520
:100660000095334D06EB050CDCF80850A607360F55
:1006700007FA06F825EA0805DFF8B880404503D1F7
:100680004FF0000817E044E0DFF8AC80404502D1AD
:100690004FF001080FE0DFF8A480404502D14FF091
:1006A000020808E0DFF89880404502D14FF00308C7
:1006B00001E04FF0040808FA06F848EA0508CCF80B
:1006C00008804D68D9F80060ED024D4601D516430B
:1006D00000E096432E604D68DAF80060AD025546A2
:1006E00001D5164300E096432E604D68DBF80060AC
:1006F000AD035D4601D5164300E096432E604D687C
:10070000DEF80060ED03754601D5164300E0964320
:100710002E60641C0D682A46E5407FF431AFBDE8C9
:10072000F88F000008040140000011100010024082
:100730000000014000080140000C01400010014091
:10074000001401408068084000D0012070470AB1C1
:10075000016170470904FBE70148806870470000A9
:1007600014000020024881680278114481607047BB
:1007700014000020074810B5016841F01001016025
:10078000032000F075F80F2000F006F800F024F8C0
:10079000002010BD0020024070B50D4D04464FF4FE
:1007A0007A712878B1FBF0F00A490968B1FBF0F0E2
:1007B00000F0DCFA48B9102C07D200222146501E66
:1007C00000F036F800206C6070BD012070BD0000A4
:1007D00014000020200000200C4808B5816941F079
:1007E00001018161816901F001010091C16941F05C
:1007F0008051C161C06900F0805000900448416898
:1008000021F0E06141F00071416008BD001002403C
:1008100000000140002809DB00F01F020121914087
:100820004009800000F1E020C0F80011704700008E
:10083000F0B40E4B1B680C46C3F30223C3F107054B
:10084000042D00D90425191D072901D2002300E039
:10085000DB1E012606FA05F1491E214099409E4003
:10086000761E16403143F0BC02F058B80CED00E0A3
:10087000064900F0070208684FF6FF03184040EAF7
:100880000220034A10430860704700000CED00E0AE
:100890000000FA052DE9F0470F46050061D0434EF0
:1008A000306800F00700B84209D2306820F0070035
:1008B00038433060306800F00700B84251D12868F2
:1008C0003B4C810712D5400703D5606840F4E060D7
:1008D00060602878000703D5606840F4605060606D
:1008E0006068A96820F0F000084360602878C007BD
:1008F00028D06868012810D02168022810D0890704
:1009000000292EDA616821F0030101436160FFF7DD
:1009100023FF804641F288390DE021688903EFE723
:100920008901EDE7FFF718FFA0EB0801494502D95F
:100930000320BDE8F0876068696800F00C00B0EB48
:10094000810FEFD1306800F00700B8420BD9306852
:1009500020F0070038433060306800F00700B842EC
:1009600001D00120E5E72878400705D56068E968EF
:1009700020F4E060084360602878000706D56068CE
:10098000296920F4605040EAC100606000F038F846
:100990006168084AC1F30311515CC8400649086008
:1009A00006480068FFF7F8FE0020C2E7002002407A
:1009B00000100240FA2C000820000020180000203F
:1009C0000448054900684968044AC1F30221515CA2
:1009D000C840704720000020001002400A2D000887
:1009E0000448054900684968044AC1F3C221515CC2
:1009F000C840704720000020001002400A2D000867
:100A00000E4A51680E4801F00C03042B11D0082B3C
:100A10000FD10C48C1F38343C903C05C0AD55168A8
:100A2000084AC1F34041921E515C054A5043B0FB55
:100A3000F1F070470449484370470000001002403D
:100A400000127A00EA2C000800093D002DE9F84F59
:100A5000040070D02078C04DC00749D06868C0F34A
:100A60008100012807D06868C0F38100022809D1FD
:100A70006868C00306D52868800339D560680028F7
:100A8000E7D035E06068B0F5803F0BD010B1B0F52D
:100A9000A02F11D0286820F480302860286820F426
:100AA000802002E0286840F480302860606890B1BF
:100AB000FFF752FE06460AE0286840F480202860CE
:100AC000F0E700BFFFF748FE801B642873D8286852
:100AD0008003F7D50CE0FFF73FFE064605E000BFB8
:100AE000FFF73AFE801B6428F0D828688003F7D40B
:100AF00020789A4E80074FF001094FF0000839D551
:100B0000686810F00C0F07D06868C0F381000228F5
:100B100009D16868C00306D42868800714D5206905
:100B2000012808D110E02069B0B1C6F80090FFF7A5
:100B300013FE074605E00AE1FFF70EFEC01B022880
:100B4000C4D828688007F7D52868616920F0F800C4
:100B500040EAC10028600DE0C6F80080FFF7FCFD08
:100B6000074604E0FFF7F8FDC01B022823D82868D9
:100B70008007F7D4207800072CD57948A169D9B12E
:100B8000C0F80090FFF7E8FD074604E0FFF7E4FD3A
:100B9000C01B02280FD8686A8007F7D571484FF448
:100BA000FA510068B0FBF1F0009000BF0098411EC0
:100BB0000091FAD20EE080E0C0F80080FFF7CCFD93
:100BC000074604E0FFF7C8FDC01B022875D8686A15
:100BD0008007F7D42078400760D5E8690027C00077
:100BE00008D4E86940F08050E861E869012700F026
:100BF000805000905C480168C90513D401688346A1
:100C000041F480710160FFF7A7FD824606E000BF56
:100C1000FFF7A2FDA0EB0A0064284ED8DBF8000025
:100C2000C005F5D5E06801280AD008B1052813D021
:100C3000286A20F001002862286A20F0040002E0FF
:100C4000286A40F001002862E06841F2883B98B1D0
:100C5000FFF782FD82460BE0286A40F0040028621C
:100C6000EEE700BFFFF778FDA0EB0A0159455AD81F
:100C7000286A8007F6D50CE0FFF76EFD824605E096
:100C8000FFF76AFDA0EB0A0159454CD8286A800796
:100C9000F6D41FB1E86920F08050E861E06988B3BC
:100CA0006968C1F38101022944D00228C6F8608036
:100CB00004D0FFF751FD044638E034E0FFF74CFD67
:100CC000074604E0FFF748FDC01B02282BD8286820
:100CD0008001F7D4206AB0F5803F05D16868A1682B
:100CE00020F4003008436860D4E9080108436968CB
:100CF00021F4741108436860C6F86090FFF72CFD7A
:100D0000044606E025E000BFFFF726FD001B022891
:100D100009D828688001F7D51BE000BFFFF71CFD4C
:100D2000001B022802D90320BDE8F88F2868800143
:100D3000F4D40EE00128F7D06868226A00F480310C
:100D4000914204D1616A00F47010884201D0012000
:100D5000EAE70020E8E700000010024000004242FD
:100D600080044242200000200070004010B5401E68
:100D7000B0F1807F01D3012010BD4FF0E02460610D
:100D80000F21601701F0CAFD0020A061072020613B
:100D9000002010BD7047704710B590F83C20012A24
:100DA00022D0012280F83C20CA688C6822F440726C
:100DB00022434C6822F4806222430C6822F40062D1
:100DC00022430C6922F4805222434C6922F40052DF
:100DD0002243C969002322F480420A4301684A641D
:100DE00080F83C30002010BD022010BD70B590F896
:100DF0003C20012A26D0012480F83C40022280F8C1
:100E00003D2003685A689D6822F070060A683243E4
:100E10005A600D4B02689A4208D0B2F1804F05D05B
:100E20000A4B9A4202D00A4B9A4204D1496825F0F3
:100E300080031943916080F83D40002180F83C1008
:100E4000084670BD022070BD002C01400004004027
:100E50000008004010B5040003D094F83D0010B124
:100E600007E0012010BD002084F83C00204600F07F
:100E70001FF8022084F83D00211D206801F07EFA51
:100E8000012084F8460084F83E0084F83F0084F88E
:100E9000400084F8410084F8420084F8430084F85C
:100EA000440084F8450084F83D00002010BD000097
:100EB00008B5194A01681948914216D1816941F46F
:100EC000006181618069002200F400600090114699
:100ED0001920FFF7ADFC1920FFF79CFC00221146FA
:100EE0001A20FFF7A5FC1A2010E00D4A914211D1FB
:100EF000C16941F00201C161C069002200F0020035
:100F0000009011461D20FFF793FC1D20BDE808400E
:100F1000FFF780BC08BD0000002C0140001002401B
:100F20000004004090F83D10012901D001207047D5
:100F3000022180F83D100168CA6842F00102CA60CF
:100F400000680B49884208D0B0F1804F05D00949AC
:100F5000884202D00849884204D1816801F0070123
:100F6000062903D0016841F00101016000207047AB
:100F7000002C0140000400400008004070B5044609
:100F800090F83C000025012817D0012684F83C6029
:100F9000022084F83D002068826822F0770222F463
:100FA0007F4282600868502838D00DDC20284FD05E
:100FB00005DC90B3102811D14AE0022070BD302822
:100FC00046D040280AD13BE060282FD070280DD0B1
:100FD000B0F5805F03D0B0F5005F12D0012584F832
:100FE0003D60002084F83C00284670BDCB68D1E904
:100FF0000121206801F005FA2068816841F077013D
:1010000009E0CB68D1E90121206801F0FAF92068F4
:10101000816841F480418160E1E719E0CA6849686C
:10102000206801F0A3FA5021206806E0CA684968E8
:10103000206801F0ACFA6021206801F0ECF9CEE7FD
:10104000CA684968206801F091FA40212068F4E7F5
:10105000226801461046F0E72DE9F0410D460400F4
:1010600003D094F83D0018B108E00120BDE8F081FC
:10107000002084F83C00204600F040F8022084F86C
:101080003D002068816844F2070291438160211D80
:10109000206801F073F9226890689169166A2B68DC
:1010A000AF69034340F20330814341EA0721A86856
:1010B000EF6908434FF6FC418843E96840EA07209E
:1010C000014328692F6A000140EA07300843696834
:1010D0006D6926F0220646EA0515294393602268C9
:1010E000906154F8460B0162012004F81F09E07575
:1010F0002076E0762077A0750020B7E700B585B0B0
:10110000002100910191029103910268234801217D
:10111000B2F1804F24D0224B9A421FD1C26942F0D3
:101120000402C261C26902F004020492826942F0C0
:10113000080282618069029100F008000490C020DA
:10114000009069461748FFF70DFA002211461E204D
:10115000FFF76EFB5FF01E00FFF75CFB05B000BD04
:10116000C26942F00102C261C26902F00102049246
:10117000826942F0040282618069029100F00400F9
:1011800004900320009069460748FFF7EBF900221E
:1011900011461C20FFF74CFB1C20DDE7001002402D
:1011A00000080040000C01400008014070B590F8B4
:1011B0003E60044690F83F5090F8423090F843204B
:1011C000022021B104290ED0012E1BD114E0012EE2
:1011D00018D1012B16D184F83E0084F84200012278
:1011E0000021206820E0012D0CD1012A0AD184F8C9
:1011F0003F0084F8430014E0012D03D1012B01D1FD
:10120000012A01D0012070BD84F83E0084F83F001F
:1012100084F8420084F8430001220021206801F094
:10122000E3F801220421206801F0DEF8206801685B
:1012300041F001010160002070BD704770B50446A7
:10124000006801694FF00005C943890715D4C168DA
:10125000C943890711D4E91E016101202077206864
:1012600080698007204602D0FFF7E7FF04E000F026
:10127000E5F8204600F077F9257720680169C94331
:10128000490717D4C168C943490713D46FF0040153
:101290000161022020772068806910F4407F204699
:1012A00002D0FFF7CAFF04E000F0C8F8204600F0C3
:1012B0005AF9257720680169C943090716D4C1681E
:1012C000C943090712D46FF0080101610420207797
:1012D0002068C0698007204602D0FFF7AEFF04E017
:1012E00000F0ACF8204600F03EF92577206801694F
:1012F000C943C90617D4C168C943C90613D46FF0DE
:1013000010010161082020772068C06910F4407F37
:10131000204602D0FFF791FF04E000F08FF820464E
:1013200000F021F9257720680169C943C90708D170
:10133000C168C943C90704D1891E0161204600F074
:1013400061F920680169C943090609D4C168C94324
:10135000090605D46FF0800101612046FFF71AFDF0
:1013600020680169C943490609D4C168C9434906CF
:1013700005D46FF040010161204600F099F9206822
:101380000169C94389060BD4C168C943890607D4DA
:101390006FF0200101612046BDE87040FFF7FBBC03
:1013A00070BD000010B586B000210091019102913E
:1013B00003911D4B02681D4902241D489A420ED11B
:1013C0008A6942F004028A618969039401F0040188
:1013D00004914FF41061CDE9001469461FE0154BEC
:1013E0009A421ED18A6942F004028A618A6902F037
:1013F000040204928A6942F008028A6189690394AE
:1014000001F008010491C021CDE900146946FFF7FD
:10141000A9F80120CDE90004694607480394FFF7C5
:10142000A1F806B010BD0000002C014000100240E1
:101430000008014000040040000C0140704770B5F6
:10144000044690F83C0000260D4601280FD00120EC
:1014500084F83C006AB1042A1DD0082A2FD00C2A37
:101460003FD00126002084F83C00304670BD0220A9
:1014700070BD206800F0D8FF2068816941F0080144
:1014800081612068816921F004018161206881699E
:101490002A69114311E0206800F0EEFF206881699D
:1014A00041F4006181612068816921F4806181617A
:1014B000206881692A6941EA02218161D2E72068B6
:1014C00001F006F82068C16941F00801C161206897
:1014D000C16921F00401C1612068C1692A69114311
:1014E00011E0206801F020F82068C16941F4006132
:1014F000C1612068C16921F48061C1612068C1694E
:101500002A6941EA0221C161ACE710B5040003D0A9
:1015100094F83D0010B107E0012010BD002084F8D0
:101520003C00204600F01EF8022084F83D00211DFA
:10153000206800F023FF012084F8460084F83E0074
:1015400084F83F0084F8400084F8410084F84200A9
:1015500084F8430084F8440084F8450084F83D0092
:10156000002010BD7047704710B50446022249B1F3
:1015700004290ED0082913D094F84100012816D070
:10158000012010BD94F83E000128F9D184F83E20D6
:101590000FE094F83F000128F2D184F83F2008E0E2
:1015A00094F840000128EBD184F8402001E084F851
:1015B00041200122206800F017FF0F49206888426F
:1015C00003D1426C42F4004242642068884208D051
:1015D000B0F1804F05D00949884202D008498842BD
:1015E00004D1816801F00701062903D0016841F0A8
:1015F00001010160002010BD002C014000040040EA
:10160000000800402DE9F047204988423CD1204C99
:1016100020480026217800681F4FDFF88080DFF81F
:10162000809004F10C050A2906D0491CC9B221702A
:10163000426A6A600A2914D1267046626868FEF719
:101640005DFE3946FEF71CFE4146FEF7E7FD4946C2
:10165000FEF7E4FDFEF75BFE0146A06011A001F07D
:101660004DF912480168486A28604E62FEF746FE4E
:101670003946FEF705FE4146FEF7D0FD4946FEF726
:10168000CDFDFEF744FE6060BDE8F087500000200D
:1016900000000020280100200000FA430000C8429A
:1016A0000000704225640D0A000000009800002030
:1016B0007047000070B5154C0026154D2188632930
:1016C00017D26A1812F8012C0A2A0AD0006840685A
:1016D0006854491C88B22080284410F8010C0A285C
:1016E0000CD12088401E81B2094801F07DFA268085
:1016F00004E0268064210648FEF71BFD2088291897
:10170000BDE870400122034800F03CBA26000020EA
:10171000AC0200207001002070B5154C0026154D5C
:101720002188632917D26A1812F8012C312A0AD0AD
:10173000006840686854491C88B22080284410F82A
:10174000010C31280CD12088401E81B2094801F0DB
:10175000A5FA268004E0268064210648FEF7E9FC0D
:1017600020882918BDE870400122034800F00ABA19
:10177000240000204802002000020020704770472B
:10178000F8B5016804460868CA684B6910F00F0F85
:101790004FF0000559D003F0010602F4907737436B
:1017A00065D0C10705D0D10503D5616C41F00101B9
:1017B0006164410705D5D90703D0616C41F002018E
:1017C0006164810705D5D90703D0616C41F004013C
:1017D0006164010707D502F02001314303D0616C39
:1017E00041F008016164616C00293AD0800604D59B
:1017F000900602D5204600F00BFF20684069616C1E
:10180000C0F38010090700D460B3204600F0D9FE71
:1018100020684069400621D52068143050E8001F38
:1018200021F0400140E80012002AF5D1E06BA8B198
:101830006D494163E06BFEF715FE002811D0E06BA7
:10184000416B01B0BDE8F040084783060FD5930611
:101850000DD52046BDE8F84000F0DABE2046FFF77F
:101860008EFFF8BD2046FFF78AFF6564F8BD266B42
:101870002023012E7CD1C6067AD5D60678D50868F5
:101880004868009048694FF00206400640D5E16B79
:10189000086840680004000CE8D0A28D8242E5D9B7
:1018A000E085886920282DD020680C3050E8001F82
:1018B00021F4807140E80012002AF5D1206814302C
:1018C00050E8001F21F0010140E80012002AF5D184
:1018D0002068143050E8001F21F0400140E8001259
:1018E000002AF5D184F84230256320680C3050E896
:1018F000001F21F0100140E80012002AF5D1E06B32
:10190000FEF78CFD6663A08DE18D401A81B22AE05E
:10191000A08DE18D401A81B2E08D0028A6D000296B
:10192000A4D022680C3252E8000F20F4907042E8F4
:101930000007002FF5D12068143050E8002F22F066
:10194000010240E80027002FF5D184F842302563DA
:1019500020680C3050E8002F22F0100240E80023ED
:10196000002BF5D166632046FFF708FFF8BDFFE7BF
:1019700005062BD5150629D594F841002128F5D167
:10198000A068B0F5805F01D12069B0B1206A411C28
:101990002162216800784860E08C401E0004000C41
:1019A000E084E3D12068C16821F08001C160206833
:1019B000C16841F04001C160D8E7206A0088C0F3E7
:1019C00008004860206A801C2062E5E74006CDD50B
:1019D0005006CBD5CA68204622F04002CA6084F87F
:1019E000413000F044F9C1E7B325000870B50400A8
:1019F00004D094F84100002510B106E0012070BD2C
:101A000084F84050204600F023F8242084F8410058
:101A10002068C16821F40051C160204600F05AFEE0
:101A20002068016921F4904101612068416921F039
:101A30002A0141612068C16841F40051C1606564B8
:101A4000202084F8410084F842006563002070BDC6
:101A5000F0B585B0002400940194029403940368C7
:101A6000424F022042490322424D4602BB4225D149
:101A70008B6943F480438B618B6903F48043049347
:101A80008B6943F004038B618969039201F00401BF
:101A900004910102CDE9001069462846FEF762FD77
:101AA000CDE90064694628460294FEF75BFD0022FA
:101AB00011462520FEF7BCFE252028E02E4FBB4214
:101AC00029D1CB6943F40033CB61CB6903F40033F4
:101AD00004938B6943F004038B618969039201F0DD
:101AE000040104910421CDE9001069462846FEF75F
:101AF00039FD0820CDE90004694628460294FEF726
:101B000031FD002211462620FEF792FE2620FEF728
:101B100081FE05B0F0BD194DAB42FAD1CB6943F45B
:101B20008023CB61CB6903F4802304938B6943F05A
:101B300008038B618969124D01F00801CDE9032189
:101B4000CDE9006069462846FEF70CFDE814CDE9B2
:101B50000004694628460294FEF704FD002211465F
:101B60002720FEF765FE2720D1E70000003801405E
:101B700000100240000801400044004000480040BE
:101B8000000C014090F84230202B01D00220704719
:101B900021B11AB10023036300F0F8BD01207047A2
:101BA00000680849884202D10748FFF783BD07490A
:101BB000884206D00649884203D103489030FFF797
:101BC000ABBD704700380140700100200044004068
:101BD000004800402DE9F843044690F841001F46B4
:101BE00016460D46202802D00220BDE8F8837DB1BC
:101BF00076B100206064212084F84100FEF7ACFD3E
:101C0000A6848046E684A068B0F5805F02D003E039
:101C10000120EAE7206910B12E4600250EE00026DB
:101C20000CE08021204600F0CCFDA0B9AEB116F842
:101C3000010B21684860E08C401EE084E08C434644
:101C40004FF0000200970028EBD14FF040012046F2
:101C500000F0B7FD30B10320C7E735F8020BC0F341
:101C60000800E6E7202084F841000020BDE7704727
:101C7000FEE70000044903480122098801440348A3
:101C8000FFF780BF4802002024000020000200204F
:101C900030B585B0002003902148816941F00801EA
:101CA0008161816901F008010491816941F00801B5
:101CB0008161816901F008010491816941F00401A9
:101CC00081618069174C00F0040004901220012506
:101CD0008DE8310069461448FEF744FC28038DE87E
:101CE000310069461148FEF73DFC002211460720ED
:101CF000FEF79EFD0720FEF78DFD002211460A200B
:101D0000FEF796FD0A20FEF785FD002211462820E9
:101D1000FEF78EFD2820FEF77DFD05B030BD0000EA
:101D20000010024000001110000C014000080140AA
:101D30002DE9F04385B000242148009401940294D9
:101D40000394816941F020018161816901F02001E2
:101D50000491816941F004018161816901F004010C
:101D60000491816941F0080181618069DFF8548044
:101D700000F008000490002210214046FEF7E7FC26
:101D8000DFF844904FF47047002239464846FEF78A
:101D9000DEFC102001250226CDE90005CDE9024632
:101DA00069464046FEF7DEFB00970396CDE90154F5
:101DB00069464846FEF7D6FB05B0BDE8F083000053
:101DC0000010024000080140000C014010B596B020
:101DD00000240F9410941194129413941C216846BB
:101DE0001494FEF7A6F9202107A8FEF7A2F92C48C3
:101DF0002A4901604721C0E9011440F2E731C0E9F6
:101E0000031444618461FFF725F808B1FEF704FB71
:101E10004FF480500F900FA92148FFF7AFF808B199
:101E2000FEF7FAFA1E48FFF770FB08B1FEF7F4FA66
:101E3000139413A91A481494FEF7D8FF08B1FEF7BB
:101E4000EBFA6020CDE90004029403940494059415
:101E50000022694612480694FFF7F1FA08B1FEF72E
:101E6000DBFA0C2269460E48FFF7E9FA08B1FEF7E3
:101E7000D3FA0794089409944FF400500A94CDE9DA
:101E80000B4007A906480E94FEF786FF08B1FEF73F
:101E9000C3FA0348FFF786FA16B010BD002C0140C4
:101EA0005000002010B58CB024216846FEF741F99F
:101EB0000024154809944FF080410A94C0E90014A9
:101EC0004FF6FF71C0E90241046184610120CDE950
:101ED0000004CDE902040494CDE905400794694665
:101EE00009480894FFF7B8F808B1FEF795FA099485
:101EF00009A905480A94FEF779FF002801D0FEF7EA
:101F00008BFA0CB010BD00009800002010B58EB008
:101F100000240794089409940A940B941C216846A1
:101F20000C94FEF706F927482549016040F2CF21BD
:101F3000C0E901144FF4FA61C0E903148461FEF7AB
:101F400089FF08B1FEF768FA4FF48050079007A99F
:101F50001C48FFF713F808B1FEF75EFA1948FFF7BF
:101F6000D4FA08B1FEF758FA0B940BA915480C9453
:101F7000FEF73CFF08B1FEF74FFA6020CDE9000400
:101F80000294002269460F480494FFF758FA08B1FA
:101F9000FEF742FA042269460A48FFF750FA08B1F0
:101FA000FEF73AFA082269460648FFF748FA08B1F0
:101FB000FEF732FA0348FFF7F5F90EB010BD000046
:101FC00000040040E000002010B58CB024216846D9
:101FD000FEF7AFF800241548099413490A94C0E9A4
:101FE00000144FF6FF71C0E90241046184610120D1
:101FF000CDE90004CDE902040494CDE9054007943D
:1020000069460A480894FFF727F808B1FEF704FA72
:10201000099409A905480A94FEF7E8FE002801D0B2
:10202000FEF7FAF90CB010BD0008004028010020AE
:102030000C4810B50A4901604FF4E13141600021BC
:1020400081600C22C160C0E904128161C161FFF7A7
:10205000CDFC002803D0BDE81040FEF7DDB910BD6F
:1020600000380140700100200C4810B50A49016099
:102070004FF416514160002181600C22C160C0E91B
:1020800004128161C161FFF7B1FC002803D0BDE8F3
:102090001040FEF7C1B910BD00440040B801002057
:1020A0000C4810B50A4901604FF4165141600021F7
:1020B00081600C22C160C0E904128161C161FFF737
:1020C00095FC002803D0BDE81040FEF7A5B910BD6F
:1020D0000048004000020020FEE7FEE72DE9F0473F
:1020E000164E002407464FF080084FF480497514BF
:1020F00028FA04F23A4049463046FEF728FB01220E
:1021000029463046FEF723FB002229463046FEF7DB
:102110001EFB641CE4B2082CEAD301224946304677
:10212000FEF715FB012229463046FEF710FB294633
:102130003046BDE8F0470022FEF709BB0010014021
:1021400070B501220B4D940321462846FEF7FFFA95
:102150000122560331462846FEF7F9FA00222146AD
:102160002846FEF7F4FA31462846BDE870400022C2
:10217000FEF7EDBA0010014070B50A4D4FF48044EF
:10218000002221462846FEF7E2FA012251032846A2
:10219000FEF7DDFA21462846BDE870400122FEF731
:1021A000D6BA00000010014010B50C4640F0B00057
:1021B00000F053F8102040EA141000F04EF804F03C
:1021C0000F00BDE8104000F048B800002DE9F041D4
:1021D0000746CE004000083E801E15464FF0FF38EF
:1021E000F1B2C0B2FFF7E0FF1148002400EB051583
:1021F0002819A0F5805090F8000E00F03FF8641CFC
:10220000E4B2082CF4D308EB4700F1B2C0B2FFF7F8
:10221000CBFF00242819A0F5805090F8080E00F09C
:102220002DF8641CE4B2082CF4D3BDE8F081000062
:10223000122D00082DE9F04115460E4607460024F0
:1022400006E03019C1B23846FFF7C0FF641CE4B2A3
:102250002A5D002AF5D1BDE8F08110B50446FFF7EC
:102260006FFF7820FFF73AFF0020FFF737FF204687
:10227000FFF734FFBDE81040FFF77EBF10B50446FE
:10228000FFF75EFF7820FFF729FF4020FFF726FFCA
:102290002046FFF723FFBDE81040FFF76DBF0000A9
:1022A00010B5044600210348FFF75EF902480460B8
:1022B00010BD000050000020342C014010B5044631
:1022C0000C210348FFF750F90248046010BD0000DC
:1022D00050000020402C014070477047FEF742BA82
:1022E00030B58FB028216846FDF723FF14210AA8D6
:1022F000FDF71FFF01210804CDE90010002402941E
:1023000002250491CDE907504FF4E010099068468A
:10231000FEF79CFB08B172B6FEE70F20CDE90A0577
:102320004FF48060CDE90C4002210AA80E94FEF71C
:10233000B1FA002801D072B6FEE70FB030BD704789
:102340000148FEF77BBF0000500000200148FEF767
:1023500075BF0000500000200148FEF76FBF00006D
:10236000980000200148FEF769BF0000E00000204F
:102370000148FEF763BF000028010020F0B50268A5
:10238000164B174C174D4FF08047984205D0B84276
:1023900003D0A04201D0A84203D122F070064A68BF
:1023A0003243984205D0B84203D0A04201D0A8429F
:1023B00003D122F44074CA6822434C6922F080029F
:1023C000224302608A68C2620A688262984201D12E
:1023D0000969016301214161F0BD0000002C014049
:1023E000000400400008004010B501F01F03012167
:1023F000046A99408C430462016A9A401143016265
:1024000010BD10B5846842EA032224F47F440A43D5
:102410002243826010BD826822F070020A4342F0BB
:10242000070181607047000030B5036A026A22F03C
:10243000010202624268846924F073050C682C432F
:1024400023F002058B682B430A4DA8420BD123F0E1
:102450000805CB6822F440722B434D6923F0040336
:1024600015438A692A434260846149684163036273
:1024700030BD0000002C014030B5026A036A23F031
:1024800010030362436884690D6824F4E64444EA57
:1024900005248D6822F0200242EA05120B4DA84265
:1024A0000ED1CD6822F0800242EA05124D6923F474
:1024B000406343EA85038D6922F0400243EA8503C5
:1024C0004360846149688163026230BD002C014031
:1024D00030B5036A026A22F4807202624268C469FB
:1024E00023F4007324F073050C682C438D6843EAD1
:1024F00005230C4DA8420ED1CD6823F4006343EAB6
:1025000005234D6922F4405242EA05128D6923F4F5
:10251000806342EA05124260C4614968C163036294
:1025200030BD0000002C014030B5046A026A22F47C
:10253000805202624268C3690D6823F4E64343EAAD
:1025400005238D6824F4005444EA0534064DA8425E
:1025500004D14D6922F4804242EA85124260C3618F
:1025600049680164046230BD002C014010B5036A63
:10257000046A24F001040462846924F0F00444EA4B
:10258000021423F00A020A438461026210BD10B5EE
:10259000036A046A24F010040462846923F0A0032F
:1025A00024F4704444EA023243EA01118261016278
:1025B00010BD10B5406A0021C185C184FFF7DFF866
:1025C00010BD01680C3151E8002F22F4907241E8EF
:1025D0000023002BF5D10168143151E8002F22F0BF
:1025E000010241E80023002BF5D1016B012909D13B
:1025F00001680C3151E8002F22F0100241E800235D
:10260000002BF5D1202180F8421000210163704792
:1026100008B590F84210222901D0022008BD826836
:102620004FF480539A4201D1016921B1816A9A42E3
:102630001BD04AB10AE00268816A5268C2F30802FC
:102640000A80816A891C08E0026972B102685268D6
:1026500002F07F020A70816A491C8162C18D491EA5
:102660000904090CC18503D01BE002685268F1E738
:102670000168CA6822F02002CA600168CA6822F4B0
:102680008072CA6001684A6922F001024A61202111
:1026900080F8421000214163026B012A03D0FFF74A
:1026A0007FFA002008BD016301680C3151E8002F5A
:1026B00022F0100241E80023002BF5D101680A68DE
:1026C000D20602D50A6849680091818DFFF756F855
:1026D000E7E7000070B5044600680169E26821F48C
:1026E0004051114301612169A068084361690843B1
:1026F0002168CA6841F20C639A430243CA602068A9
:102700004169A26921F44071114341611E49206869
:10271000884202D1FEF764F901E0FEF751F900EBBF
:10272000C00101EB0012606864218000B2FBF0F38D
:10273000B3FBF1F36FF018067343B2FBF0F5B2FB95
:10274000F0F605EB8305322303EB0515B5FBF1F538
:10275000B6FBF1F605F0F00505EB0615B2FBF0F659
:10276000B2FBF0F0B0FBF1F06FF01802504306EB53
:10277000800003EB0010B0FBF1F0216800F00F00C7
:102780002844886070BD0000003801408162828565
:10279000C28500214164222180F84210016921B1E3
:1027A0000168CA6842F48072CA6001684A6942F0EE
:1027B00001024A610068C16841F02001C160002047
:1027C00070472DE9F041984617460E460446069D8F
:1027D00027E0681C25D02DB1FDF7BEFFA0EB080057
:1027E000A8421ED920680C3050E8001F21F4D07197
:1027F00040E80012002AF5D12068143050E8001F8C
:1028000021F0010140E80012002AF5D1202084F8CF
:10281000410084F84200002084F840000320BDE815
:10282000F0812068006836EA000004D00020B84239
:10283000CFD00020F3E70120F9E700000148FEF7C0
:102840009FBF0000700100200148FEF799BF000003
:10285000B80100200148FEF793BF000000020020ED
:10286000FEE70000094810B54068FDF747FD08493C
:10287000FDF706FD0749FDF7D1FC0749FDF7CEFC42
:1028800006498862BDE8104000F00AB80C0000203C
:102890000000FA4300007A44000070421003002058
:1028A0002DE9F041134C616AFDF7B5FC124D8046ED
:1028B00001466869FDF75AFC686107464046296988
:1028C000FDF7A6FC216AFDF7A9FC06463946E0693A
:1028D000FDF7A4FC07464146A069FDF79FFC394679
:1028E000FDF744FC3146FDF741FCC5F81080BDE81A
:1028F000F081000010030020280000200FB4054BD9
:1029000010B503A9044A029800F028F810BC5DF83D
:1029100014FB0000B12A0008400000200907090E3E
:10292000002804DB00F1E02080F80014704700F07C
:102930000F0000F1E02080F8141D704702E008C885
:10294000121F08C1002AFAD170477047002001E029
:1029500001C1121F002AFBD1704700002DE9FF4F73
:1029600089B09B460446002506E025280BD05A4630
:102970000B999047641C6D1C20780028F5D10DB090
:102980002846BDE8F08F0027B8460122474900E0FD
:10299000074314F8013F203B02FA03F00842F7D145
:1029A00020782E2819D114F8010F47F004072A289F
:1029B0000ED06FF02F022078A0F1300109290CD839
:1029C00008EB880102EB410100EB0108641CF2E70F
:1029D0000A98641C50F8048B0A9020780028CED006
:1029E000642808D0692806D075281ED05A460B994D
:1029F00090476D1C58E00A994FF00A0901C90A91E5
:102A0000002802DA40422D2102E0390504D52B21AD
:102A10008DF82010012103E0F90704D02021F7E709
:102A20008A4608AE0DE00021FAE70A994FF00A093C
:102A300001C90A91F7E74946FDF782FC303106F8F3
:102A4000011D0028F7D1ADEB060000F12009780741
:102A500001D44FF00108C84502DDA8EB090000E0F1
:102A600000208046002706E008A85A46C05D0B9962
:102A700090476D1C7F1C5745F6DB04E030205A461A
:102A80000B9990476D1CB8F10001A8F10108F5DC25
:102A900005E016F8010B5A460B9990476D1CB9F1E9
:102AA0000001A9F10109F4DC641C65E709280100B3
:102AB00013B54FF47A73012269460248FFF78AF88A
:102AC00000981CBD70010020FDF754FEFFF708FCC4
:102AD000FFF72EF9FFF77AF9FFF7E4F9FFF716FA97
:102AE000FFF772FAFFF7C0FAFFF7DAFAFFF7A0FA7A
:102AF0003C210C48FEF75AFB3C210B48FEF756FBE5
:102B00000A48FEF70FFAFFF7B5F8FFF7C1F800F033
:102B10005DF807A0FFF7F2FE09480021C1600949EE
:102B20004162FEE7980000202801002050000020AC
:102B300048656C6C6F20576F726C640D0A00000062
:102B4000100300200000C8432DE9F0410E461E4D41
:102B5000041E4FF480414FF4004725DD0122284632
:102B6000FDF7F5FD002239462846FDF7F0FD4FF44C
:102B700000514F10002E1FDD4FF001022846FDF7D7
:102B8000E6FD002239462846FDF7E1FD002C00DA7B
:102B90006442A0B2FFF784FB002E00DA7642B0B2A6
:102BA000BDE8F041FFF78ABB4FF00002D7DA2846B4
:102BB000FDF7CDFD0122D6E74FF00002DEDA284610
:102BC000FDF7C5FD0122DDE7000C01400449034883
:102BD0000122098801440348FEF7D4BFAC0200205B
:102BE000260000207001002070B5054614A1FDF7F5
:102BF000ABFA164C18B116A0FFF780FE0EE018A134
:102C00002846FDF7A1FA18B118A0FFF777FE0CE0EF
:102C10001AA12846FDF798FA1B4C08B1002205E0DE
:102C20001AA12846FDF790FA20B101222021204662
:102C3000FDF78DFDBDE8704064211748FDF779BAB6
:102C40004C454431204F4E0D0A000000000C01405D
:102C50004C454431206973204F4E0D0A000000009E
:102C60004C454431204F46460D0A00004C45443146
:102C7000206973204F46460D0A0000004C4544323F
:102C8000204F4E0D0A000000001801404C45443210
:102C9000204F46460D0A0000AC02002010B5044645
:102CA0000AA1FDF751FA08B10AA205E00BA12046DE
:102CB000FDF74AFA20B109A206210120FFF7BAFA6E
:102CC000BDE8104064210748FDF733BA4C45442065
:102CD0004F4E31004C454431204F4E004C4544315D
:102CE000000000004802002001020203040506075C
:102CF00008090A0B0C0D0E0F101000000000000058
:102D00000000010203040607080900000000010298
:102D100003040000000000000000000000000000AC
:102D20000000000000F80000000000000033300048
:102D3000000000100C06100C06000000000000004F
:102D4000000040C07840C0784000043F04043F04C5
:102D50000400007088FC08300000001820FF211ECD
:102D60000000F008F000E018000000211C031E2104
:102D70001E0000F00888700000001E21232419277F
:102D8000211010160E0000000000000000000000DE
:102D90000000000000E018040200000000071820F6
:102DA000400000020418E000000000402018070066
:102DB0000000404080F0804040000202010F01020C
:102DC0000200000000F0000000000101011F0101ED
:102DD0000100000000000000000080B07000000052
:102DE00000000000000000000000000101010101DE
:102DF0000101000000000000000000303000000071
:102E00000000000000008060180400601806010047
:102E1000000000E010080810E000000F1020201053
:102E20000F00001010F8000000000020203F2020BC
:102E30000000007008080888700000302824222153
:102E40003000003008888848300000182020201109
:102E50000E000000C02010F8000000070424243FEA
:102E6000240000F808888808080000192120201193
:102E70000E0000E0108888180000000F11202011BB
:102E80000E0000380808C83808000000003F0000A5
:102E900000000070880808887000001C2221212290
:102EA0001C0000E010080810E00000003122221190
:102EB0000F00000000C0C000000000000030300023
:102EC00000000000008000000000000080600000A2
:102ED00000000000804020100800000102040810DB
:102EE00020004040404040404000040404040404EA
:102EF0000400000810204080000000201008040298
:102F00000100007048080808F00000000030360199
:102F10000000C030C828E810E00007182724231458
:102F20000B000000C038E0000000203C2302022714
:102F3000382008F8888888700000203F2020201161
:102F40000E00C0300808080838000718202020109C
:102F5000080008F808080810E000203F2020201092
:102F60000F0008F88888E8081000203F2020232060
:102F7000180008F88888E8081000203F20000300A7
:102F80000000C03008080838000007182020221E62
:102F9000020008F808000008F808203F210101217C
:102FA0003F20000808F8080800000020203F2020EB
:102FB000000000000808F8080800C08080807F003A
:102FC000000008F888C028180800203F2001263893
:102FD000200008F8080000000000203F20202020EA
:102FE000300008F8F800F8F80800203F003F003FE4
:102FF000200008F830C00008F808203F200007181B
:103000003F00E01008080810E0000F1020202010FA
:103010000F0008F808080808F000203F210101010E
:103020000000E01008080810E0000F1824243850B1
:103030004F0008F8888888887000203F2000030C23
:10304000302000708808080838000038202121222C
:103050001C00180808F8080818000000203F20008D
:10306000000008F808000008F808001F20202020B1
:103070001F000878880000C83808000007380E01D3
:103080000000F80800F80008F800033C0700073CBF
:103090000300081868808068180820302C03032C6F
:1030A00030200838C800C83808000000203F200041
:1030B000000010080808C838080020382621202001
:1030C0001800000000FE020202000000007F4040E5
:1030D0004000000C30C00000000000000001063875
:1030E000C00000020202FE000000004040407F00DD
:1030F00000000000040202020400000000000000C2
:1031000000000000000000000000808080808080BF
:1031100080800002020400000000000000000000A7
:1031200000000000808080800000001924222222FC
:103130003F2008F8008080000000003F112020118F
:103140000E000000008080800000000E1120202072
:103150001100000000808088F800000E112020106F
:103160003F200000808080800000001F2222222259
:103170001300008080F0888888180020203F2020DD
:1031800000000000808080808000006B9494949305
:10319000600008F8008080800000203F21000020AF
:1031A0003F2000809898000000000020203F202051
:1031B0000000000000809898000000C08080807FA0
:1031C000000008F8000080808000203F24022D309D
:1031D0002000000808F8000000000020203F202008
:1031E00000008080808080808000203F20003F2081
:1031F000003F8080008080800000203F2100002070
:103200003F200000808080800000001F20202020C0
:103210001F00808000808000000080FFA12020111E
:103220000E000000008080808000000E112020A091
:10323000FF80808080008080800020203F2120004F
:10324000010000008080808080000033242424243A
:103250001900008080E0808000000000001F202016
:1032600000008080000000808000001F20202010CF
:103270003F20808080000080808000010E300806A2
:10328000010080800080008080800F300C030C30B3
:103290000F0000808000808080000020312E0E31E1
:1032A0002000808080000080808080818E701806E1
:1032B000010000808080808080000021302C22214D
:1032C000300000000000807C020200000000003F8F
:1032D000404000000000FF00000000000000FF0070
:1032E00000000002027C800000000040403F00001F
:1032F00000000006010102020404000000000000BA
:1033000000001060028C0000FE9292929292FE00E9
:10331000000004047E01407E42427E427E42427EA4
:1033200040000000FC242424FC252624FC24242422
:10333000040040308F80844C55252525554C8080D5
:1033400080001060028C00FE929292929292FE0097
:10335000000004047E014448507F40407F504844B0
:1033600040000000FC242424FC252624FC242424E2
:10337000040040308F80844C55252525554C808095
:103380008000060909E6F80C040202020202041E8B
:103390000000000000071F30204040404040201047
:1033A00000000000C43300080000002044000000BA
:1033B0003C2900080834000844000020FC060000F6
:1033C0004C29000800000000000000000000000080
:1033D00000000000000000000100000010000000DC
:1033E000000000000024F4000000000000000000C5
:1033F00000000000000000000000000000000000CD
:083400000000000000000000C4
:04000005080000ED02
:00000001FF
