:020000040800F2
:10000000C8060020CD010008FF1400085D1000089C
:10001000FD140008D302000891160008000000003B
:100020000000000000000000000000002B16000887
:10003000D502000800000000291600082D1600084F
:10004000E7010008E7010008E7010008E7010008F0
:10005000E7010008E7010008E7010008E7010008E0
:10006000E7010008E7010008E7010008E7010008D0
:10007000E7010008E7010008E7010008E7010008C0
:10008000E7010008E7010008E7010008E7010008B0
:10009000E7010008E7010008E7010008E7010008A0
:1000A000E7010008E7010008E7010008E701000890
:1000B000E7010008E7010008E7010008E701000880
:1000C000E7010008E7010008E7010008E701000870
:1000D000E7010008E7010008E7010008E701000860
:1000E000E7010008E7010008E7010008E701000850
:1000F000E7010008E7010008E7010008E701000840
:10010000E7010008E7010008E7010008E70100082F
:10011000E7010008E7010008E7010008E70100081F
:10012000E7010008E7010008E7010008E70100080F
:1001300000F002F800F03AF80AA090E8000C8244BF
:100140008344AAF10107DA4501D100F02FF8AFF29C
:10015000090EBAE80F0013F0010F18BFFB1A43F0A5
:100160000103184798230000B8230000103A24BF69
:1001700078C878C1FAD8520724BF30C830C144BF0C
:1001800004680C607047000000230024002500264E
:10019000103A28BF78C1FBD8520728BF30C148BFEA
:1001A0000B6070471FB51FBD10B510BD00F058F8AB
:1001B0001146FFF7F7FF01F0EBFA00F076F803B411
:1001C000FFF7F2FF03BC00F07DF80000094880470C
:1001D00009480047FEE7FEE7FEE7FEE7FEE7FEE729
:1001E000FEE7FEE7FEE7FEE704480549054A064B41
:1001F000704700008F16000831010008C800002079
:10020000C8060020C8020020C80200204FF00002EB
:1002100000B5134694469646203922BFA0E80C50FC
:10022000A0E80C50B1F12001BFF4F7AF090728BFD7
:10023000A0E80C5048BF0CC05DF804EB890028BF53
:1002400040F8042B08BF704748BF20F8022B11F07C
:10025000804F18BF00F8012B7047704770477047F8
:10026000754600F02BF8AE4605006946534620F06F
:100270000700854618B020B5FFF7B6FFBDE820405F
:100280004FF000064FF000074FF000084FF0000B52
:1002900021F00701AC46ACE8C009ACE8C009ACE805
:1002A000C009ACE8C0098D46704710B50446AFF3ED
:1002B00000802046BDE81040FFF781BF004870472E
:1002C0006400002001491820ABBEFEE726000200B2
:1002D0007047FEE7704772B6FEE7000070B504464F
:1002E00000F00AF90546601C02D004480078044476
:1002F00000F002F9401BA042FAD370BD00000020BC
:100300002DE9F84FDFF8C8910024A9F1040B23462A
:100310000F2709F1040AABF1040ED1E00125A54035
:1003200006EA0502AA4276D1DFF8A8C14E68A6EB1C
:100330000C0866452BD00DDC032E34D005DC36B31B
:10034000012E19D0022E2FD11BE0112E16D0122E05
:100350002AD119E0B8F5881F19D006DCB8F5803F1E
:1003600015D0B8F5801F1FD111E0B8F5001F0ED0D1
:10037000B8F5041F18D10AE0CB6815E0CB681B1D47
:1003800012E0CB6808330FE0CB680C330CE08B68CD
:100390002BB1012B4FF0080303D0456104E0042387
:1003A00002E0056100E00023FF2A01D8064601E0D3
:1003B00000F104064FEA840501D9A5F12005D6F81D
:1003C000008007FA05FC28EA0C0803FA05F548EA5C
:1003D0000508C6F800804D68ED0070D53E4DAE6949
:1003E00046F00106AE61AD6924F0030605F0010593
:1003F00000953A4D06EB050CDCF80850A607360FC1
:1004000007FA06F825EA0805DFF8D480404503D14D
:100410004FF0000825E052E0DFF8C880404502D1E7
:100420004FF001081DE0DFF8C080404502D14FF0D9
:10043000020816E0DFF8B480404502D14FF003080F
:100440000FE0DFF8AC80404502D14FF0040808E02F
:10045000DFF8A080404502D14FF0050801E04FF0E1
:10046000060808FA06F848EA0508CCF808804D683E
:10047000D9F80060ED024D4601D5164300E09643E1
:100480002E604D68DAF80060AD02554601D516437E
:1004900000E096432E604D68DBF80060AD035D46DA
:1004A00001D5164300E096432E604D68DEF80060EB
:1004B000ED03754601D5164300E096432E60641C9B
:1004C0000A681646E2407FF429AFBDE8F88F0000C5
:1004D000080401400000111000100240000001401B
:1004E00000080140000C01400010014000140140D0
:1004F00000180140001C014001488068704700005E
:100500000000002070B5040025D094F83D000025BF
:1005100020B984F83C50204600F076FA242084F874
:100520003D002068016821F0010101602068016838
:1005300041F4004101602068016821F4004101603C
:1005400000F0B2FB4D4A6168914201D84C4900E08D
:100550004C49884201D2012070BD4B492368B0FB51
:10056000F1F15E6826F03F060E435E6063689342D9
:1005700006D94FF4967359434FF47A73B1FBF3F1F4
:100580002368491C1E6A26F03F06314319626168E0
:10059000914210D84900401EB0FBF1F2521CC2F348
:1005A0000B02042A01D2042022E0B0FBF1F0401C2F
:1005B000C0F30B001CE0A268F2B301EBC10303EB34
:1005C0000116431EB3FBF6F35B1C43F480431B058B
:1005D00049D092B301EBC10202EB0111401EB0FB06
:1005E000F1F0401CC0F30B0040F4804040F40040A8
:1005F0002168CA694CF6FF739A431043C861D4E975
:10060000071001432068026822F0C0021143016014
:10061000D4E9030101432068826848F2FF339A431A
:1006200011438160D4E9050108432168CA6822F0BA
:10063000FF021043C86001E00EE016E02068016888
:1006400041F0010101602564202084F83D0025630C
:1006500084F83E50002070BD01EB4106431EB3FB01
:10066000F6F35B1CB3E70120C2E701EB4101401E3A
:10067000B0FBF1F0401CC0F30B00B7E7A08601000F
:1006800080841E0000093D0040420F002DE9F84F14
:100690000025DDF82890984617468A4604460095BE
:1006A000FFF72AFF064694F83D0020287AD1192347
:1006B000012286492046009600F0D8FD0028F5D199
:1006C00094F83C0001286DD0012084F83C0020689B
:1006D0000168C90703D1016841F001010160206888
:1006E000016821F400610160222084F83D0010209F
:1006F00084F83E0025646762A4F82A80608D208516
:100700007348E06233464A465146204600F0BEFC3C
:1007100000287CD1208DDFF8BC81202768B101281A
:1007200014D00228206801681ED041F48061016065
:100730002068416980690090BBE020684169816957
:100740000091016841F400710160B2E02068016825
:1007500021F48061016072B620684169816900916D
:10076000016841F400710AE041F40061016072B671
:100770002068416981690091016821F4806101600C
:1007800062B696E0032865D801280CD002284B46B3
:100790004FF000024146204600960BD000F066FD67
:1007A000A8BB0CE090E032464946204600F004FE2B
:1007B00068BB71E000F05AFD48BB72B633E02068B8
:1007C000016821F48061016072B620680069616A85
:1007D0000870606A401C6062208D401E2085608D1C
:1007E000401E60853C4846F2A8110068B0FBF1F05D
:1007F000C0EBC00000EB80000090401E009007D0CE
:1008000020684069C04340070DD50098F5E727E010
:1008100044F8305F6773A573206940F020002061C1
:1008200062B625731CE02068016841F40071016024
:1008300020680069616A0870606A401C6062218DEE
:10084000491E2185618D491E618562B6216809694D
:10085000017025E032464946204600F0ADFD10B15A
:100860000120BDE8F88F20680069616A0870606A3D
:10087000401C6062208D401E81B22185608D401E2B
:10088000608520684269D243520712D4032903D1FC
:10089000016821F48061016020680069616A087064
:1008A000606A401C6062208D401E2085608D401E65
:1008B0006085208D00287FF465AF84F83D7084F852
:1008C0003E5084F83C50CCE70220CAE702001000FA
:1008D0000000FFFF040001000C0000202DE9F84F8C
:1008E0001F4690468A460446DDF82890FFF704FE2E
:1008F000054694F83D0020287FD119230122404964
:100900002046009500F0B2FC002876D194F83C0017
:10091000012872D0012084F83C0020680168C907D2
:1009200003D1016841F0010101602068016821F4F0
:1009300000610160212084F83D00102084F83E0011
:1009400000262664C4F824806785608D20852D48A4
:10095000E0622B464A465146204600F00DFC90B915
:10096000206841698069009036E02A464946204661
:1009700000F05AFD50B1206C042804D120680168B1
:1009800041F4007101600120BDE8F88F606A2168C0
:1009900000780861606A401C6062618D491E618553
:1009A000218D491E89B2218522685369DB435B078B
:1009B0000BD451B100781061606A401C6062608D98
:1009C000401E6085208D401E20852A4649462046CF
:1009D00000F020FC0028CED1208D0028C5D154F88D
:1009E0003D0B016841F400710160202004F81E09EC
:1009F000E67766770020C7E7FFE70220C4E700003C
:100A0000020010000000FFFF10B586B00021009129
:100A10000191029103910068104988421BD1104C4A
:100A2000A06940F00800A061A069694600F00800D4
:100A300004904FF440600090122001900320039036
:100A40000848FFF75DFCE06940F48000E061E06980
:100A500000F48000049006B010BD00000058004073
:100A600000100240000C01400248816802781144E5
:100A70008160704700000020074810B5016841F010
:100A800010010160032000F067F80F2000F006F865
:100A900000F024F8002010BD0020024070B50D4D7C
:100AA00004464FF47A712878B1FBF0F00A490968DE
:100AB000B1FBF0F000F0BEFA48B9102C07D20022CA
:100AC0002146501E00F028F800206C6070BD012007
:100AD00070BD0000000000200C0000200C4808B58C
:100AE000816941F001018161816901F00101009199
:100AF000C16941F08051C161C06900F0805000902F
:100B00000448416821F0E06141F00071416008BD96
:100B10000010024000000140F0B40E4B1B680C4670
:100B2000C3F30223C3F10705042D00D90425191DC1
:100B3000072901D2002300E0DB1E012606FA05F199
:100B4000491E214099409E40761E16403143F0BC1C
:100B500000F09FBD0CED00E0064900F007020868B8
:100B60004FF6FF03184040EA0220034A1043086092
:100B7000704700000CED00E00000FA052DE9F04799
:100B80000F46050061D0434E306800F00700B842C0
:100B900009D2306820F0070038433060306800F038
:100BA0000700B84251D128683B4C810712D5400755
:100BB00003D5606840F4E06060602878000703D5E2
:100BC000606840F4605060606068A96820F0F000E0
:100BD000084360602878C00728D06868012810D0D2
:100BE0002168022810D0890700292EDA616821F0D7
:100BF000030101436160FFF77FFC804641F28839C1
:100C00000DE021688903EFE78901EDE7FFF774FC48
:100C1000A0EB0801494502D90320BDE8F0876068D0
:100C2000696800F00C00B0EB810FEFD1306800F084
:100C30000700B8420BD9306820F007003843306015
:100C4000306800F00700B84201D00120E5E72878BD
:100C5000400705D56068E96820F4E06008436060FB
:100C60002878000706D56068296920F4605040EABA
:100C7000C100606000F028F86168084AC1F3031100
:100C8000515CC8400649086006480068FFF706FF47
:100C90000020C2E70020024000100240E2240008C9
:100CA0000C00002004000020044805490068496841
:100CB000044AC1F30221515CC84070470C00002077
:100CC00000100240F22400080E4A51680E4801F05C
:100CD0000C03042B11D0082B0FD10C48C1F3834314
:100CE000C903C05C0AD55168084AC1F34041921E4D
:100CF000515C054A5043B0FBF1F07047044948434A
:100D0000704700000010024000127A00D224000850
:100D100000093D002DE9F84F040070D02078C04D47
:100D2000C00749D06868C0F38100012807D068680F
:100D3000C0F38100022809D16868C00306D528687D
:100D4000800339D560680028E7D035E06068B0F5E9
:100D5000803F0BD010B1B0F5A02F11D0286820F43F
:100D600080302860286820F4802002E0286840F461
:100D700080302860606890B1FFF7BEFB06460AE04D
:100D8000286840F480202860F0E700BFFFF7B4FB3C
:100D9000801B642873D828688003F7D50CE0FFF720
:100DA000ABFB064605E000BFFFF7A6FB801B6428EF
:100DB000F0D828688003F7D420789A4E80074FF047
:100DC00001094FF0000839D5686810F00C0F07D002
:100DD0006868C0F38100022809D16868C00306D49E
:100DE0002868800714D52069012808D110E02069FF
:100DF000B0B1C6F80090FFF77FFB074605E00AE1B7
:100E0000FFF77AFBC01B0228C4D828688007F7D5F3
:100E10002868616920F0F80040EAC10028600DE010
:100E2000C6F80080FFF768FB074604E0FFF764FBA5
:100E3000C01B022823D828688007F7D42078000731
:100E40002CD57948A169D9B1C0F80090FFF754FBBF
:100E5000074604E0FFF750FBC01B02280FD8686A62
:100E60008007F7D571484FF4FA510068B0FBF1F0F4
:100E7000009000BF0098411E0091FAD20EE080E081
:100E8000C0F80080FFF738FB074604E0FFF734FBAB
:100E9000C01B022875D8686A8007F7D420784007FD
:100EA00060D5E8690027C00008D4E86940F08050A8
:100EB000E861E869012700F0805000905C48016813
:100EC000C90513D40168834641F480710160FFF7BE
:100ED00013FB824606E000BFFFF70EFBA0EB0A0003
:100EE00064284ED8DBF80000C005F5D5E06801287D
:100EF0000AD008B1052813D0286A20F00100286222
:100F0000286A20F0040002E0286A40F0010028620C
:100F1000E06841F2883B98B1FFF7EEFA82460BE0B9
:100F2000286A40F004002862EEE700BFFFF7E4FA09
:100F3000A0EB0A0159455AD8286A8007F6D50CE07B
:100F4000FFF7DAFA824605E0FFF7D6FAA0EB0A01CE
:100F500059454CD8286A8007F6D41FB1E86920F0BB
:100F60008050E861E06988B36968C1F381010229B2
:100F700044D00228C6F8608004D0FFF7BDFA0446CA
:100F800038E034E0FFF7B8FA074604E0FFF7B4FAB8
:100F9000C01B02282BD828688001F7D4206AB0F53E
:100FA000803F05D16868A16820F40030084368607C
:100FB000D4E908010843696821F4741108436860A2
:100FC000C6F86090FFF798FA044606E025E000BFF7
:100FD000FFF792FA001B022809D828688001F7D58C
:100FE0001BE000BFFFF788FA001B022802D903208C
:100FF000BDE8F88F28688001F4D40EE00128F7D00E
:101000006868226A00F48031914204D1616A00F478
:101010007010884201D00120EAE70020E8E70000D4
:101020000010024000004242800442420C000020B6
:101030000070004010B5401EB0F1807F01D3012048
:1010400010BD4FF0E02460610F21601700F021FB1C
:101050000020A06107202061002010BDFEE701688C
:101060004A69D24352050FD46FF480624A6100216D
:1010700040F8301F202242738173026942F004025B
:101080000261017301207047002070472DE9F84F7D
:101090000446C06A1E4693460D4621680A6842F41B
:1010A00080620A60082807D0012805D010F5803F2B
:1010B00002D0206B112804D12068016841F48071AE
:1010C00001604FF001195B46002249462046009618
:1010D00000F0CCF84FF4007840B120680068C005FB
:1010E00001D5C4F840800320BDE8F88F2069DFF8FF
:1010F00084A0B0F5804F0FD00620216800EAD517F4
:1011000047F0F000086133465A460AF106012046CE
:1011100000F0F4F858BB03E0E8B240F001001CE036
:101120002168E8B2086133465A465146204600F02D
:10113000E5F8E0B92068416981690091016841F4EE
:10114000807101605B46002249462046009600F00F
:101150008DF80028C1D147F0F100216808613346BD
:101160005A465146204600F0C9F80028BCD001205C
:10117000BAE7000002000100F8B50446C06A1E4646
:101180000D461746082807D0012805D010F5803FE6
:1011900002D0206B122804D12068016841F48071CC
:1011A0000160134600224FF001112046009600F026
:1011B0005DF840B120680068C00502D54FF40070AA
:1011C00020640320F8BD2069B0F5804F0ED00620C2
:1011D000216800EAD51040F0F000086133463A4635
:1011E0000B49204600F08AF878B902E005F0FE00CD
:1011F00000E0E8B221680861054933463A46891F94
:10120000204600F07BF80028DCD00120F8BD00006B
:101210000800010070B516460D4604461EE0204643
:10122000FFF71DFF08B1012070BD681C16D0FFF745
:1012300063F9801BA84200D885B920684069C04383
:1012400040070BD5002044F8300F20216173A073B4
:10125000216941F0200121612073E4E720684069A1
:10126000C0434007DBD4002070BD00002DE9F047EB
:10127000984617460D460446C1F30746DDF8209010
:101280002AE000BFB8F1FF3F26D0FFF735F9A0EB09
:101290000901414502D8B8F1000F1DD12068012E87
:1012A00016D0806925EA00000004000C12D000204E
:1012B000B84211D1002044F8300F20216173A0738F
:1012C000216941F02001216120730120BDE8F087F0
:1012D0004069E7E70120EBE72068012E0AD080692A
:1012E00025EA00000004000C06D00020B842C9D056
:1012F0000020EBE74069F3E70120F7E72DE9F0472D
:10130000984616460D4604464FF000094FF0200A55
:10131000C1F3074723E020684069C043400515D466
:101320002068016841F40071016021686FF48060F9
:101330004861C4F8309084F83DA084F83E90216C58
:1013400041F00401216484F83C9021E0701C06D037
:10135000FFF7D2F8A0EB0800B04203D816B1012F76
:101360001FD021E02068012F15D0806925EA0000F8
:101370000004000C18D000BF44F8309F84F80DA082
:1013800084F80E90216941F02001216184F80C90CD
:101390000120BDE8F087406925EA00000004000C48
:1013A000EAD12068406901E02068806925EA0000F0
:1013B0000004000CAFD1ECE72DE9F0410025904688
:1013C0000E460446202728E04069C043C0060CD4DE
:1013D00054F8301B6FF01000486144F810596777DB
:1013E000A577206A2062257714E0FFF785F8A0EB47
:1013F0000800B04200D886B920684069C043400662
:101400000BD544F8305F6773A573206940F0200066
:10141000206125730120BDE8F08120684169C9433E
:101420004906D1D40020F6E770B516460D460446AD
:101430001EE02046FFF713FE08B1012070BD681CB6
:1014400016D0FFF759F8801BA84200D885B920684C
:101450004069C04300060BD5002044F8300F20211E
:101460006173A073216941F0200121612073E4E7D9
:1014700020684069C0430006DBD4002070BD000036
:101480000D4808B5816941F020018161816901F051
:1014900020010091816941F008018161816901F0B9
:1014A00008010091816941F004018161806900F0C7
:1014B0000400009008BD0000001002400D4810B567
:1014C0000B4901600C49416000214FF4804281606A
:1014D000C0E9031241618161C1610162FFF712F845
:1014E000002803D0BDE81040FEF7F5BE10BD000097
:1014F0000058004010000020A0860100FEE7FEE733
:1015000010B50446084600F07CFC084A084B00F081
:10151000C7FC0022074B00F033FA00F045FC0246FE
:101520002046BDE81040002100F0C2B99A9999996F
:101530009999014000C0634070B50D4604460021F2
:10154000084600F0D9F9204600F062F9284600F07C
:1015500058FC4FF03332324B00F0A2FC0022314BEA
:1015600000F00EFA00F020FC044640F2691500215C
:1015700040F241262A46084600F09AF92A46002100
:10158000012000F095F932460021022000F090F988
:1015900022460021032000F08BF92246002104207E
:1015A00000F086F922460021052000F081F922464C
:1015B0000021062000F07CF922460021072000F0DF
:1015C00077F922460021082000F072F92246002116
:1015D000092000F06DF9224600210A2000F068F988
:1015E000224600210B2000F063F9224600210C2046
:1015F00000F05EF9224600210D2000F059F9224644
:1016000000210E2000F054F9224600210F2000F0A6
:101610004FF9BDE870404FF4FA70FEF75FBE00006E
:10162000333303400020624070477047FFF71CBA15
:1016300030B58FB028216846FEF7E8FD14210AA8CE
:10164000FEF7E4FD01210804CDE900100024029416
:1016500002250491CDE907504FF4E0100990684647
:10166000FFF758FB08B172B6FEE70F20CDE90A0577
:101670004FF48060CDE90C4002210AA80E94FFF7D8
:101680007DFA002801D072B6FEE70FB030BD70477A
:10169000FEE70907090E002804DB00F1E02080F8CE
:1016A0000014704700F00F0000F1E02080F8141DD6
:1016B000704700002DE9F041C1F30A52A2F2FF3653
:1016C0002F4A304B0D460446142E2FDA002E12DA24
:1016D00000F056F90022134600F0E0FC4CD2002D39
:1016E000A4BF0024254647DA25F00040204318BF58
:1016F000254D41D018E0DFF894C02CFA06F705EA32
:10170000070C5CEA040C08BFBDE8F08100F038F972
:101710000022134600F0C2FC2ED2002D03DA4FF453
:101720008010F0400544BD43002425E0332EC8BF9F
:10173000BDE8F081A6F1140C4FF0FF3727FA0CF743
:101740003C4208BFBDE8F08100F0DEFC00221346F9
:1017500000F0A4FC10D2002D0DDA142E08BF6D1C71
:1017600009D0C6F13400012101FA00F02044A04262
:1017700038BF6D1C0446BC4329462046BDE8F081B5
:101780009C7500883CE4377E0000F0BFFFFF0F002F
:10179000FFF772F9FFF74CFFFFF772FEFFF78EFEBF
:1017A00000210E48FFF7C8FE4FF4FA7400210846E6
:1017B000FFF7A6FE00210220FFF7A2FE2046FEF75B
:1017C0008DFDB4210120FFF79BFEB4210220FFF71D
:1017D00097FE2046FEF782FDE8E700000000704219
:1017E0003EB542F210748DF80400012301AA802155
:1017F00006480094FFF772F8012302AA80210348EB
:101800000094FEF743FF9DF808003EBD1000002045
:1018100070B500F06FFD214A214B00F041FB00F054
:101820007DF806466FF00B0200201E4900F00AFE0C
:1018300004460D46304600F05DFD02460B4620464C
:10184000294600F059F90022174B00F069FC0022EC
:10185000164B00F095F8FFF72DFF00F0A5FAC5B282
:101860000020FFF7BDFF044600F07F0040F01001AC
:10187000002000F041F82946FE2000F03DF8214606
:10188000002000F039F80220FEF728FD44F0A10105
:10189000BDE87040002000F02FB80000713D0AD76D
:1018A000A370ED3F84D777410000F03F0000E03F98
:1018B00070B5044606200E4600EB84001546C9B2FA
:1018C000C0B200F019F8072000EB8400C0B2C6F3E4
:1018D000072100F011F8082000EB8400E9B2C0B243
:1018E00000F00AF8092000EB8400C5F30721BDE8E9
:1018F0007040C0B2AFF300801CB502238DF8040025
:1019000042F210708DF80510009001AA8021024863
:10191000FEF7E4FF1CBD00001000002021F0004293
:10192000A2F16052B2F5801F01F0004328BFD2F14E
:101930007F6C0BD95FEA001C43EAC20242EB507095
:1019400018BF704728BF20F001007047B2F5801F14
:10195000BCBF184670474FEA410C1CF5001F02D26D
:10196000084600F038BD70B500F044FB0000008967
:10197000FFF7F6BF4FF00040A0F580007047000071
:1019800010B591EA030F48BF83F0004300F1D08304
:10199000841A71EB030C05D2121943EB0C03001BE4
:1019A00061EB0C01DFF824E14FEA1154A4EB135C66
:1019B0001EEA430F18BF9EEA445F73D023EA0E036A
:1019C000DCF1200E21EA045143F4801332D322FAD1
:1019D0000CFE10EB0E0023FA0CFE41EB0E01CCF1D5
:1019E000200E03FA0EFE10EB0E0051F10001B1F5CE
:1019F000801FCCF1200E32D201EB045112FA0EF20C
:101A0000BDE8104058BF7047401C38BF5FEA420233
:101A100018BF7047002814BF20F0010041F10001F9
:101A20004FEA410313F5001F38BF7047A1F1C041D1
:101A300000F02EBB012A43EB0302ACF1200CDCF1D9
:101A40001F0E32BF4FF0000E23FA0CF310EB030011
:101A500041EB0451B4EB115FD0D0A1EB045101F57F
:101A6000801149085FEA300001EB04510ED350F1B8
:101A7000000038BF12FA0EFE08D1BDE81040C9E7D9
:101A8000401C38BF5FEA4202CAD1C3E7BDE810403C
:101A90004FEA410313F5001F38BF7047A1F1C04161
:101AA00000F0F6BA9EEA445F08D011EA5E0FBDE886
:101AB000104004BF01F0004100207047BDE8104015
:101AC00070B500F097FA00BF64FBBE3E0000E0FF77
:101AD00002494FF0000000F083BC00BF0000F87F17
:101AE000491058BFC1F140415B1058BFC3F140439A
:101AF0008B42EFF3008070472DE9C04130B4DFF82E
:101B0000A0C23CEA111418BF3CEA131400F0EC80A8
:101B100081EA03051CEA111444EAD57418BF1CEAD3
:101B2000131500F0C780A4EB05044FF0004545EA0B
:101B3000C12145EAC32341EA505143EA525304F11B
:101B40007F74994204F500344FEAC0204FEAC22264
:101B500008BF904200F09C804FEA13650FF24016D8
:101B6000765D4FEA134506FB05F7C7F1807706FB64
:101B700007F74FEAD737A7FB03687642C8F58038E6
:101B8000A7FB06CE38BFA8F1010807FB08E64FF017
:101B9000000EA6FB028CE6FB03CEDCF1000CCEF1BE
:101BA000004E38BFAEF1010EA6FB0C584FF00007F7
:101BB0004FF00005E6FB0E87A1FB08C6A0FB07CE91
:101BC00016EB0E0645F10005E1FB076515F1E04E49
:101BD0007EBFA4F580345FEA46066D4116F18007AA
:101BE00045F100054FEA17274FEA066647EA056701
:101BF000A6F1DE46B6F1805F4FEA15251FD93846BB
:101C000024F0010C05EBC471BCF1FE6F01EB0C116B
:101C100002D8F0BCBDE8008124425CBF01F5801E03
:101C20009EEAC47F02D4F0BCBDE80081244238D4CF
:101C3000F0BCA1F1C041BDE8004100F029BA4FEA73
:101C4000D22242EA43524FEAD323A7FB02864FEA4D
:101C5000D02040EA415007FB03661EEA0E0F4FEA10
:101C6000D12105FB026658BFA6EB0056B6EB005625
:101C70004FEA520E4EEAC37E18EB0E0E56EB530E91
:101C8000BDD518EB02085E417F1C55F10005B6E793
:101C90004FF480154FF000074FF000064FF000089A
:101CA000ADE7F0BC4FF0000001F1C04101F0004190
:101CB000BDE8008111EA0C1F0CEA131500D00CE0FE
:101CC00013EA0C1F00F025804FF00000F0BC81EA01
:101CD000030101F00041BDE80081F0BCBDE8004116
:101CE00081EA030100F0D4B9F0BCBDE8004170B551
:101CF00000F080F9097EFC3E00F007B881EA03019C
:101D00004FF0000001F00041704781EA030100F04C
:101D1000BFB9F0BCBDE800414FF000002149704759
:101D2000FFFDFBF9F7F5F4F2F0EEEDEBE9E8E6E4A0
:101D3000E3E1E0DEDDDBDAD8D7D5D4D3D1D0CFCD27
:101D4000CCCBCAC8C7C6C5C4C2C1C0BFBEBDBCBB60
:101D5000BAB9B8B7B6B5B4B3B2B1B0AFAEADACAB5B
:101D6000AAA9A8A8A7A6A5A4A3A3A2A1A09F9F9E35
:101D70009D9C9C9B9A9999989797969595949393E7
:101D8000929191908F8F8E8E8D8C8C8B8B8A89897E
:101D90008888878786858584848383828281818001
:101DA0000000FF070000F87F4FEA1153A3F580639E
:101DB000D3F11E03A8BFD3F1200C08DB4FF0004283
:101DC00042EAC12252EA505232FA03F07047094205
:101DD0000BD4102BC4BF0020704703F5787CBCF1F6
:101DE000FF3F05D04FF0FF3070474FF000007047C5
:101DF00070B500F0FFF800BF4992248000207047C2
:101E0000F0E7B0FA80F310FA03F10AD0C3F11D0332
:101E100003F580634FEA41504FEA035202EBD121B0
:101E200070474FF00000704751EA030C17D41CF5BF
:101E3000801F58BFBCF5801F00F10680994218BF73
:101E4000704708BF9042704707D711F5801F58BFF1
:101E500013F5801F19D499427047894270471CF5C9
:101E6000801F08D5BCF5801FF7D58B4218BF70477F
:101E700008BF824270474FF4001C1CEB410F38BF73
:101E80001CEB430F01D28B42704770B500F0B2F8E3
:101E9000922449004FF000514FF08053FFF720BECD
:101EA000DFF848C170B51CEA111E1EBF1CEA1315ED
:101EB0009EEA0C0F95EA0C0F00F06F8081EA030494
:101EC00023EA4C134EEAD47E21EA4C1141F48011EE
:101ED00043F48013AE44A1FB024CA0FB0365AEF1BA
:101EE0007F7E361955EB0C05A1FB034C4CF100032A
:101EF000A0FB021C16EB0C06654153F100030942DE
:101F000018BF46F0010613F4007F0BD14FEA0331EE
:101F10004FEA0530340341EA155140EA16506FF09C
:101F200003020AE04FEAC3214FEAC520F40241EA66
:101F3000555140EA56506FF0020202EB2E4201EB7F
:101F4000025585EACE710AD05FEA440C18BF24F02E
:101F5000004450F1000041F1000120EAD47040F249
:101F6000FE7C624500D270BDA84214BF4FF0804491
:101F70004FF04044002E08BF0024BEF1806FA8BF80
:101F8000A1F1C041BDE8704080F282804FF00000B6
:101F900001F1C04101F0004170479EEA0C0F0CEACC
:101FA000131518BF95EA0C0F06D04FF0000081EA18
:101FB000030E0EF0004170BD00F01CF88900013ED8
:101FC00000F007B800F009B84FEA430C5FEA5C5C28
:101FD00008D081EA030100F05BB84FEA410C5FEAE8
:101FE0005C5CF6D14FF00000014970470000FF072C
:101FF0000000F87F0EF1020E2EF0030E5EF8046B67
:10200000364205D4012A43EB030515F5001F12D80B
:10201000012841EB010C1CF5001F0CD80ED14FEA32
:10202000D17C15F5001F0CEB4C0C0CF1020C08BF19
:102030004CEBD37C04E04FF0080C01E04FEAD37C7A
:102040000CEB4C0526FA05F606F00706B6F1040C73
:1020500006D20EEB860CBDE870404CF0010C6047D8
:10206000DFE80CF0090B02024FF000414FF00000D6
:10207000A1F5002170BD19461046012851EB01045D
:1020800018BFD4F5001484BF002001F0004170BDDA
:102090000808A0F500114FEA3101704753EA010C1E
:1020A00017D41CF5801F58BFBCF5801F00F10680B7
:1020B0008B4218BF704708BF8242704707D713F59D
:1020C000801F58BF11F5801F19D48B4270479B4267
:1020D00070471CF5801F08D5BCF5801FF7D59942C5
:1020E00018BF704708BF904270474FF4001C1CEBAC
:1020F000430F38BF1CEB410F01D2994270470FB418
:102100000CBC03BCFFF7C1BE91EA030F10B581F010
:1021100000413FF53DAC83F0004300F009B80000FA
:1021200010B591EA030F48BF83F000433FF530AC90
:10213000841A71EB030C07D212198CF0004C43EB9C
:102140000C03001B61EB0C01DFF8A4E14FEA115412
:10215000A4EB135C1EEA430F18BF9EEA445F00F035
:10216000B08023EA6E03524221EA0451C3EB6E03AE
:1021700038BF5B1EDCF1200E25D322FA0CFE10EBDB
:102180000E0043FA0CFE41EB0E01CCF1200E03FAD7
:102190000EFE10EB0E0051F10001CCF1200E29D4FF
:1021A00012FA0EF201EB0451BDE8104058BF70471F
:1021B000401C1CBFB2F1004F704700280CBF491CE7
:1021C00020F00100704712EB020E43EB030218BF30
:1021D0004FF0010E4EEA4202ACF1200CDCF11E0E73
:1021E00054D943FA0CFE10EB0E0051F1FF31CCF143
:1021F0001E0ED5D50EF1010E12FA0EFE404141EB36
:10220000010101EB445C5FEA5C5C10D910EBDE700D
:1022100001EB045138BFBEF1004FBDE8104018BFBC
:10222000704700280CBF491C20F00100704730D2D5
:102230004FEAD42C11F5001124F400641BD0B1FA3C
:1022400081F20B3AA41AA41ED2F12003914030FA75
:1022500003F31943904001EBCC71002C01EB0451C6
:10226000BDE81040A8BF704701F1C0414FF0000029
:1022700001F000417047B0FA80F310FA03F100D189
:1022800010BDE41A173C4805C90AE4E701EB045104
:1022900010BD491001EB0451BDE810404FEA300079
:1022A00002E04FF0000170474A0008BF0042F8D03A
:1022B000B2F5001F28BF704701F000414FF0000049
:1022C00070479EEA445F07D011EA5E0FBDE81040F8
:1022D00004BF002100207047BDE8104070B5FFF733
:1022E00089FE00BF40DFF63E83F000411046704794
:1022F0000000E0FF43004FEAD30C4FEA3C0C4340A0
:102300001FBF40070CF1605113F0FE4F70471CF0E7
:10231000006F03D100200CF0004170470CF0004327
:1023200043EA507010B540EACC0000F00EF800BF50
:10233000000000924FEA0001FFF7AABE4FF00041F3
:102340004FF00000A1F5002170470EF1020E2EF0B3
:10235000030E5EF8044B244204D44FEA4102B2F16A
:102360007F4F11D84FEA4003B3F17F4F0CD80ED105
:102370004FEAD07CB2F17F4F0CEB4C0C0CF1020C0D
:1023800008BF4CEBD17C04E04FF0080C01E04FEAB1
:10239000D17C0CEB4C0324FA03F404F00704B4F1F1
:1023A000040C06D20EEB840CBDE810404CF0010C7E
:1023B0006047DFE80CF0070802024FF00040A0F58C
:1023C000800010BD0846420018BFD2F1807288BF5D
:1023D00000F0004010BDFF2141EAD050C005704719
:1023E0000CF00F03092B08BF082000F059800A2BBE
:1023F0000BD0082B18BF704708BF1CF0400F0AD045
:102400004FF000004FF0000170471CF0400F18BF64
:102410004FF0004070471CF0100F08D020F07043C0
:1024200000F07F4242EAD3014FEA4370704700F068
:10243000604021F07F4242EA000201F07F4040EA22
:10244000727070474FF0FF0C4CF4E06C1CEA1153B3
:102450001CBF9CEA030C9445C2BFDA4201EB025157
:102460007047002B0DD0BCF1000F0FD0002A01F0F7
:102470000041A4BF41F0E04141F07F614FF0000016
:10248000704701F000414FF00000704750EA0133FF
:102490004FF09B0C18BF4CF0806C7FF419AB704769
:1024A0001CF4801F11D01CF4E02F03D06FEACC3154
:1024B000490070474FF04050EFF3008222F0704225
:1024C00042EA000282F3008870474FF00000704734
:1024D000010202030405060708090A0B0C0D0E0F82
:1024E00010100000000000000000010203040607B5
:1024F0000809000000000102030400001C25000878
:1025000000000020100000006C0100082C250008CD
:1025100010000020B806000088010008010000003B
:0C25200010000000000000000024F40087
:0400000508000131BD
:00000001FF
