:020000040800F2
:10000000781E0020990100087B1300089112000857
:10001000791300084D020008A9170008000000002D
:1000200000000000000000000000000001010008C6
:10003000510200080000000045010008F913000803
:10004000B3010008B3010008B3010008B3010008C0
:10005000B3010008B3010008B3010008B3010008B0
:10006000B3010008B3010008B3010008B3010008A0
:10007000B3010008B3010008B3010008B301000890
:10008000B3010008B3010008B3010008B301000880
:10009000B3010008B3010008B3010008B301000870
:1000A000B301000885140008B3010008B30100087B
:1000B000B3010008B3010008B3010008B301000850
:1000C000B3010008B3010008B3010008B301000840
:1000D000B30100089D170008B3010008B301000830
:1000E000B3010008B3010008B3010008DFF80CD029
:1000F00000F09AF80048004735180008781E0020E4
:10010000224B19680868B0E8F00F80F30988BFF344
:100110006F8F4FF0000080F311884EF00D0E704786
:100120000000000006480068006880F3088862B696
:1001300061B6BFF34F8FBFF36F8F00DF00BF00BF0B
:1001400008ED00E0EFF30980BFF36F8F0F4B1A68E3
:1001500020E9F00F106008B54FF0500080F31188CF
:10016000BFF34F8FBFF36F8F02F062FC4FF00000C0
:1001700080F31188BDE8084019680868B0E8F00FFE
:1001800080F30988BFF36F8F704700BF30000020F5
:10019000EFF3058070470000064880470648004797
:1001A000FEE7FEE7FEE7FEE7FEE7FEE7FEE7FEE727
:1001B000FEE7FEE783140008ED00000840EA0103B3
:1001C0009B0703D009E008C9121F08C0042AFAD20D
:1001D00003E011F8013B00F8013B521EF9D27047D1
:1001E000D2B201E000F8012B491EFBD27047002279
:1001F000F6E710B513460A4604461946FFF7F0FF26
:10020000204610BD30B505462A460B4612F8010BB4
:1002100013F8014B08B1A042F8D01CB1002802D05D
:100220006D1CF1E7284630BD064C074D06E0E0683E
:1002300040F0010394E8070098471034AC42F6D32D
:10024000FFF758FFFC3800081C390008FEE770472C
:10025000704772B6FEE710B590F82110002202290F
:1002600005D00421816380F82020012010BD0168A1
:100270000B6823F00E030B6001680B6823F0010389
:100280000B6090F84030C46B012101FA03F3636006
:1002900080F8211080F82020104610BD10B590F88D
:1002A00021100024022903D00421816301243DE0B0
:1002B00001680A6822F00E020A6001680A6822F0EA
:1002C00001020A601A4A0168914201D1012121E02C
:1002D000174A1432914201D110211BE0144A2832EE
:1002E000914201D1891515E0114A3C32914201D168
:1002F00089140FE00E4A5032914202D14FF48031FE
:1003000008E00B4A6432914202D14FF4801101E0BF
:100310004FF08071064A083A5160012180F821109F
:10032000002180F82010416B01B18847204610BDA4
:10033000080002402DE9F84FDFF8B8910024A9F138
:10034000040B23460F2709F1040AABF1040EC9E0A0
:100350000125A5402A40AA427DD1674ED1F804C0AC
:10036000ACEB0608B44532D014DCBCF1030F3AD034
:1003700009DCBCF1000F2AD0BCF1010F1CD0BCF18C
:10038000020F31D11DE0BCF1110F17D0BCF1120FDB
:100390002AD119E0B8F5881F19D006DCB8F5803FDE
:1003A00015D0B8F5801F1FD111E0B8F5001F0ED091
:1003B000B8F5041F18D10AE0CB6815E0CB681B1D07
:1003C00012E0CB6808330FE0CB680C330CE08B688D
:1003D0002BB1012B4FF0080303D0456104E0042347
:1003E00002E0056100E00023FF2A01D8064601E093
:1003F00000F104064FEA840501D9A5F12005D6F8DD
:10040000008007FA05FC28EA0C0803FA05F548EA1B
:100410000508C6F800804D68ED0062D5374DAE691D
:1004200046F00106AE61AD6924F0030605F0010552
:100430000095334D06EB050CDCF80850A607360F87
:1004400007FA06F825EA0805DFF8B880404503D129
:100450004FF0000817E044E0DFF8AC80404502D1DF
:100460004FF001080FE0DFF8A480404502D14FF0C3
:10047000020808E0DFF89880404502D14FF00308F9
:1004800001E04FF0040808FA06F848EA0508CCF83D
:1004900008804D68D9F80060ED024D4601D516433D
:1004A00000E096432E604D68DAF80060AD025546D4
:1004B00001D5164300E096432E604D68DBF80060DE
:1004C000AD035D4601D5164300E096432E604D68AE
:1004D000DEF80060ED03754601D5164300E0964353
:1004E0002E60641C0D682A46E5407FF431AFBDE8FC
:1004F000F88F0000080401400000111000100240B5
:100500000000014000080140000C014000100140C3
:10051000001401400AB1016170470904FBE70000C3
:100520000148806870470000200000200248816870
:10053000027811448160704720000020074810B500
:10054000016841F010010160032000F0A1F80F20C4
:1005500000F006F800F04AF8002010BD002002402C
:1005600030B505461C4887B0816941F4006181615E
:10057000806906A900F40060009001A800F030F93D
:1005800000F05EF91549164AB0FBF1F11548491E15
:100590000260416040F2E7320021C0E9032181603E
:1005A000816100F015FB040012D10E4800F03EFB03
:1005B00004000DD1192000F03DF8102D07D20022C3
:1005C0002946192000F044F80748056000E001249E
:1005D00007B0204630BD00000010024040420F002E
:1005E000002C014058010020240000200F4808B5CD
:1005F000816941F001018161816901F0010100918E
:10060000C16941F08051C161C069002200F0805091
:1006100000900F21901E00F01BF80548416821F062
:10062000E06141F00071416008BD0000001002402F
:1006300000000140002809DB00F01F020121914069
:100640004009800000F1E020C0F800117047000070
:10065000F0B40E4B1B680C46C3F30223C3F107052D
:10066000042D00D90425191D072901D2002300E01B
:10067000DB1E012606FA05F1491E214099409E40E5
:10068000761E16403143F0BC01F098B80CED00E046
:10069000064900F0070208684FF6FF03184040EAD9
:1006A0000220034A10430860704700000CED00E090
:1006B0000000FA052DE9F0470F46050061D0434ED2
:1006C000306800F00700B84209D2306820F0070017
:1006D00038433060306800F00700B84251D12868D4
:1006E0003B4C810712D5400703D5606840F4E060B9
:1006F00060602878000703D5606840F4605060604F
:100700006068A96820F0F000084360602878C0079E
:1007100028D06868012810D02168022810D08907E5
:1007200000292EDA616821F0030101436160FFF7BF
:10073000F7FE804641F288390DE021688903EFE732
:100740008901EDE7FFF7ECFEA0EB0801494502D96E
:100750000320BDE8F0876068696800F00C00B0EB2A
:10076000810FEFD1306800F00700B8420BD9306834
:1007700020F0070038433060306800F00700B842CE
:1007800001D00120E5E72878400705D56068E968D1
:1007900020F4E060084360602878000706D56068B0
:1007A000296920F4605040EAC100606000F058F808
:1007B0006168084AC1F30311515CC84006490860EA
:1007C00006480068FFF7CCFE0020C2E70020024088
:1007D00000100240863800082C0000202400002071
:1007E0000F2202600C4A536803F00303436053680E
:1007F00003F0F0038360536803F4E063C36052685E
:100800004FF4E06303EAD20202610448006800F09A
:1008100007000860704700000010024000200240FE
:100820000448054900684968044AC1F30221515C43
:10083000C84070472C000020001002409638000885
:100840000448054900684968044AC1F3C221515C63
:10085000C84070472C000020001002409638000865
:100860000E4A51680E4801F00C03042B11D0082BDE
:100870000FD10C48C1F38343C903C05C0AD551684A
:10088000084AC1F34041921E515C054A5043B0FBF7
:10089000F1F07047044948437047000000100240DF
:1008A00000127A007638000800093D002DE9F84F63
:1008B000040070D02078C04DC00749D06868C0F3EC
:1008C0008100012807D06868C0F38100022809D19F
:1008D0006868C00306D52868800339D56068002899
:1008E000E7D035E06068B0F5803F0BD010B1B0F5CF
:1008F000A02F11D0286820F480302860286820F4C8
:10090000802002E0286840F480302860606890B160
:10091000FFF706FE06460AE0286840F480202860BB
:10092000F0E700BFFFF7FCFD801B642873D8286840
:100930008003F7D50CE0FFF7F3FD064605E000BFA6
:10094000FFF7EEFD801B6428F0D828688003F7D4F9
:1009500020789A4E80074FF001094FF0000839D5F2
:10096000686810F00C0F07D06868C0F38100022897
:1009700009D16868C00306D42868800714D52069A7
:10098000012808D110E02069B0B1C6F80090FFF747
:10099000C7FD074605E00AE1FFF7C2FDC01B0228BC
:1009A000C4D828688007F7D52868616920F0F80066
:1009B00040EAC10028600DE0C6F80080FFF7B0FDF6
:1009C000074604E0FFF7ACFDC01B022823D82868C7
:1009D0008007F7D4207800072CD57948A169D9B1D0
:1009E000C0F80090FFF79CFD074604E0FFF798FD74
:1009F000C01B02280FD8686A8007F7D571484FF4EA
:100A0000FA510068B0FBF1F0009000BF0098411E61
:100A10000091FAD20EE080E0C0F80080FFF780FD80
:100A2000074604E0FFF77CFDC01B022875D8686A02
:100A30008007F7D42078400760D5E8690027C00018
:100A400008D4E86940F08050E861E869012700F0C7
:100A5000805000905C480168C90513D40168834642
:100A600041F480710160FFF75BFD824606E000BF44
:100A7000FFF756FDA0EB0A0064284ED8DBF8000013
:100A8000C005F5D5E06801280AD008B1052813D0C3
:100A9000286A20F001002862286A20F0040002E0A1
:100AA000286A40F001002862E06841F2883B98B172
:100AB000FFF736FD82460BE0286A40F0040028620A
:100AC000EEE700BFFFF72CFDA0EB0A0159455AD80D
:100AD000286A8007F6D50CE0FFF722FD824605E084
:100AE000FFF71EFDA0EB0A0159454CD8286A800784
:100AF000F6D41FB1E86920F08050E861E06988B35E
:100B00006968C1F38101022944D00228C6F86080D7
:100B100004D0FFF705FD044638E034E0FFF700FDA0
:100B2000074604E0FFF7FCFCC01B02282BD828680E
:100B30008001F7D4206AB0F5803F05D16868A168CC
:100B400020F4003008436860D4E90801084369686C
:100B500021F4741108436860C6F86090FFF7E0FC68
:100B6000044606E025E000BFFFF7DAFC001B022880
:100B700009D828688001F7D51BE000BFFFF7D0FC3B
:100B8000001B022802D90320BDE8F88F28688001E5
:100B9000F4D40EE00128F7D06868226A00F48031AE
:100BA000914204D1616A00F47010884201D00120A2
:100BB000EAE70020E8E7000000100240000042429F
:100BC000800442422C0000200070004070477047B3
:100BD00010B5040003D094F83D0010B107E00120E7
:100BE00010BD002084F83C00204600F01EF80220D2
:100BF00084F83D00211D206800F04AFC012084F8A3
:100C0000460084F83E0084F83F0084F8400084F8F1
:100C1000410084F8420084F8430084F8440084F8DA
:100C2000450084F83D00002010BD704790F83D104D
:100C3000012901D001207047022180F83D10016890
:100C4000CA6842F00102CA6000680B49884208D0B5
:100C5000B0F1804F05D00949884202D00849884246
:100C600004D1816801F00701062903D0016841F031
:100C70000101016000207047002C01400004004089
:100C800000080040704770B50446006801694FF0E5
:100C90000005C943890715D4C168C943890711D420
:100CA000E91E0161012020772068806980072046C5
:100CB00002D0FFF7E7FF04E000F098F8204600F0CC
:100CC00096F8257720680169C943490717D4C16898
:100CD000C943490713D46FF0040101610220207752
:100CE0002068806910F4407F204602D0FFF7CAFFD9
:100CF00004E000F07BF8204600F079F825772068C2
:100D00000169C943090716D4C168C943090712D448
:100D10006FF008010161042020772068C069800716
:100D2000204602D0FFF7AEFF04E000F05FF8204657
:100D300000F05DF8257720680169C943C90617D41A
:100D4000C168C943C90613D46FF0100101610820BE
:100D500020772068C06910F4407F204602D0FFF75A
:100D600091FF04E000F042F8204600F040F82577BB
:100D700020680169C943C90708D1C168C943C907C7
:100D800004D1891E0161204600F032F82068016913
:100D9000C943090609D4C168C943090605D46FF0DF
:100DA000800101612046FFF711FF20680169C943F6
:100DB000490609D4C168C943490605D46FF040010A
:100DC0000161204600F01EF820680169C9438906C8
:100DD0000BD4C168C943890607D46FF020010161B3
:100DE0002046BDE87040FFF7F2BE70BD7047704707
:100DF00000680349884201D1FFF798BB70470000A3
:100E0000002C01407047000070B5154C0026154DB0
:100E10002188632917D26A1812F8012C0A2A0AD0ED
:100E2000006840686854491C88B22080284410F843
:100E3000010C0A280CD12088401E81B2094801F01B
:100E400045FB268004E0268064210648FFF7CFF9A1
:100E500020882918BDE870400122034800F0B0B98D
:100E600000000020AC0000201001002070477047F7
:100E7000F8B5016804460868CA684B6910F00F0F9E
:100E80004FF0000559D003F0010602F49077374384
:100E900065D0C10705D0D10503D5616C41F00101D2
:100EA0006164410705D5D90703D0616C41F00201A7
:100EB0006164810705D5D90703D0616C41F0040155
:100EC0006164010707D502F02001314303D0616C52
:100ED00041F008016164616C00293AD0800604D5B4
:100EE000900602D5204600F044FB20684069616C02
:100EF000C0F38010090700D460B3204600F012FB55
:100F000020684069400621D52068143050E8001F51
:100F100021F0400140E80012002AF5D1E06BA8B1B1
:100F20006D494163E06BFFF7B9F9002811D0E06B20
:100F3000416B01B0BDE8F040084783060FD593062A
:100F40000DD52046BDE8F84000F013BB2046FFF762
:100F50008EFFF8BD2046FFF78AFF6564F8BD266B5B
:100F60002023012E7CD1C6067AD5D60678D508680E
:100F70004868009048694FF00206400640D5E16B92
:100F8000086840680004000CE8D0A28D8242E5D9D0
:100F9000E085886920282DD020680C3050E8001F9B
:100FA00021F4807140E80012002AF5D12068143045
:100FB00050E8001F21F0010140E80012002AF5D19D
:100FC0002068143050E8001F21F0400140E8001272
:100FD000002AF5D184F84230256320680C3050E8AF
:100FE000001F21F0100140E80012002AF5D1E06B4B
:100FF000FFF731F96663A08DE18D401A81B22AE0D6
:10100000A08DE18D401A81B2E08D0028A6D0002984
:10101000A4D022680C3252E8000F20F4907042E80D
:101020000007002FF5D12068143050E8002F22F07F
:10103000010240E80027002FF5D184F842302563F3
:1010400020680C3050E8002F22F0100240E8002306
:10105000002BF5D166632046FFF708FFF8BDFFE7D8
:1010600005062BD5150629D594F841002128F5D180
:10107000A068B0F5805F01D12069B0B1206A411C41
:101080002162216800784860E08C401E0004000C5A
:10109000E084E3D12068C16821F08001C16020684C
:1010A000C16841F04001C160D8E7206A0088C0F300
:1010B00008004860206A801C2062E5E74006CDD524
:1010C0005006CBD5CA68204622F04002CA6084F898
:1010D000413000F0DCF8C1E71515000870B50400D8
:1010E00004D094F84100002510B106E0012070BD45
:1010F00084F84050204600F023F8242084F8410072
:101100002068C16821F40051C160204600F092FAC5
:101110002068016921F4904101612068416921F052
:101120002A0141612068C16841F40051C1606564D1
:10113000202084F8410084F842006563002070BDDF
:1011400030B585B0002400940194029403940068A3
:10115000184988422CD11848816941F48041816145
:10116000816901F480410491816941F00401816148
:101170008069124D00F0040004904FF4007000905C
:10118000022001900320039069462846FFF7D2F819
:101190002815CDE90004694628460294FFF7CAF8ED
:1011A000002205212520FFF753FA2520FFF742FAF8
:1011B00005B030BD00380140001002400008014079
:1011C00090F84230202B01D00220704721B11AB193
:1011D0000023036300F08ABA0120704700680349C6
:1011E000884202D10248FFF70FBE70470038014025
:1011F000100100202DE9F843044690F841001F46F5
:1012000016460D46202802D00220BDE8F8837DB1A5
:1012100076B100206064212084F84100FFF780F956
:10122000A6848046E684A068B0F5805F02D003E023
:101230000120EAE7206910B12E4600250EE00026C5
:101240000CE08021204600F06CFAA0B9AEB116F88F
:10125000010B21684860E08C401EE084E08C43462E
:101260004FF0000200970028EBD14FF040012046DC
:1012700000F057FA30B10320C7E735F8020BC0F38E
:101280000800E6E7202084F841000020BDE7704711
:10129000FEE7000010B5194A0021012000F0A4FB70
:1012A000174C164A062160611032084600F09CFB7C
:1012B000124BA061103B00220121124800F03EFCBD
:1012C0000E4A2061283A0221102000F019FB0B4A37
:1012D000E060943A00210C4800F0DEFB074A2060F1
:1012E000703A0021094800F0D7FB044A60604C3A8C
:1012F0000021074800F0D0FBA06010BD5438000862
:10130000040000204F0200087D130008BD130008F0
:10131000F1130008094808B5816941F02001816195
:10132000816901F020010091816941F0040181612E
:10133000806900F00400009008BD00000010024029
:101340000C4810B50A4901604FF4E13141600021B9
:1013500081600C22C160C0E904128161C161FFF7A4
:10136000BDFE002803D0BDE81040FEF772BF10BDDF
:101370000038014010010020FEE7FEE7074C0A217B
:10138000606900F0F7FA38B105A000BF00F00EFA6E
:10139000012000F05FFAF2E704A0F7E70400002064
:1013A0006F736E6F6E6F0D0A000000006F734F4B0E
:1013B0006F6B6F6B6F6B0D0A0000000007484FF4F6
:1013C0007A71006900F0FCFB30B105A000F0EEF985
:1013D0000A2000F03FFAFBE703A0F7E70400002033
:1013E0004E4F0D0A000000006F734F4B0D0A0000B6
:1013F000012000F02FFAFBE710B5502080F3118890
:10140000BFF34F8FBFF36F8F01F0CAFF18B10449CC
:101410004FF080500860002080F3118810BD00005C
:1014200004ED00E030B58FB028216846FEF7DFFEFE
:1014300014210AA8FEF7DBFE01210804CDE9001003
:101440000024029402250491CDE907504FF4E010E6
:1014500009906846FFF72AFA08B172B6FEE70F2036
:10146000CDE90A054FF48060CDE90C4002210AA8BD
:101470000E94FFF71FF9002801D072B6FEE70FB0F7
:1014800030BD70470148FFF7FEBB00005801002047
:10149000F0B50268164B174C174D4FF08047984235
:1014A00005D0B84203D0A04201D0A84203D122F017
:1014B00070064A683243984205D0B84203D0A04231
:1014C00001D0A84203D122F44074CA6822434C6977
:1014D00022F08002224302608A68C2620A68826245
:1014E000984201D10969016301214161F0BD000009
:1014F000002C0140000400400008004010B500F03E
:10150000C1FF002805D0D0E90021BDE81040084601
:10151000104710BD10B5406A0021C185C184FFF796
:10152000A6FC10BD01680C3151E8002F22F4907226
:1015300041E80023002BF5D10168143151E8002F58
:1015400022F0010241E80023002BF5D1016B0129B3
:1015500009D101680C3151E8002F22F0100241E856
:101560000023002BF5D1202180F8421000210163D7
:10157000704708B590F84210222901D0022008BD1A
:1015800082684FF480539A4201D1016921B1816A86
:101590009A421BD04AB10AE00268816A5268C2F3DB
:1015A00008020A80816A891C08E0026972B1026837
:1015B000526802F07F020A70816A491C8162C18D03
:1015C000491E0904090CC18503D01BE0026852685A
:1015D000F1E70168CA6822F02002CA600168CA689F
:1015E00022F48072CA6001684A6922F001024A61ED
:1015F000202180F8421000214163026B012A03D0B0
:10160000FFF7ECFD002008BD016301680C3151E8D3
:10161000002F22F0100241E80023002BF5D10168D1
:101620000A68D20602D50A6849680091818DFFF7E1
:101630001DFCE7E770B5044600680169E26821F423
:101640004051114301612169A06808436169084361
:101650002168CA6841F20C639A430243CA60206859
:101660004169A26921F44071114341611E4920681A
:10167000884202D1FFF7E4F801E0FFF7D1F800EB70
:10168000C00101EB0012606864218000B2FBF0F33E
:10169000B3FBF1F36FF018067343B2FBF0F5B2FB46
:1016A000F0F605EB8305322303EB0515B5FBF1F5E9
:1016B000B6FBF1F605F0F00505EB0615B2FBF0F60A
:1016C000B2FBF0F0B0FBF1F06FF01802504306EB04
:1016D000800003EB0010B0FBF1F0216800F00F0078
:1016E0002844886070BD0000003801408162828516
:1016F000C28500214164222180F84210016921B194
:101700000168CA6842F48072CA6001684A6942F09E
:1017100001024A610068C16841F02001C1600020F7
:1017200070472DE9F041984617460E460446069D3F
:1017300027E0681C25D02DB1FEF7F2FEA0EB0800D3
:10174000A8421ED920680C3050E8001F21F4D07147
:1017500040E80012002AF5D12068143050E8001F3C
:1017600021F0010140E80012002AF5D1202084F880
:10177000410084F84200002084F840000320BDE8C6
:10178000F0812068006836EA000004D00020B842EA
:10179000CFD00020F3E70120F9E700000148FFF770
:1017A00067BB000010010020FEE70000014A02496B
:1017B00000F023B81D180008A80000200907090E32
:1017C000002804DB00F1E02080F80014704700F0EE
:1017D0000F0000F1E02080F8141D704702E008C8F7
:1017E000121F08C1002AFAD170477047002001E09B
:1017F00001C1121F002AFBD170472DE9F0411646A6
:101800000F460446002503E03946B047641C6D1CB2
:1018100020780028F8D12846BDE8F08113B54FF4B0
:101820007A73012269460248FFF7E4FC00981CBD68
:1018300010010020FEF782FEFFF7F4FDFFF76AFDBE
:10184000FFF77EFD00F020F8FFF724FD00F038F8E8
:10185000FEE7000010B5EFF3058149B9EFF3108101
:1018600031B908490968022905D1EFF3118111B195
:101870006FF0050403E0002408B100F0DDFF20460E
:1018800010BD000080000020EFF3058058B9EFF391
:10189000108040B909490868022801D030B109E038
:1018A000EFF3118030B16FF0050070470120086040
:1018B000002070474FF0FF3070470000800000208C
:1018C00010B5EFF3058060B9EFF3108048B90B490C
:1018D0000868022802D0012806D00BE0EFF311803F
:1018E00040B16FF0050010BD0220086001F054F80F
:1018F000002010BD4FF0FF3010BD00008000002020
:10190000F8B514464FF00005EFF305826ABBEFF31C
:10191000108252BB164A1268022A02D1EFF31182DA
:101920001ABB10B309B3ACB1D4E902326BB1502A7F
:101930001BD32269CAB1676900FB01F6B74214D311
:101940000025009501F05BF907E072B9226962B9E0
:10195000626952B9002201F02EF9050005D00CB1E0
:10196000216800E0002100F005FF2846F8BD0000D6
:1019700080000020F8B50D460024211F4E1C0028D1
:101980000ED000BFEFF305824AB9EFF3108232B9EF
:10199000134A1268022A17D1EFF31182A2B10DB1D6
:1019A0000C461BE000216A46009101F049FB01282A
:1019B00013D1009890B10B494FF080500860BFF3ED
:1019C0004F8FBFF36F8F09E0294601F087FB012895
:1019D00004D015B16FF0010400E034462046F8BD94
:1019E0008000002004ED00E0F8B5144603460E46E2
:1019F0004FF00005EFF30580E8BBEFF31080D0BB9C
:101A000024480068022802D1EFF3118098BB93B3F9
:101A10009E423DD84CB1A0680028E06803D0502811
:101A200036D3012002E008B132E00020012B05D0BE
:101A300010B31846A26801F09EF820E040B10320E0
:101A40000090002211460120A36801F0D8F804E0BC
:101A500003220021012001F0AEF8050018D086B164
:101A600000231A46194601F041F9012809D02846F9
:101A700000F094FE00250BE0184601F05FF8050029
:101A800006D00CB1216800E00021284600F072FE6B
:101A90002846F8BD80000020F0B585B04FEA01036C
:101AA0004FF00004EFF305810394A1BBEFF3108125
:101AB00089BB21490968022902D1EFF3118151BB89
:101AC00048B3802618218DF8104004AD42B3176842
:101AD00007B13D4697691FB139467F1E382F02D2A4
:101AE0001779FF0702D0002005B0F0BD576907B194
:101AF000BE08D2F808C0BCF1000F0DD0D4685C2C31
:101B000018D312693AB137B18DE80610324629462A
:101B100001F007FC03900DE0D7685FB912694AB97C
:101B200003AACDE90012B2B2294601F0CDFB01288B
:101B300000D003940398D7E7800000202DE9FC41F2
:101B40001C461746884606464FF00005EFF3058011
:101B500078BBEFF3108060BB17480068022802D101
:101B6000EFF3118028BB26B3082000F013FC03001C
:101B70001FD0B8F1000FC3E9006711D001220F4E4A
:101B800000208CB1216801B10846A16851B1E46818
:101B9000302C0ED3CDE90061012101F095FD07E065
:101BA0000022ECE7E16821B90121009601F072FD05
:101BB00005462846BDE8FC8180000020FD14000891
:101BC00008B5EFF305824AB9EFF3108232B90E4A35
:101BD0001268022A05D1EFF3118212B16FF00500ED
:101BE00008BD58B10022134600920A46042101F0B4
:101BF000B3FD012805D06FF0020008BD6FF00300AF
:101C000008BD002008BD0000800000202DE9F04143
:101C1000134C0F46054666692068001D00F0B0FCB5
:101C2000681C07D137B12168BDE8F0410D48091D96
:101C300000F0F6BC20683544B5424560216805D205
:101C4000A068BDE8F041091D00F0D2BC6068091D24
:101C500000F0CEFC206B854200D22563BDE8F08108
:101C600030000020900600202DE9F041054600F0EC
:101C7000E3FC2D4C2069401C206120682B4F10B1E3
:101C8000E06930B32BE025602069012827D10026C8
:101C900006EB860007EB800000F09CFC761C382EDB
:101CA000F6D3234800F096FC2148143000F092FC53
:101CB0001F48283000F08EFC1D483C3000F08AFCA4
:101CC0001B48503000F086FC194860601430A0605A
:101CD00005E02068E96AC06A884200D82560E06AA9
:101CE000401CE0626864E86AA169884200D9A0618A
:101CF00000EB800007EB8000291D00F091FC00F054
:101D0000BBFCE06900280CD02068E96AC06A884200
:101D100007D208494FF080500860BFF34F8FBFF3E0
:101D20006F8FBDE8F081000030000020E00100204E
:101D30004006002004ED00E038B500F07DFC104CBA
:101D4000A068C8B90F4800F045FC0E48143000F0F8
:101D500041FC0C482060143060600A4B002028339E
:101D6000009003F1500210210A2000F048FFA0600B
:101D700010B105A100F0FEFCBDE8384000F07CBCCD
:101D80006C000020A4060020546D72510000000079
:101D900030B4026C0B46002A0BD0C1681144C160FC
:101DA0004468A14201D30168C16030BC1846FEF707
:101DB00005BA30BC70472DE9F041856B17460446E3
:101DC0000026026C82B1C7B1E068FEF7F7F9E1685E
:101DD000206C091AE1602268914202D26168081AF7
:101DE000E060022F16D017E02068A8B9606801F003
:101DF0003BFB0646002060600EE0A068FEF7DEF9BF
:101E0000216CA0680844A0606168884204D32068FF
:101E1000A06001E005B16D1E6D1CA5633046BDE8F4
:101E2000F08110B5044690F8590058B101280CD043
:101E300002280FD0502080F31188BFF34F8FBFF3DB
:101E40006F8FFEE7206B00F02BFC2046BDE81040B2
:101E500000F026BC10BD000010484FF4406142075E
:101E600006D0C01D0D4920F00700411AC1F54061A0
:101E70000B4A00230144C2E900030839103A21F05B
:101E8000070111604B600B600B1AC0E900139360EF
:101E90004FF000405360D06070470000740E002087
:101EA00094000020144E154CA6F29C474FF0805829
:101EB000DFF84C9012E000BF00F0BEFBF068C56890
:101EC000281D00F05DFB2069401E2061E068401E77
:101ED000E06000F0D1FB2846FFF7A3FFE068002890
:101EE000EAD138680128F9D9C9F80080BFF34F8FCB
:101EF000BFF36F8FF2E700007C0600203000002067
:101F000004ED00E070B51D46049C51B1C4F80020FA
:101F1000C4E90F010121204600F0A4FE84F84C50D2
:101F200070BD2460F4E72DE9F0470E46DDE9098431
:101F30001746824691009946089DA522206BFEF720
:101F40004FF96FF00301206B01EB8701084420F08B
:101F50000707780707D0502080F31188BFF34F8F11
:101F6000BFF36F8FFEE72218315C82F83410315CCA
:101F700011B1401C1028F6D3002684F84360382D98
:101F800000D33725E562C4E91356201D00F02DFB70
:101F900004F1180000F029FB2461C5F138006462E7
:101FA000A061666584F858604A465146384600F09C
:101FB0007BFA2060B8F1000F01D0C8F80040BDE8FE
:101FC000F0872DE9F0471E46DDE9089417460D001D
:101FD00080460ED0002C14D0FFF7AEFEC4F800806F
:101FE000C4E90657C4E90869201DBDE8F04700F0C0
:101FF000FCBA502080F31188BFF34F8FBFF36F8F6F
:10200000FEE7BDE8F087000030B5114900E0114659
:102010000A688242FBD34B685C18844203D1406853
:1020200018444860084643681C18944209D1084C7B
:10203000103C2468A24209D052681A4442600A68DF
:1020400012680260814200D0086030BD0460F9E788
:102050009400002070B5002441600B4D0061914256
:1020600006D8D11A8269914206D2011D686807E03C
:102070009A4203D2994201D3012403E0011D28684A
:1020800000F0B6FA204670BD6C00002010B5044682
:1020900000F0D2FAA06B28B15FF0000400F0ECFA77
:1020A000204610BD0124F9E730B589B0304D55E028
:1020B0000498002806DADDE90601059A904704989D
:1020C00000284BDB069C606910B1201D00F058FA17
:1020D00002A800F0B9F8024604980A283ED2DFE8C8
:1020E00000F00505053D263705053D260598A16943
:1020F000034601442046FFF7ADFF00B3616A204666
:102100008847E069012829D1002000900598A1693D
:10211000002342181946204601F01EFB78B95020D2
:1021200080F31188BFF34F8FBFF36F8FFEE70598E1
:10213000A06128B1811813462046FFF78BFF0DE000
:10214000502080F31188BFF34F8FBFF36F8FFEE7EE
:1021500094F82C0010B9204600F0A2FA002204A93D
:10216000A86800F0D1FE0028A2D109B030BD00005F
:102170006C0000202DE9FC410F46054600F050FCA4
:1021800001A800F061F80446019818B101F020FAA6
:10219000BDE8FC81224EAFB170680068A8B300278B
:1021A000291B3A46B06800F025FB01F011FA00281F
:1021B000EED11C494FF080500860BFF34F8FBFF342
:1021C0006F8FE5E7A542EBD801F002FA30682746A9
:1021D000C068C468201D00F0D3F9E069012810D15F
:1021E000A0692B4641193A462046FFF733FF40B11C
:1021F00000200346014600902A46204601F0ACFA32
:1022000020B1616A20468847C2E707E0502080F38A
:102210001188BFF34F8FBFF36F8FFEE70127BFE732
:102220006C00002004ED00E006484168096829B10F
:102230004168C968C9684968016370474FF0FF3158
:10224000FAE700003000002070B5054601F0A2F862
:10225000064E04463069844203D200F009F801209A
:1022600000E0002028602046346170BD6C00002032
:10227000F8B5194D1FE0C068C4680668201D00F05D
:102280007FF9616A20468847E069012813D1A06977
:102290003044B04206D924616060211D286800F0F6
:1022A000A7F908E000200346014600903246204688
:1022B00001F052FA38B1286801680029DBD1696859
:1022C000C5E90010F8BD502080F31188BFF34F8F8F
:1022D000BFF36F8FFEE700006C00002008484068E5
:1022E000401C4FF0500080F3118804D0BFF34F8F93
:1022F000BFF36F8FFEE7BFF34F8FBFF36F8FFEE724
:102300009C000020074C2068016841B1C068002192
:10231000D0F80000FFF72EFFFFF7C6FEF3E701211C
:102320000020F7E76C0000202DE9F041044600F0A2
:1023300083F994F9455004F1240609E0606A48B134
:10234000304601F00DF908B100F0A4FA6D1E6DB22F
:10235000002DF3DC4FF0FF3684F8456000F08CF977
:1023600000F06AF994F9445004F1100709E020697B
:1023700048B1384601F0F4F808B100F08BFA6D1E50
:102380006DB2002DF3DC84F84460BDE8F04100F04C
:1023900073B900002DE9F0410546002700F040FB2D
:1023A000314E306808B9FFF757FDF06805424BD150
:1023B000C5B3083568070ED005F00700C0F1080066
:1023C0000544680707D0502080F31188BFF34F8F72
:1023D000BFF36F8FFEE72DB37068854234D8224873
:1023E000103001460C6801E020460C466168A942A5
:1023F00002D221680029F7D131688C4224D00768C5
:102400002168016060680837411B10290FD96019E5
:10241000420708D0502080F31188BFF34F8FBFF3DD
:102420006F8FFEE710E041606560FFF7EDFD6168CA
:102430007068401A7060B268904200D2B060F06874
:1024400001430020C4E9000101F0C2F8780707D079
:10245000502080F31188BFF34F8FBFF36F8FFEE7DB
:102460003846BDE8F0810000840000200449086877
:1024700018B10868026D521C0265086870470000B8
:102480003000002010B5040006D000F0D5F8246A12
:1024900000F0F2F8204610BD502080F31188BFF301
:1024A0004F8FBFF36F8FFEE710B5031F4FF080749F
:1024B0001C601B1F21F001011960191F024B0B60EA
:1024C000143940380A6010BDDD22000870B5054699
:1024D00014A1FDF797FE164C18B116A0FFF766F988
:1024E0000EE018A12846FDF78DFE18B118A0FFF7E1
:1024F0005DF90CE01AA12846FDF784FE1B4C08B1DB
:10250000002205E01AA12846FDF77CFE20B1012239
:1025100020212046FDF7FEFFBDE8704064211748EA
:10252000FDF765BE4C454431204F4E0D0A000000BA
:10253000000C01404C454431206973204F4E0D0A78
:10254000000000004C454431204F46460D0A000073
:102550004C454431206973204F46460D0A00000067
:102560004C454432204F4E0D0A0000000018014037
:102570004C454432204F46460D0A0000AC00002076
:10258000D0E9013201699A60D0E901235A604A68B2
:10259000824201D182684A60002202610868401EBE
:1025A0000860086870470000034B036003F15C009B
:1025B0000860802010607047BC070020044B036057
:1025C00003F15C0008604FF48070106070470000F9
:1025D000180A002000F108014FF0FF32C0E9011293
:1025E000C1600161002101607047002101617047F5
:1025F00030B50B685A1C02D000F1080202E00269F3
:1026000004E02246546825689D42FAD953684B601D
:1026100099608A60516008610168491C016030BDA1
:1026200042684A6093688B60936859609160086162
:102630000168491C01607047502080F31188BFF386
:102640004F8FBFF36F8F0A494868401C48600128CC
:102650000CD10848006810F0FF0F07D0502080F31D
:102660001188BFF34F8FBFF36F8FFEE770470000F5
:102670009C00002004ED00E00849486828B1401E95
:10268000486001D180F311887047502080F3118891
:10269000BFF34F8FBFF36F8FFEE700009C00002059
:1026A00070B5002827D0144DA0F108046168E868CF
:1026B000014207D1502080F31188BFF34F8FBFF341
:1026C0006F8FFEE722683AB1502080F31188BFF384
:1026D0004F8FBFF36F8FFEE78143616000F0A0F979
:1026E00060686968084468602046FFF78DFCBDE8B3
:1026F000704000F06DBF70BD840000204FF0E020FE
:1027000000210161816105494FF47A720968B1FBCA
:10271000F2F1491E41610721016170472C00002040
:1027200010B5FDF735FD114910280ED300F1E0205A
:1027300090F8F0030A78904207D2502080F3118875
:10274000BFF34F8FBFF36F8FFEE7094800688968BA
:1027500000F4E060884207D9502080F31188BFF36D
:102760004F8FBFF36F8FFEE710BD00009C0000206D
:102770000CED00E010B5084B002200BF53F83240CA
:102780001CB1521C082AF9D310BD43F8321003EBD8
:10279000C201486010BD0000A001002010B5040077
:1027A0000AD000F013F894F8460000280CD1204617
:1027B000BDE81040FFF774BF502080F31188BFF3CD
:1027C0004F8FBFF36F8FFEE710BD0000084A002156
:1027D00002EBC1035B68834206D1002042F831005E
:1027E00002EBC10148607047491C0829F0D37047CB
:1027F000A001002070B515460E460446FFF71CFFE9
:1028000094F944100020491C01D184F8440094F943
:102810004510491C01D184F84500FFF72DFFA06B3E
:1028200028B92A46314604F1240000F051F8204628
:10283000BDE87040FFF778BD10B5020014D00F4816
:10284000806B38B1502080F31188BFF34F8FBFF3F6
:102850006F8FFEE700F0E4F800211046FFF7D6F98D
:1028600000F0B6FE002807D105494FF080500860FF
:10287000BFF34F8FBFF36F8F10BD000030000020FB
:1028800004ED00E002498A6A0260496941607047CC
:1028900030000020014901204862704730000020CC
:1028A00010B50C4650B1094909681831FFF7A0FE70
:1028B0002046BDE810400121FFF7A8B9502080F361
:1028C0001188BFF34F8FBFF36F8FFEE730000020FA
:1028D00070B514460D4668B10A4909681831FFF70A
:1028E0009FFE0CB14FF0FF3521462846BDE87040F1
:1028F000FFF78CB9502080F31188BFF34F8FBFF3DF
:102900006F8FFEE73000002070B504003ED0226DCE
:10291000A2B1E06C884200D30146E06A884235D01B
:10292000012A33D11A4D2A6894420FD1502080F3E6
:102930001188BFF34F8FBFF36F8FFEE7502080F3F6
:102940001188BFF34F8FBFF36F8FFEE7E162A2697B
:10295000002A02DBC1F13801A1610E4E00EB8000BC
:10296000616906EB8000814210D1201DFFF708FE4F
:10297000E06AA969884200D9A86100EB800006EBF3
:102980008000211DBDE87040FFF74ABE70BD000009
:1029900030000020E001002030B587B0002403940F
:1029A00005AA04A903A80494FFF7FEFDDDE90301CD
:1029B0000094CDE90110002315A11748059A00F0F5
:1029C000B0FC164D002868631FD000F095FE01286A
:1029D00009D0401C19D1502080F31188BFF34F8FCC
:1029E000BFF36F8FFEE7502080F31188BFF34F8F46
:1029F000BFF36F8F4FF0FF3028630120E8616C61F7
:102A000007B0BDE8304000F045B807B030BD000069
:102A100049444C4500000000A51E0008300000207D
:102A20000248816B491C8163704700003000002020
:102A3000164810B5816B11B10121416210BD002112
:102A400041628169124A01E0B9B1491E01EB81037B
:102A500052F82330002BF7D001EB810302EB830205
:102A600002F1080453685B685360A34201D15B68BC
:102A70005360DA680260816110BD502080F31188D4
:102A8000BFF34F8FBFF36F8FFEE7000030000020D1
:102A9000E00100201CB5264908780190FF2008704D
:102AA00008788DF800009DF800009DF8002000F0E7
:102AB000F000904207D0502080F31188BFF34F8F71
:102AC000BFF36F8FFEE79DF800001A4B00F0500037
:102AD00018700720986005E09DF8002052008DF8DE
:102AE0000020401E9DF800201206F5D498600328AF
:102AF00007D0502080F31188BFF34F8FBFF36F8F43
:102B0000FEE74FF440709860019808700A48016829
:102B100041F470010160016841F070410160FFF70C
:102B2000EDFD00205860FDF7FDFA00201CBD0000FF
:102B300000E400E09C00002020ED00E010B50C4611
:102B400048B184420FD9502080F31188BFF34F8FD2
:102B5000BFF36F8FFEE7502080F31188BFF34F8FD4
:102B6000BFF36F8FFEE70222002100F024F8002857
:102B700000D0846310BD38B50C4648B184420FD9EB
:102B8000502080F31188BFF34F8FBFF36F8FFEE7A4
:102B9000502080F31188BFF34F8FBFF36F8FFEE794
:102BA0000221134600220091114600F028F8002867
:102BB00000D0846338BDF8B517460E46050014D022
:102BC000DEB105FB06F05030FFF7E4FB04000AD04D
:102BD000002084F8460004F150023B463146284666
:102BE0000094FFF78FF92046F8BD502080F311883C
:102BF000BFF34F8FBFF36F8FFEE70020E3E738B5D9
:102C0000049D18B153B1CAB181B120E0502080F3C6
:102C10001188BFF34F8FBFF36F8FFEE7502080F313
:102C20001188BFF34F8FBFF36F8FFEE7502080F303
:102C30001188BFF34F8FBFF36F8FFEE739B150207C
:102C400080F31188BFF34F8FBFF36F8FFEE75024DF
:102C50001C46012384F846302B460094FFF752F9B6
:102C6000204638BD70B50D46040025D0FFF7E4FCC2
:102C7000D4E90F20216802FB001161600021A163EB
:102C80002168A1600A46D4E90F01401E00FB012122
:102C9000E16021464FF0FF3001F8440F487004F125
:102CA00010008DB1FFF796FC04F12400FFF792FCB1
:102CB000FFF7E2FC012070BD502080F31188BFF3C4
:102CC0004F8FBFF36F8FFEE721690029F0D000F02E
:102CD00047FC0028ECD004494FF080500860BFF357
:102CE0004F8FBFF36F8FE3E704ED00E02DE9FF475F
:102CF00082B01D468A464FF00008040003D0BAF1A6
:102D0000000F08D011E0502080F31188BFF34F8FDF
:102D1000BFF36F8FFEE7206C38B1502080F311882D
:102D2000BFF34F8FBFF36F8FFEE7022D0AD1E06B29
:102D3000012807D0502080F31188BFF34F8FBFF3D5
:102D40006F8FFEE700F018FB3F4F4FF000094FF088
:102D5000805648B9049838B1502080F31188BFF3E9
:102D60004F8FBFF36F8FFEE7FFF766FCA06BE16B41
:102D7000884207D3022D05D00498D0B1B8F1000FD6
:102D80001AD01EE02A4651462046FFF714F8616A21
:102D900019B104F1240000F0E3FB20B13E60BFF361
:102DA0004F8FBFF36F8FFFF767FC012006B0BDE8C0
:102DB000F087FFF761FC22E06846FFF763FD4FF004
:102DC0000108FFF759FCFFF72BFEFFF735FC94F9DC
:102DD0004400401C01D184F8449094F94500401C03
:102DE00001D184F84590FFF747FC04A9684600F03C
:102DF00031FA30B12046FFF797FA00F0E9FB0020E6
:102E0000D4E7FFF719FCA06BE16B884213D1FFF701
:102E100033FC04F110000499FFF742FD2046FFF750
:102E200083FA00F0D5FB00289ED13E60BFF34F8FA0
:102E3000BFF36F8F98E7FFF71FFC2046FFF774FA88
:102E400000F0C6FB90E7000004ED00E02DE9F0473C
:102E50001F4690468946040003D0B9F1000F08D000
:102E600011E0502080F31188BFF34F8FBFF36F8FB5
:102E7000FEE7206C38B1502080F31188BFF34F8FEC
:102E8000BFF36F8FFEE7022F0AD1E06B012807D056
:102E9000502080F31188BFF34F8FBFF36F8FFEE791
:102EA000FFF73EFC5020EFF3118680F31188BFF34B
:102EB0004F8FBFF36F8FA06BE16B884206D3022F59
:102EC00004D0002086F31188BDE8F08794F94550BE
:102ED0003A4649462046FEF76EFF681C04D06D1C3A
:102EE00084F845500120EDE7606A0028FAD004F12B
:102EF000240000F035FB0028F4D0B8F1000FF1D029
:102F00000121C8F80010EDE72DE9F747002683B04E
:102F10008A46040003D0BAF1000F08D011E0502017
:102F200080F31188BFF34F8FBFF36F8FFEE7206CE4
:102F300038B1502080F31188BFF34F8FBFF36F8FEC
:102F4000FEE700F019FADFF8F4804FF000094FF0C7
:102F5000805748B9059838B1502080F31188BFF3E5
:102F60004F8FBFF36F8FFEE7FFF766FBA56BC5B111
:102F700051462046FEF70CFF6D1EA563206950B137
:102F800004F1100000F0ECFA28B1C8F80070BFF3AB
:102F90004F8FBFF36F8FFFF76FFB012006B0BDE8C7
:102FA000F087059808B11EB106E0FFF765FB27E042
:102FB0006846FFF767FC0126FFF75EFBFFF730FD71
:102FC000FFF73AFB94F94400401C01D184F8449087
:102FD00094F94500401C01D184F84590FFF74CFB63
:102FE00005A9684600F036F9002820460AD0FFF708
:102FF0009BF900F0EDFA2046FFF748F80028B3D01F
:103000000020CBE7FFF742F890B104F124000599C6
:10301000FFF746FC2046FFF787F900F0D9FA0028B1
:10302000A2D1C8F80070BFF34F8FBFF36F8F9BE73B
:103030002046FFF779F900F0CBFA95E704ED00E0C0
:103040002DE9F04790468946040003D0B9F1000FFE
:1030500008D011E0502080F31188BFF34F8FBFF3E9
:103060006F8FFEE7206C38B1502080F31188BFF3DA
:103070004F8FBFF36F8FFEE7FFF752FB5020EFF348
:10308000118680F31188BFF34F8FBFF36F8FA76B4B
:10309000F7B194F9445049462046FEF779FE7F1E69
:1030A000A763681C04D06D1C84F84450012010E014
:1030B00020690028FAD004F1100000F051FA00282D
:1030C000F4D0B8F1000FF1D00121C8F80010EDE7FD
:1030D000002086F31188BDE8F08700002DE9F34356
:1030E000002683B00400354609D0206C78B150200A
:1030F00080F31188BFF34F8FBFF36F8FFEE750202F
:1031000080F31188BFF34F8FBFF36F8FFEE700F09E
:1031100033F9DFF83C814FF000094FF0805748B990
:10312000049838B1502080F31188BFF34F8FBFF35C
:103130006F8FFEE7FFF780FAA06BC8B1401EA06357
:10314000206810B9FFF792F96060206950B104F16E
:10315000100000F005FA28B1C8F80070BFF34F8FD7
:10316000BFF36F8FFFF788FA012005B0BDE8F08349
:10317000049808B166B10FE03DB1502080F311888A
:10318000BFF34F8FBFF36F8FFEE7FFF775FA5DE078
:103190006846FFF777FB0126FFF76EFAFFF740FC62
:1031A000FFF74AFA94F94400401C01D184F8449096
:1031B00094F94500401C01D184F84590FFF75CFA72
:1031C00004A9684600F046F80028204612D0FFF710
:1031D000ABF800F0FDF92046FEF758FF0028A9D013
:1031E0009DB3FFF729FA606A50B3206B0068C0F105
:1031F000380126E0FEF74AFFE0B1206838B9FFF752
:103200001BFA606800F070F90546FFF735FA04F123
:1032100024000499FFF744FB2046FFF785F800F0EF
:10322000D7F9002886D1C8F80070BFF34F8FBFF3DD
:103230006F8F7FE72046FFF777F800F0C9F979E74D
:1032400000216068FFF760FB9FE7FFE700208CE745
:1032500004ED00E02DE9F0410C46050011D0C4B1A9
:10326000FFF7EAF9174B5A696E682068911B471CF3
:1032700017D02F689B6A9F4219D0964217D8012415
:1032800010E0502080F31188BFF34F8FBFF36F8F92
:10329000FEE7502080F31188BFF34F8FBFF36F8F8D
:1032A000FEE70024FFF7E8F92046BDE8F0818842F8
:1032B00005D9401A20602846FFF7E4FAF1E700201C
:1032C0002060DCE7300000202DE9FF5F8346DDE968
:1032D0000E87994616468A469000FFF75BF8050070
:1032E0001CD05C20FFF756F8040014D000202563A2
:1032F00084F85900CDE90240CDE900874B463246BB
:1033000051465846FEF70FFE2046FEF7ADFC012061
:1033100004B0BDE8F09F2846FFF7C2F94FF0FF3038
:10332000F6E7F0B585B0DDE90B640A9DA6B1DCB126
:103330005C2700972663022684F85960002604AFB4
:10334000CDE90246CDE90057FEF7EDFD2046FEF738
:103350008BFC049805B0F0BD502080F31188BFF3BA
:103360004F8FBFF36F8FFEE7502080F31188BFF3BC
:103370004F8FBFF36F8FFEE70548C16919B1806BAE
:1033800018B10020704701207047022070470000EC
:1033900030000020014840697047000030000020E4
:1033A0002DE9F0412E4C0027A06B40B1206A401C53
:1033B0002062606A00B101273846BDE8F081666985
:1033C000761C666113D16068006838B1502080F3C4
:1033D0001188BFF34F8FBFF36F8FFEE76068A1685E
:1033E0006160A060A06A401CA062FEF71DFF206B18
:1033F000DFF87080864209D36068006880B1606839
:10340000C068C568686886420DD220632068C06ABB
:1034100000EB800158F821000128CAD90127C8E72C
:103420004FF0FF30F1E7281DFFF7AAF8A86A18B19E
:1034300005F11800FFF7A4F8E86AA169884200D9ED
:10344000A06100EB800108EB8100291DFFF7E8F87F
:10345000E86A2168C96A8842CED30127CCE7000018
:1034600030000020E001002070B504004FF00001A2
:1034700033D01B4D2868844207D0502080F3118838
:10348000BFF34F8FBFF36F8FFEE7206D38B1401E43
:103490002065E36CE26A9A421FD040B11DE05020E3
:1034A00080F31188BFF34F8FBFF36F8FFEE7201DAE
:1034B000FFF766F8E06CE062C0F13800A061E06AF6
:1034C000A969884200D9A861064900EB800001EB98
:1034D0008000211DFFF7A4F80121084670BD0000FF
:1034E00030000020E001002070B504004FF0000023
:1034F0002BD0194DE16A2A68D26A914226D2A0697E
:10350000002804DB2868C06AC0F13800A061134EAF
:1035100001EB8101606906EB8101884211D1201D18
:10352000FFF72EF82868C06AE062A969884200D9CE
:10353000A86100EB800006EB8000211DFFF770F80A
:1035400002E02868C06AE062012070BDE16C2A6870
:10355000D26A9142F8D370BD30000020E001002013
:1035600070B5C068C46854B104F118000646FFF78E
:1035700007F8144DA86B50B13146134815E05020A0
:1035800080F31188BFF34F8FBFF36F8FFEE7201DCD
:10359000FEF7F6FFE06AA969884200D9A8610B49E5
:1035A00000EB800001EB8000211DFFF739F8E06A95
:1035B0002968C96A884202D90120686270BD00206A
:1035C00070BD00003000002068060020E0010020EF
:1035D0002DE9F0472C4D00242746A86B38B1FFF7A2
:1035E0002BF8A86B401EA863A86B40B146E05020A2
:1035F00080F31188BFF34F8FBFF36F8FFEE7296908
:10360000224E0120D1B3A6F5916980463068E0B121
:10361000F068C46804F11800FEF7B2FF201DFEF741
:10362000AFFFE06AA969884200D9A86100EB800178
:1036300009EB8100211DFEF7F3FFE06A2968C96AE2
:103640008842E3D3C5F82480E0E70CB1FEF7ECFD37
:103650002C6A4CB14FEA0806FFF7A2FE00B16E6279
:10366000641EF9D100202862686A38B10849012730
:1036700038070860BFF34F8FBFF36F8FFEF7FCFF73
:103680003846BDE8F08700003000002068060020C2
:1036900004ED00E02DE9FC4781461E4617468846AA
:1036A00030200A9DFEF776FE04000AD0CDE90054D2
:1036B00033463A4641464846FEF783FC002084F8EC
:1036C0002C002046BDE8FC877CB53026DDE9065499
:1036D000009644B1CDE90054FEF773FC012084F854
:1036E0002C0020467CBD502080F31188BFF34F8F03
:1036F000BFF36F8FFEE7000010B586B0FEF71CFB2E
:10370000114CA068B8B100200390049005AA04A948
:1037100003A8FEF753FFDDE9032102208DE807002F
:1037200000230AA10B48059AFFF7FBFDE06010B1EA
:1037300006B0012010BD502080F31188BFF34F8FD9
:10374000BFF36F8FFEE700006C000020546D722005
:1037500053766300052300082DE9FF411E461346FA
:1037600002000A9D4FF0000016D0144CA768002FED
:103770000FD0CDE900130292062917DAFFF7FCFDFE
:1037800002284FF000030FD000226946A068FFF71F
:10379000ADFA04B0BDE8F081502080F31188BFF38A
:1037A0004F8FBFF36F8FFEE72A46EEE700233246C6
:1037B00069463846FFF74AFBEBE700006C00002043
:1037C000F0380008000000000000000000000000C9
:1037D00000000000000200001800000000000000CF
:1037E00000000000D83800080000000000000000C1
:1037F00000000000000000000002000008000000BF
:103800000000000000000000E43800080000000094
:1038100000000000000000000000000000020000A6
:10382000080000000000000000000000A0380008B0
:103830000000000000000000000000000000000088
:1038400000000000CC38000800000000000000006C
:1038500000000000BC38000800000000000000006C
:1038600000000000AC38000800000000000000006C
:1038700000000000010202030405060708090A0B04
:103880000C0D0E0F101000000000000000000102DF
:1038900003040607080900000000010203040000F9
:1038A0006D79517565756530310000006D79436F34
:1038B000756E74696E6753656D3031006D7942695C
:1038C0006E61727953656D30310000006D79546915
:1038D0006D657230310000006D795461736B303268
:1038E000000000006D795461736B303300000000FC
:1038F00064656661756C745461736B001C390008F3
:1039000000000020AC000000DC170008C8390008E7
:10391000AC000020CC1D0000EC17000800000000E7
:103920000000000000000000000000000000000097
:103930000000000000000000000000000100000086
:1039400010000000000000000024F400000000004F
:103950000000000000000000000000000000000067
:103960000000000000000000000000000000000057
:103970000000000000000000000000000000000047
:103980000000000000000000000000000000000037
:103990000000000000000000000000000000000027
:1039A0000000000000000000000000000000000017
:1039B000000000000000000000000000AAAAAAAA5F
:0839C0000000000000000000FF
:04000005080000ED02
:00000001FF
