:020000040800F2
:10000000F008002045010008B54C000895400008A4
:10001000B14C00088D0C000851640008000000007D
:10002000000000000000000000000000D96200088D
:10003000910C00080000000019610008DD62000852
:100040005F0100085F0100085F0100085F01000810
:100050005F0100085F010008950C00089D0C000876
:10006000A50C0008AD0C00085F0100085F01000846
:100070005F0100085F0100085F0100085F010008E0
:100080005F0100085F0100085F0100085F010008D0
:100090005F0100085F0100085F0100085F010008C0
:1000A0005F010008F1620008E56200085F010008D6
:1000B000FD62000809630008156300085F0100087D
:1000C0005F0100085F0100085F0100085F01000890
:1000D0005F010008456400085F0100085F01000837
:1000E0005F0100085F0100085F0100085F01000870
:1000F0002D630008216300085F0100085F0100080C
:100100005F0100085F0100085F0100085F0100084F
:100110005F0100085F0100085F0100085F0100083F
:100120005F0100085F0100085F0100085F0100082F
:10013000DFF80CD000F092FD00480047796A000813
:10014000F00800200648804706480047FEE7FEE723
:10015000FEE7FEE7FEE7FEE7FEE7FEE7FEE7FEE777
:10016000E1620008310100082DE9FF5F1D464FF0F4
:10017000FF3BD5E9014691465F464FF00008A9696B
:100180007F1C01988847296A824688470028F6D153
:10019000BAF1FF3F0CD024F4C064002E19DD6006D4
:1001A00014D5BAF12B0F09D0BAF12D0F0ED103E0FF
:1001B000584604B0BDE8F09F44F48064A9697F1CF0
:1001C00001988847761E8246002E02DDBAF1300F74
:1001D00003D0B9F1000F26D032E0A969761E44F4AD
:1001E00000747F1C019888478246002E05DDBAF115
:1001F000780F06D0BAF1580F03D0B9F1000F10D024
:100200001EE0B9F1000F02D0B9F1100F18D1A969A1
:10021000761E24F400747F1C0198884782461020C3
:1002200002E0082000E00A20814609E008FB0908F6
:10023000A969761E44F400747F1C019888478246A1
:10024000002E05DD4946504600F0CDFB0028EDDAD2
:10025000E96901988847A00502D46FF00100A8E77A
:10026000E00725D1600613D5600502D5C8F100006E
:1002700000E0404629680A1D2A600968220501D568
:10028000087015E0220701D5088011E008600FE032
:100290002868011D29600068210502D580F80080CA
:1002A00006E0210702D5A0F8008001E0C0F8008038
:1002B00038467EE7F0B480EA0102D40F4200B2EB88
:1002C000410F02D20246084611464A0042D0C30DF1
:1002D000DDB2C1F3C752AD1A202D35DAC1F31601D4
:1002E00041F4000204B15242C5F1200602FA06F1BF
:1002F0002A411044B3EBD05F23D0C4B1012DA0EB51
:10030000C35009DCF0BC4FF0004202EAC352DBB23A
:1003100000F5000000F07EBB400000F1807000EBB3
:10032000C350A0F1807040EAD170490009E049084B
:1003300041EAC071A0EBC35000F50000400800EB9B
:10034000C350F0BC00F05DBB6142012202EB4101F1
:10035000001BF6E7F0BC704781F00041AAE780F08F
:100360000040A7E780EA010210B502F00043400018
:1003700022D04A001FD0010E01EB1261C0F35600DB
:10038000C2F3560240F4000042F40002A0FB022037
:1003900000047F39140400D0401C50EA124001D4FC
:1003A0004000491EC2B20C0604EBD010401C4008AD
:1003B000802A02D003E0002010BD20F001000029B7
:1003C00000DA0020184310BD30B480EA010202F0C8
:1003D000004530F0004221F0004013D090B1C30D31
:1003E000D40DC2F31601C0F31600E41A41F4000163
:1003F00040F400027D34914201D3641C00E04900C6
:10040000002C02DA30BC002070474FF400000023BB
:10041000914201D3891A034340084FEA4101F7D1C1
:1004200051B1914202D14FF0004105E002D24FF0AC
:10043000010101E06FF0010103EBC450284430BC1E
:1004400000F0DFBA2DE9FE4F804681EA0300C00FBD
:100450000C46009021F0004123F00045B8EB02006B
:10046000A94105D24046214690461C460B4602460D
:1004700023F00040104347D0270DC7F30A00C3F311
:100480000A510290401A019040286BDAC3F313001E
:1004900040F4801B0098924620B10023D2EB030A5F
:1004A00063EB0B0B01985946C0F14002504600F037
:1004B00069FA06460D4650465946019A00F081FAFF
:1004C00010EB08006141002487EA115284EAE773C7
:1004D0001A4340D0009A62B3019A012A4FEA0752A8
:1004E00015DC001B61EB02014FF0004202EA0752EB
:1004F000CDE90042001C41F5801132462B4600F048
:10050000C6FA03B0BDE8F08F40462146F9E7001B6C
:1005100061EB0201001C41F5801300185B412018BB
:10052000A2F5001747EB030140EAD570B6196D41FB
:1005300011E06D084FEA360645EAC0754FEA0752EA
:10054000001B61EB0201001C41F5801149084FEAD4
:1005500030000019514132462B4603B0BDE8F04F40
:1005600000F086BA0098012240000023D0EB02027E
:1005700063EBE073009821464FEAE074B8EB0000AB
:1005800061EB0401E9E783F000435BE781F00041A0
:1005900058E72DE9FE4F81EA030404F0004421F0FE
:1005A000004100944FF0000B23F0004350EA010497
:1005B0005ED052EA03045BD0C3F30A54C1F30A5578
:1005C0002C44A4F2F3340194A0FB0254C1F31301B0
:1005D00041F48011C3F3130343F4801301FB02447D
:1005E00000FB034E840A970A44EA815447EA835782
:1005F000A4FB076802958D0A05FB07854FEA932C3B
:1006000004FB0C542705029D4FEA065847EA1637AB
:10061000B5EB08056EEB070C870E920E47EA8117C3
:1006200042EA8312A7FB0201B6EB0B0164EB000464
:100630002B0D43EA0C335E1844EB1C50DA4651464E
:10064000E7FB0201C5F313044FEA0B3343EA1453EB
:100650004FEA0432019C43EA0603A4F10C0402941D
:10066000009CCDE900B400F012FA03B0BDE8F08FB1
:1006700000200146F9E72DE9F04D81EA030404F07A
:10068000004B21F0004514464FF0000A23F00041D2
:1006900050EA050220D054EA01021DD0C5F30A57E2
:1006A0000246C5F31303C1F31300C1F30A5640F425
:1006B000801543F48013A7EB0608101BD64608F2FA
:1006C000FD3873EB050002D308F1010801E0921830
:1006D0005B41B8F1000F03DA00200146BDE8F08D60
:1006E00000204FF48011064684460EE0171B73EB82
:1006F000050705D3121B63EB050306434CEA010C07
:1007000049084FEA300092185B4150EA0107EDD1E9
:1007100052EA030012D082EA040083EA050108438A
:1007200005D0101BAB4106D20122002306E00022B7
:100730004FF0004302E06FF0010253101AEB060085
:100740004CEB085110EB0A0041EB0B01BDE8F04DFA
:1007500000F08EB9002801DBC0F10040002901DB68
:10076000C1F10041814201D2012070470020704751
:10077000002801DBC0F10040002901DBC1F100418C
:10078000814201D30120704700207047002801DB1F
:10079000C0F10040002901DBC1F10041814201D9D3
:1007A0000120704700207047C10F80EAE0700844C4
:1007B000CA079623002100F02DB90EB5C10F80EABB
:1007C000E0700844CA07002140F233438DE80E0070
:1007D0000A460B4600F05BF903B000BD0EB540F2CF
:1007E000334102910021CDE900110A460B4600F089
:1007F0004EF903B000BD00F0004220F00040C10DF2
:10080000C0F3160040F400007F2901DA0020704791
:10081000962903DCC1F19601C84001E09639884071
:10082000002AF4D04042704770B5C1F30A5201F07B
:1008300000450024C1F3130140F2FF3341F480115D
:100840009A4201DA002070BD40F233439A42A2F28C
:10085000334203DC524200F0A4F800E090402C4305
:10086000F1D0404270BDC1F30A5210B5C1F313017B
:1008700040F2FF3341F480119A4201DA002010BDAA
:1008800040F233439A42A2F2334203DC524200F078
:1008900088F810BD904010BD00F0004230F00040DC
:1008A0000AD0C10D01F56071C0F3160042EA015192
:1008B000C20840071143704700200146704701F00D
:1008C000004330B421F0004150EA010206D00A0D85
:1008D000A2F56072C1F31301002A02DC30BC0020D3
:1008E0007047440F44EAC104C100E01830BC00EB7B
:1008F000C25000F086B830B50B46014600202022D9
:10090000012409E021FA02F59D4205D303FA02F51C
:10091000491B04FA02F52844151EA2F10102F1DC7C
:1009200030BD2DE9F05F0546002092469B46884683
:100930000646814640241BE028464146474622465B
:1009400000F02FF853465A46C01A914110D3114671
:100950001846224600F016F82D1A67EB01084F469C
:1009600022460120002100F00DF817EB00094E414E
:10097000201EA4F10104DFDC484631462A464346E6
:10098000BDE8F09F202A04DB203A00FA02F10020A3
:1009900070479140C2F1200320FA03F319439040BD
:1009A0007047202A04DB203A21FA02F00021704728
:1009B00021FA02F3D040C2F12002914008431946C7
:1009C0007047202A06DBCB17203A41FA02F043EAAF
:1009D000E07306E041FA02F3D040C2F120029140F8
:1009E0000843194670473A2800D2303820F02002D8
:1009F000412A01D3A2F13700884201D34FF0FF30E2
:100A000070470029A8BF7047401C490008BF20F06C
:100A10000100704710B4B0FA80FC00FA0CF050EA04
:100A2000010404BF10BC704749B1CCF1200421FA85
:100A300004F411FA0CF118BF012121430843A3EB80
:100A40000C01CB1D4FEA00614FEA102042BF00208D
:100A500010BC704700EBC35010440029A4BF10BC69
:100A60007047401C490008BF20F0010010BC7047CF
:100A700010B5141E73F1000408DA401C41F10001A6
:100A800092185B411A4301D120F0010010BD2DE9FD
:100A9000F04D92469B4611B1B1FA81F202E0B0FAF4
:100AA00080F220329046FFF76DFF04460F4640EA81
:100AB0000A0041EA0B0153465A46084313D0114637
:100AC00053EA010019D0C8F140025046FFF769FF10
:100AD00005460E46504659464246FFF753FF084327
:100AE00005D0012004E020463946BDE8F08D002005
:100AF000054346EAE0762C4337430A986305E40A47
:100B0000A0EB08000022FD0A44EA47540A3002D54F
:100B100000200146E9E7010510196941DDE90845B2
:100B200000196941BDE8F04DA2E770B521F000431E
:100B300003430CD0C1F30A550024D5EB040564EB44
:100B40000403D617AD1AB34102DB0020014670BD85
:100B5000201841EB025170BD2DE9F04D00231A46DB
:100B60001B1A8A4103DB00200146BDE8F08DC1F36A
:100B70000A52C1F3130141F480154FF0000BD10765
:100B800002D100186D41521E0027044640F2FF11A9
:100B9000384601EB620A3E468046024600204FF48A
:100BA0008011FFF7FEFEC2197141BB1846EB010030
:100BB000B4EB030C75EB000C04D3E41A65EB0005F1
:100BC00017460E46241908F101006D41804634286D
:100BD000E3DDF91946EB0600091BA84103D24FF0EB
:100BE000FF32134601E0002213461BEB070046EBE1
:100BF0000A51BDE8F04DFFF73BBFC1F30A52C1F304
:100C0000130140F2FF3341F480119A4202DA0020CE
:100C10000146704740F233439A42A2F2334202DC6B
:100C20005242FFF7BEBEFFF7ADBE000030B5041E56
:100C300071F1000404DB4FF00044404264EB010119
:100C4000141E73F1000405DB1C464FF000435242B2
:100C500063EB0403994208BF904230BD1CB50948BC
:100C60000090094801900546009C06E0E06840F0CD
:100C7000010394E8070098471034AC42F6D3FFF71D
:100C80005BFA0000E086000800870008FEE700002D
:100C900070470000012000F0C5B90000022000F0FC
:100CA000C1B90000042000F0BDB90000082000F028
:100CB000B9B90000EFF3108072B600BFFEE7000084
:100CC0002DE9F04381B005F021F840F21410C2F292
:100CD000000090F80990C2794FF47A7C40F2021E2D
:100CE000C0F2011E09FB0CF690F8088002FB0CF321
:100CF000A6FB0E67A3FB0E43867A08FB0CF4A4FB4D
:100D00000E4506FB0CF1A1FB0E14A2F17F0140F28F
:100D1000100C022938BF4FF4FA73C2F2000CA8F18C
:100D20007F01ACF8023042790229A9F17F03817971
:100D300038BF4FF4FA75022BA6F17F03ACF80450CC
:100D400038BF4FF4FA77022B6FEA0203DBB24FEAA7
:100D5000D313ACF8067038BF4FF4FA74C372012392
:100D600023EA9216067323EA5216467323EA1216F2
:100D7000867323EAD206CF43C67323EA9206FFB2F4
:100D8000067423EA520623EA02028274FA09C27444
:100D900023EA9112027523EA5112427523EA1112D5
:100DA000827523EAD102C27523EA9102027623EA10
:100DB000510223EA010181764FF07F41C0F8021011
:100DC000FF2181710021C0F807100921ACF808400B
:100DD00046744276017001B0BDE8F083014690F898
:100DE0002100022816D10868D1E90FC3026822F059
:100DF0000E020260026822F001020260012000FA85
:100E000003F2CCF8042081F821000020002281F8B0
:100E100020207047042088630120002281F82020D0
:100E20007047000090F82110022927D1026840F293
:100E3000040C1368C4F2020C23F00E031360136851
:100E40000CF17C018A4223F0010111601AD940F2B1
:100E50000841C4F202018A4250D040F21C41C4F25F
:100E600002018A4242D040F23041C4F202018A4279
:100E700048D14FF48073CCF800345CE004218163E6
:100E8000012070474321C4F202018A420EDD6B212A
:100E9000C4F202018A421BDC4421C4F202018A42EC
:100EA0003ED05821C4F202018A4223E00821C4F254
:100EB00002018A4232D01C21C4F202018A4237D098
:100EC0003021C4F202018A4214D14FF4807230E022
:100ED0006C21C4F202018A4226D08021C4F20201B0
:100EE0008A4207D14FF0807223E000BF1023CCF874
:100EF000003420E04FF480321BE000BF0123CCF827
:100F0000003418E00CF588614FF480338A4208BF42
:100F10004FF48053CCF800340DE000BF012208E00C
:100F20004FF4805205E000BF4FF4801201E000BF93
:100F30001022CCF80020012180F82110416B002202
:100F4000002980F8202004BF0020704780B5884722
:100F5000002080BDB0B5044600F070F9054640F2AF
:100F60000800C2F200000078611C18BF044400BFF2
:100F700000F064F9401BA042FAD3B0BD80B501383F
:100F8000072888BF80BDDFE800F00529431B4343E5
:100F9000433700BF41F20000C4F20100012100F01C
:100FA00041F940F25411C2F20001086019A005F0A5
:100FB000DBFF1AA202200121BDE8804004F026B91F
:100FC00041F20000C4F20100042100F02BF940F2CC
:100FD0005411C2F20001886080BD00BF41F20000E0
:100FE000C4F20100022100F01DF940F25411C2F2D6
:100FF0000001486080BD00BF41F20000C4F2010062
:10100000082100F00FF940F25411C2F20001C8604B
:1010100080BD00BF4B455931000000004B455931A0
:101020002100000040F21441C4F201010A680242AA
:1010300014BF08607047FFF7A1BF00002DE9F04F13
:1010400082B00E68002E00F0E980A0F1804241F6E7
:10105000004540F20043A2F58432C4F201050624A3
:10106000C4F201034FEAB227A84208BF05244FF09B
:10107000000E4FF001080F254FF0000A4FF0000B53
:10108000052F38BF4FEAB224009408E00E680AF139
:10109000010A36FA0AF20EF1040E00F0BF8008FAD7
:1010A0000AFC16EA0C09F1D04E684FF6FF72C1F245
:1010B0001002964212DC122E56D8DFE806F0350BED
:1010C0004D495555555555555555555555555545F4
:1010D000510000BFD1F80CB046E000BF4FF6FF72E0
:1010E000C1F2210296420FDC0022C1F211029642A7
:1010F0001AD00022C1F21202964215D00022C1F28B
:101100002102964210D02FE00022C1F22202964224
:101110000AD00022C1F23102964205D00022C1F26B
:101120003202964220D100BF8A684AB1012A14BF18
:10113000C0F814C0C0F810C04FF0080B14E000BF96
:101140004FF0040B10E000BFCA6802F1040B0BE083
:101150004FF0000B08E000BFCA6802F1080B03E083
:10116000CA6802F10C0B00BF02467446B9F5807FD5
:1011700024BF0432203C166805FA04F726EA070764
:101180000BFA04F637431760CA79D2067FF57EAFB3
:1011900041F21807C4F202073A684FF6084542F0D8
:1011A00001023A603A68CFF6FF7502F0010201923F
:1011B000019A2AF003021A440F2457590EF00C0624
:1011C000B440A743009C04FA06F6374357514E68D3
:1011D00040F20C44F2029A6854BF22EA090242EA41
:1011E0000902C4F201049A602268B70254BF22EADD
:1011F000090242EA090222605A68B70354BF22EA90
:10120000090242EA09025A600F251A68F70354BF1F
:1012100022EA090242EA09021A6037E702B0BDE891
:10122000F08F00008068084018BF01207047000060
:10123000002A08BF090401617047000040F2EC4039
:10124000C2F2000000687047002804BF0120704708
:10125000F0B581B0044690F83D0028B9002084F82C
:101260003C00204600F090FB242084F83D002068DC
:10127000016821F001010160016841F40041016051
:10128000016821F40041016000F07AFD636848F2D2
:10129000A16CC0F2010C40F60011C0F23D016345A3
:1012A0003CBF48F28041C0F21E01884202D20120B8
:1012B00001B0F0BD4DF68361C4F21B31A0FB0112F9
:1012C0002168970CD1F804E04FF496762EF03F0594
:1012D00045EA92454D60774348F638160D6AC0F2EC
:1012E0004106A7FB067625F03F07634538BF960CFD
:1012F000721C3A430A62CA6948F2A0664CF6FF774C
:10130000C0F20106B34222EA07020BD801385B00A3
:10131000B0FBF3F001306FF31F30042898BF0420B6
:101320001BE000BFA768013857B119277B43B0FB0A
:10133000F3F001306FF31F3070B100F5804007E02B
:1013400003EB4303B0FBF3F001306FF31F3018B130
:1013500000F5004001E000BF01201043C8610868AB
:10136000D4E9072320F0C0001043184308608868C0
:1013700048F2FF3204F10C0790438CCF184310431E
:10138000A6698860C86820F0FF0038433043C86011
:10139000086840F00100086000202021206484F8E3
:1013A0003D10206384F83E0001B0F0BD2DE9F04708
:1013B00084B0044600201F46164689460290FFF777
:1013C0003DFF94F83D10202924D10546206800BF38
:1013D000816989071AD5FFF731FF411B20681A2957
:1013E000F6D381698907F3D500202021206384F892
:1013F0003D1084F83E00216C41F02001216484F806
:101400003C00022004B0BDE8F08700BF94F83C1017
:10141000012903D1022004B0BDE8F087012184F83E
:101420003C100168C90703D1016841F00101016066
:101430000168DDF8308021F400610160222184F828
:101440003D10102184F83E100021216466626785FA
:10145000618D0227C0F201072185A7F10211E16227
:10146000E16A026811F5803F42F48062026018BFB1
:1014700001293DD1016841F48071016020464FF09F
:10148000011100224346009502F064FE50B120682D
:101490000068C00544BF4FF400702064012004B010
:1014A000BDE8F0872069B0F5804F27D149F00100F1
:1014B000C0B2216842460861204639462B4602F0F8
:1014C0002FFF0028EAD1208D022861D0012849D0C1
:1014D000002840F073800020039020684169039148
:1014E000816903910399016841F40071016071E021
:1014F0000829BFD0216B1129BCD0BFE7062000EA24
:10150000D916206806F1F0010161B91D2046424656
:101510002B4602F005FF0028C0D120685FFA89F150
:1015200001612046394642462B4602F0F9FE00286A
:10153000B4D1002003902068002241694346039102
:10154000816903910399016841F48071016020462B
:101550004FF00111009502F0FDFD002897D146F0F3
:10156000F100A6E72068016821F480610160EFF3D3
:10157000108072B600200390206841690391816950
:1015800003910399016841F40071016062B621E0A2
:101590002068016841F400610160EFF3108072B6C9
:1015A00000200390206841690391816903910399A8
:1015B000016821F48061016062B60BE02068016877
:1015C00041F48061016000210391416903918069C8
:1015D00003900398208D002800F0CA8040F21C0977
:1015E0004BF2895A0237C2F20009C1F2F84A2326A7
:1015F0000EE000BF10690870606A218D01306062E2
:10160000481E2085618D01396185010400F0B0809C
:1016100080B203280CD802282CD001284AD12046B9
:1016200041462A4602F0E8FE002800F09C8035E79B
:10163000204641462A4602F0DFFE00287FF42EAF06
:101640002068616A00690870606A2268411C208D08
:10165000616201382085638D013B638553695B07B7
:10166000D3D580B20328C5D1106820F48060106003
:10167000C0E700BF2046394600224346009502F0ED
:1016800069FD00287FF40AAFEFF3108072B620687E
:10169000616A026842F40072026000690870606A60
:1016A000218D01306062481E2085608D0138608583
:1016B00062B658E02046394600224346009502F0C3
:1016C00049FD00287FF4EAAE2068016821F48061BA
:1016D0000160EFF3108072B62068616A00690870DB
:1016E000606A218D0130013960622185618D013987
:1016F0006185D9F80010C908A1FB0A12110A7143CB
:101700000291029901390291029900293CD0216885
:101710004A69520717D4029A013A0292029A9AB37E
:101720004A6952070FD4029A013A0292029A5AB3B6
:101730004A69520707D4029A013A0292029A1AB3EE
:101740004A695207DDD50A6842F400720A600969E5
:101750000170606A218D01306062481E2085608DB5
:101760000138608562B62068616A006943E700BF9E
:10177000202084F83D00002084F83E0084F83C00DE
:1017800004B0BDE8F08700BF00202021206384F86A
:101790003D1084F83E00216C41F02001216462B6C6
:1017A00084F83C00012004B0BDE8F0872DE9F04347
:1017B00083B01E46174689460446FFF73FFD94F85E
:1017C0003D10202924D10546206800BF8169890782
:1017D0001AD5FFF733FD411B20681A29F6D381691A
:1017E0008907F3D500202021206384F83D1084F878
:1017F0003E00216C41F02001216484F83C0002206D
:1018000003B0BDE8F08300BF94F83C10012903D178
:10181000022003B0BDE8F083012184F83C10016888
:10182000C90703D1016841F001010160016840F27C
:10183000020821F400610160212184F83D1010218B
:1018400084F83E100021216467626685618DC0F2D4
:1018500001082185A8F10211E162E16A0A9E11F5F1
:10186000803F18BF01291DD1016841F480710160DA
:1018700020464FF0011100223346009502F06AFC29
:1018800050B120680068C00544BF4FF40070206468
:10189000012003B0BDE8F0832069B0F5804F07D187
:1018A000FE2015E00829DFD0216B1229DCD0DFE70C
:1018B000062000EAD9102168F030086108F106011D
:1018C000204632462B4602F02BFD0028E0D1FF20B7
:1018D000216800EA090008612046414632462B464D
:1018E00002F01EFD0028D3D100200290206841693B
:1018F000029180690290029806E000BF20463146BE
:101900002A4602F0C9FB18BB208D68B32046314639
:101910002A4602F0B9FDD8B9606A2168024612F879
:10192000013B0B616262628D013A6285228D531E1A
:1019300023854F697F07E1D51B04DFD04378023050
:101940000B616062608D01386085901E2085D5E74F
:10195000206C04289CD12068016841F4007101606A
:10196000012003B0BDE8F0832068016841F40071F4
:101970000160202084F83D00002084F83E0084F8B7
:101980003C0003B0BDE8F08310B586B0006845F6B2
:101990000001C4F2000188424FF00001CDE90411BA
:1019A000CDE9021132D045F20041C4F20001884273
:1019B00050D141F21804C4F20204206802A940F098
:1019C00008002060206800F00800019001984FF4A2
:1019D00040700290122003900320059040F60040D2
:1019E000C4F20100FFF72AFB0420C4F201000168E1
:1019F00041F0E06141F002010160606840F40010D4
:101A00006060606800F4001022E000BF41F218043A
:101A1000C4F20204206802A940F008002060206897
:101A200000F00800019001984FF4406002901220ED
:101A300003900320059040F60040C4F20100FFF738
:101A4000FDFA606840F480006060606800F4800027
:101A50000190019806B010BD40F2080040F2EC4140
:101A6000C2F20000C2F2000100780A681044086067
:101A70007047000080B542F20000C4F20200016825
:101A800041F010010160032000F08CF80F2000F0FD
:101A900005F800F027F8002080BD000070B540F286
:101AA0000806C2F2000640F21C013278C2F20001C0
:101AB0004FF47A730968B3FBF2F20446B1FBF2F11A
:101AC000084600F081FD0F2C4FF0010508D838B909
:101AD0004FF0FF3021460022002500F037F87460F7
:101AE000284670BD82B041F21800C4F202000168BD
:101AF000022241F001010160016801F00101019140
:101B00000199416841F080514160406800F0805087
:101B1000009000980420C4F20100016862F31A6189
:101B2000016002B070470000002848BF704700F015
:101B30001F01012202FA01F11C2202EAD0004EF23A
:101B40000012CEF2000281507047000010B54EF630
:101B50000C5CCEF2000CDCF80030C3F3022E8EF0E9
:101B60000704042C28BF0424BEF103034FF0FF3EFA
:101B70000EFA04F438BF0023A14399400EFA03F390
:101B80009A43114300F00F0200F160430901043A47
:101B900003F564436244002848BF02F10C03197046
:101BA00010BD00004EF60C51CEF200010A684FF64F
:101BB000FF031A4060F30A2242F0806040F0FD709B
:101BC00008607047002804BF012070472DE9F043EA
:101BD00081B042F20008C4F202080446D8F80000BE
:101BE0000D4600F0070081420CD9D8F8000020F023
:101BF00007002843C8F80000D8F8000000F00700EC
:101C0000A8426CD1206841F204098107C4F202099C
:101C100017D5410705D5D9F8001041F4E061C9F89E
:101C20000010010705D5D9F8001041F46051C9F83A
:101C30000010D9F80010A26821F0F0011143C9F892
:101C40000010C00742D1D8F8000000F0070085421C
:101C50000CD2D8F8000020F007002843C8F8000094
:101C6000D8F8000000F00700A84238D120684107EA
:101C700007D5D9F80010E26821F4E0611143C9F8F2
:101C80000010000708D5D9F80000216920F4605041
:101C900040EAC100C9F80000D9F8002002F00C00A9
:101CA000082841F20020C0F27A004DD148F2426388
:101CB000C2F38341C0F60003595CD20338D440F626
:101CC0000010C0F23D0048433EE000BF606859F894
:101CD000041C022808D0012826D1890306D401203B
:101CE00001B0BDE8F08300BF8901F8D5D9F8001034
:101CF00021F003010843C9F80000FFF79FFA0646E8
:101D000041F28837D9F80000616800F00C00B0EBB0
:101D1000810F98D0FFF792FA801BB842F2D90320C6
:101D200001B0BDE8F08300BF8907D8D5DEE700BF6A
:101D3000D9F8002048F25003C2F34042C0F6000335
:101D40009A5C4843B0FBF2F0D9F8001048F2380230
:101D5000C1F30311C0F60002515C40F21C0220FAEC
:101D600001F140F20C00C2F200000068C2F2000271
:101D70001160FFF793FE002001B0BDE8F083000082
:101D800040F21C0041F20401C2F20000C4F2020160
:101D90000068096848F24802C1F30221C0F6000257
:101DA000515CC8407047000040F21C0041F2040141
:101DB000C2F20000C4F202010068096848F2480259
:101DC000C1F3C221C0F60002515CC8407047000058
:101DD000002804BF012070472DE9F04182B004467D
:101DE000007841F20006C007C4F202060CD0706809
:101DF00000F00C00042840F081803068800303D597
:101E00006068002800F04681207880071BD5706844
:101E100010F00C0F09D0706800F00C00082840F09A
:101E200087807068C00300F183803068800703D525
:101E30002069012840F02E813068616920F0F800A7
:101E400040EAC10030602078000713D420784007B2
:101E50002CD4E569002D00F01881706800F00C00AA
:101E6000082840F0A780012D40F00481012002B035
:101E7000BDE8F081A069002800F084800020C4F251
:101E800042200121C0F88014FFF7D8F9054600BFB1
:101E9000706A800700F1B280FFF7D0F9401B02287A
:101EA000F6D9032002B0BDE8F08100BFF0695FEA17
:101EB000C00808D4F06940F08050F061F06900F08B
:101EC00080500090009847F20007C4F2000738687D
:101ED000C00549D4386840F480703860FFF7AEF927
:101EE000054600BF3868C0053ED4FFF7A7F9401B80
:101EF0006428F7D9032002B0BDE8F081706800F0D3
:101F00000C00082803D17068C0033FF576AF616804
:101F10003068002900F00C81B1F5A02F00F000819D
:101F2000B1F5803F40F01A8140F480301CE100BFE1
:101F30002069002840F20000C4F2422000F08880AE
:101F400001210160FFF77AF9054600BF306880077C
:101F50003FF572AFFFF772F9401B0228F6D9032054
:101F600002B0BDE8F08100BFE168306A002900F0EE
:101F70009D80052900F09280012940F0AF8040F05B
:101F80000100B1E00020C4F242200021C0F880141A
:101F9000FFF754F9054600BF706A80077FF556AF1A
:101FA000FFF74CF9401B0228F6D9032002B0BDE828
:101FB000F08100BF0027C4F2422700203866FFF7F7
:101FC0003DF9022D05460DD13068800140F1DE80DB
:101FD000FFF734F9401B02284FF00300F4D902B098
:101FE000BDE8F081306880014FD5FFF727F9401B2D
:101FF00002284FF00300F5D9F1E700BF40F21C00C2
:10200000C2F20000006844F6D351C1F26201A0FBA5
:102010000101480A019000BF00BF0198411E00283D
:1020200001913FF413AF00BF0198411E00280191B8
:102030003FF40CAF00BF0198411E002801913FF40E
:1020400005AF00BF0198411E00280191E4D1FDE6D3
:1020500000210160FFF7F2F8054600BF30688007F5
:102060007FF5F1AEFFF7EAF8401B02284FF00300BE
:10207000F4D9B4E77068216A00F480328A4209D149
:10208000616A00F47010884204D1002002B0BDE8FB
:10209000F08100BF012002B0BDE8F08140F00400F3
:1020A0003062306A40F001001EE000BF20F0010005
:1020B0003062306A20F004003062FFF7BFF8054656
:1020C00041F28837306A800720D5FFF7B7F8401B08
:1020D000B8424FF00300F5D981E700BF20F00100BE
:1020E0003062306A20F004003062FFF7A7F805463E
:1020F00041F28837306A800708D4FFF79FF8401B09
:10210000B842F7D9032002B0BDE8F081B8F1000F62
:102110003FF59FAEF06920F08050F06199E600BF76
:1021200040F480203060306840F480301CE000BF14
:1021300020F480303060306820F480203060FFF779
:102140007DF80546306880037FF55EAEFFF776F8D0
:10215000401B64284FF00300F4D940E720F480309E
:102160003060306820F480203060FFF767F8054663
:10217000306880033FF548AEFFF760F8401B6428E5
:10218000F6D9032002B0BDE8F08100BF206AB0F5A7
:10219000803F05D17168A26821F40031114371605C
:1021A0007168626A21F47411114308437060012060
:1021B0003866FFF743F80446306880013FF565AFA5
:1021C000FFF73CF8001B02284FF00300F4D906E7A4
:1021D00070B528B1416A29B100210161142106E0DE
:1021E000012070BD4168B1F5827F02D01C21002220
:1021F00042500026866290F8511029B980F850604C
:10220000054600F039F82846022180F8511090E880
:102210002E0002F482720C6803F4044324F040049C
:102220000C601A4405F4006305691A4405F00203C2
:1022300045691A4405F001038569C4691A4405F427
:1022400000731A4404F03803046A1A4404F080034B
:10225000846A1A4304F400531A430A60042202EA0F
:1022600015424A60CA6922F40062CA6101214665CA
:1022700080F85110304670BD70B586B040F600044D
:10228000C4F20104006804F5205100268842059636
:10229000CDE90366029601D006B070BD41F2180088
:1022A000C4F20200016802AD41F48051016001688E
:1022B00001F4805101910199016841F0040101602C
:1022C0000068294600F0040001900198A0200290C7
:1022D00002200390032005902046FEF7AFFE402029
:1022E000CDE90206204629460496FEF7A7FE06B071
:1022F00070BD00002DE9F04381B0044690F8500015
:10230000012803D1022001B0BDE8F08301201E4660
:1023100015460F4684F85000FEF790FF94F85110D0
:10232000814601290CD1002F4FF0010018BF002D6C
:1023300014D1002184F8501001B0BDE8F08300BF33
:102340006068B0F5827F40F0998004294FF0020068
:10235000EFD1A1680029E6D0EBE700BF002EE8D05E
:1023600094F85100002104281CBF052084F8510076
:102370006165A563E687A6872763E6862068A6864B
:10238000216461640168490603D4016841F0400199
:1023900001606168731EE268B1FA81F1B3FA83F3F8
:1023A000DDF8208049095B09B2F5006F41EA0301BD
:1023B0006CD131B137F8021BC1602763E08E013860
:1023C000E086012518F1010031D101E0FEF736FF6A
:1023D000E08E18B9E08F002800F0C0802068816886
:1023E00089070CD5E18E51B1012D08D1216B002553
:1023F00031F8022BC2602163E18E0139E1868168E8
:10240000C907E3D0E18F0029E0D0C068A16B0125A6
:1024100021F8020BA163E08F0138E087D6E700BF07
:10242000FEF70CFFA0EB0900404580F0AB80E08E8A
:1024300018B9E08F002800F0918020688168890732
:102440000CD5E18E51B1012D08D1216B002531F859
:10245000022BC2602163E18E0139E1868168C907E0
:10246000DED0E18F0029DBD0C068A16B012521F807
:10247000020BA163E08F0138E087D1E70220002141
:1024800084F8501001B0BDE8F08300BF39B139784D
:102490000173206B01302063E08E0138E086012556
:1024A00018F1010032D101E0FEF7C8FEE08E10B94C
:1024B000E08F002852D02068816889070ED5E18E10
:1024C00061B1012D0AD1216B002509780173216BBF
:1024D000206801312163E18E0139E1868168C907F5
:1024E000E2D0E18F0029DFD0C068A16B0125087020
:1024F000A06B0130A063E08F0138E087D4E700BF14
:10250000FEF79CFEA0EB090040453BD2E08E08B9E7
:10251000E08F18B32068816889070ED5E18E61B11C
:10252000012D0AD1216B002509780173216B2068E8
:1025300001312163E18E0139E1868168C907DFD06D
:10254000E18F0029DCD0C068A16B01250870A06B69
:102550000130A063E08F0138E087D1E72046802179
:1025600042464B4603F046FEB0B1606D40F020009D
:102570006065202060650120002184F8501001B0C2
:10258000BDE8F083012084F851000320002184F885
:10259000501001B0BDE8F083A06838B90020009069
:1025A0002068C1680091806800900098606D0028E4
:1025B0004FF0010004BF84F851000020002184F88E
:1025C000501001B0BDE8F083411E0020B0EB116F48
:1025D0001CBF012070474EF21002CEF20002516083
:1025E0004EF62351CEF20001F0230B7007219060CC
:1025F00011607047704700007047000090F83C2061
:10260000012A04BF02207047B0B501F108053CCD96
:10261000D1E900CE23F47C5322F470521A432EF4F5
:10262000F0431A432CF4E0431A4324F4C0431A4302
:102630002A43C96922F48042036811435964002186
:1026400080F83C100020B0BD90F83C20012A4FF0EB
:10265000020242D010B580F83D200268D2F804E0B2
:10266000D2F808C00C682EF07003234340F6FF3404
:10267000C4F20004A242536010DCB2F1804F1FD0BC
:1026800040F20043C4F200039A4219D040F600031E
:10269000C4F200039A4213D017E000BF40F6004393
:1026A000C4F200039A420BD043F20043C4F2010388
:1026B0009A4205D042F60043C4F201039A4204D183
:1026C00049682CF08003194391600121002280F8B1
:1026D0003D1080F83C20BDE81040104670470000D7
:1026E000002804BF0120704710B590F83D1031B9A3
:1026F000002180F83C10044600F082F820460221B8
:1027000080F83D10016840F6FF320B68C4F2000209
:1027100040F6004E43F2004C9142C4F2000EC4F267
:10272000010C21DCB1F1804F28D040F20044C4F20A
:102730000004A14222D040F60004C4F20004A142E9
:102740001CD0914220DCB1F1804F27D040F20042F2
:10275000C4F20002914221D040F60002C4F200020D
:1027600091421BD01EE000BF714507D0614505D0E6
:1027700042F60044C4F20104A142E2D1846823F08D
:10278000700323439142DEDD714507D0614505D0DA
:1027900042F60042C4F20102914203D1026923F4DD
:1027A00040731343846923F08002D0F804E0C368C7
:1027B000224361450A60CB62C1F828E005D042F6A9
:1027C0000042C4F20102914201D142690A6301222E
:1027D0004A6180F8462080F83E2080F83F2080F84B
:1027E000402080F8412080F8422080F8432080F883
:1027F000442080F8452080F83D20002010BD0000D6
:1028000010B584B0006840F20041C4F20001884273
:102810003CD043F20041C4F2010188421ED042F68E
:102820000041C4F2010188421CBF04B010BD41F256
:102830001800C4F202000168002241F40061016046
:102840000068002100F40060039003981920FFF74E
:102850007DF91920FFF768F91A2425E041F21800E4
:10286000C4F202000168002241F4005101600068D6
:10287000002100F40050019001982C20FFF766F928
:102880002C20FFF751F92D240EE000BF41F2180073
:10289000C4F2020041681D2441F002014160406819
:1028A00000F0020002900298204600210022FFF76B
:1028B0004DF9204604B0BDE81040FFF735B90000DF
:1028C00090F83D1001291CBF01207047022180F8BB
:1028D0003D10006840F6FF32C168C4F20002904229
:1028E00041F00101C1600FDCB0F1804F1ED040F219
:1028F0000041C4F20001884218D040F60001C4F241
:102900000001884212D018E040F60041C4F20001F4
:1029100088420BD043F20041C4F20101884205D045
:1029200042F60041C4F20101884206D1816801F0FB
:102930000701062904BF00207047016841F001012A
:1029400001600020704700000146006841F2111349
:10295000026A1A4204D00122002081F83D2070470B
:10296000026A40F244431A42F5D1026822F00102A1
:1029700002600122002081F83D20704790F83C2041
:10298000012A4FF002026CD080B580F83D20D0F8CB
:1029900000C04FF67772DCF8083023EA0202CCF868
:1029A00008200B684F2B29DC1F2B45DD202B46D040
:1029B000302B44D0402B40F0AF80D1F804E0C96800
:1029C000DCF82030DCF8202022F00102CCF82020B6
:1029D000DCF8182022F0F00242EA011123F00A028A
:1029E00042EA0E02CCF81810CCF82020DCF80810CF
:1029F00041F0470121F0300128E000BF6F2B33DDAB
:102A0000B3F5005F74D0B3F5805F21D0702B40F038
:102A10008380D1E901E3C968DCF8082043EA0E03AA
:102A200022F47F4243EA01211143CCF80810DCF87C
:102A3000081041F0770109E00BB1102B6CD1DCF8E4
:102A4000081021F07001194341F00701CCF808107B
:102A50000022012180F83D10002180F83C10BDE8E3
:102A600080401046704700BF502B21D0602B53D1BF
:102A7000D1F804E0C968DCF82030DCF8202022F02E
:102A80001002CCF82020DCF8182022F4704242EA30
:102A9000013123F0A00242EA0E12CCF81810CCF853
:102AA0002020DCF8081041F0670121F01001CDE78B
:102AB000D1F804E0C968DCF82030DCF8202022F0EE
:102AC0000102CCF82020DCF8182022F0F00242EAC3
:102AD000011123F00A0242EA0E02CCF81810CCF8D9
:102AE0002020DCF8081041F0570121F02001ADE76B
:102AF000D1E901E3C968DCF8082043EA0E0322F4B7
:102B00007F4243EA01211143CCF80810DCF8081099
:102B100041F480419AE700BF01229AE7002804BFF0
:102B2000012070472DE9F04F81B090F83D2042B967
:102B3000002280F83C2004460D4600F0AFF82946FC
:102B40002046022280F83D20026844F2070593687F
:102B500040F6004EAB43936040F6FF331468C4F276
:102B6000000343F2004C9A42C4F2000EC4F2010C7E
:102B700020DCB2F1804F27D040F20045C4F20005BE
:102B8000AA4221D040F60005C4F20005AA421BD09B
:102B90009A421FDCB2F1804F26D040F20043C4F2CB
:102BA00000039A4220D040F60003C4F200039A4288
:102BB0001AD01EE0724507D0624505D042F60045A6
:102BC000C4F20105AA42E3D1856824F070042C43C5
:102BD0009A42DFDD724507D0624505D042F60043D8
:102BE000C4F201039A4204D1036924F4407543EA14
:102BF000050424F080038469D0F804E0C568234309
:102C000062451360D562C2F828E005D042F6004361
:102C1000C4F201039A4201D1436913634FF00109E1
:102C2000C2F814909568D2F818E0D2F820C0D1E923
:102C30000048D1E9027B44EA050A8D694FF6FF732B
:102C40002EEA030E47EA05274FF6FC45AF43D1E9CC
:102C500007544BEA0E030E693B4343EA05232CF06D
:102C60002207496943EA061347EA080743EA04339F
:102C700047EA0111C2F808A09361116280F84690FA
:102C800080F83E9080F83F9080F8429080F8439022
:102C900080F83D90002001B0BDE8F08F10B586B0FF
:102CA000006840F60001C4F2000188424FF00001C4
:102CB000CDE90411CDE9021120D0B0F1804F4BD104
:102CC00041F21800C4F2020041681C2441F00101E5
:102CD0004160416801F0010101910199016841F0F1
:102CE000040101600068032100F0040001900198D4
:102CF00040F60000C4F201001EE000BF41F21800DF
:102D0000C4F2020041681E2441F0040141604168A0
:102D100001F0040101910199016841F0080101608D
:102D20000068C02100F008000190019840F6000002
:102D3000C4F2010000F5806002910021039101219D
:102D4000049102A9FEF77AF9204600210022FEF73D
:102D5000FDFE2046FEF7E8FE06B010BD80B590F8F7
:102D60003E2090F83F3090F842E090F843C00429AC
:102D70000AD0B9B9012A4FF0010208BFBEF1010F14
:102D800034D0104680BD00BF012B4FF0010208BFB8
:102D9000BCF1010FF5D1022180F83F1080F84310FB
:102DA00000681EE0012A4FF0010208BF012BE8D1A4
:102DB000BEF1010FE5D1BCF1010FE2D1022280F892
:102DC0003E2080F83F2080F8422080F8432091B1D7
:102DD0000068016A21F001010162016A41F001010C
:102DE000016210216FF0100209E000BF022180F89B
:102DF0003E1080F84210006801216FF00102036A62
:102E00001A400262026A114301620168002241F025
:102E100001010160104680BD7047000010B50168D7
:102E200004460869800744BFC8685FEA807039D4E7
:102E30000869400744BFC8685FEA40703ED408692B
:102E4000000744BFC8685FEA007045D40869C0063F
:102E500044BFC8685FEAC0604AD40869C0071CBFA5
:102E6000C8685FEAC07051D10869000644BFC868ED
:102E70005FEA006052D40869400644BFC8685FEA50
:102E8000406053D40869800646BFC8685FEA806026
:102E900010BD6FF0200220460A61BDE81040FFF728
:102EA000ABBB00BF6FF0020008610120207788698A
:102EB000800743D02046FFF7AFFF45E06FF00400E6
:102EC000086102202077886910F4407F40D02046B6
:102ED000FFF7A2FF42E000BF6FF008000861042086
:102EE0002077C86980073DD02046FFF795FF3FE077
:102EF0006FF01000086108202077C86910F4407F47
:102F00003AD02046FFF788FF3CE000BF6FF0010099
:102F10000861204600F06EFA2168A5E76FF0800096
:102F200008612046FFF766FB2168A4E76FF04000C8
:102F30000861204600F0A4FA2168A3E7204600F0CB
:102F400025F8204600F0E4F92168002020776FE79B
:102F5000204600F01BF8204600F0DAF92168002036
:102F600020776CE7204600F011F8204600F0D0F9F9
:102F700021680020207769E7204600F007F8204606
:102F800000F0C6F921680020207766E7704700004E
:102F900090F83C30012B04BF022070474FEAB20288
:102FA000032A00F21D812DE9F041DFE802F003C79A
:102FB000479100BF036843F200461D6A1A6A25F074
:102FC000020522F001021A621A465C6852F818CF14
:102FD0008F68D1F800E0C4F20106B34245EA070564
:102FE00005D042F60047C4F20107BB4205D1CF68C5
:102FF00025F00C0527F004073D43B34205D042F607
:103000000046C4F20106B34205D1D1E9056724F4B4
:10301000407434433C432CF0730747EA0E075C606E
:103020009F614F6809695F631D629F6947F00807E8
:103030009F619F6927F004079F61C6E0036843F220
:1030400000461D6A1A6A25F4007522F480721A621D
:103050001A46D3F804C052F81CEF8F68D1F80080EC
:10306000C4F20106B34245EA072505D042F60047FF
:10307000C4F20107BB4208D1CF6840F2FF443F02CF
:1030800025F4406527EA04042543B34205D042F6FF
:103090000044C4F20104A34206D1D1E905462CF450
:1030A0004057264347EA061C2EF0730747EA0807F5
:1030B000C3F804C0DF614F680969DF631D62DF691F
:1030C00047F00807DF61DF6927F00407DF617CE074
:1030D000036843F20047D3F820C01A6AC4F201071C
:1030E00022F480521A621A465C6852F81C5FD1F8CA
:1030F00000E08E68BB4205D042F60047C4F20107EB
:10310000BB4204D14F6924F4804444EA87142CF470
:10311000005747EA063725F4E64646EA0E265C6085
:10312000DE614E6809691E641F62DF6947F400674B
:10313000DF61DF6927F48067DF6145E0036843F200
:1031400000481D6A1A6A25F0200522F010021A6252
:103150001A465C6852F818CF8F68D1F800E0C4F2C4
:103160000108434545EA071505D042F60047C4F279
:103170000107BB4207D1CF686FF0400625F0C005BC
:1031800006EA07163543434505D042F60046C4F229
:103190000106B34206D1D1E9056724F440643E43F9
:1031A00044EA86042CF4E64747EA0E275C609F61F8
:1031B0004F6809699F631D629F6947F400679F61BB
:1031C0009F6927F480679F610902136819431160A2
:1031D0000021BDE8F041002280F83C2008467047FD
:1031E0000121002280F83C2008467047002804BFD7
:1031F0000120704710B590F83D1031B9002180F8DA
:103200003C10044600F082F82046022180F83D1070
:10321000016840F6FF320B68C4F2000240F6004E2F
:1032200043F2004C9142C4F2000EC4F2010C21DCC6
:10323000B1F1804F28D040F20044C4F20004A14212
:1032400022D040F60004C4F20004A1421CD09142F6
:1032500020DCB1F1804F27D040F20042C4F20002DE
:10326000914221D040F60002C4F2000291421BD0EC
:103270001EE000BF714507D0614505D042F600440D
:10328000C4F20104A142E2D1846823F07003234315
:103290009142DEDD714507D0614505D042F600421E
:1032A000C4F20102914203D1026923F44073134333
:1032B000846923F08002D0F804E0C36822436145AA
:1032C0000A60CB62C1F828E005D042F60042C4F2A1
:1032D0000102914201D142690A6301224A6180F8E8
:1032E000462080F83E2080F83F2080F8402080F87B
:1032F000412080F8422080F8432080F8442080F864
:10330000452080F83D20002010BD000070470000DF
:1033100070470000C1B1042908D0082914BF412218
:103320004022825C012A05D016E000BF3F22825C69
:10333000012A11D10222082910D0042914BF80F8D3
:10334000412080F83F200BE090F83E20012A03D175
:10335000022280F83E2003E00120704780F84020E0
:10336000006801F01F010122036A02FA01F123EA59
:1033700001020262026A114340F6FF32C4F2000207
:10338000904201620EDCB0F1804F25D040F2004146
:10339000C4F2000188421FD040F60001C4F20001CF
:1033A00018E000BF40F60041C4F20001884213D08B
:1033B00043F20042C4F2010242F600419042C4F2DC
:1033C000010101D088420ED1436C904243F4004386
:1033D000436401D0884206D1816801F007010629C3
:1033E00004BF00207047016841F001010160002026
:1033F00070470000B0B540F26421C2F2000188427B
:1034000018BFB0BD40F22804C2F20004207814288E
:1034100004D00130C1B2142920702BD100252570B1
:1034200002F07CFEFDF7E7F940F2AC21C2F20001A8
:10343000096860604D6202F0ABFEFDF7DCF9024600
:1034400040F23C30C2F200000068A2604562616850
:1034500009A003F089FD02F0FDFFFDF7CCF9044659
:1034600003F058F8FDF7C7F901462046BDE8B04023
:1034700003F00EBCB0BD00BF25642C25640D0A000E
:103480007047000070B5006840F23406C2F20006D2
:1034900040687178307099B3C2B2B178FE2A3BD1DE
:1034A00003292AD1F07840B3B479F57902200121BB
:1034B0002246032301F0E4FDF279022005210323D3
:1034C00001F0DEFD327A02200A21032301F0D8FD4B
:1034D00040F24010C2F20000006905280DD148F208
:1034E0005260C0F6000021462A46002303F03CFD4E
:1034F00020462946002203F059F8002070701EE093
:10350000C0B2FC2814D0FD280ED0FF2804BF012033
:10351000A6F8010013E000BF022910D84A1C31446C
:10352000B27088710BE000BF0120F07007E000BFAF
:103530000020F07008A201200A2101F067FE40F28D
:10354000CC3040F23401C2F20000C2F2000101228C
:10355000BDE8704000F02ABC4F46460070470000AE
:1035600070470000B0B582B001680A68CC684B694A
:1035700002F02F05202D04F0200505D125B102B061
:10358000BDE8B04002F0DEBE5FEA027C1EBF03F081
:10359000010E04F4907313EB0E0341D1036BD506B7
:1035A00018D5012B16D114F0100313D0002201926C
:1035B0000A6801924A680192019A496949064BD406
:1035C000818DC28DC38D002B18BF914240F0F481D4
:1035D00002B0B0BD13062DD514F080032AD090F8A8
:1035E0004120212AF4D18268B2F5805F03D10269BB
:1035F000002A00F06782026A531C036212784A6054
:10360000C28C013A1304C284E2D1C86820F0800061
:10361000C860C86840F04000C86002B0B0BD00BFDC
:10362000D30718BF14F4807340F0D080530700F123
:10363000D380D8E05206CBD514F04002C8D0CA6877
:1036400022F04002CA60202180F8411002B0BDE89B
:10365000B04000F01DBD00BFC16B0A68526893B254
:10366000002BB5D0858DAB42B2D2C28589692029A5
:1036700000F0A180016851E8031F026821F4807105
:1036800042E80313DBB1016851E8031F026821F42B
:10369000807142E8031393B1016851E8031F026887
:1036A00021F4807142E803134BB1016851E8031F14
:1036B000026821F4807142E80313002BDAD101681B
:1036C00051E8051F026821F0010142E80513C3B368
:1036D000016851E8051F026821F0010142E8051365
:1036E0007BB3016851E8051F026821F0010142E83F
:1036F000051333B3016851E8051F026821F0010189
:1037000042E80513002BDAD11BE000BF016851E845
:10371000051F026821F0400142E80513DBB1016892
:1037200051E8051F026821F0400142E8051393B1FA
:10373000016851E8051F026821F0400142E80513C5
:103740004BB1016851E8051F026821F0400142E8D1
:103750000513002BDAD1202180F8421000210163EB
:10376000016851E8031F026821F0100142E80313C9
:10377000DBB1016851E8031F026821F0100142E843
:10378000031393B1016851E8031F026821F010018F
:1037900042E803134BB1016851E8031F026821F0AE
:1037A000100142E80313002BDAD1C16B044608462E
:1037B000FDF714FB204602214163818DC28D891AD9
:1037C00089B202B0BDE8B040FFF7C8BE436C43F019
:1037D00001034364530706D5BEF1000F03D0436CC9
:1037E00043F002034364930706D5BEF1000F03D0F4
:1037F000436C43F004034364BCF1000F06D55EEA5A
:10380000050303D0436C43F008034364436C002B6F
:103810003FF4DEAE920605D525B1044602F092FDD6
:10382000216820464969426C01F0400102F008021B
:10383000891800F0B98000BF016851E8031F0268D1
:1038400021F4907142E80313BBB3016851E8031FF0
:10385000026821F4907142E8031373B3016851E8E0
:10386000031F026821F4907142E803132BB301682F
:1038700051E8031F026821F4907142E80313002B02
:10388000DAD11AE0016851E8051F026821F0010150
:1038900042E80513DBB1016851E8051F026821F019
:1038A000010142E8051393B1016851E8051F026860
:1038B00021F0010142E805134BB1016851E8051FF1
:1038C000026821F0010142E80513002BDAD1016BF7
:1038D000012924D1016851E8031F026821F0100179
:1038E00042E80313DBB1016851E8031F026821F0CD
:1038F000100142E8031393B1016851E8031F026805
:1039000021F0100142E803134BB1016851E8031F95
:10391000026821F0100142E80313002BDAD12021C4
:1039200080F842100021016301684969490640F1AD
:10393000C380016851E8051F026821F0400142E898
:103940000513DBB1016851E8051F026821F0400151
:1039500042E8051393B1016851E8051F026821F0A0
:10396000400142E805134BB1016851E8051F0268A8
:1039700021F0400142E80513002BDAD1C16B002988
:1039800000F09A8046F23932C0F60002044608463A
:103990004A63FDF747FA00283FF41AAEE06B416B2B
:1039A00002B0BDE8B04008470446FFF7D9FD00204B
:1039B000606402B0B0BD00BF891A00BF026852E85F
:1039C000032F036822F4907243E80325BDB3026815
:1039D00052E8032F036822F4907243E8032575B37D
:1039E000026852E8032F036822F4907243E803252B
:1039F0002DB3026852E8032F036822F4907243E863
:103A00000325002DDAD11AE0026852E8052F036879
:103A100022F0010243E80525DDB1026852E8052FD6
:103A2000036822F0010243E8052595B1026852E8D7
:103A3000052F036822F0010243E805254DB1026815
:103A400052E8052F036822F0010243E80525002D06
:103A5000DAD1202280F8422000220263026852E874
:103A6000032F036822F0100243E80325DDB102684A
:103A700052E8032F036822F0100243E8032595B1B2
:103A8000026852E8032F036822F0100243E803257E
:103A90004DB1026852E8032F036822F0100243E898
:103AA0000325002DDAD1022289B2426302B0BDE8BB
:103AB000B040FFF753BD00BF02B0BDE8B040FFF714
:103AC0004FBD00BF026A32F8023B6FF35F234B60C9
:103AD000026295E5002804BF0120704710B5044636
:103AE00090F8410028B9002084F84000204600F0FA
:103AF00063F8242084F841002068D4E90212C368E6
:103B000023F40053C360036923F440531A43026152
:103B1000D4E904231143C268194341F20C639A4368
:103B20001143C1604169A26921F44071114343F618
:103B30000002C4F201029042416103D0FEF720F975
:103B400002E000BFFEF730F9D4E900231921484311
:103B50009900B0FBF1F048F21F5CC5F2EB1CA0FB32
:103B60000C314FF69C734909C0F6FF7301FB03004B
:103B7000322303EB0010A0FB0C03F02000EA5310EB
:103B800000EB0110C3F34311084490601069202139
:103B900020F490401061506920F02A005061D068F4
:103BA00040F40050D0600020606484F8411084F834
:103BB0004210606310BD0000B0B586B0006844F6E6
:103BC000FF71C4F2000188424FF00001CDE90411F9
:103BD000CDE9021138DC44F20041C4F20001884210
:103BE0007AD044F60041C4F20001884240F0DC8003
:103BF00041F21800C4F20200416802AD41F4002114
:103C00004160416801F4002101910199016841F08E
:103C1000100101600068294600F010000190019831
:103C20004FF480600290022003900320059040F63C
:103C30000000C4F2010000F500642046FDF7FEF923
:103C40004FF400606EE000BF45F20001C4F20001D5
:103C500088426FD043F60001C4F20101884240F06F
:103C6000A38041F21800C4F20200016840F600048B
:103C700041F4804101600168C4F2010401F4804113
:103C800001910199016802AD41F0040101600068F1
:103C9000294600F00400019001984FF40070029052
:103CA00002200390032005902046FDF7C7F94FF44A
:103CB000806002900020CDE9030020462946FDF7F0
:103CC000BDF9252000210022FDF740FF2520FDF74A
:103CD0002BFF06B0B0BD00BF41F21800C4F20200D5
:103CE000416840F6000441F4003141604168C4F28B
:103CF000010401F4003101910199016802AD41F024
:103D0000040101600068294600F004000190019858
:103D10000420029002200390032005902046FDF726
:103D20008DF9082002900020039004902046294637
:103D300038E000BF41F21800C4F20200416840F6CA
:103D4000000541F4801141604168C4F2010501F4AD
:103D5000801101910199016802AC41F010010160EC
:103D6000016801F0100101910199016841F0200101
:103D700001600068214600F02000019001984FF496
:103D800080500290022003900320059005F500600A
:103D9000FDF754F9042002900020CDE9030005F559
:103DA00040602146FDF74AF906B0B0BD90F84230B8
:103DB000202B07D100294FF0010318BF002A05D19D
:103DC0001846704702231846704700BF002303635C
:103DD000816222218285C285436480F84210016994
:103DE000006819B1C16841F48071C160416941F056
:103DF00001014161C16841F02001C160184670476E
:103E0000006843F60001C4F20101884218BF704700
:103E100040F2CC30C2F20000FFF734BB2DE9F04392
:103E200081B0044690F84100202809D18846002935
:103E30004FF0010018BF002A06D101B0BDE8F083A1
:103E4000022001B0BDE8F0830020606421201D46FF
:103E500084F841001646FDF7F1F9A684E684A168CE
:103E60000646B1F5805F03D12069002800F09480F8
:103E700047464FF00008E18C2068002900F092804E
:103E800005F101090BE000BF47B317F8011B4160C2
:103E9000E18C0139E184E18C002900F08380016824
:103EA0000906F1D4B9F1000F0AD0EDB1FDF7C6F95A
:103EB000801BA84218D8206801680906F6D5E3E7F8
:103EC00001680906E0D4016809065CBF01685FEA81
:103ED0000161D9D401680906F2D5D5E738F8021B8B
:103EE00000276FF35F21D2E7206850E8030F2168B5
:103EF00020F4D07041E80302BAB3206850E8030F01
:103F0000216820F4D07041E8030272B3206850E8C1
:103F1000030F216820F4D07041E803022AB320681F
:103F200050E8030F216820F4D07041E80302002A12
:103F3000DAD11AE0206850E8050F216820F001006E
:103F400041E80502DAB1206850E8050F216820F049
:103F5000010041E8050292B1206850E8050F216890
:103F600020F0010041E805024AB1206850E8050F41
:103F7000216820F0010041E80502002ADAD1202062
:103F800084F8410084F84200002084F840000320B7
:103F900001B0BDE8F08300BF0027E18C2068002954
:103FA0007FF46EAF016849060FD4F5B1691C17D1D3
:103FB0000168490609D4016849065CBF01685FEAE7
:103FC000416102D401684906F2D5202084F84100FD
:103FD000002001B0BDE8F083206800684006F4D4FA
:103FE000FDF72CF9801BA842F6D9206850E8030F92
:103FF000216820F4D07041E80302EAB3206850E859
:10400000030F216820F4D07041E80302A2B32068B6
:1040100050E8030F216820F4D07041E803025AB33E
:10402000206850E8030F216820F4D07041E80302B3
:10403000002ADAD120E000BF206850E8050F21688F
:1040400020F0010041E80502002A98D0206850E8DD
:10405000050F216820F0010041E80502002A3FF425
:104060008EAF206850E8050F216820F0010041E87C
:104070000502002A3FF483AF206850E8050F21684D
:1040800020F0010041E80502002AD5D177E70000C1
:1040900070470000FEE7000070B50368044653F85F
:1040A000140F400711D40E46481C29D086BB00BF10
:1040B0001868400527D4FDF7C1F8236853F8140F9A
:1040C000400737D518684007F2D5002070BD00BF03
:1040D00018684007F9D41868400514D418684007D8
:1040E000F3D4186840050ED418684007EDD418685A
:1040F000400508D4186840074FF0000048BF70BD65
:1041000018684005E4D56FF480601860042012E060
:10411000154603E053F8140F4007D6D4186840053D
:10412000F1D4FDF78BF8401B2368B042F2D95869EF
:104130004007EFD4202000212022216384F83D2075
:1041400084F83E10226C10432064012084F83C1057
:1041500070BD00002DE9F041054600681E4614467A
:1041600001F47F0201338FB242D0DDF81880B2F53E
:10417000803F40F0878040693840C01BB0FA80F033
:104180004009844240F0C8804EB924E0406938407C
:10419000C01BB0FA80F04009844240F0BD80FDF7BA
:1041A0004DF8A0EB08012868B142EFD941693940C8
:1041B000C91BB1FA81F149098C42E7D19BE000BFEC
:1041C00040693840C01BB0FA80F0400984424FF08B
:1041D000000040F0A280FDF731F8286841693940BD
:1041E000C91BB1FA81F149098C42E9D183E000BFD2
:1041F000B2F5803F24D100BF41693940C91BB1FAF3
:1042000081F149098C4240F0878041693940C91BDE
:10421000B1FA81F149098C4240F07E804169394010
:10422000C91BB1FA81F149098C4275D14169394004
:10423000C91BB1FA81F149098C42DDD06CE000BFA5
:1042400081693940C91BB1FA81F149098C4263D1B6
:1042500081693940C91BB1FA81F149098C425BD1AE
:1042600081693940C91BB1FA81F149098C4253D1A6
:1042700081693940C91BB1FA81F149098C42DFD00B
:104280004AE000BF80693840C01BB0FA80F04009A6
:10429000844241D146B923E080693840C01BB0FA5E
:1042A00080F04009844237D1FCF7C8FFA0EB080139
:1042B0002868B142F0D981693940C91BB1FA81F14E
:1042C00049098C42E8D116E080693840C01BB0FA39
:1042D00080F0400984424FF0000018BFBDE8F08133
:1042E000FCF7ACFF286881693940C91BB1FA81F13C
:1042F00049098C42E8D100202021286385F83D102F
:1043000085F83E00296C41F02001296485F83C00C5
:104310000120BDE8F08100BF0020BDE8F081000071
:10432000F0B581B0044600681D4643698FB203EAC8
:104330000701B94202D1002001B0F0BD4169164623
:1043400001323CD0490512D47EB300BFFCF776FFA2
:10435000411B2068B14203D941693940B9422BD190
:1043600041693940B942E6D041694905EED5016855
:1043700041F4007101606FF480614161042000210B
:104380002022216384F83D2084F83E10226C1043E3
:10439000206484F83C10012001B0F0BD416939402F
:1043A000B942C8D041694905E1D4FCF747FF20680C
:1043B00041693940B942F1D02020E0E7416949051F
:1043C000D5D441693940B942B5D041694905CED407
:1043D00041693940B942AED041694905C7D4416904
:1043E0003940B942A7D041694905C0D44169394033
:1043F000B942E3D19FE7000070B504460068154656
:1044000050F8143F5A063DD40E4629B926E000BFA5
:1044100050F8141F490635D40168C90621D4FCF7A9
:104420000DFF411B2068B142F2D941694906EFD422
:1044300000202021206384F83D1084F83E00206C89
:1044400040F0200018E000BFFCF7F8FE206850F8AC
:10445000141F4906ECD50168490613D40168C90642
:10446000F2D56FF01001016000202021206384F854
:104470003D1084F83E00206C2064002084F83C004D
:10448000012070BD002070BD70B50368044653F86C
:10449000140F000611D40E46481C29D086BB00BF5D
:1044A0001868400527D4FCF7C9FE236853F8140F99
:1044B000000637D518680006F2D5002070BD00BF91
:1044C00018680006F9D41868400514D41868000666
:1044D000F3D4186840050ED418680006EDD41868A7
:1044E000400508D4186800064FF0000048BF70BDB2
:1044F00018684005E4D56FF480601860042012E06D
:10450000154603E053F8140F0006D6D4186840058A
:10451000F1D4FCF793FE401B2368B042F2D95869EE
:104520000006EFD4202000212022216384F83D20C2
:1045300084F83E10226C10432064012084F83C1063
:1045400070BD00002DE9F04F85B04FF0000A41F238
:104550001800CDE903AACDE901AAC4F2020001685E
:1045600040F6000B41F0200101600168C4F2010B2C
:1045700001F02001009100990168002241F0100132
:10458000016001684FF4887801F0100100910099F2
:10459000016841F004010160016801F0040100912B
:1045A0000099016841F00801016000684FF48871CA
:1045B00000F00800009000985846FCF739FE0BF513
:1045C000806420464FF4704100224FF47049FCF79C
:1045D0002FFE0F2001900020C1F2110001AE0290C9
:1045E00001270BF5006031460397FCF727FD0225F4
:1045F00058463146CDE90187CDF80CA00495FCF76B
:104600001DFD20463146CDE90197CDE903A5FCF714
:1046100015FD05B0BDE8F08F80B540F2641045F29D
:104620000041C2F20000C4F2000148F2A06200237F
:104630004FF4804CC0F2010280E80E00C0E9033C58
:10464000C0E90533C0E90733FCF7FEFD002808BFC9
:1046500080BDBDE88040FCF72DBB000080B540F276
:10466000B81045F60001C2F20000C4F2000148F2A1
:10467000A06200234FF4804CC0F2010280E80E00DB
:10468000C0E9033CC0E90533C0E90733FCF7DCFDB2
:10469000002808BF80BDBDE88040FCF70BBB0000D0
:1046A00010B540F20C2043F20001C2F20000C4F247
:1046B00001014FF4827200234FF0020C4FF4007E90
:1046C000382480E80E0080210A22C0E9033CC0E9BA
:1046D000053EC461C0E90813C0E90A32FDF778FD60
:1046E000002808BF10BDBDE81040FCF7E3BA000089
:1046F00080B586B040F2642042F600420021C2F24A
:104700000000C4F2010247234FF47A7C0591CDE901
:104710000311CDE90011C0E90023C0E9021CC0E982
:1047200004118161FDF7DCFF002818BFFCF7C2FA15
:104730004FF48050029040F26420C2F2000002A9BF
:10474000FEF71CF9002818BFFCF7B4FA40F2642009
:10475000C2F200006946FDF777FF002818BFFCF79A
:10476000A9FA06B080BD000080B58CB040F2AC2044
:104770000021C2F200004FF080424FF6FF73C0E903
:1047800000210122CDE90011C0E90213016181611C
:10479000CDE90321CDE90521CDE90711CDE90921B5
:1047A0000B9103A9FEF7BAF9002818BFFCF782FAAB
:1047B00040F2AC20C2F200006946FDF745FF002838
:1047C00018BFFCF777FA0CB080BD0000B0B594B00C
:1047D00040F2F42040F200450021C2F20000C4F291
:1047E000000540F2CF224FF4FA630E91CDE90C118F
:1047F0000991CDE90711CDE90511CDE90311CDE905
:104800000111C0E90052C0E9021301618161FDF7A5
:1048100067FF002818BFFCF74DFA4FF480500B904B
:1048200040F2F420C2F200000BA9FEF7A7F800281E
:1048300018BFFCF73FFA40F2F420C2F20000FEF786
:10484000D5FC002818BFFCF735FA40F2F42000240C
:10485000C2F2000008A9CDE90844FDF7F5FE0028E2
:1048600018BFFCF727FA6020CDE9010440F2F420DC
:10487000C2F2000001A9002203940594FEF788FB10
:10488000002818BFFCF716FA40F2F420C2F200002C
:1048900001A90422FEF77CFB002818BFFCF70AFAE6
:1048A00040F2F420C2F2000001A90822FEF770FBDA
:1048B000002818BFFCF7FEF940F2F424C2F200040D
:1048C00001A920460C22FEF763FB002818BFFCF765
:1048D000F1F9206843F20041C4F2010188424FF02F
:1048E0000001CDE91211CDE910112BD0A84245D11C
:1048F00041F21800C4F20200016841F008010160B1
:10490000006810A900F008000F900F983320109055
:1049100002201190139040F60040C4F20100FCF711
:104920008DFB0420C4F2010001684FF2FF32CFF684
:10493000FF02114041F0E06141F40061016014B0F8
:10494000B0BD00BF41F21800C4F20200016841F09E
:1049500010010160006810A900F010000F900F987E
:104960004FF43070109002201190139040F60040E8
:10497000C4F2010000F58060FCF760FB14B0B0BD2C
:1049800080B58CB040F23C3040F600020021C2F20B
:104990000000C4F200024FF6FF73C0E900210122BB
:1049A000CDE90011C0E9021301618161CDE9032164
:1049B000CDE90521CDE90711CDE909210B9103A925
:1049C000FEF7ACF8002818BFFCF774F940F23C3051
:1049D000C2F200006946FDF737FE002818BFFCF759
:1049E00069F90CB080BD000070B59CB040F6004481
:1049F000C4F2010440F28430002104F52052C2F2D6
:104A0000000040F2CF2340F2E7361691CDE91411B1
:104A10001191CDE90F11CDE90D11CDE90B11CDE9C2
:104A20000911CDE90711CDE90511CDE90311CDE952
:104A30000111C0E90023C0E90216C0E90411816137
:104A4000FDF74EFE002818BFFCF734F94FF48050F4
:104A5000139040F28430C2F2000013A9FDF78EFFDC
:104A6000002818BFFCF726F940F28430C2F200009B
:104A7000FEF7BCFB002818BFFCF71CF940F284309D
:104A80000025C2F2000010A9CDE91055FDF7DCFDAC
:104A9000002818BFFCF70EF96020CDE9090540F2A7
:104AA0008430C2F2000009A90022CDE90B55CDE9FE
:104AB0000D550F95FEF76CFA002818BFFCF7FAF8B1
:104AC00040F28430C2F2000009A90422FEF760FA25
:104AD000002818BFFCF7EEF840F28430C2F2000064
:104AE00009A90C22FEF754FA002818BFFCF7E2F8D7
:104AF00040F284354FF40050C2F2000500260690C3
:104B000001A928460596CDE90366CDE90166089618
:104B1000FDF774FD002818BFFCF7CCF8286843F2B5
:104B20000041C4F2010188421B96CDE9196618962E
:104B30002CD040F20041C4F2000188423ED141F243
:104B40001800C4F20200016841F008010160006829
:104B500018A900F008001790179833201890022029
:104B600019901B902046FCF769FA0420C4F201005A
:104B700001684FF2FF32CFF6FF02114041F0E061D1
:104B800041F4006101601CB070BD00BF41F218002B
:104B9000C4F20200016841F010010160006818A928
:104BA00000F01000179017984FF430701890022002
:104BB00019901B9004F58060FCF740FA1CB070BDA2
:104BC00080B540F25C4044F60041C2F20000C4F2FD
:104BD000000100234FF00C0C4FF4E13280E80E008E
:104BE000C0E90333C0E905C3C361FEF773FF0028C2
:104BF00008BF80BDBDE88040FCF75CB880B540F2DE
:104C0000A44045F20001C2F20000C4F200010023FA
:104C10004FF00C0C4FF4E13280E80E00C0E9033392
:104C2000C0E905C3C361FEF755FF002808BF80BD7A
:104C3000BDE88040FCF73EB880B540F2CC3043F68A
:104C40000001C2F20000C4F2010100234FF00C0C7D
:104C50004FF4165280E80E00C0E90333C0E905C3E3
:104C6000C361FEF737FF002808BF80BDBDE8804064
:104C7000FCF720B880B540F2144044F20041C2F283
:104C80000000C4F2000100234FF00C0C4FF4E1329D
:104C900080E80E00C0E90333C0E905C3C361FEF735
:104CA00019FF002808BF80BDBDE88040FCF702B8AE
:104CB000FEE70000FEE7000070B540F60044002566
:104CC000C4F2010445F0B000C0B200F0B5FA102003
:104CD00000F0B2FA0020002600F0AEFA20464FF4B1
:104CE00000710122FCF7A4FA20464FF480710122E2
:104CF000FCF79EFA20464FF400710022FCF798FA68
:104D000020464FF480710022FCF792FA782000F0E0
:104D100023F8402000F020F8002000F01DF8204685
:104D20004FF400710022FCF783FA20464FF48071A3
:104D30000122FCF77DFA20464FF400710122FCF7B6
:104D400077FA701C46B2B6F1FF3FC7DCE8B2013516
:104D5000072828BF70BDB5E7B0B540F60044C4F2DF
:104D60000104054600F0800220464FF40071FCF774
:104D70005FFA20464FF480710122FCF759FA204671
:104D80004FF480710022FCF753FA05F040022046F0
:104D90004FF40071FCF74CFA20464FF48071012269
:104DA000FCF746FA20464FF480710022FCF740FAE7
:104DB00005F0200220464FF40071FCF739FA204636
:104DC0004FF480710122FCF733FA20464FF48071D2
:104DD0000022FCF72DFA05F0100220464FF4007176
:104DE000FCF726FA20464FF480710122FCF720FAE6
:104DF00020464FF480710022FCF71AFA05F00802F1
:104E000020464FF40071FCF713FA20464FF48071EE
:104E10000122FCF70DFA20464FF480710022FCF7C6
:104E200007FA05F0040220464FF40071FCF700FA7F
:104E300020464FF480710122FCF7FAF920464FF426
:104E400080710022FCF7F4F905F0020220464FF4CD
:104E50000071FCF7EDF920464FF480710122FCF758
:104E6000E7F920464FF480710022FCF7E1F905F0E4
:104E7000010220464FF40071FCF7DAF920464FF4A6
:104E800080710122FCF7D4F920464FF48071002292
:104E9000FCF7CEF920464FF400710122FCF7C8F967
:104EA00020464FF480710122FCF7C2F920464FF4EE
:104EB00080710022BDE8B040FCF7BAB910B584B0EB
:104EC00041F21800C4F20200016840F6004441F0CB
:104ED000080101600068C4F2010400F008000090BD
:104EE00000984FF440700090112001900020029033
:104EF0000320039069462046FCF7A0F820464FF4B3
:104F000080710122FCF794F920464FF400710122D0
:104F1000FCF78EF9AE2000F08FF9D52000F08CF967
:104F2000802000F089F9A82000F086F93F2000F0E9
:104F300083F9D32000F080F9002000F07DF94020B3
:104F400000F07AF9A12000F077F9C82000F074F998
:104F5000DA2000F071F9122000F06EF9812000F0E3
:104F60006BF9CF2000F068F9D92000F065F9F12045
:104F700000F062F9DB2000F05FF9302000F05CF90E
:104F8000A42000F059F9A62000F056F98D2000F079
:104F900053F9142000F050F9AF2000F04DF9FFF75D
:104FA0008BFE04B010BD00002DE9F04780467E2046
:104FB00000EB480017466FF0070240F0B00002EB2C
:104FC000C104C0B2E5B200F037F9280900F11009B8
:104FD000484600F031F904F0080A504600F02CF978
:104FE00048F25200C0F6000000EB07114FF60060D7
:104FF000CFF6FF70085CA1F5007600F059F97078E3
:10500000B778F478357900F053F9384600F050F964
:10501000204600F04DF9284600F04AF9707900F07A
:1050200047F9B07900F044F9F07900F041F94FF018
:10503000FF3000EB480040F0B000C0B200F0FCF8D8
:10504000484600F0F9F8504600F0F6F8307A00F0E3
:105050002FF9707A00F02CF9B07A00F029F9F07A83
:1050600000F026F9307B00F023F9707B00F020F986
:10507000B07B00F01DF9F07BBDE8F04700F018B9F7
:10508000002B08BF70472DE9F04F81B01C469146B8
:105090008A468346981E5D425E1E002742F21078C3
:1050A00000901BE00120B9FBF0F04CF6CD41CCF6AE
:1050B000CC41A0FB0112D20802EB8202A0EB42001D
:1050C0000AEB070140F03000C2B2C9B25846FFF700
:1050D0006BFF0137A742A6F1010629D087EA050038
:1050E0000130DFD00098C01B032801D2012007E067
:1050F00026F00301012000BF043900FB08F0FBD1BA
:10510000F943214411F00301CDD0012904D100EB72
:1051100080004000C7E700BF4FF47A724243022983
:105120004FF0640108BF00FB01F21046BBE700BF6F
:1051300001B0BDE8F04F70472DE9F04F81B01C463B
:1051400091460F46002A824604D42B22FFF72CFFFB
:105150003CB957E02D22FFF727FFC9F10009002CC9
:1051600050D007F1010BA01E6542661E002742F2D7
:10517000107800901CE000BF0120B9FBF0F04CF665
:10518000CD41CCF6CC41A0FB0112D20802EB820249
:10519000A0EB42000BEB070140F03000C2B2C9B2F5
:1051A0005046FFF701FF0137A742A6F1010629D0BB
:1051B00087EA05000130DFD00098C01B032801D228
:1051C000012007E026F00301012000BF043900FBA5
:1051D00008F0FBD1F943214411F00301CDD001299E
:1051E00004D100EB80004000C7E700BF4FF47A72A3
:1051F000424302294FF0640108BF00FB01F2104650
:10520000BBE700BF01B0BDE8F08F0000F0B581B092
:10521000144612786AB10D46064600277819C1B2C5
:10522000D2B23046FFF7C0FE0137F8B2225C002A46
:10523000F4D101B0F0BD0000B0B540F60044C4F2B6
:105240000104054620464FF400710122FBF7F0FFF0
:1052500020464FF480710122FBF7EAFF20464FF40D
:1052600000710022FBF7E4FF20464FF4807100221A
:10527000FBF7DEFF7820FFF76FFD0020FFF76CFDE6
:105280002846FFF769FD20464FF400710022FBF726
:10529000CFFF20464FF480710122FBF7C9FF204663
:1052A0004FF400710122BDE8B040FBF7C1BF000020
:1052B000B0B540F60044C4F20104054620464FF460
:1052C00000710122FBF7B4FF20464FF480710122E8
:1052D000FBF7AEFF20464FF400710022FBF7A8FF5A
:1052E00020464FF480710022FBF7A2FF7820FFF7E1
:1052F00033FD4020FFF730FD2846FFF72DFD204607
:105300004FF400710022FBF793FF20464FF48071A9
:105310000122FBF78DFF20464FF400710122BDE80A
:10532000B040FBF785BF00002DE9F04184B0044692
:105330000846FBF753FA49F69A1249F69913C9F64B
:105340009912C4F20103FBF724F94CF20003C4F2F2
:10535000630300224FF00008FBF774F8FBF783FAB1
:105360000546062040F2B81600EB8400C2F20006A3
:105370008DF8080042F2107702AA304680210223FD
:105380008DF809800097FCF711FA072000EB8400E4
:105390008DF80A000DF10A023046802102238DF8B3
:1053A0000B800097FCF702FA082000EB84008DF8D0
:1053B0000C0003AA3046802102238DF80D5000977F
:1053C000FCF7F4F9092000EB8400290A8DF80E009F
:1053D0008DF80F100DF10E02304680210223009748
:1053E000FCF7E4F904B0BDE8F08100002DE9F041DC
:1053F00082B040F2B814C2F200040D4606464FF0E7
:10540000000842F210770DF10602204680210223A7
:10541000ADF806800097FCF7C9F9304601F09AFC18
:105420002846FBF7DBF943F23333C4F203034FF0B2
:105430003332FBF7AEF842F20003C4F262030022FB
:10544000FBF700F8FBF70FFA05460620ADF806005B
:105450000DF106022046802102230097FCF7A6F9F1
:105460000720ADF806000DF1060220468021022338
:105470000097FCF79BF946F60810ADF806000DF111
:1054800006022046802102230097FCF78FF940F2A4
:105490000910ADF806000DF1060220468021022316
:1054A0000097FCF783F90A20ADF806000DF106021B
:1054B0002046802102230097FCF778F90B20ADF8F5
:1054C00006000DF106022046802102230097FCF71A
:1054D0006DF946F60C10ADF806000DF106022046F7
:1054E000802102230097FCF761F940F20D10ADF81E
:1054F00006000DF106022046802102230097FCF7EA
:1055000055F90E20ADF806000DF106022046802167
:1055100002230097FCF74AF90F20ADF806000DF1C1
:1055200006022046802102230097FCF73FF946F649
:105530001010ADF806000DF106022046802102236E
:105540000097FCF733F940F21110ADF806000DF1A9
:1055500006022046802102230097FCF727F912203B
:10556000ADF806000DF106022046802102230097C7
:10557000FCF71CF91320ADF806000DF106022046D9
:10558000802102230097FCF711F914208DF8060002
:105590000DF106022046802102238DF80750009766
:1055A000FCF704F915202E0A8DF806000DF106020D
:1055B0002046802102238DF807600097FCF7F6F85B
:1055C0001620ADF806000DF10602204680210223C8
:1055D0000097FCF7EBF81720ADF806000DF1060276
:1055E0002046802102230097FCF7E0F818208DF870
:1055F00006000DF106022046802102238DF8075097
:105600000097FCF7D3F819208DF806000DF106027B
:105610002046802102238DF807600097FCF7C6F82A
:105620001A20ADF806000DF1060220468021022363
:105630000097FCF7BBF81B20ADF806000DF1060241
:105640002046802102230097FCF7B0F81C208DF83B
:1056500006000DF106022046802102238DF8075036
:105660000097FCF7A3F81D208DF806000DF1060247
:105670002046802102238DF807600097FCF796F8FA
:105680001E20ADF806000DF10602204680210223FF
:105690000097FCF78BF81F20ADF806000DF106020D
:1056A0002046802102230097FCF780F820208DF807
:1056B00006000DF106022046802102238DF80750D6
:1056C0000097FCF773F821208DF806000DF1060213
:1056D0002046802102238DF807600097FCF766F8CA
:1056E0002220ADF806000DF106022046802102239B
:1056F0000097FCF75BF82320ADF806000DF10602D9
:105700002046802102230097FCF750F824208DF8D2
:1057100006000DF106022046802102238DF8075075
:105720000097FCF743F825208DF806000DF10602DE
:105730002046802102238DF807600097FCF736F899
:105740002620ADF806000DF1060220468021022336
:105750000097FCF72BF82720ADF806000DF10602A4
:105760002046802102230097FCF720F828208DF89E
:1057700006000DF106022046802102238DF8075015
:105780000097FCF713F829208DF806000DF10602AA
:105790002046802102238DF807600097FCF706F869
:1057A0002A20ADF806000DF10602204680210223D2
:1057B0000097FBF7FBFF2B20ADF806000DF106026A
:1057C0002046802102230097FBF7F0FF2C208DF864
:1057D00006000DF106022046802102238DF80750B5
:1057E0000097FBF7E3FF2D208DF806000DF1060270
:1057F0002046802102238DF807600097FBF7D6FF33
:105800002E20ADF806000DF106022046802102236D
:105810000097FBF7CBFF2F20ADF806000DF1060235
:105820002046802102230097FBF7C0FF30208DF82F
:1058300006000DF106022046802102238DF8075054
:105840000097FBF7B3FF31208DF806000DF106023B
:105850002046802102238DF807600097FBF7A6FF02
:105860003220ADF806000DF1060220468021022309
:105870000097FBF79BFF3320ADF806000DF1060201
:105880002046802102230097FBF790FF34208DF8FB
:1058900006000DF106022046802102238DF80750F4
:1058A0000097FBF783FF35208DF806000DF1060207
:1058B0002046802102238DF807600097FBF776FFD2
:1058C0003620ADF806000DF10602204680210223A5
:1058D0000097FBF76BFF3720ADF806000DF10602CD
:1058E0002046802102230097FBF760FF38208DF8C7
:1058F00006000DF106022046802102238DF8075094
:105900000097FBF753FF39208DF806000DF10602D2
:105910002046802102238DF807600097FBF746FFA1
:105920003A20ADF806000DF1060220468021022340
:105930000097FBF73BFF3B20ADF806000DF1060298
:105940002046802102230097FBF730FF3C208DF892
:1059500006000DF106022046802102238DF8075033
:105960000097FBF723FF3D208DF806000DF106029E
:105970002046802102238DF807600097FBF716FF71
:105980003E208DF806000DF10602204680210223FC
:105990008DF807800097FBF709FF3F208DF8060080
:1059A0000DF106022046802102238DF80780009722
:1059B000FBF7FCFE40208DF806000DF106022046A4
:1059C000802102238DF807500097FBF7EFFE41205E
:1059D0008DF806000DF106022046802102238DF885
:1059E00007600097FBF7E2FE42208DF806000DF1FC
:1059F00006022046802102238DF807800097FBF7DE
:105A0000D5FE43208DF806000DF1060220468021C8
:105A100002238DF807800097FBF7C8FE44208DF81D
:105A200006000DF106022046802102238DF8075062
:105A30000097FBF7BBFE45208DF806000DF106022E
:105A40002046802102238DF807600097FBF7AEFE09
:105A50004FF4FA70FBF77EFA02B0BDE8F081000067
:105A600040F2BC000021C2F20000C4F2201100226A
:105A7000C0E904128261C0E90A12026370470000A3
:105A80002DE9F04F81B0FBF71BF940F21008C2F28C
:105A90000008B8F8060040F21419B8F80810C2F26D
:105AA0000009B8F80220B8F80430A0F5FA7009F13E
:105AB0001C0C48F2856448F27D66A1F5FA71A2F5E6
:105AC000FA72A3F5FA738CE80F004FF0000AC0F6E3
:105AD0000004C0F6000641A73FA54FF0070B0020C9
