:020000040800F2
:1000000078060020B5010008F911000871110008F8
:10001000F5110008BD020008791300080000000077
:10002000000000000000000000000000A91200080D
:10003000C102000800000000691200080113000856
:10004000CF010008CF010008CF010008CF01000850
:10005000CF010008CF010008CF010008CF01000840
:10006000CF010008CF010008CF010008CF01000830
:10007000CF010008CF010008CF010008CF01000820
:10008000CF010008CF010008CF010008CF01000810
:10009000CF010008CF010008CF010008CF01000800
:1000A000CF010008CF010008CF010008CF010008F0
:1000B000CF010008CF010008CF010008CF010008E0
:1000C000CF010008CF010008CF010008CF010008D0
:1000D000CF010008CF010008CF010008CF010008C0
:1000E000CF010008CF010008CF01000800F002F89E
:1000F00000F050F814A696E8000CB244B344DA4578
:1001000001D100F047F8BAE80F000FA696E83000DA
:10011000A5EB040504EB0607AAEB0704A7F101070A
:100120004FEA15154FEA3414A4F10104AC4201D38F
:1001300000F030F813F0010F18BFFB1A43F0010371
:1001400000F001F8DBE718473013000050130000FF
:10015000103A24BF78C878C1FAD8520724BF30C8F3
:1001600030C144BF04680C60704700007047000055
:100170000023002400250026103A28BF78C1FBD8B0
:10018000520728BF30C148BF0B6070471FB51FBD65
:1001900010B510BD00F058F81146FFF7F7FF01F059
:1001A00035F900F076F803B4FFF7F2FF03BC00F076
:1001B0007DF800000948804709480047FEE7FEE750
:1001C000FEE7FEE7FEE7FEE7FEE7FEE7FEE7FEE707
:1001D00004480549054A064B70470000751300089E
:1001E000ED0000087800002078060020780200204A
:1001F000780200204FF0000200B513469446964660
:10020000203922BFA0E80C50A0E80C50B1F1200129
:10021000BFF4F7AF090728BFA0E80C5048BF0CC0D7
:100220005DF804EB890028BF40F8042B08BF704735
:1002300048BF20F8022B11F0804F18BF00F8012BA7
:100240007047704770477047754600F02BF8AE4610
:1002500005006946534620F00700854618B020B5D2
:10026000FFF7B6FFBDE820404FF000064FF0000753
:100270004FF000084FF0000BAC46ACE8C009ACE80A
:10028000C009ACE8C009ACE8C00921F007018D46FF
:10029000704710B50446AFF300802046BDE810401B
:1002A000FFF781BF00487047100000200149182067
:1002B000ABBEFEE72600020070470000FFE7FEE746
:1002C0007047000081B0EFF3108072B60090FFE736
:1002D000FEE7000080B584B0039000F0C5F90290FD
:1002E000039801900198013048B1FFE740F2040003
:1002F000C2F200000178019808440190FFE7FFE78F
:1003000000F0B2F90299401A0199884201D2FFE740
:10031000F6E704B080BD000090B00F900E91002071
:100320000D900990FFE70E9800680D99C8400028CD
:1003300000F07F81FFE70D99012088400C900E9816
:1003400000680C9908400B900B980C99884240F07B
:100350006C81FFE70E9840680590002851D0FFE7B8
:10036000059801283AD0FFE7059802283FD0FFE71B
:10037000059803285FD0FFE70598112832D0FFE7E2
:100380000598122838D0FFE705980021C1F2110125
:10039000884236D0FFE705980021C1F21201884259
:1003A0002FD0FFE705980021C1F22101884228D013
:1003B000FFE705980021C1F22201884221D0FFE722
:1003C00005980021C1F2310188421AD0FFE7059853
:1003D0000021C1F23201884213D02FE00E98C0688C
:1003E00009902CE00E98C0680430099027E00E9820
:1003F000C0680830099022E00E98C0680C3009905F
:100400001DE00E98806818B9FFE70420099011E0FC
:100410000E988068012806D1FFE7082009900C9803
:100420000F99086105E0082009900C980F99486120
:10043000FFE7FFE703E00020099000E0FFE70B98EB
:10044000FF2803D8FFE70F98049003E00F980430CB
:100450000490FFE7049808900B98FF2804D8FFE762
:100460000D988000039006E00D996FF01F0000EBDF
:1004700081000390FFE70398079008980068079AA7
:100480000F219140884309999140084308990860D9
:100490000E98C079C006002840F1C680FFE7FFE74C
:1004A00041F21800C4F20200016841F0010101604C
:1004B000006800F0010006900698FFE70D9820F014
:1004C00003000821C4F2010140580A900D9800F081
:1004D000030081000F2000FA01F10A9888430A9076
:1004E0000F9840F60001C4F20101884203D1FFE7F2
:1004F0000020029026E00F9840F60041C4F201016E
:10050000884203D1FFE70120019018E00F9841F2E3
:100510000001C4F20101884203D1FFE702200090EC
:100520000AE00F9941F20042C4F201020420914214
:1005300008BF03200090FFE700980190FFE70198B3
:100540000290FFE702980D9901F00301890000FA7B
:1005500001F10A9808430A900A980D9921F00301C5
:100560000822C4F2010288500E988079C006002843
:1005700009D5FFE70B9A40F20841C4F2010108686F
:100580001043086008E00B9A40F20841C4F20101F0
:10059000086890430860FFE70E988079800600287D
:1005A00009D5FFE70B9A40F20C41C4F2010108683B
:1005B0001043086008E00B9A40F20C41C4F20101BC
:1005C000086890430860FFE70E988079800700284C
:1005D00009D5FFE70B9A40F20441C4F20101086813
:1005E0001043086008E00B9A40F20441C4F2010194
:1005F000086890430860FFE70E988079C00748B10B
:10060000FFE70B9A40F20041C4F201010868104371
:10061000086008E00B9A40F20041C4F2010108684A
:1006200090430860FFE7FFE7FFE70D9801300D906A
:1006300079E610B07047000082B00190ADF802106A
:100640008DF801209DF8010028B1FFE7BDF80200F8
:100650000199086105E0BDF80200000401990861F4
:10066000FFE702B07047000040F27000C2F20000E5
:100670000068704740F20400C2F20000027840F2C5
:100680007001C2F200010868104408607047000061
:1006900080B542F20001C4F20201086840F0100087
:1006A0000860032000F08CF80F2000F005F800F03F
:1006B0003BF8002080BD000080B582B0009040F281
:1006C0000000C2F20000006840F20401C2F2000122
:1006D0000A784FF47A71B1FBF2F1B0FBF1F000F05F
:1006E0003FFD20B1FFE701208DF8070018E00098DA
:1006F0000F280DD8FFE700994FF0FF30002200F0DF
:1007000045F8009840F20801C2F20001086003E0D9
:1007100001208DF8070003E000208DF80700FFE7B7
:100720009DF8070002B080BD83B0FFE741F21800DA
:10073000C4F20200016841F001010160006800F0AC
:10074000010002900298FFE7FFE741F21C00C4F2AB
:100750000200016841F080510160006800F08050A3
:1007600001900198FFE7FFE70421C4F20101086846
:100770000090009820F0E0600090009840F0007039
:10078000009000980860FFE703B0704780B586B01E
:100790008DF81700049103920020029000F0EEFD06
:1007A00002909DF91700019002980499039A00F0B5
:1007B00025FD0146019800F0E9FD06B080BD00006E
:1007C00080B582B00190019800F002FE02B080BDB9
:1007D00080B584B002900191029820B9FFE7012012
:1007E0008DF80F001BE1019842F20001C4F20201F2
:1007F000096801F00701884216D9FFE742F20000BC
:10080000C4F20200016821F00701019A114301605E
:10081000006800F007000199884204D0FFE701203A
:100820008DF80F00FBE0FFE70298007880070028B2
:100830002AD5FFE7029800784007002809D5FFE78E
:1008400041F20401C4F20201086840F4E06008606B
:10085000FFE7029800780007002809D5FFE741F27A
:100860000401C4F20201086840F460500860FFE728
:1008700041F20401C4F20201086820F0F000029A7B
:10088000926810430860FFE702980078C0070028CC
:1008900060D0FFE70298406801280ED1FFE741F2DF
:1008A0000000C4F2020000688003002804D4FFE7BF
:1008B00001208DF80F00B2E021E002984068022884
:1008C0000ED1FFE741F20000C4F20200006880018F
:1008D000002804D4FFE701208DF80F009FE00DE011
:1008E00041F20000C4F2020000688007002804D42E
:1008F000FFE701208DF80F0091E0FFE7FFE741F2ED
:100900000401C4F20201086820F00300029A526850
:1009100010430860FFF7A8FE0090FFE741F20400D3
:10092000C4F20200006800F00C0002994968B0EBC4
:10093000810F0ED0FFE7FFF797FE0099401A41F2B2
:100940008931884204D3FFE703208DF80F0066E069
:10095000E4E7FFE7019842F20001C4F202010968EE
:1009600001F00701884216D2FFE742F20000C4F20C
:100970000200016821F00701019A1143016000683B
:1009800000F007000199884204D0FFE701208DF8AC
:100990000F0044E0FFE702980078400700280CD5DC
:1009A000FFE741F20401C4F20201086820F4E060AC
:1009B000029AD26810430860FFE7029800780007A7
:1009C00000280DD5FFE741F20401C4F202010868D6
:1009D00020F46050029A126940EAC2000860FFE702
:1009E00000F022F841F20401C4F202010968C9B220
:1009F0000A0941F25441C0F60001895CC84040F246
:100A00000001C2F20001086040F20800C2F20000DA
:100A10000068FFF751FE00208DF80F00FFE79DF8FA
:100A20000F0004B080BD000086B000200590049047
:100A300003900290019041F20400C4F202000068A9
:100A40000590059800F00C000146009100283FD069
:100A5000FFE70098042804D0FFE70098082806D094
:100A600037E041F20020C0F27A00019037E00598AB
:100A7000C0F3834141F26440C0F60000405C029044
:100A80009DF81600C007C0B1FFE741F20400C4F2B0
:100A900002000068C0F3404141F27440C0F600001B
:100AA000405C0490029841F20021C0F27A01484370
:100AB0000499B0FBF1F0039007E0029840F60011B2
:100AC000C0F23D0148430390FFE70398019006E020
:100AD000FFE741F20020C0F27A000190FFE70198A1
:100AE00006B0704780B586B00490049820B9FFE73F
:100AF00001208DF817002EE304980078C007002825
:100B000000F0AE80FFE741F20400C4F2020000688A
:100B100000F00C00042813D0FFE741F20400C4F2F7
:100B20000200006800F00C0008281BD1FFE741F22A
:100B30000400C4F202000068C003002812D5FFE7D9
:100B400041F20000C4F2020000688003002808D5CA
:100B5000FFE70498406820B9FFE701208DF81700EF
:100B6000F9E27CE0FFE704984068B0F5803F09D1E6
:100B7000FFE741F20001C4F20201086840F480304E
:100B8000086032E00498406868B9FFE741F200016C
:100B9000C4F20201086820F480300860086820F47C
:100BA0008020086020E004984068B0F5A02F0DD1A7
:100BB000FFE741F20001C4F20201086840F480201E
:100BC0000860086840F4803008600CE041F20001E1
:100BD000C4F20201086820F480300860086820F43C
:100BE00080200860FFE7FFE7FFE7FFE70498406821
:100BF000D0B1FFE7FFF738FD0390FFE741F20000B7
:100C0000C4F202000068800300280CD4FFE7FFF75D
:100C10002BFD0399401A652804D3FFE703208DF8C4
:100C2000170098E2EAE719E0FFF71EFD0390FFE7DF
:100C300041F20000C4F202000068800300280CD5D5
:100C4000FFE7FFF711FD0399401A652804D3FFE77A
:100C500003208DF817007EE2EAE7FFE7FFE7FFE7F2
:100C6000049800788007002840F18D80FFE741F26A
:100C70000400C4F20200006810F00C0F13D0FFE76C
:100C800041F20400C4F20200006800F00C000828E1
:100C900029D1FFE741F20400C4F202000068C0035A
:100CA000002820D4FFE741F20000C4F202000068EF
:100CB0008007002809D5FFE704980069012804D0BF
:100CC000FFE701208DF8170045E241F20001C4F270
:100CD0000201086820F0F800049A526940EAC20054
:100CE0000860FFE74EE00498006958B3FFE7002171
:100CF000C4F2422101200860FFF7B6FC0390FFE731
:100D000041F20000C4F202000068800700280CD401
:100D1000FFE7FFF7A9FC0399401A032804D3FFE774
:100D200003208DF8170016E2EAE741F20001C4F251
:100D30000201086820F0F800049A526940EAC200F3
:100D400008601EE00021C4F2422100200860FFF785
:100D50008BFC0390FFE741F20000C4F20200006840
:100D6000800700280CD5FFE7FFF77EFC0399401AA7
:100D7000032804D3FFE703208DF81700EBE1EAE72F
:100D8000FFE7FFE7FFE7049800780007002848D551
:100D9000FFE70498806918B3FFE740F28041C4F28E
:100DA000422101200860FFF75FFC0390FFE741F25A
:100DB0002400C4F202000068800700280CD4FFE77A
:100DC000FFF752FC0399401A032804D3FFE70320DE
:100DD0008DF81700BFE1EAE7012000F047FA1FE0B5
:100DE00040F28041C4F2422100200860FFF73CFC41
:100DF0000390FFE741F22400C4F20200006880077C
:100E000000280CD5FFE7FFF72FFC0399401A0328B1
:100E100004D3FFE703208DF817009CE1EAE7FFE722
:100E2000FFE7049800784007002840F1D880FFE7EA
:100E300000208DF8070041F21C00C4F20200006897
:100E4000C000002813D4FFE7FFE741F21C00C4F202
:100E50000200016841F080510160006800F080509C
:100E600000900098FFE701208DF80700FFE747F2A8
:100E70000000C4F200000068C005002822D4FFE78B
:100E800047F20001C4F20001086840F48070086075
:100E9000FFF7EAFB0390FFE747F20000C4F200000F
:100EA0000068C00500280CD4FFE7FFF7DDFB0399BD
:100EB000401A652804D3FFE703208DF817004AE1A4
:100EC000EAE7FFE7FFE70498C068012809D1FFE7D8
:100ED00041F22001C4F20201086840F001000860FC
:100EE00031E00498C06868B9FFE741F22001C4F21C
:100EF0000201086820F001000860086820F0040082
:100F000008601FE00498C06805280DD1FFE741F292
:100F10002001C4F20201086840F00400086008687B
:100F200040F0010008600CE041F22001C4F202012F
:100F3000086820F001000860086820F004000860DC
:100F4000FFE7FFE7FFE7FFE70498C068E0B1FFE7CE
:100F5000FFF78AFB0390FFE741F22000C4F2020092
:100F60000068800700280ED4FFE7FFF77DFB039998
:100F7000401A41F28931884204D3FFE703208DF8FB
:100F80001700E8E0E8E71BE0FFF76EFB0390FFE7E0
:100F900041F22000C4F202000068800700280ED54C
:100FA000FFE7FFF761FB0399401A41F2893188425C
:100FB00004D3FFE703208DF81700CCE0E8E7FFE754
:100FC0009DF80700012809D1FFE741F21C01C4F296
:100FD0000201086820F080500860FFE7FFE70498EE
:100FE000C069002800F0B380FFE741F20400C4F2BA
:100FF0000200006800F00C00082800F08280FFE783
:101000000498C06902285CD1FFE76021C4F2422144
:1010100000200860FFF728FB0390FFE741F2000083
:10102000C4F202000068800100280CD5FFE7FFF73A
:101030001BFB0399401A032804D3FFE703208DF814
:10104000170088E0EAE70498006AB0F5803F0CD109
:10105000FFE741F20401C4F20201086820F4003005
:10106000049A926810430860FFE741F20401C4F259
:101070000201086820F47410049B1A6A5B6A1A4320
:10108000104308606021C4F2422101200860FFF78C
:10109000EBFA0390FFE741F20000C4F2020000689F
:1010A000800100280CD4FFE7FFF7DEFA0399401A0D
:1010B000032804D3FFE703208DF817004BE0EAE78D
:1010C0001EE06021C4F2422100200860FFF7CCFA44
:1010D0000390FFE741F20000C4F2020000688001C3
:1010E00000280CD5FFE7FFF7BFFA0399401A032841
:1010F00004D3FFE703208DF817002CE0EAE7FFE7B1
:1011000024E00498C069012804D1FFE701208DF88C
:10111000170020E041F20400C4F2020000680290CF
:10112000029800F480300499096A884208D1FFE7E8
:10113000029800F470100499496A884204D0FFE7CD
:1011400001208DF8170006E0FFE7FFE7FFE700202A
:101150008DF81700FFE79DF8170006B080BD00006E
:1011600080B582B00190019800F0A0F802B080BD77
:10117000FFE7FEE780B58AB000200990089007904D
:101180000690FFE741F21800C4F20200016841F046
:1011900020010160006800F0200005900598FFE73D
:1011A000FFE741F21800C4F20200016841F01001AB
:1011B0000160006800F0100004900498FFE741F21D
:1011C0000000C4F2010003904FF40051019100228D
:1011D0000292FFF731FA019A0299039806920122CE
:1011E000079208910221099106A9FFF795F80AB024
:1011F00080BD0000FFE7FEE7FFE7FEE788B007904D
:1012000006910592079800F0070004900498C0F139
:101210000700052803D3FFE70420019004E00498A9
:10122000C0F107000190FFE7019803900498043093
:10123000062803D8FFE70020009003E00498033855
:101240000090FFE70098029006980399012202FAA5
:1012500001F101390840029B984005999A40013AF2
:101260001140084308B070477047000082B00190F9
:10127000019840F20001C2F200010968C90844F671
:10128000D352C1F26202A1FB0221890948430090B6
:10129000FFE700BFFFE70098411E00910028F8D14A
:1012A000FFE702B0704700007047000080B582B0D1
:1012B000009000980138B0F1807F03D3FFE7012050
:1012C000019019E0009801384EF21401CEF20001AD
:1012D00008604FF0FF300F2100F058F84EF218016F
:1012E000CEF20001002008604EF21002CEF20002A1
:1012F000072111600190FFE7019802B080BD000056
:1013000080B5FFF7B7F980BD80B590B006A8009012
:101310002821FEF76FFF00980023059304930393A1
:1013200002930193012206924FF4803107910893B2
:101330000A9202220D920E914FF4E0110F91FFF7E5
:10134000D1FB18B1FFE7FEF7BDFFFFE70F200190CB
:1013500002210291002003904FF4806204920590D4
:1013600001A8FFF735FA18B1FFE7FEF7ABFFFFE77B
:1013700010B080BD70470000FFE7FEE74EF60C504E
:10138000CEF200000068C0F30220704782B08DF8F2
:10139000070000919DF9070000280AD4FFE7009894
:1013A00000019DF907104EF20042CEF2000288546F
:1013B0000BE0009800019DF8071001F00F014EF6B8
:1013C0001452CEF200028854FFE702B070470000CA
:1013D00083B00290029800F0070000904EF60C5186
:1013E000CEF200010868019001984FF6FF0210400C
:1013F00001900198009A40EA02200022C0F2FA52BD
:10140000104301900198086003B0704780B584B024
:1014100000200390FFF73CF9FFF776FFFFF7AAFEE5
:10142000FFE741F20000C4F2010000904FF40051C8
:1014300001910122FFF700F94FF4FA600290FEF7E4
:1014400049FF009801990022FFF7F6F80298FEF78D
:1014500041FFE6E700000000000000000102030475
:101460000607080902030405060708090A0B0C0D04
:101470000E0F101001020000981400080000002058
:101480001000000050010008A814000810000020FF
:1014900068060000700100080024F400010000004C
:0814A000100000000000000034
:04000005080000ED02
:00000001FF
