:020000040800F2
:10000000B004002001010008271E00084B19000859
:10001000251E0008CF060008ED20000800000000A3
:100020000000000000000000000000002B1E00087F
:10003000D106000800000000291E00082D1E00083F
:100040001B0100081B0100081B0100081B01000820
:100050001B0100081B0100081B0100081B01000810
:100060001B0100081B0100081B0100081B01000800
:100070001B0100081B0100081B0100081B010008F0
:100080001B0100081B0100081B0100081B010008E0
:100090001B0100081B0100081B0100081B010008D0
:1000A0001B0100081B0100081B0100081B010008C0
:1000B0001B0100081B0100081B0100081B010008B0
:1000C0001B0100081B0100081B0100081B010008A0
:1000D0001B010008E12000081B0100081B010008AB
:1000E0001B0100081B0100081B010008DFF80CD0F1
:1000F00000F0BAFA00480047BD2C0008B004002008
:100100000648804706480047FEE7FEE7FEE7FEE7B1
:10011000FEE7FEE7FEE7FEE7FEE7FEE78F1E0008CC
:10012000ED000008202A04DB203A21FA02F0002129
:10013000704721FA02F3D040C2F1200291400843F7
:100140001946704740EA01039B0703D009E008C93C
:10015000121F08C0042AFAD203E011F8013B00F88C
:10016000013B521EF9D27047D2B201E000F8012BD8
:10017000491EFBD270470022F6E710B513460A4627
:1001800004461946FFF7F0FF204610BD2DE9FE4F4B
:1001900081EA030404F0004421F0004100944FF090
:1001A000000B23F0004350EA01045ED052EA03043E
:1001B0005BD0C3F30A54C1F30A552C44A4F2F334C0
:1001C0000194A0FB0254C1F3130141F48011C3F365
:1001D000130343F4801301FB024400FB034E840A23
:1001E000970A44EA815447EA8357A4FB07680295BB
:1001F0008D0A05FB07854FEA932C04FB0C54270559
:10020000029D4FEA065847EA1637B5EB08056EEB34
:10021000070C870E920E47EA811742EA8312A7FB6A
:100220000201B6EB0B0164EB00042B0D43EA0C3327
:100230005E1844EB1C50DA465146E7FB0201C5F359
:1002400013044FEA0B3343EA14534FEA0432019C80
:1002500043EA0603A4F10C040294009CCDE900B427
:1002600000F0DCF803B0BDE8F08F00200146F9E7AC
:100270002DE9F04D81EA030404F0004B21F0004524
:1002800014464FF0000A23F0004150EA050220D046
:1002900054EA01021DD0C5F30A570246C5F3130301
:1002A000C1F31300C1F30A5640F4801543F48013E0
:1002B000A7EB0608101BD64608F2FD3873EB0500C5
:1002C00002D308F1010801E092185B41B8F1000F78
:1002D00003DA00200146BDE8F08D00204FF48011C4
:1002E000064684460EE0171B73EB050705D3121B69
:1002F00063EB050306434CEA010C49084FEA300062
:1003000092185B4150EA0107EDD152EA030012D086
:1003100082EA040083EA0501084305D0101BAB41C3
:1003200006D20122002306E000224FF0004302E043
:100330006FF0010253101AEB06004CEB085110EB62
:100340000A0041EB0B01BDE8F04D00F058B80EB5C6
:10035000C10F80EAE0700844CA07002140F233432D
:100360008DE80E000A460B4600F058F803B000BDB9
:1003700030B50B46014600202022012409E021FA75
:1003800002F59D4205D303FA02F5491B04FA02F572
:100390002844151EA2F10102F1DC30BD2DE9F05F09
:1003A0000546002092469B468846064681464024E4
:1003B0001BE02846414647462246FFF7B3FE534618
:1003C0005A46C01A914110D311461846224600F0F1
:1003D0005DF92D1A67EB01084F46224601200021E6
:1003E00000F054F917EB00094E41201EA4F101045E
:1003F000DFDC484631462A464346BDE8F09F10B54B
:10040000141E73F1000408DA401C41F10001921837
:100410005B411A4301D120F0010010BD2DE9F04DE0
:1004200092469B4611B1B1FA81F202E0B0FA80F235
:100430002032904600F02AF904460F4640EA0A00AE
:1004400041EA0B0153465A46084313D0114653EA7A
:10045000010019D0C8F140025046FFF763FE05467F
:100460000E4650465946424600F010F9084305D062
:10047000012004E020463946BDE8F08D0020054308
:1004800046EAE0762C4337430A986305E40AA0EB7A
:1004900008000022FD0A44EA47540A3002D5002031
:1004A0000146E9E7010510196941DDE90845001930
:1004B0006941BDE8F04DA2E72DE9FE4F804681EA93
:1004C0000300C00F0C46009021F0004123F00045CE
:1004D000B8EB0200A94105D24046214690461C4691
:1004E0000B46024623F00040104347D0270DC7F3C8
:1004F0000A00C3F30A510290401A019040286BDAB7
:10050000C3F3130040F4801B0098924620B10023EF
:10051000D2EB030A63EB0B0B01985946C0F1400282
:10052000504600F0B3F806460D4650465946019A2B
:1005300000F0BBF810EB08006141002487EA11527B
:1005400084EAE7731A4340D0009A62B3019A012A01
:100550004FEA075215DC001B61EB02014FF000422D
:1005600002EA0752CDE90042001C41F580113246F3
:100570002B46FFF753FF03B0BDE8F08F40462146FE
:10058000F9E7001B61EB0201001C41F58013001824
:100590005B412018A2F5001747EB030140EAD57034
:1005A000B6196D4111E06D084FEA360645EAC0758F
:1005B0004FEA0752001B61EB0201001C41F580115C
:1005C00049084FEA30000019514132462B4603B02A
:1005D000BDE8F04FFFF713BF009801224000002351
:1005E000D0EB020263EBE073009821464FEAE0741F
:1005F000B8EB000061EB0401E9E783F000435BE73F
:1006000081F0004158E7C1F30A52C1F3130140F2EF
:10061000FF3341F480119A4202DA0020014670470C
:1006200040F233439A42A2F2334202DC5242FFF7D5
:1006300079BD00F02BB8000030B5041E71F1000444
:1006400004DB4FF00044404264EB0101141E73F1DF
:10065000000405DB1C464FF00043524263EB0403E9
:10066000994208BF904230BD064C074D06E0E06855
:1006700040F0010394E8070098471034AC42F6D3E9
:10068000FFF738FD8C2D0008AC2D0008202A04DB74
:10069000203A00FA02F1002070479140C2F1200395
:1006A00020FA03F3194390407047202A06DBCB174A
:1006B000203A41FA02F043EAE07306E041FA02F31D
:1006C000D040C2F120029140084319467047FEE72E
:1006D000704772B6FEE710B590F82110002202298B
:1006E00005D00421816380F82020012010BD01681D
:1006F0000B6823F00E030B6001680B6823F0010305
:100700000B6090F84030C46B012101FA03F3636081
:1007100080F8211080F82020104610BD10B590F808
:1007200021100024022903D00421816301243DE02B
:1007300001680A6822F00E020A6001680A6822F065
:1007400001020A601A4A0168914201D1012121E0A7
:10075000174A1432914201D110211BE0144A283269
:10076000914201D1891515E0114A3C32914201D1E3
:1007700089140FE00E4A5032914202D14FF4803179
:1007800008E00B4A6432914202D14FF4801101E03B
:100790004FF08071064A083A5160012180F821101B
:1007A000002180F82010416B01B18847204610BD20
:1007B0000800024070B5044600F0FEF80546601CD3
:1007C00002D004480078044400F0F6F8401BA04230
:1007D000FAD370BD000000202DE9F84FDFF8B89182
:1007E0000024A9F1040B23460F2709F1040AABF1F9
:1007F000040EC9E00125A5402A40AA427DD1674EDA
:10080000D1F804C0ACEB0608B44532D014DCBCF11E
:10081000030F3AD009DCBCF1000F2AD0BCF1010F64
:100820001CD0BCF1020F31D11DE0BCF1110F17D06B
:10083000BCF1120F2AD119E0B8F5881F19D006DCD7
:10084000B8F5803F15D0B8F5801F1FD111E0B8F57D
:10085000001F0ED0B8F5041F18D10AE0CB6815E0D0
:10086000CB681B1D12E0CB6808330FE0CB680C335C
:100870000CE08B682BB1012B4FF0080303D04561CE
:1008800004E0042302E0056100E00023FF2A01D810
:10089000064601E000F104064FEA840501D9A5F1FE
:1008A0002005D6F8008007FA05FC28EA0C0803FAB0
:1008B00005F548EA0508C6F800804D68ED0062D5E8
:1008C000374DAE6946F00106AE61AD6924F003060E
:1008D00005F001050095334D06EB050CDCF80850DA
:1008E000A607360F07FA06F825EA0805DFF8B880EC
:1008F000404503D14FF0000817E044E0DFF8AC803A
:10090000404502D14FF001080FE0DFF8A4804045D8
:1009100002D14FF0020808E0DFF89880404502D18C
:100920004FF0030801E04FF0040808FA06F848EA1F
:100930000508CCF808804D68D9F80060ED024D46F6
:1009400001D5164300E096432E604D68DAF800604A
:10095000AD02554601D5164300E096432E604D6822
:10096000DBF80060AD035D4601D5164300E0964319
:100970002E604D68DEF80060ED03754601D5164324
:1009800000E096432E60641C0D682A46E5407FF423
:1009900031AFBDE8F88F00000804014000001110DD
:1009A000001002400000014000080140000C01401E
:1009B00000100140001401400148806870470000A9
:1009C00000000020006C704770B5040025D094F83A
:1009D0003D00002520B984F83C50204600F076FA0E
:1009E000242084F83D002068016821F001010160A5
:1009F0002068016841F4004101602068016821F429
:100A00000041016000F0BEFB4D4A6168914201D88F
:100A10004C4900E04C49884201D2012070BD4B494D
:100A20002368B0FBF1F15E6826F03F060E435E607E
:100A30006368934206D94FF4967359434FF47A731F
:100A4000B1FBF3F12368491C1E6A26F03F063143CF
:100A500019626168914210D84900401EB0FBF1F262
:100A6000521CC2F30B02042A01D2042022E0B0FB84
:100A7000F1F0401CC0F30B001CE0A268F2B301EBE4
:100A8000C10303EB0116431EB3FBF6F35B1C43F4F7
:100A900080431B0549D092B301EBC10202EB011167
:100AA000401EB0FBF1F0401CC0F30B0040F480404E
:100AB00040F400402168CA694CF6FF739A43104322
:100AC000C861D4E9071001432068026822F0C0021F
:100AD00011430160D4E9030101432068826848F2B0
:100AE000FF339A4311438160D4E90501084321682B
:100AF000CA6822F0FF021043C86001E00EE016E071
:100B00002068016841F0010101602564202084F81B
:100B10003D00256384F83E50002070BD01EB410686
:100B2000431EB3FBF6F35B1CB3E70120C2E701EB06
:100B30004101401EB0FBF1F0401CC0F30B00B7E7D1
:100B4000A086010080841E0000093D0040420F0085
:100B50002DE9F84F0025DDF82890984617468A467B
:100B600004460095FFF728FF064694F83D0020282C
:100B70007AD11923012286492046009600F0EEFF23
:100B80000028F5D194F83C0001286DD0012084F8AC
:100B90003C0020680168C90703D1016841F00101E8
:100BA00001602068016821F400610160222084F85E
:100BB0003D00102084F83E0025646762A4F82A8076
:100BC000608D20857348E06233464A465146204690
:100BD00000F0D4FE00287CD1208DDFF8BC812027D6
:100BE00068B1012814D00228206801681ED041F4A1
:100BF000806101602068416980690090BBE02068E5
:100C0000416981690091016841F400710160B2E0BD
:100C10002068016821F48061016072B62068416932
:100C200081690091016841F400710AE041F40061BA
:100C3000016072B62068416981690091016821F400
:100C40008061016062B696E0032865D801280CD067
:100C500002284B464FF000024146204600960BD03A
:100C600000F07CFFA8BB0CE090E0324649462046ED
:100C700001F01AF868BB71E000F070FF48BB72B673
:100C800033E02068016821F48061016072B6206859
:100C90000069616A0870606A401C6062208D401EB5
:100CA0002085608D401E60853C4846F2A811006892
:100CB000B0FBF1F0C0EBC00000EB80000090401EE4
:100CC000009007D020684069C04340070DD50098C8
:100CD000F5E727E044F8305F6773A573206940F0BB
:100CE0002000206162B625731CE02068016841F491
:100CF0000071016020680069616A0870606A401CC8
:100D00006062218D491E2185618D491E618562B613
:100D100021680969017025E032464946204600F005
:100D2000C3FF10B10120BDE8F88F20680069616A37
:100D30000870606A401C6062208D401E81B221856F
:100D4000608D401E608520684269D243520712D4EC
:100D5000032903D1016821F48061016020680069E2
:100D6000616A0870606A401C6062208D401E2085A8
:100D7000608D401E6085208D00287FF465AF84F86B
:100D80003D7084F83E5084F83C50CCE70220CAE71E
:100D9000020010000000FFFF040001000C00002012
:100DA0002DE9F84F1F4690468A460446DDF8289004
:100DB000FFF702FE054694F83D0020287FD1192355
:100DC000012240492046009500F0C8FE002876D157
:100DD00094F83C00012872D0012084F83C0020687F
:100DE0000168C90703D1016841F001010160206871
:100DF000016821F400610160212084F83D00102089
:100E000084F83E0000262664C4F824806785608D3F
:100E100020852D48E0622B464A465146204600F088
:100E200023FE90B9206841698069009036E02A4627
:100E30004946204600F070FF50B1206C042804D1D0
:100E40002068016841F4007101600120BDE8F88F5D
:100E5000606A216800780861606A401C6062618D88
:100E6000491E6185218D491E89B2218522685369F9
:100E7000DB435B070BD451B100781061606A401C02
:100E80006062608D401E6085208D401E20852A4650
:100E90004946204600F036FE0028CED1208D00289D
:100EA000C5D154F83D0B016841F400710160202068
:100EB00004F81E09E67766770020C7E7FFE70220FF
:100EC000C4E70000020010000000FFFF10B586B06C
:100ED0000021009101910291039100680F4988421D
:100EE0001AD10F4CA06940F00800A061A0696946C2
:100EF00000F008000490C020009012200190032010
:100F000003900848FFF768FCE06940F40010E061D6
:100F1000E06900F40010049006B010BD00540040D9
:100F200000100240000C0140024881680278114420
:100F30008160704700000020074810B5016841F04B
:100F400010010160032000F075F80F2000F006F892
:100F500000F024F8002010BD0020024070B50D4DB7
:100F600004464FF47A712878B1FBF0F00A49096819
:100F7000B1FBF0F000F0DCFA48B9102C07D20022E7
:100F80002146501E00F036F800206C6070BD012034
:100F900070BD0000000000200C0000200C4808B5C7
:100FA000816941F001018161816901F001010091D4
:100FB000C16941F08051C161C06900F0805000906A
:100FC0000448416821F0E06141F00071416008BDD2
:100FD0000010024000000140002809DB00F01F0261
:100FE000012191404009800000F1E020C0F800118B
:100FF00070470000F0B40E4B1B680C46C3F302238D
:10100000C3F10705042D00D90425191D072901D2B4
:10101000002300E0DB1E012606FA05F1491E2140EF
:1010200099409E40761E16403143F0BC01F070B8E6
:101030000CED00E0064900F0070208684FF6FF03D8
:10104000184040EA0220034A10430860704700003D
:101050000CED00E00000FA052DE9F0470F46050011
:1010600061D0434E306800F00700B84209D23068C2
:1010700020F0070038433060306800F00700B842C5
:1010800051D128683B4C810712D5400703D56068D1
:1010900040F4E06060602878000703D5606840F4A1
:1010A000605060606068A96820F0F00008436060EC
:1010B0002878C00728D06868012810D02168022845
:1010C00010D0890700292EDA616821F0030101435D
:1010D0006160FFF771FC804641F288390DE02168BC
:1010E0008903EFE78901EDE7FFF766FCA0EB080154
:1010F000494502D90320BDE8F0876068696800F0BF
:101100000C00B0EB810FEFD1306800F00700B8425F
:101110000BD9306820F0070038433060306800F0A9
:101120000700B84201D00120E5E72878400705D53F
:101130006068E96820F4E060084360602878000790
:1011400006D56068296920F4605040EAC1006060FB
:1011500000F038F86168084AC1F30311515CC840D7
:101160000649086006480068FFF7F8FE0020C2E75D
:101170000020024000100240722D00080C000020E8
:10118000040000200448054900684968044AC1F386
:101190000221515CC84070470C0000200010024042
:1011A000822D00080448054900684968044AC1F3D3
:1011B000C221515CC84070470C0000200010024062
:1011C000822D00080E4A51680E4801F00C03042BD2
:1011D00011D0082B0FD10C48C1F38343C903C05C65
:1011E0000AD55168084AC1F34041921E515C054A34
:1011F0005043B0FBF1F0704704494843704700008A
:101200000010024000127A00622D000800093D0023
:101210002DE9F84F040070D02078C04DC00749D0A8
:101220006868C0F38100012807D06868C0F38100B6
:10123000022809D16868C00306D52868800339D51B
:1012400060680028E7D035E06068B0F5803F0BD0DB
:1012500010B1B0F5A02F11D0286820F4803028609C
:10126000286820F4802002E0286840F4803028605C
:10127000606890B1FFF7A0FB06460AE0286840F4DA
:1012800080202860F0E700BFFFF796FB801B6428F2
:1012900073D828688003F7D50CE0FFF78DFB06466E
:1012A00005E000BFFFF788FB801B6428F0D82868A2
:1012B0008003F7D420789A4E80074FF001094FF051
:1012C000000839D5686810F00C0F07D06868C0F3C3
:1012D0008100022809D16868C00306D42868800705
:1012E00014D52069012808D110E02069B0B1C6F8F2
:1012F0000090FFF761FB074605E00AE1FFF75CFBA2
:10130000C01B0228C4D828688007F7D528686169FF
:1013100020F0F80040EAC10028600DE0C6F8008027
:10132000FFF74AFB074604E0FFF746FBC01B022815
:1013300023D828688007F7D4207800072CD579486F
:10134000A169D9B1C0F80090FFF736FB074604E069
:10135000FFF732FBC01B02280FD8686A8007F7D559
:1013600071484FF4FA510068B0FBF1F0009000BFF3
:101370000098411E0091FAD20EE080E0C0F8008093
:10138000FFF71AFB074604E0FFF716FBC01B022815
:1013900075D8686A8007F7D42078400760D5E86977
:1013A0000027C00008D4E86940F08050E861E8698F
:1013B000012700F0805000905C480168C90513D4F3
:1013C0000168834641F480710160FFF7F5FA8246B7
:1013D00006E000BFFFF7F0FAA0EB0A0064284ED841
:1013E000DBF80000C005F5D5E06801280AD008B197
:1013F000052813D0286A20F001002862286A20F00E
:10140000040002E0286A40F001002862E06841F22E
:10141000883B98B1FFF7D0FA82460BE0286A40F08B
:1014200004002862EEE700BFFFF7C6FAA0EB0A014E
:1014300059455AD8286A8007F6D50CE0FFF7BCFA60
:10144000824605E0FFF7B8FAA0EB0A0159454CD8EF
:10145000286A8007F6D41FB1E86920F08050E8615F
:10146000E06988B36968C1F38101022944D0022888
:10147000C6F8608004D0FFF79FFA044638E034E0F5
:10148000FFF79AFA074604E0FFF796FAC01B022816
:101490002BD828688001F7D4206AB0F5803F05D1A9
:1014A0006868A16820F4003008436860D4E9080146
:1014B0000843696821F4741108436860C6F86090B5
:1014C000FFF77AFA044606E025E000BFFFF774FA5A
:1014D000001B022809D828688001F7D51BE000BF4F
:1014E000FFF76AFA001B022802D90320BDE8F88F33
:1014F00028688001F4D40EE00128F7D06868226AD9
:1015000000F48031914204D1616A00F47010884285
:1015100001D00120EAE70020E8E7000000100240C7
:1015200000004242800442420C0000200070004053
:1015300010B5401EB0F1807F01D3012010BD4FF0E7
:10154000E02460610F21601700F0E2FD0020A0613F
:1015500007202061002010BD70477047F8B5016872
:1015600004460868CA684B6910F00F0F4FF0000579
:1015700059D003F0010602F49077374365D0C107D4
:1015800005D0D10503D5616C41F0010161644107CB
:1015900005D5D90703D0616C41F002016164810770
:1015A00005D5D90703D0616C41F0040161640107DE
:1015B00007D502F02001314303D0616C41F00801EE
:1015C0006164616C00293AD0800604D5900602D58A
:1015D000204600F08CFC20684069616CC0F38010EC
:1015E000090700D460B3204600F05AFC2068406927
:1015F000400621D52068143050E8001F21F040013A
:1016000040E80012002AF5D1E06BA8B16D494163B2
:10161000E06BFFF783F8002811D0E06B416B01B05D
:10162000BDE8F040084783060FD593060DD5204648
:10163000BDE8F84000F05BBC2046FFF78EFFF8BD28
:101640002046FFF78AFF6564F8BD266B2023012E34
:101650007CD1C6067AD5D60678D508684868009049
:1016600048694FF00206400640D5E16B08684068C3
:101670000004000CE8D0A28D8242E5D9E08588699B
:1016800020282DD020680C3050E8001F21F48071F4
:1016900040E80012002AF5D12068143050E8001FFD
:1016A00021F0010140E80012002AF5D12068143031
:1016B00050E8001F21F0400140E80012002AF5D157
:1016C00084F84230256320680C3050E8001F21F078
:1016D000100140E80012002AF5D1E06BFEF7FBFF95
:1016E0006663A08DE18D401A81B22AE0A08DE18D64
:1016F000401A81B2E08D0028A6D00029A4D022682B
:101700000C3252E8000F20F4907042E80007002FDE
:10171000F5D12068143050E8002F22F0010240E893
:101720000027002FF5D184F84230256320680C3063
:1017300050E8002F22F0100240E80023002BF5D1E2
:1017400066632046FFF708FFF8BDFFE705062BD5C7
:10175000150629D594F841002128F5D1A068B0F5E7
:10176000805F01D12069B0B1206A411C21622168EB
:1017700000784860E08C401E0004000CE084E3D157
:101780002068C16821F08001C1602068C16841F013
:101790004001C160D8E7206A0088C0F308004860B3
:1017A000206A801C2062E5E74006CDD55006CBD5E7
:1017B000CA68204622F04002CA6084F8413000F036
:1017C000C3F8C1E7911E000870B5040004D094F876
:1017D0004100002510B106E0012070BD84F84050A2
:1017E000204600F023F8242084F841002068C168D6
:1017F00021F40051C160204600F0DAFB2068016945
:1018000021F4904101612068416921F02A01416180
:101810002068C16841F40051C1606564202084F8EB
:10182000410084F842006563002070BD30B585B08A
:10183000002400940194029403940068184988429B
:101840002CD11848816941F480418161816901F49A
:1018500080410491816941F0040181618069124DE8
:1018600000F0040004904FF40070009002200190FA
:101870000320039069462846FEF7AEFF2815CDE900
:101880000004694628460294FEF7A6FF002211468E
:101890002520FFF7AFFB2520FFF79EFB05B030BDED
:1018A00000380140001002400008014070472DE957
:1018B000F843044690F841001F4616460D4620287E
:1018C00002D00220BDE8F8837DB176B100206064CB
:1018D000212084F84100FFF76FF8A6848046E68453
:1018E000A068B0F5805F02D003E00120EAE720693C
:1018F00010B12E4600250EE000260CE08021204687
:1019000000F0B2FBA0B9AEB116F8010B2168486037
:10191000E08C401EE084E08C43464FF000020097CC
:101920000028EBD14FF04001204600F09DFB30B184
:101930000320C7E735F8020BC0F30800E6E72020D4
:1019400084F841000020BDE77047FEE701684A695E
:10195000D24352050FD46FF480624A61002140F8EF
:10196000301F202242738173026942F00402026137
:101970000173012070470020704700002DE9F84FE7
:101980000446C06A1E4693460D4621680A6842F422
:1019900080620A60082807D0012805D010F5803F32
:1019A00002D0206B112804D12068016841F48071B5
:1019B00001604FF001195B4600224946204600961F
:1019C00000F0CCF84FF4007840B120680068C00502
:1019D00001D5C4F840800320BDE8F88F2069DFF806
:1019E00084A0B0F5804F0FD00620216800EAD517FB
:1019F00047F0F000086133465A460AF106012046D6
:101A000000F0F4F858BB03E0E8B240F001001CE03D
:101A10002168E8B2086133465A465146204600F034
:101A2000E5F8E0B92068416981690091016841F4F5
:101A3000807101605B46002249462046009600F016
:101A40008DF80028C1D147F0F100216808613346C4
:101A50005A465146204600F0C9F80028BCD0012063
:101A6000BAE7000002000100F8B50446C06A1E464D
:101A70000D461746082807D0012805D010F5803FED
:101A800002D0206B122804D12068016841F48071D3
:101A90000160134600224FF001112046009600F02D
:101AA0005DF840B120680068C00502D54FF40070B1
:101AB00020640320F8BD2069B0F5804F0ED00620C9
:101AC000216800EAD51040F0F000086133463A463C
:101AD0000B49204600F08AF878B902E005F0FE00D4
:101AE00000E0E8B221680861054933463A46891F9B
:101AF000204600F07BF80028DCD00120F8BD000073
:101B00000800010070B516460D4604461EE020464A
:101B1000FFF71CFF08B1012070BD681C16D0FEF74E
:101B20004BFF801BA84200D885B920684069C0439C
:101B300040070BD5002044F8300F20216173A073BB
:101B4000216941F0200121612073E4E720684069A8
:101B5000C0434007DBD4002070BD00002DE9F047F2
:101B6000984617460D460446C1F30746DDF8209017
:101B70002AE000BFB8F1FF3F26D0FEF71DFFA0EB23
:101B80000901414502D8B8F1000F1DD12068012E8E
:101B900016D0806925EA00000004000C12D0002055
:101BA000B84211D1002044F8300F20216173A07396
:101BB000216941F02001216120730120BDE8F087F7
:101BC0004069E7E70120EBE72068012E0AD0806931
:101BD00025EA00000004000C06D00020B842C9D05D
:101BE0000020EBE74069F3E70120F7E72DE9F04734
:101BF000984616460D4604464FF000094FF0200A5D
:101C0000C1F3074723E020684069C043400515D46D
:101C10002068016841F40071016021686FF4806000
:101C20004861C4F8309084F83DA084F83E90216C5F
:101C300041F00401216484F83C9021E0701C06D03E
:101C4000FEF7BAFEA0EB0800B04203D816B1012F90
:101C50001FD021E02068012F15D0806925EA0000FF
:101C60000004000C18D000BF44F8309F84F80DA089
:101C700084F80E90216941F02001216184F80C90D4
:101C80000120BDE8F087406925EA00000004000C4F
:101C9000EAD12068406901E02068806925EA0000F7
:101CA0000004000CAFD1ECE72DE9F041002590468F
:101CB0000E460446202728E04069C043C0060CD4E5
:101CC00054F8301B6FF01000486144F810596777E2
:101CD000A577206A2062257714E0FEF76DFEA0EB61
:101CE0000800B04200D886B920684069C043400669
:101CF0000BD544F8305F6773A573206940F020006E
:101D0000206125730120BDE8F08120684169C94345
:101D10004906D1D40020F6E770B516460D460446B4
:101D20001EE02046FFF712FE08B1012070BD681CBE
:101D300016D0FEF741FE801BA84200D885B9206866
:101D40004069C04300060BD5002044F8300F202125
:101D50006173A073216941F0200121612073E4E7E0
:101D600020684069C0430006DBD4002070BD00003D
:101D70000D4808B5816941F020018161816901F058
:101D800020010091816941F004018161816901F0C4
:101D900004010091816941F008018161806900F0CE
:101DA0000800009008BD0000001002400D4810B56A
:101DB0000B4901600C49416000214FF48042816071
:101DC000C0E9031241618161C1610162FEF7FCFD5E
:101DD000002803D0BDE81040FEF77BBC10BD00001A
:101DE0000054004014000020A08601000C4810B5EB
:101DF0000A4901604FF4E1314160002181600C2209
:101E0000C160C0E904128161C161FFF7DDFC0028F7
:101E100003D0BDE81040FEF75CBC10BD00380140A7
:101E200068000020FEE7FEE770477047FFF77CB8C8
:101E300030B58FB028216846FEF79DF914210AA815
:101E4000FEF799F901210804CDE90010002402945D
:101E500002250491CDE907504FF4E010099068463F
:101E6000FFF7D6F908B172B6FEE70F20CDE90A05F3
:101E70004FF48060CDE90C4002210AA80E94FFF7D0
:101E8000EBF8002801D072B6FEE70FB030BD704706
:101E900010B5406A0021C185C184FFF75EFB10BD0B
:101EA00001680C3151E8002F22F4907241E80023C0
:101EB000002BF5D10168143151E8002F22F0010206
:101EC00041E80023002BF5D1016B012909D10168FC
:101ED0000C3151E8002F22F0100241E80023002BC2
:101EE000F5D1202180F8421000210163704708B528
:101EF00090F84210222901D0022008BD82684FF4D8
:101F000080539A4201D1016921B1816A9A421BD062
:101F10004AB10AE00268816A5268C2F308020A8084
:101F2000816A891C08E0026972B10268526802F095
:101F30007F020A70816A491C8162C18D491E0904B1
:101F4000090CC18503D01BE002685268F1E7016803
:101F5000CA6822F02002CA600168CA6822F480724E
:101F6000CA6001684A6922F001024A61202180F8B2
:101F7000421000214163026B012A03D0FFF796FC57
:101F8000002008BD016301680C3151E8002F22F0E8
:101F9000100241E80023002BF5D101680A68D2063F
:101FA00002D50A6849680091818DFFF7D5FAE7E705
:101FB00070B5044600680169E26821F4405111439C
:101FC00001612169A0680843616908432168CA6802
:101FD00041F20C639A430243CA6020684169A269D6
:101FE00021F44071114341611E492068884202D1A9
:101FF000FFF7D8F801E0FFF7C5F800EBC00101EBEF
:102000000012606864218000B2FBF0F3B3FBF1F3CF
:102010006FF018067343B2FBF0F5B2FBF0F605EB78
:102020008305322303EB0515B5FBF1F5B6FBF1F69D
:1020300005F0F00505EB0615B2FBF0F6B2FBF0F08B
:10204000B0FBF1F06FF01802504306EB800003EB99
:102050000010B0FBF1F0216800F00F002844886008
:1020600070BD0000003801402DE9F0419846174648
:102070000E460446069D27E0681C25D02DB1FEF7CC
:102080009BFCA0EB0800A8421ED920680C3050E849
:10209000001F21F4D07140E80012002AF5D1206819
:1020A000143050E8001F21F0010140E80012002A1E
:1020B000F5D1202084F8410084F84200002084F803
:1020C00040000320BDE8F0812068006836EA000087
:1020D00004D00020B842CFD00020F3E70120F9E778
:1020E0000148FFF73BBA000068000020FEE700004F
:1020F0000FB4054B10B503A9044A029800F0EAF8A2
:1021000010BC5DF814FB0000A52C00081000002096
:102110000907090E002804DB00F1E02080F8001414
:10212000704700F00F0000F1E02080F8141D7047A8
:1021300002E008C8121F08C1002AFAD17047704790
:10214000002001E001C1121F002AFBD170470000EE
:102150002DE9FF5F82B00021DDE90430020DDDF8DA
:1021600040B0034318D044F61050A2F2FF3242436D
:102170001514119801281FD0A5EB0B00401C5FEA35
:10218000000A4FF000064E4FDFF83891B046504637
:1021900015D5CAF1000413E0119801244AA30128BF
:1021A00001D16FEA0B010298119AC0E90031C0E930
:1021B000024206B0BDE8F09FCBF10000DFE7044625
:1021C0000021404A491842EB0450CDE9001012E0CA
:1021D000E00707D032463B4640464946FDF7D6FF6A
:1021E0008046894632463B4610461946FDF7CEFFEB
:1021F00006460F466410002CEAD1DDE90401DDE952
:102200000023BAF1000F06DAFDF7C0FF42464B4645
:10221000FDF7BCFF05E0FEF72BF842464B46FEF704
:1022200027F804460E460022284BFEF705FA03D88D
:102230004FF0FF30014607E00022254B2046314693
:10224000FEF73AF9FEF7DFF9102409E0002C0ADB6B
:102250000A220023FEF7A2F8039B30321A55641EAF
:1022600050EA0102F2D1641C039AC4F11103144430
:10227000119A012A03D0012208430DD10AE0084334
:1022800004D000204FF0110B119072E7A3EB0B0567
:102290006D1E0DE05B4504DD4FF0000205F1010508
:1022A00004E003DA4FF00002A5F10105002AECD0AA
:1022B00002981199C0E90231C0E9004579E70000B0
:1022C000000014400000F03F300000000000F04328
:1022D0000000E03F2DE9FF4F95B09B46894606463A
:1022E00000250FE2252877D100242746F84A01214E
:1022F000059400E0044316F8013F203B01FA03F087
:102300001042F7D130782A2811D06FF02F0330789F
:10231000A0F13002092A16D8059A44F0020402EB13
:10232000820203EB42021044761C0590EFE759F855
:10233000042B0592002A03DA504244F4005405901D
:1023400044F00204761C30782E2816D116F8010FBE
:1023500044F004042A280DD06FF02F023078A0F149
:102360003003092B09D807EB870302EB4303C71897
:10237000761CF3E759F8047B761C30786C280FD074
:1023800006DC4C2817D068280DD06A2814D104E048
:10239000742810D07A280FD10DE044F400140AE01C
:1023A00044F4801401E044F440147278824202D173
:1023B00004F58014761C761C307866280BD013DC6C
:1023C000582877D009DC002875D04528F6D0462853
:1023D000F4D047281AD19DE118E0632835D064284D
:1023E00079D0652812D195E1702873D008DC672870
:1023F000F1D069286FD06E280DD06F2806D1B5E0D6
:1024000073282CD0752875D0782874D05A4617991F
:1024100090476D1C75E1C4F30250022809D00328CF
:102420000DD0D9F8001004280DD00D6009F1040971
:1024300067E1D9F80010EA17C1E90052F6E7D9F8C8
:1024400000100D80F2E70D70F0E719F8041B8DF80D
:10245000001000208DF80100EA46012003E059F841
:1024600004AB4FF0FF3061074FF0000102D40DE0E4
:1024700008F101018846B9420FDA8045F8DB1AF805
:1024800008100029F4D108E008F1010188468142D2
:10249000FADB1AF808100029F6D105985B46A0EB84
:1024A000080721463846179A00F094FA284400EBB2
:1024B000080507E04DE029E10DE01AF8010B5A4646
:1024C00017999047B8F10108F7D25B462146384684
:1024D000179A13E142E00A220092C4F302524FF02D
:1024E000000A022A08D059F804CB032A4FEAEC71FB
:1024F0000AD00DE029E02AE009F1070121F00702E6
:10250000F2E802C1914609E00FFA8CFC4FEAEC7147
:10251000042A03D14FFA8CFC4FEAEC71002907DA48
:102520000A460021DCF1000C61EB02012D2202E0E1
:10253000220504D52B228DF80420012203E0E207B6
:1025400001D02022F7E7904659E00A2102E010224C
:102550000DE010214FF0000A00910BE010224FF027
:10256000000A44F004040827009203E008224FF018
:10257000000A0092C4F30252022A05D059F804CB93
:102580000021032A08D009E009F1070121F0070220
:10259000F2E802C1914605E01FFA8CFC042A01D141
:1025A0000CF0FF0C4FF00008220728D5702806D049
:1025B000009B83F0100353EA0A0305D00EE040228B
:1025C0008DF80420012208E05CEA010206D03022E6
:1025D0008DF804208DF8050002229046009B83F0C0
:1025E000080353EA0A030AD15CEA010201D1620737
:1025F00005D530228DF804204FF001087F1E5828A1
:1026000004D034A003900EA802900DE036A0F9E7A4
:1026100053466046009AFDF7C1FE84460398825CEB
:102620000298401E029002705CEA0100F0D102980C
:1026300006A9081A00F1200A600702D524F48034A4
:1026400000E00127574502DDA7EB0A0000E000206B
:1026500000EB0A01009005984144401A0590E00300
:1026600006D45B462146179A059800F0B3F9054455
:10267000002706E001A85A46C05D179990476D1CD7
:102680007F1C4745F6DBE0030CD55B462146179AD5
:10269000059800F09FF9054404E030205A46179948
:1026A00090476D1C0099481E00900029F5DC08E059
:1026B000029802995A460078491C0291179990474E
:1026C0006D1CBAF10001AAF1010AF1DC65E100001C
:1026D00009280100303132333435363738396162F8
:1026E00063646566000000003031323334353637BC
:1026F00038394142434445460000000000F058F993
:102700000544761C307800287FF4ECAD19B02846DB
:10271000BDE8F08F620700D4062709F1070222F016
:10272000070CFCE80223E14603F000485FEA080CCE
:1027300002D00FF2702C0DE05FEA045C02D50FF2BC
:10274000682C07E05FEAC47C02D00FF2602C01E045
:10275000AFF2700C4FF0FF3823F00043CDF850C0BB
:1027600065280CD006DC452809D046281DD047280E
:102770003DD13DE0662818D067287ED138E00021A1
:10278000112F01DB112000E0781CCDE9000106A922
:102790000EA8FFF7DDFCDDE90F010E9A0391002181
:1027A000009207F1010A04914DE04FF000400097BC
:1027B000CDE9011006A90EA8FFF7CAFCDDE90F025A
:1027C00003920E9B11990022DDF80CA00093049255
:1027D00011B9791C00EB010AB7EB0A0004D4C0F16F
:1027E000FF3007F1010A0490AAEB0700019044E0D2
:1027F000012F00DA01270021112F01DD112000E057
:102800003846CDE9000106A90EA8FFF7A1FCDDE9D5
:102810000F010E9A0391002104910092BA462107FC
:102820000CD40399514500DA8A46BAF1010F05DD4F
:10283000009AAAF10101515C302908D0B84202DAAD
:1028400010F1040F06DA0121CDE9011015E0AAF11B
:102850000101E9E7002805DC049901440491AAEB91
:10286000000102E0411C514500DD8A460499401AEE
:10287000401C01904FF000400290200704D40198C2
:10288000504501DBCDF8048000208DF84F00029800
:102890000DF14F07B0F1004F25D02B200E9002987C
:1028A0004FF0020800280CDA404202902D200E90D2
:1028B00007E00A210298FDF75BFD3031029007F82E
:1028C000011DB8F10001A8F10108F2DC029800280E
:1028D000EFD1791E0E980870307800F0200040F09B
:1028E000450007F8020D12A8C01B00F10708149854
:1028F000007800B1012000EB0A01019801EBE071C2
:1029000005984144401A401E0590E00306D45B46FA
:102910002146179A059800F05DF805441498007850
:1029200018B15A46179990476D1CE00324D55B46B1
:102930002146179A059800F04DF805441CE00498CC
:10294000002807DBDDE90301884203DD0098405CD5
:10295000179901E0179930205A469047049805F1DD
:102960000105401C04900198401E019004D12E20C6
:102970005A46179990476D1CBAF10001AAF1010A55
:10298000DDDC05E017F8010B5A46179990476D1CDE
:10299000B8F10001A8F10108F4DC5B462146179A62
:1029A0000598ABE62D0000002B0000002000000081
:1029B0002DE9F041044600251E461746880404D43C
:1029C00005E039462020B0476D1C641EF9D5284625
:1029D000BDE8F0812DE9F041044600251E469046F1
:1029E000C80301D5302700E02027880404D505E07E
:1029F00041463846B0476D1C641EF9D52846BDE8EF
:102A0000F08100000FB41CB519AC94E807008DF8F4
:102A100004008DF805108DF806204FF47A7407E055
:102A200004A8FDF7CFFF042802D007A0FFF760FB42
:102A3000032301AA902104A80094FEF7B1F900280D
:102A4000EED11CBC5DF814FB61647331313135206B
:102A5000C5E4D6C3BCC4B4E6C6F7B4EDCEF3A3A1B7
:102A6000A3A1A3A10D0A00000FB42A22F0B5A9B0BA
:102A70002EA9DDE9446414A8439DFDF763FBBDF86E
:102A8000E200ADF87A0039981F903A9820903BA95F
:102A900009220F4621A8FDF755FB9DF8F5008DF89A
:102AA0008D009DF8F6008DF88E003E9824903F989A
:102AB0002590409826904198279042982890CDE9FB
:102AC0001264442218A968461195FDF73BFB0DF1ED
:102AD000500C9CE80F00FFF795FF0A20FDF76AFEF7
:102AE0002A222EA911A8FDF72DFBBDF8E200ADF8B2
:102AF0006E0039981C903A981D90092239461EA8FC
:102B0000FDF720FB9DF8F5008DF881009DF8F6009B
:102B10008DF882003E9821903F9822904098239013
:102B20004198249042982590442215A96846FDF7C3
:102B300009FB11AF97E80F0000F06EF8A0F5FE4119
:102B40000746FF3914D00020B7F5004F12D00021FE
:102B5000084303D0002721A0FFF7CAFAC6F34200BA
:102B6000264E06281BD2DFE800F0070D20262C3267
:102B70000120ECE70121EBE73846FDF7E8FB0022F6
:102B80001F4B04E03846FDF7E2FB00221D4BFDF72A
:102B9000FDFA00223346FDF76BFB04460D4629B0D3
:102BA00020462946F0BC5DF814FB3846FDF7CFFB04
:102BB0000022154BEBE73846FDF7C9FB0022134B0B
:102BC000E5E73846FDF7C3FB0022114BDFE7384647
:102BD000FDF7BDFB00220F4BD9E7000061647331A4
:102BE00031313520726561642064617461206572E1
:102BF000726F722121210D0A0000000080842E4195
:102C00000070674000405F4000404F4000403F4040
:102C100000402F4000401F400FB400201CB54FF46F
:102C20007A74019007E004A8FDF7CCFE042802D0D6
:102C300013A0FFF75DFA01230022902104A800945D
:102C4000FEF7AEF80028EED107E004A8FDF7BAFEC3
:102C5000042802D00AA0FFF74BFA022301AA91210F
:102C600004A80094FDF774FF0028EED19DF805003C
:102C70009DF804101CBC00EB012000B25DF814FBB1
:102C80006164733131313520436F6E66696720525C
:102C900065676973746572206572726F7221212194
:102CA0000D0A000013B54FF47A73012269460248F9
:102CB000FEF7FDFD00981CBD68000020AAB0FEF7DD
:102CC0003BF9FFF7B5F8FFF753F8FFF76FF8FFF799
:102CD0008DF8204CE325D32604F1340A0DF1840944
:102CE00001270DF160082A221A4914A8FDF72AFAD3
:102CF000608DADF87A00E06A1F90206B2090092269
:102D000051464846FDF71EFA94F83D008DF88D00B7
:102D100094F83E008DF88E00206C2490606C259015
:102D2000A06C2690E06C2790206D2890CDE912656C
:102D30004422414668461197FDF704FA0DF1500C04
:102D40009CE80F00FFF790FE02460B4602A0FFF73B
:102D5000CFF9C8E71400002025660D0A0000000026
:102D6000010202030405060708090A0B0C0D0E0FE9
:102D7000101000000000000000000102030406071C
:102D8000080900000000010203040000AC2D000847
:102D9000000000201400000030210008C02D0008B1
:102DA000140000209C0400004021000801000000E5
:102DB00010000000000000000024F40000000000EB
:04000005080000ED02
:00000001FF
