:020000040800F2
:10000000001A0020DD01000847140008FD12000856
:100010004514000899020008F518000800000000C7
:100020000000000000000000000000004501000882
:10003000BD020008000000008901000869150008E1
:10004000F7010008F7010008F7010008F7010008B0
:10005000F7010008F7010008F7010008F7010008A0
:10006000F7010008F7010008F7010008F701000890
:10007000F7010008F7010008F7010008F701000880
:10008000F7010008F7010008F7010008F701000870
:10009000F7010008F7010008F7010008F701000860
:1000A000F7010008F7010008F7010008F701000850
:1000B000F7010008F7010008F7010008F701000840
:1000C000F7010008F7010008F7010008F701000830
:1000D000F7010008E9180008F7010008F701000817
:1000E000F7010008F7010008F7010008F701000810
:1000F000F5150008F7010008F7010008F7010008EE
:10010000F7010008F7010008F7010008F7010008EF
:10011000F7010008F7010008F7010008F7010008DF
:10012000F7010008F7010008F7010008F7010008CF
:10013000DFF80CD000F09EF800480047D11A000804
:10014000001A0020224B19680868B0E8F00F80F30D
:100150000988BFF36F8F4FF0000080F311884EF0D5
:100160000D0E70470000000006480068006880F32C
:10017000088862B661B6BFF34F8FBFF36F8F00DFA1
:1001800000BF00BF08ED00E0EFF30980BFF36F8F01
:100190000F4B1A6820E9F00F106008B54FF05000BF
:1001A00080F31188BFF34F8FBFF36F8F02F022FCF3
:1001B0004FF0000080F31188BDE808401968086816
:1001C000B0E8F00F80F30988BFF36F8F704700BF6E
:1001D00030000020EFF3058070470000064880479C
:1001E00006480047FEE7FEE7FEE7FEE7FEE7FEE71C
:1001F000FEE7FEE7FEE7FEE7F31500083101000821
:1002000040EA01039B0703D009E008C9121F08C098
:10021000042AFAD203E011F8013B00F8013B521E18
:10022000F9D27047D2B201E000F8012B491EFBD28F
:1002300070470022F6E710B513460A4604461946F1
:10024000FFF7F0FF204610BD30B50B4601460020F9
:100250002022012409E021FA02F59D4205D303FA88
:1002600002F5491B04FA02F52844151EA2F1010209
:10027000F1DC30BD064C074D06E0E06840F00103BC
:1002800094E8070098471034AC42F6D3FFF754FFC8
:100290008C380008AC380008FEE7000010B501F00B
:1002A00036FC0146BDE8104001A001F025BB00006E
:1002B0000AB6A8CAB1C6F725640A0000704772B62C
:1002C000FEE710B590F821100022022905D0042184
:1002D000816380F82020012010BD01680B6823F0A5
:1002E0000E030B6001680B6823F001030B6090F8AC
:1002F0004030C46B012101FA03F3636080F82110E0
:1003000080F82020104610BD2DE9F05F90F82110F4
:100310000024022903D004218163012485E00168BF
:100320000A6822F00E020A6001680A6822F00102DF
:100330000A603F4E3E4FB215DFF8F4C0DFF8F09090
:10034000DFF8ECA0DFF8E8B0DFF8E4E00168783F20
:1003500013011502ACF1640CA9F15009AAF13C0A91
:10036000ABF1280BAEF1140E4FF48018B14227D92F
:10037000B9420ED0614512D049451DD0514518D023
:10038000594518D0714501D1424615E0294EB14278
:1003900001D1012210E0274E1436B14201D11022C2
:1003A0000AE0244E2836B14206D0224A3C3291421D
:1003B00001D11A4600E02A461E49091F0A602BE0B7
:1003C000B94213D0614517D0494522D051451DD0BF
:1003D00059451DD0714501D142461AE0B14202D1C2
:1003E0004FF0807215E0134EB14201D1012210E0AE
:1003F000104E1436B14201D110220AE00D4E2836BB
:10040000B14206D00B4A3C32914201D11A4600E07B
:100410002A46074980394A60012180F821100021CD
:1004200080F82010416B01B188472046BDE8F09F5D
:1004300080000240080402402DE9F84FDFF8C8911F
:100440000024A9F1040B23460F2709F1040AABF19C
:10045000040ED1E00125A54006EA0502AA4276D1A4
:10046000DFF8A8C14E68A6EB0C0866452BD00DDC62
:10047000032E34D005DC36B3012E19D0022E2FD135
:100480001BE0112E16D0122E2AD119E0B8F5881FC4
:1004900019D006DCB8F5803F15D0B8F5801F1FD104
:1004A00011E0B8F5001F0ED0B8F5041F18D10AE00E
:1004B000CB6815E0CB681B1D12E0CB6808330FE05A
:1004C000CB680C330CE08B682BB1012B4FF0080389
:1004D00003D0456104E0042302E0056100E000234D
:1004E000FF2A01D8064601E000F104064FEA840520
:1004F00001D9A5F12005D6F8008007FA05FC28EA05
:100500000C0803FA05F548EA0508C6F800804D68AE
:10051000ED0070D53E4DAE6946F00106AE61AD69A5
:1005200024F0030605F0010500953A4D06EB050C95
:10053000DCF80850A607360F07FA06F825EA080582
:10054000DFF8D480404503D14FF0000825E052E0A9
:10055000DFF8C880404502D14FF001081DE0DFF808
:10056000C080404502D14FF0020816E0DFF8B480A9
:10057000404502D14FF003080FE0DFF8AC80404562
:1005800002D14FF0040808E0DFF8A080404502D116
:100590004FF0050801E04FF0060808FA06F848EAAF
:1005A0000508CCF808804D68D9F80060ED024D468A
:1005B00001D5164300E096432E604D68DAF80060DE
:1005C000AD02554601D5164300E096432E604D68B6
:1005D000DBF80060AD035D4601D5164300E09643AD
:1005E0002E604D68DEF80060ED03754601D51643B8
:1005F00000E096432E60641C0A681646E2407FF4D1
:1006000029AFBDE8F88F0000080401400000111078
:10061000001002400000014000080140000C0140B1
:10062000001001400014014000180140001C01406E
:100630008068084000D001207047000001488068B1
:1006400070470000200000200248816802781144B1
:100650008160704720000020074810B5016841F014
:1006600010010160032000F0A1F80F2000F006F84F
:1006700000F04AF8002010BD0020024030B50546C9
:100680001C4887B0816941F400518161806906A9E5
:1006900000F40050009001A800F030F900F05EF97D
:1006A0001549164AB0FBF1F11548491E0260416038
:1006B00040F2E7320021C0E903218160816100F04E
:1006C00015FB040012D10E4800F03EFB04000DD1D2
:1006D0002C2000F03DF8102D07D2002229462C20B6
:1006E00000F044F80748056000E0012407B0204608
:1006F00030BD00000010024040420F0000340140B5
:10070000A0070020240000200F4808B5816941F0AF
:1007100001018161816901F001010091C16941F02C
:100720008051C161C069002200F0805000900F210B
:10073000901E00F01BF80548416821F0E06141F08F
:100740000071416008BD000000100240000001403F
:10075000002809DB00F01F020121914040098000C0
:1007600000F1E020C0F8001170470000F0B40E4B1B
:100770001B680C46C3F30223C3F10705042D00D9FF
:100780000425191D072901D2002300E0DB1E0126E4
:1007900006FA05F1491E214099409E40761E1640FA
:1007A0003143F0BC01F0B8B80CED00E0064900F0B0
:1007B000070208684FF6FF03184040EA0220034A88
:1007C00010430860704700000CED00E00000FA05DF
:1007D0002DE9F0470F46050061D0434E306800F028
:1007E0000700B84209D2306820F007003843306073
:1007F000306800F00700B84251D128683B4C8107AF
:1008000012D5400703D5606840F4E0606060287846
:10081000000703D5606840F4605060606068A968B4
:1008200020F0F000084360602878C00728D068688E
:10083000012810D02168022810D0890700292EDA5B
:10084000616821F0030101436160FFF7F7FE804614
:1008500041F288390DE021688903EFE78901EDE76E
:10086000FFF7ECFEA0EB0801494502D90320BDE8E3
:10087000F0876068696800F00C00B0EB810FEFD181
:10088000306800F00700B8420BD9306820F007004C
:1008900038433060306800F00700B84201D00120D2
:1008A000E5E72878400705D56068E96820F4E0604E
:1008B000084360602878000706D56068296920F43D
:1008C000605040EAC100606000F058F86168084A72
:1008D000C1F30311515CC84006490860064800682E
:1008E000FFF7CCFE0020C2E70020024000100240CB
:1008F000423800082C000020240000200F22026053
:100900000C4A536803F003034360536803F0F00399
:100910008360536803F4E063C36052684FF4E0639C
:1009200003EAD20202610448006800F00700086090
:1009300070470000001002400020024004480549B2
:1009400000684968044AC1F30221515CC8407047FD
:100950002C000020001002405238000804480549CD
:1009600000684968044AC1F3C221515CC84070471D
:100970002C00002000100240523800080E4A516836
:100980000E4801F00C03042B11D0082B0FD10C489A
:10099000C1F38343C903C05C0AD55168084AC1F357
:1009A0004041921E515C054A5043B0FBF1F0704744
:1009B00004494843704700000010024000127A00CA
:1009C0003238000800093D002DE9F84F040070D0CE
:1009D0002078C04DC00749D06868C0F38100012865
:1009E00007D06868C0F38100022809D16868C00395
:1009F00006D52868800339D560680028E7D035E03F
:100A00006068B0F5803F0BD010B1B0F5A02F11D0C9
:100A1000286820F480302860286820F4802002E0D4
:100A2000286840F480302860606890B1FFF706FEC7
:100A300006460AE0286840F480202860F0E700BFFE
:100A4000FFF7FCFD801B642873D828688003F7D566
:100A50000CE0FFF7F3FD064605E000BFFFF7EEFDF3
:100A6000801B6428F0D828688003F7D420789A4E39
:100A700080074FF001094FF0000839D5686810F081
:100A80000C0F07D06868C0F38100022809D168689C
:100A9000C00306D42868800714D52069012808D12E
:100AA00010E02069B0B1C6F80090FFF7C7FD074617
:100AB00005E00AE1FFF7C2FDC01B0228C4D8286880
:100AC0008007F7D52868616920F0F80040EAC10086
:100AD00028600DE0C6F80080FFF7B0FD074604E08F
:100AE000FFF7ACFDC01B022823D828688007F7D485
:100AF000207800072CD57948A169D9B1C0F80090B9
:100B0000FFF79CFD074604E0FFF798FDC01B022895
:100B10000FD8686A8007F7D571484FF4FA5100681A
:100B2000B0FBF1F0009000BF0098411E0091FAD296
:100B30000EE080E0C0F80080FFF780FD074604E08B
:100B4000FFF77CFDC01B022875D8686A8007F7D4C0
:100B50002078400760D5E8690027C00008D4E8691C
:100B600040F08050E861E869012700F08050009073
:100B70005C480168C90513D40168834641F480715B
:100B80000160FFF75BFD824606E000BFFFF756FD00
:100B9000A0EB0A0064284ED8DBF80000C005F5D5AC
:100BA000E06801280AD008B1052813D0286A20F08F
:100BB00001002862286A20F0040002E0286A40F060
:100BC00001002862E06841F2883B98B1FFF736FDEA
:100BD00082460BE0286A40F004002862EEE700BF7E
:100BE000FFF72CFDA0EB0A0159455AD8286A800767
:100BF000F6D50CE0FFF722FD824605E0FFF71EFD6B
:100C0000A0EB0A0159454CD8286A8007F6D41FB1D9
:100C1000E86920F08050E861E06988B36968C1F351
:100C20008101022944D00228C6F8608004D0FFF771
:100C300005FD044638E034E0FFF700FD074604E018
:100C4000FFF7FCFCC01B02282BD828688001F7D4D2
:100C5000206AB0F5803F05D16868A16820F40030B3
:100C600008436860D4E908010843696821F47411F5
:100C700008436860C6F86090FFF7E0FC044606E0B1
:100C800025E000BFFFF7DAFC001B022809D828681E
:100C90008001F7D51BE000BFFFF7D0FC001B022846
:100CA00002D90320BDE8F88F28688001F4D40EE053
:100CB0000128F7D06868226A00F48031914204D19B
:100CC000616A00F47010884201D00120EAE7002038
:100CD000E8E7000000100240000042428004424267
:100CE0002C000020007000407047704710B50400D1
:100CF00003D094F83D0010B107E0012010BD0020A2
:100D000084F83C00204600F01EF8022084F83D00E4
:100D1000211D206800F074FC012084F8460084F84E
:100D20003E0084F83F0084F8400084F8410084F8D5
:100D3000420084F8430084F8440084F8450084F8B5
:100D40003D00002010BD704790F83D10012901D0F2
:100D500001207047022180F83D100168CA6842F006
:100D60000102CA6000680E4988420ED00D498842CF
:100D70000BD0B0F1804F08D00B49884205D00B4909
:100D8000884202D00A49884204D1816801F00701F3
:100D9000062903D0016841F001010160002070477D
:100DA000002C0140003401400004004000080040D5
:100DB000000C004070472DE9F04104460068C66809
:100DC00005694FF00007A90713D5B10711D5F91E22
:100DD000016101202077206880698007204602D0C9
:100DE000FFF7E8FF04E000F07EF8204600F07CF812
:100DF0002777680716D5700714D521686FF00400AF
:100E00000861022020772068806910F4407F204626
:100E100002D0FFF7CFFF04E000F065F8204600F0B5
:100E200063F82777280715D5300713D521686FF0A9
:100E300008000861042020772068C06980072046E8
:100E400002D0FFF7B7FF04E000F04DF8204600F0B5
:100E50004BF82777E80616D5F00614D521686FF011
:100E600010000861082020772068C06910F4407FD6
:100E7000204602D0FFF79EFF04E000F034F8204641
:100E800000F032F82777E80708D0F00706D021688D
:100E90006FF001000861204600F028F8280608D508
:100EA000300606D521686FF0800008612046FFF704
:100EB0001BFF680608D5700606D521686FF0400054
:100EC0000861204600F01CF8A8060AD5B00608D52F
:100ED00021686FF0200008612046BDE8F041FFF76F
:100EE00004BFBDE8F0817047704700000068034907
:100EF000884201D1FFF7A8BB7047000000340140D1
:100F00007047704770470000F8B5016804460868EC
:100F1000CA684B6910F00F0F4FF0000559D003F06D
:100F2000010602F49077374365D0C10705D0D1059B
:100F300003D5616C41F001016164410705D5D90712
:100F400003D0616C41F002016164810705D5D907C6
:100F500003D0616C41F004016164010707D502F020
:100F60002001314303D0616C41F008016164616C80
:100F700000293AD0800604D5900602D5204600F01C
:100F8000BCFB20684069616CC0F38010090700D485
:100F900060B3204600F08AFB20684069400621D5F6
:100FA0002068143050E8001F21F0400140E8001292
:100FB000002AF5D1E06BA8B16D494163E06BFFF702
:100FC000A3F9002811D0E06B416B01B0BDE8F040FF
:100FD000084783060FD593060DD52046BDE8F84097
:100FE00000F08BBB2046FFF78DFFF8BD2046FFF7D2
:100FF00089FF6564F8BD266B2023012E7CD1C606CF
:101000007AD5D60678D508684868009048694FF0C8
:101010000206400640D5E16B086840680004000CF9
:10102000E8D0A28D8242E5D9E085886920282DD0BC
:1010300020680C3050E8001F21F4807140E8001255
:10104000002AF5D12068143050E8001F21F001017A
:1010500040E80012002AF5D12068143050E8001F43
:1010600021F0400140E80012002AF5D184F8423016
:10107000256320680C3050E8001F21F0100140E883
:101080000012002AF5D1E06BFFF71BF96663A08D13
:10109000E18D401A81B22AE0A08DE18D401A81B223
:1010A000E08D0028A6D00029A4D022680C3252E896
:1010B000000F20F4907042E80007002FF5D120685F
:1010C000143050E8002F22F0010240E80027002FE2
:1010D000F5D184F84230256320680C3050E8002FA9
:1010E00022F0100240E80023002BF5D16663204671
:1010F000FFF707FFF8BDFFE705062BD5150629D535
:1011000094F841002128F5D1A068B0F5805F01D1A5
:101110002069B0B1206A411C2162216800784860D2
:10112000E08C401E0004000CE084E3D12068C1681C
:1011300021F08001C1602068C16841F04001C160B8
:10114000D8E7206A0088C0F308004860206A801C45
:101150002062E5E74006CDD55006CBD5CA682046CB
:1011600022F04002CA6084F8413000F0C6F8C1E7BE
:101170009D16000870B5040004D094F841000025C5
:1011800010B106E0012070BD84F84050204600F008
:1011900023F8242084F841002068C16821F400511C
:1011A000C160204600F00AFB2068016921F49041EB
:1011B00001612068416921F02A0141612068C1680C
:1011C00041F40051C1606564202084F8410084F836
:1011D00042006563002070BD30B585B000240094E6
:1011E0000194029403940068184988422CD118484D
:1011F000816941F480418161816901F480410491F8
:10120000816941F0040181618069124D00F00400A0
:1012100004904FF40070009002200190032003908E
:1012200069462846FFF708F92815CDE90004694604
:1012300028460294FFF700F9002205212520FFF738
:1012400095FA2520FFF784FA05B030BD003801403B
:10125000001002400008014070472DE9F8430446A1
:1012600090F84100984616460D46202802D00220EC
:10127000BDE8F88385B17EB100206064212084F848
:101280004100FFF7DBF9A6848146E684A0682027A9
:10129000B0F5805F02D003E00120E9E7206910B1DA
:1012A0002E4600250EE000260CE08021204600F0AE
:1012B000E1FAA8B9C6B116F8010B21684860E08CC4
:1012C000401EE084E08C4B464FF00002CDF80080D9
:1012D0000028EAD14FF04001204600F0CBFA40B19F
:1012E00084F841700320C3E735F8020BC0F308000F
:1012F000E3E784F841700020BAE77047FEE700009A
:1013000030B5A5B000251C951CA81D9500F00BFC60
:10131000264C012160611E951EA81F9500F00BFC54
:10132000A0612095062120A8219500F004FC204909
:10133000E0610022D1E90001CDE92201012122A8CA
:1013400000F0B4FC4FF47A71206100F0CFFC184932
:101350001C2208316846FEF753FF0021684600F062
:101360006CFC134920601C22243107A8FEF748FFBB
:10137000002107A800F061FC0D4960601C2240318B
:101380000EA8FEF73DFF00210EA800F056FC08490C
:10139000A0601C225C3115A8FEF732FF002115A8C1
:1013A00000F04BFCE06025B030BD000000000020E4
:1013B000B837000800B585B00020019003901148AF
:1013C000816941F020018161816901F0200104916E
:1013D000816941F010018161816901F0100104917E
:1013E000816941F0040181618069694600F004006F
:1013F000049003200090012002900348FFF71CF89E
:1014000005B000BD00100240001001400C4810B5AE
:101410000A4901604FF4E1314160002181600C22F2
:10142000C160C0E904128161C161FFF7A3FE002819
:1014300003D0BDE81040FEF742BF10BD00380140A8
:1014400058070020FEE7FEE7012000F054FBFBE711
:101450000EB54FF0FF352A460621684600F0C2FB64
:10146000019CA00702D506A000F046FA600702D54D
:1014700007A000F041FA012000F03DFBEBE700007F
:101480004249545F3120B7A2C9FA200A0000000087
:101490004249545F3220B7A2C9FA200A0000000076
:1014A000134D144C01212046FFF7C2F8E0B90A2081
:1014B00000F021FB01212046FFF7BAF8A0B900F0A7
:1014C000EFFB0DA000F018FA00F0E1FB0221A86884
:1014D00000F05AFB02E00A2000F00DFB012120463B
:1014E000FFF7A6F80028F6D0012000F004FBD9E7AA
:1014F00000000020001001404B455930B0B4CFC26D
:10150000200A0000134D144C02212046FFF790F8EA
:10151000E0B90A2000F0EFFA02212046FFF788F830
:10152000A0B900F0BDFB0DA000F0E6F900F0AFFBA4
:101530000421A86800F028FB02E00A2000F0DBFA92
:1015400002212046FFF774F80028F6D0012000F0B1
:10155000D2FAD9E700000020001001404B45593174
:10156000B0B4CFC2200A000010B5502080F311881B
:10157000BFF34F8FBFF36F8F01F0F8FE18B104492E
:101580004FF080500860002080F3118810BD0000EB
:1015900004ED00E030B58FB028216846FEF749FE23
:1015A00014210AA8FEF745FE01210804CDE9001028
:1015B0000024029402250491CDE907504FF4E01075
:1015C00009906846FFF700FA08B172B6FEE70F20EF
:1015D000CDE90A054FF48060CDE90C4002210AA84C
:1015E0000E94FFF7F5F8002801D072B6FEE70FB0B1
:1015F00030BD70470148FFF7DEBB0000A0070020A8
:10160000F0B50268204C214D214E224F224B4FF065
:10161000804CA04209D0984207D0604505D0A8422E
:1016200003D0B04201D0B84204D122F0700E4A6813
:1016300042EA0E02A04209D0984207D0604505D088
:10164000A84203D0B04201D0B84203D122F4407581
:10165000CA682A434D6922F080022A4302608A68E0
:10166000C2620A688262A04201D0984201D109692F
:101670000163012141610169C90703D0016921F0BA
:1016800001010161F0BD0000002C01400004004098
:1016900000080040000C00400034014010B5406AD2
:1016A0000021C185C184FFF72DFC10BD01680C31FC
:1016B00051E8002F22F4907241E80023002BF5D16D
:1016C0000168143151E8002F22F0010241E80023A3
:1016D000002BF5D1016B012909D101680C3151E8CA
:1016E000002F22F0100241E80023002BF5D1202129
:1016F00080F8421000210163704708B590F842104D
:10170000222901D0022008BD82684FF480539A42FA
:1017100001D1016921B1816A9A421BD04AB10AE024
:101720000268816A5268C2F308020A80816A891CD1
:1017300008E0026972B10268526802F07F020A7022
:10174000816A491C8162C18D491E0904090CC18549
:1017500003D01BE002685268F1E70168CA6822F012
:101760002002CA600168CA6822F48072CA600168F7
:101770004A6922F001024A61202180F842100021CA
:101780004163026B012A03D0FFF766FD002008BD0C
:10179000016301680C3151E8002F22F0100241E88A
:1017A0000023002BF5D101680A68D20602D50A6829
:1017B00049680091818DFFF7A4FBE7E770B5044607
:1017C00000680169E26821F4405111430161216917
:1017D000A0680843616908432168CA6841F20C6344
:1017E0009A430243CA6020684169A26921F44071AA
:1017F000114341611E492068884202D1FFF7AEF8CB
:1018000001E0FFF79BF800EBC00101EB00126068FC
:1018100064218000B2FBF0F3B3FBF1F36FF0180624
:101820007343B2FBF0F5B2FBF0F605EB8305322310
:1018300003EB0515B5FBF1F5B6FBF1F605F0F00588
:1018400005EB0615B2FBF0F6B2FBF0F0B0FBF1F0E1
:101850006FF01802504306EB800003EB0010B0FB62
:10186000F1F0216800F00F002844886070BD00008E
:10187000003801402DE9F843984617460D460446C6
:10188000089E24E0701C22D0FEF7D8FEA0EB0800D2
:10189000B0421AD8CEB12068C168490717D5802D4B
:1018A00015D0402D13D00168C94309070FD4016832
:1018B0000025406800902046FFF7F8FE082060648D
:1018C00084F840500120BDE8F8830320FBE720683E
:1018D000006835EA000004D00020B842D2D00020D1
:1018E000F1E70120F9E700000148FFF70DBB000018
:1018F00058070020FEE700000FB4054B10B503A900
:10190000044A029800F028F810BC5DF814FB0000AF
:10191000AD1A0008AC0000200907090E002804DBFE
:1019200000F1E02080F80014704700F00F0000F193
:10193000E02080F8141D704702E008C8121F08C19B
:10194000002AFAD170477047002001E001C1121F40
:10195000002AFBD1704700002DE9FF4F89B09B465C
:101960000446002506E025280BD05A460B999047DF
:10197000641C6D1C20780028F5D10DB02846BDE808
:10198000F08F0027B8460122474900E0074314F8CA
:10199000013F203B02FA03F00842F7D120782E28BD
:1019A00019D114F8010F47F004072A280ED06FF060
:1019B0002F022078A0F1300109290CD808EB88010A
:1019C00002EB410100EB0108641CF2E70A98641C79
:1019D00050F8048B0A9020780028CED0642808D0D4
:1019E000692806D075281ED05A460B9990476D1C61
:1019F00058E00A994FF00A0901C90A91002802DA51
:101A000040422D2102E0390504D52B218DF820100C
:101A1000012103E0F90704D02021F7E78A4608AE48
:101A20000DE00021FAE70A994FF00A0901C90A916D
:101A3000F7E74946FEF708FC303106F8011D00289B
:101A4000F7D1ADEB060000F12009780701D44FF083
:101A50000108C84502DDA8EB090000E0002080462F
:101A6000002706E008A85A46C05D0B9990476D1CF8
:101A70007F1C5745F6DB04E030205A460B9990470F
:101A80006D1CB8F10001A8F10108F5DC05E016F8BD
:101A9000010B5A460B9990476D1CB9F10001A9F151
:101AA0000109F4DC641C65E70928010013B54FF651
:101AB000FF73012269460248FFF7CFFB00981CBD67
:101AC00058070020EFF30580002800D00120704760
:101AD000FEF7C2FDFFF75EFDFFF76CFCFFF796FC1B
:101AE000FFF70EFC00F00EF8FEE701460020842907
:101AF00000D0C81C704710B500B9012000F0C6FE28
:101B0000002010BD10B500F029FF002010BD10B559
:101B1000FFF7D8FF18B1BDE8104001F01FBCBDE8C9
:101B2000104001F015BC41684FF0010009B101F00F
:101B30002BB801F01EB838B542687AB1012904D03B
:101B4000BDE83840084600F0F4BF032013460022E9
:101B500000901146012001F045F838BD012904D05C
:101B6000BDE83840084600F0C7BF0322002101202D
:101B700001F017F8040004D000231A46194601F0BA
:101B8000A9F8204638BD0000FEB5064600200D46E7
:101B900002900190FFF796FF4FF0004498B102A821
:101BA000009001AB01222946304601F041FB01289B
:101BB00011D1029888B10A49E0080860BFF34F8F3D
:101BC000BFF36F8F09E001AB01222946304601F0D7
:101BD000BFFA012801D02046FEBD0198FEBD0000DD
:101BE00004ED00E0FEB5002506460F462C460195A3
:101BF000501C06D002B11446FFF764FF20B18220CA
:101C000015E04FF0FF34F7E723463946002001AADC
:101C100001F012FC012804D00CB1402007E000952F
:101C200006E00198002801DA862000E008200090F4
:101C30009DE8070086E80700FEBD7FB50D46044617
:101C40004169B0F9080081B1A16971B1FFF74DFF99
:101C5000D4E905128DE80700D4E900102B4622696B
:101C600001F04BFA039004B070BDFFF73EFF03A9EB
:101C7000CDE90001208A2B4682B2D4E9001001F0A0
:101C80000FFA012801D00020EDE70398EBE710B52B
:101C900001F09EFC012801D0FF2010BD002010BDE6
:101CA00010B500F09FFE002010BD00001CB511C84B
:101CB0006CB1CDE90004012907D00020134602468B
:101CC000012109A001F000FD1CBD0120F6E70090F4
:101CD000012907D0002013460246012102A001F08D
:101CE000D9FC1CBD0120F6E7000000002DE9FC41F5
:101CF000002507462E4601950C0000D10124FFF770
:101D0000E1FE009690B101AB22460921384601F070
:101D100023FD012812D1019888B10A494FF0805063
:101D20000860BFF34F8FBFF36F8F08E00023224698
:101D30000421384601F010FD012800D0FF25284677
:101D4000BDE8FC8104ED00E02DE9F041184C0F46A0
:101D50000546E6682068001D00F064FC38B920687C
:101D600090F82C1001208840216981432161681C72
:101D700007D137B12168BDE8F0410E48091D00F0D8
:101D8000A1BC20683544B5424560216805D2A06BEE
:101D9000BDE8F041091D00F07DBC606B091D00F03D
:101DA00079FCA06A854200D2A562BDE8F0810000FE
:101DB00030000020040900202DE9F041054600F024
:101DC0008DFC2E4CA068401CA06020682C4F10B1E8
:101DD000606940B32DE02560A068012829D1002664
:101DE00006EB860007EB800000F046FC761C072E11
:101DF000F6D323488C3000F03FFC2148A03000F09F
:101E00003BFC1F48B43000F037FC1D48C83000F0E0
:101E100033FC1B48DC3000F02FFC19488C30606329
:101E20001430A06305E02068E96AC06A884200D8DF
:101E30002560606A401C6062E96A0120226988406E
:101E40001043206101EB810007EB8000291D00F0A9
:101E500039FC00F063FC606900280CD02068E96A56
:101E6000C06A884207D207494FF080500860BFF32C
:101E70004F8FBFF36F8FBDE8F0810000300000206E
:101E80002808002004ED00E038B500F027FC104CD5
:101E90002068C8B90F4800F0EFFB0E48143000F07E
:101EA000EBFB0C48E060143020610A4B0020C03B83
:101EB000009003F148020C210A2000F093FE2060FC
:101EC00010B105A100F0ACFCBDE8384000F026BC24
:101ED0006C000020D8090020546D725100000000F1
:101EE00030B4026C0B46002A0BD0C1681144C160AB
:101EF0008468A14201D30168C16030BC1846FEF776
:101F00007FB930BC70472DE9F041856B1746044618
:101F10000026026C82B1C7B1E068FEF771F9E16892
:101F2000206C091AE1602268914202D2A168081A65
:101F3000E060022F16D017E02068A8B9A06801F071
:101F4000C1FA06460020A0600EE06068FEF758F96E
:101F5000216C606808446060A168884204D32068EE
:101F6000606001E005B16D1E6D1CA5633046BDE8E3
:101F7000F08110B5044690F8510058B101280CD0FA
:101F800002280FD0502080F31188BFF34F8FBFF38A
:101F90006F8FFEE7206B00F0D5FB2046BDE81040B8
:101FA00000F0D0BB10BD000010484FF44061420764
:101FB00006D0C01D0D4920F00700411AC1F540614F
:101FC0000B4A00230144C2E900030839183A21F002
:101FD000070111604B600B600B1AC0E9001393609E
:101FE0004FF000405360506170470000000A00202D
:101FF00098000020144E154CA6F1C8074FF08058E9
:10200000DFF84C9012E000BF00F068FBF068C56894
:10201000281D00F007FBA068401EA0606068401EFD
:10202000606000F07BFB2846FFF7A3FF6068002894
:10203000EAD138680128F9D9C9F80080BFF34F8F79
:10204000BFF36F8FF2E70000F0080020300000209F
:1020500004ED00E0002807D00021816001600B46FC
:102060000A46C16000F036BE70470346009829B1A9
:102070000260C0E90F31012100F0E8BD0060F8E71F
:102080002DE9F0479A46DDE9098481466FF00303A4
:10209000206B03EB82021044089E20F007077807AC
:1020A00007D0502080F31188BFF34F8FBFF36F8F9D
:1020B000FEE7002561B1002023180A5C83F8342074
:1020C0000A5C12B1401C1028F6D384F8435001E09A
:1020D00084F83450072E00D30626E662C4E9116561
:1020E000201D00F0D4FA04F1180000F0D0FA2461A9
:1020F000C6F107006462A061E56484F8505052465E
:102100004946384600F07CFA2060B8F1000F01D053
:10211000C8F80040BDE8F0872DE9F0471E46DDE92C
:10212000089417460D00804615D0002C11D0FFF7FB
:10213000ABFE04F11801C4F8008081E86002201DA4
:1021400000F0A5FA002F04D014F8240F40F004008A
:102150002070BDE8F087502080F31188BFF34F8FC7
:10216000BFF36F8FFEE7000030B5114900E0114664
:102170000A688242FBD34B685C18844203D14068F2
:1021800018444860084643681C18944209D1084C1A
:10219000183C2468A24209D052681A4442600A6876
:1021A00012680260814200D0086030BD0460F9E727
:1021B0009800002070B5002441600B4D00619142F1
:1021C00006D8D11A8269914206D2011D286907E01A
:1021D0009A4203D2994201D3012403E0011DE86829
:1021E00000F058FA204670BD6C00002010B504467F
:1021F00000F074FAA06B28B15FF0000400F08EFAD2
:10220000204610BD0124F9E730B587B0394D67E0AD
:102210000498002864DB069C606910B1201D00F062
:1022200001FA03A800F0D8F8024604980A2857D209
:10223000DFE800F00505052D334A05052D3394F838
:10224000240040F0010084F824000599A069059B52
:1022500001442046FFF7AEFF68B3216A2046884755
:1022600094F8240040073BD5002000900598A16910
:10227000002342181946204601F06EFAD8B95020C2
:1022800080F31188BFF34F8FBFF36F8FFEE714F811
:10229000240F20F00100207022E094F8240040F088
:1022A000010084F824000598A06128B18118134624
:1022B0002046FFF77FFF13E0502080F31188BFF323
:1022C0004F8FBFF36F8FFEE794F82400810703D48C
:1022D000204600F037FA03E020F0010084F82400E3
:1022E000002204A9286800F005FE002890D107B05C
:1022F00030BD00006C0000202DE9FC410F46054672
:1023000000F070FB01A800F067F80446019818B1CE
:1023100001F05EF9BDE8FC81254EAFB1306900687F
:10232000D0B30027291B3A46306800F08DFA01F03F
:102330004FF90028EED11F494FF080500860BFF3DD
:102340004F8FBFF36F8FE5E7A542EBD801F040F95F
:10235000F0682746C068C468201D00F063F994F84F
:102360002400410719D5A0692B4641193A46204659
:10237000FFF720FFA8B100200346014600902A463F
:10238000204601F0E9F960B9502080F31188BFF3CD
:102390004F8FBFF36F8FFEE707E020F0010084F856
:1023A0002400216A20468847B4E70127BAE70000E5
:1023B0006C00002004ED00E00648416B096829B17B
:1023C000416BC968C9684968816270474FF0FF3145
:1023D000FAE700003000002070B5054600F0B8FFB5
:1023E000064E0446B068844203D200F009F801208A
:1023F00000E0002028602046B46070BD6C00002022
:10240000F8B5194D20E0C068C4680668201D00F0CA
:1024100009F9216A2046884794F82400400713D51B
:10242000A0693044B04206D924616060211DE8688B
:1024300000F030F908E000200346014600903246E3
:10244000204601F089F938B1E86801680029DAD13D
:102450002969C5E90310F8BD502080F31188BFF346
:102460004F8FBFF36F8FFEE76C0000200848406875
:10247000401C4FF0500080F3118804D0BFF34F8F01
:10248000BFF36F8FFEE7BFF34F8FBFF36F8FFEE792
:10249000A0000020074CE068016841B1C06800213D
:1024A000D0F80000FFF728FFFFF7AEFEF3E70121A9
:1024B0000020F7E76C0000202DE9F041044600F011
:1024C0000DF994F9455004F1240609E0606A48B119
:1024D000304601F043F808B100F006FA6D1E6DB207
:1024E000002DF3DC4FF0FF3684F8456000F016F95C
:1024F00000F0F4F894F9445004F1100709E0206961
:1025000048B1384601F02AF808B100F0EDF96D1E27
:102510006DB2002DF3DC84F84460BDE8F04100F0BA
:10252000FDB800002DE9F0410546002700F05AFAF9
:10253000324E306808B9FFF737FD706905424ED159
:10254000C5B3083568070ED005F00700C0F10800D4
:102550000544680707D0502080F31188BFF34F8FE0
:10256000BFF36F8FFEE72DB37068854237D82348DD
:10257000183001460C6801E020460C466168A9420B
:1025800002D221680029F7D131688C4227D0076830
:102590002168016060680837411B10290FD9601954
:1025A000420708D0502080F31188BFF34F8FBFF34C
:1025B0006F8FFEE713E041606560FFF7D5FD61684E
:1025C0007068401A7060B268904200D2B060706962
:1025D00001430020C4E90001F068401CF06000F0F5
:1025E000F7FF780707D0502080F31188BFF34F8F93
:1025F000BFF36F8FFEE73846BDE8F0818000002012
:1026000010B5031F4FF080741C601B1F21F00101E7
:102610001960191F024B0B60143940380A6010BD55
:102620006D240008D0E9013201699A60D0E90123E4
:102630005A604A68824201D182684A60002202617F
:102640000868401E0860086870470000034B03607C
:1026500003F154000860802010607047B000002033
:10266000044B036003F1540008604FF48070106065
:10267000704700000403002000F108014FF0FF3212
:10268000C0E90112C16001610021016070470021B1
:102690000161704730B50B685A1C02D000F1080286
:1026A00002E0026904E02246546825689D42FAD996
:1026B00053684B6099608A60516008610168491CE9
:1026C000016030BD42684A6093688B6093685960CE
:1026D000916008610168491C01607047502080F3D7
:1026E0001188BFF34F8FBFF36F8F0A494868401CB2
:1026F000486001280CD10848006810F0FF0F07D08F
:10270000502080F31188BFF34F8FBFF36F8FFEE728
:1027100070470000A000002004ED00E00849486870
:1027200028B1401E486001D180F3118870475020C5
:1027300080F31188BFF34F8FBFF36F8FFEE7000068
:10274000A000002070B500282AD0164DA0F1080482
:1027500060686969084207D1502080F31188BFF38F
:102760004F8FBFF36F8FFEE722683AB1502080F39E
:102770001188BFF34F8FBFF36F8FFEE78843606010
:1027800000F030F960686968084468602046FFF727
:10279000EBFC2869401C2861BDE8704000F018BFC0
:1027A00070BD0000800000204FF0E020002101619A
:1027B000816105494FF47A720968B1FBF2F1491E53
:1027C00041610721016170472C00002010B5FDF721
:1027D00001FD114910280ED300F1E02090F8F0031C
:1027E0000A78904207D2502080F31188BFF34F8FB0
:1027F000BFF36F8FFEE709480068896800F4E06066
:10280000884207D9502080F31188BFF34F8FBFF360
:102810006F8FFEE710BD0000A00000200CED00E06F
:1028200010B5084B002200BF53F832401CB1521CB7
:10283000082AF9D310BD43F8321003EBC2014860F7
:1028400010BD0000E807002070B515460E4604468E
:10285000FFF744FF94F944100020491C01D184F88B
:10286000440094F94510491C01D184F84500FFF754
:1028700055FFA06B28B92A46314604F1240000F028
:1028800051F82046BDE87040FFF716BE10B50200B3
:1028900014D00F48006B38B1502080F31188BFF37B
:1028A0004F8FBFF36F8FFEE700F09CF800211046BA
:1028B000FFF74AFA00F08CFE002807D105494FF0D7
:1028C00080500860BFF34F8FBFF36F8F10BD0000C3
:1028D0003000002004ED00E002490A6A0260C96885
:1028E000416070473000002001490120C8617047F5
:1028F0003000002010B50C4650B109490968183164
:10290000FFF7C8FE2046BDE810400121FFF71CBAC2
:10291000502080F31188BFF34F8FBFF36F8FFEE716
:102920003000002070B514460D4668B10A490968A8
:102930001831FFF7C7FE0CB14FF0FF35214628468E
:10294000BDE87040FFF700BA502080F31188BFF354
:102950004F8FBFF36F8FFEE73000002030B587B098
:102960000024039405AA04A903A80494FFF76EFEAB
:10297000DDE903010094CDE90110002315A11748FA
:10298000059A00F0BAFB164D0028E8621FD000F04F
:10299000B3FE012809D0401C19D1502080F31188C2
:1029A000BFF34F8FBFF36F8FFEE7502080F3118886
:1029B000BFF34F8FBFF36F8F4FF0FF30A86201203E
:1029C0006861EC6007B0BDE8304000F041B807B086
:1029D00030BD000049444C4500000000F51F0008D0
:1029E000300000200248016B491C01637047000061
:1029F000300000201448016B11B10121C161704702
:102A00000021C1610169B1FA81F1C1F11F0101EB3E
:102A100081020E4951F822306BB101EB820101F1C4
:102A200008034A6852684A609A4201D152684A6073
:102A3000D16801607047502080F31188BFF34F8F39
:102A4000BFF36F8FFEE70000300000202808002051
:102A50001CB5264908780190FF20087008788DF889
:102A600000009DF800009DF8002000F0F00090426A
:102A700007D0502080F31188BFF34F8FBFF36F8FC3
:102A8000FEE79DF800001A4C00F05000207007206F
:102A9000A06005E09DF8002052008DF80020401E47
:102AA0009DF800201206F5D4A060032807D050201E
:102AB00080F31188BFF34F8FBFF36F8FFEE74FF4A2
:102AC0004070A060019808700A48016841F47001E4
:102AD0000160016841F070410160FFF765FE002070
:102AE0006060FDF741FB00201CBD000000E400E039
:102AF000A000002020ED00E010B50C4648B1844253
:102B00000FD9502080F31188BFF34F8FBFF36F8F21
:102B1000FEE7502080F31188BFF34F8FBFF36F8F14
:102B2000FEE70222002100F03CF8002800D0846378
:102B300010BD38B50C4648B184420FD9502080F3FF
:102B40001188BFF34F8FBFF36F8FFEE7502080F3E4
:102B50001188BFF34F8FBFF36F8FFEE7022113463B
:102B600000220091114600F03DF8002800D0846357
:102B700038BD10B502460021012000F012F80446CD
:102B8000FFF768FA204610BD38B50B4600220090CA
:102B90001146012000F026F80446FFF75BFA2046B4
:102BA00038BDF8B517460E46050013D005FB06F0F4
:102BB0004830FFF7B7FC04000AD0002084F8460034
:102BC00004F148023B46314628460094FFF74DFA8F
:102BD0002046F8BD502080F31188BFF34F8FBFF31C
:102BE0006F8FFEE738B5049D18B153B1CAB181B1FA
:102BF00020E0502080F31188BFF34F8FBFF36F8F19
:102C0000FEE7502080F31188BFF34F8FBFF36F8F23
:102C1000FEE7502080F31188BFF34F8FBFF36F8F13
:102C2000FEE739B1502080F31188BFF34F8FBFF317
:102C30006F8FFEE748241C46012384F846302B465C
:102C40000094FFF712FA204638BD000070B50D461B
:102C5000040025D0FFF742FDD4E90F20216802FBD4
:102C60000011A1600021A163216861600A46D4E9D6
:102C70000F01401E00FB0121E16021464FF0FF30B3
:102C800001F8440F487004F110008DB1FFF7F4FC17
:102C900004F12400FFF7F0FCFFF740FD012070BDB8
:102CA000502080F31188BFF34F8FBFF36F8FFEE783
:102CB00021690029F0D000F051FC0028ECD0044933
:102CC0004FF080500860BFF34F8FBFF36F8FE3E783
:102CD00004ED00E02DE9FF4782B01D468A464FF023
:102CE0000008040003D0BAF1000F08D011E0502012
:102CF00080F31188BFF34F8FBFF36F8FFEE7206C17
:102D000038B1502080F31188BFF34F8FBFF36F8F1E
:102D1000FEE7022D0AD1E06B012807D0502080F396
:102D20001188BFF34F8FBFF36F8FFEE700F002FBF8
:102D30003F4F4FF000094FF0805648B9049838B122
:102D4000502080F31188BFF34F8FBFF36F8FFEE7E2
:102D5000FFF7C4FCA06BE16B884207D3022D05D0BE
:102D60000498D0B1B8F1000F1AD01EE02A4651469F
:102D70002046FFF7C8F8616A19B104F1240000F099
:102D8000EDFB20B13E60BFF34F8FBFF36F8FFFF7B6
:102D9000C5FC012006B0BDE8F087FFF7BFFC22E0CC
:102DA0006846FFF799FD4FF00108FFF7B7FCFFF702
:102DB00019FEFFF793FC94F94400401C01D184F8FC
:102DC000449094F94500401C01D184F84590FFF7E8
:102DD000A5FC04A9684600F029F930B12046FFF7A8
:102DE0006BFB00F0F5FB0020D4E7FFF777FCA06B4E
:102DF000E16B884213D1FFF791FC04F110000499B4
:102E0000FFF778FD2046FFF757FB00F0E1FB0028B5
:102E10009ED13E60BFF34F8FBFF36F8F98E7FFF7F0
:102E20007DFC2046FFF748FB00F0D2FB90E7000056
:102E300004ED00E02DE9F0471F4690468946040066
:102E400003D0B9F1000F08D011E0502080F31188B1
:102E5000BFF34F8FBFF36F8FFEE7206C38B1502068
:102E600080F31188BFF34F8FBFF36F8FFEE7022F00
:102E70000AD1E06B012807D0502080F31188BFF3FE
:102E80004F8FBFF36F8FFEE7FFF7A0FC5020EFF3EB
:102E9000118680F31188BFF34F8FBFF36F8FA06B44
:102EA000E16B884206D3022F04D0002086F31188FC
:102EB000BDE8F08794F94550A06B3A464946204654
:102EC000FFF721F8681C04D06D1C84F845500120E0
:102ED000ECE7606A0028FAD004F1240000F03EFB21
:102EE0000028F4D0B8F1000FF1D00121C8F800108B
:102EF000EDE700002DE9F747002683B08A4604007D
:102F000003D0BAF1000F08D011E0502080F31188EF
:102F1000BFF34F8FBFF36F8FFEE7206C38B15020A7
:102F200080F31188BFF34F8FBFF36F8FFEE700F080
:102F300001FADFF8F4804FF000094FF0805748B9EC
:102F4000059838B1502080F31188BFF34F8FBFF33D
:102F50006F8FFEE7FFF7C2FBA56BC5B15146204658
:102F6000FEF7BEFF6D1EA563206950B104F110008D
:102F700000F0F4FA28B1C8F80070BFF34F8FBFF328
:102F80006F8FFFF7CBFB012006B0BDE8F0870598F7
:102F900008B11EB106E0FFF7C1FB27E06846FFF766
:102FA0009BFC0126FFF7BAFBFFF71CFDFFF796FB22
:102FB00094F94400401C01D184F8449094F94500F0
:102FC000401C01D184F84590FFF7A8FB05A968468D
:102FD00000F02CF8002820460AD0FFF76DFA00F028
:102FE000F7FA2046FFF702F90028B3D00020CBE71C
:102FF000FFF7FCF890B104F124000599FFF77AFC83
:103000002046FFF759FA00F0E3FA0028A2D1C8F8E9
:103010000070BFF34F8FBFF36F8F9BE72046FFF722
:103020004BFA00F0D5FA95E704ED00E02DE9F04108
:103030000C46050011D0C4B1FFF750FB174BDA68FE
:103040006E682068911B471C17D02F681B6A9F422F
:1030500019D0964217D8012410E0502080F311882F
:10306000BFF34F8FBFF36F8FFEE7502080F31188BF
:10307000BFF34F8FBFF36F8FFEE70024FFF74EFBC8
:103080002046BDE8F081884205D9401A20602846D4
:10309000FFF722FCF1E700202060DCE73000002091
:1030A0002DE9FF5F8346DDE90E87994616468A467D
:1030B0009000FFF737FA05001CD05420FFF732FAD2
:1030C000040014D00020256384F85100CDE90240AB
:1030D000CDE900874B46324651465846FEF7D0FFB1
:1030E0002046FEF769FE012004B0BDE8F09F2846A7
:1030F000FFF728FB4FF0FF30F6E7F0B585B0DDE9CC
:103100000B640A9DA6B1DCB1542700972663022602
:1031100084F85160002604AFCDE90246CDE900579E
:10312000FEF7AEFF2046FEF747FE049805B0F0BD5F
:10313000502080F31188BFF34F8FBFF36F8FFEE7EE
:10314000502080F31188BFF34F8FBFF36F8FFEE7DE
:103150002DE9F0411F4690460D46012690B10446E8
:10316000FFF7BCFA0FB1E06C386094F85000022110
:1031700084F85010B8F1050F19D2DFE808F0230BDE
:103180000E141200502080F31188BFF34F8FBFF34D
:103190006F8FFEE7E16C294301E0E16C491CE164BB
:1031A00010E0022801D0E5640CE0002635E0E16C77
:1031B000491C07D0502080F31188BFF34F8FBFF315
:1031C0006F8FFEE7012828D1201DFFF72BFA154D40
:1031D000E06A01212A69814011432961124900EB0B
:1031E000800001EB8000211DFFF76CFAA06A38B166
:1031F000502080F31188BFF34F8FBFF36F8FFEE72E
:10320000E06A2968C96A884207D908494FF08050A6
:103210000860BFF34F8FBFF36F8FFFF77FFA304621
:10322000BDE8F081300000202808002004ED00E017
:103230002DE9F0471F46DDF8209092460D46040028
:103240004FF001081AD0FFF7C1FA5020EFF31186B2
:1032500080F31188BFF34F8FBFF36F8F0FB1E06C16
:10326000386094F85000022184F85010BAF1050F2C
:103270001AD2DFE80AF0240B0E141200502080F35B
:103280001188BFF34F8FBFF36F8FFEE7E16C2943C7
:1032900001E0E16C491CE16411E0022801D0E56421
:1032A0000DE04FF000082AE0E16C491C07D05020E7
:1032B00080F31188BFF34F8FBFF36F8FFEE70128B4
:1032C0001DD1A06A38B1502080F31188BFF34F8F11
:1032D000BFF36F8FFEE7154D286B0127A0B104F1F6
:1032E00018011348FFF7EEF9E06A2968C96A8842B5
:1032F00005D9B9F1000F01D0C9F80070EF6186F36C
:1033000011884046BDE8F087201DFFF78BF9E16A80
:103310002A6907FA01F01043286101EB8100044992
:10332000B43901EB8000211DDCE7000030000020F3
:10333000DC0800200548416919B1006B18B1002074
:1033400070470120704702207047000030000020C5
:103350000148C068704700003000002010B5FFF73A
:1033600035FA0148C06810BD300000202DE9F04159
:103370002F4C0026206B28B1A069401CA06130466C
:10338000BDE8F081E5686D1CE56013D1606B0068F5
:1033900038B1502080F31188BFF34F8FBFF36F8F88
:1033A000FEE7606BA16B6163A063206A401C206232
:1033B000FFF702F8A06ADFF87C80854209D3606BD2
:1033C0000068A0B1606BC068C7687868854211D298
:1033D000A0622068C06A00EB800158F82100012833
:1033E00000D90126E0690028C9D00126C7E74FF0BF
:1033F000FF30EDE7381DFFF715F9B86A18B107F18E
:103400001800FFF70FF9F96A01202269884010437C
:10341000206101EB810108EB8100391DFFF752F9B2
:10342000F86A2168C96A8842C9D30126C7E7000043
:1034300030000020280800202DE9F0411E461546E6
:1034400088460746FFF74AF91C4C206890F8500060
:10345000022814D02068C16CB943C16421680120DE
:1034600081F850005EB101213046FEF76DFC144931
:103470004FF080500860BFF34F8FBFF36F8FFFF79F
:103480004DF9FFF72BF915B12068C06C2860206852
:1034900090F85000022801D0002505E02068C16C9A
:1034A00021EA0801C16401252168002081F850004B
:1034B000FFF734F92846BDE8F08100003000002015
:1034C00004ED00E070B504004FF0000140D0214D44
:1034D0002868844207D0502080F31188BFF34F8FB3
:1034E000BFF36F8FFEE7A06C38B1401EA064636C21
:1034F000E26A9A422CD040B12AE0502080F3118831
:10350000BFF34F8FBFF36F8FFEE7201DFFF78AF8E1
:10351000114A012150B9E06A00EB800352F82330D0
:1035200023B92B6901FA00F083432B61606CE062E0
:10353000C0F10700A061E06A2B698140194329614D
:1035400000EB800002EB8000211DFFF7BBF801219A
:10355000084670BD30000020280800202DE9F04109
:10356000C068C468ACB104F118000746FFF75AF808
:10357000154D286B0126A0B139461448FFF7A2F873
:10358000E06A2968C96A88421CD90120EE61BDE859
:10359000F081502080F31188BFF34F8FBFF36F8FFE
:1035A000FEE7201DFFF73EF8E16A2A6906FA01F0FE
:1035B0001043286101EB81000449B43901EB80001C
:1035C000211DDBE70020E2E730000020DC080020BE
:1035D0002DE9F0472C4D00242746286B38B1FFF722
:1035E0007DF8286B401E2863286B40B146E05020D0
:1035F00080F31188BFF34F8FBFF36F8FFEE7A96889
:10360000224E0120D1B3A6F1B40980463068E8B15A
:10361000F068C46804F11800FFF704F8201DFFF7F4
:1036200001F8E06A2A6908FA00F11143296100EB08
:10363000800109EB8100211DFFF744F8E06A296849
:10364000C96A8842E2D3C5F81C80DFE70CB1FEF7F7
:10365000B3FEAC6944B14646FFF788FE00B1EE61A7
:10366000641EF9D10020A861E86938B10849012732
:1036700038070860BFF34F8FBFF36F8FFFF74EF827
:103680003846BDE8F087000030000020DC0800204C
:1036900004ED00E02DE9FC4781461E4617468846AA
:1036A00028200A9DFEF73EFF04000AD0002084F87F
:1036B0002400CDE9005433463A4641464846FEF7D9
:1036C0002BFD2046BDE8FC877CB52826DDE90654A5
:1036D000009644B1022684F82460CDE90054FEF738
:1036E0001BFD20467CBD502080F31188BFF34F8F17
:1036F000BFF36F8FFEE7000010B586B0FEF7C4FB86
:10370000114C2068B8B100200390049005AA04A9C8
:1037100003A8FEF7A5FFDDE9032102208DE80700DD
:1037200000230AA10B48059AFFF7E7FC606010B17F
:1037300006B0012010BD502080F31188BFF34F8FD9
:10374000BFF36F8FFEE700006C000020546D722005
:103750005376630095240008FEB51E46134602000A
:10376000089D4FF0000014D0124C2768002F0FD096
:10377000CDE900130292062915DAFFF7DBFD0228D6
:103780004FF000030DD0002269462068FFF7A2FA2F
:10379000FEBD502080F31188BFF34F8FBFF36F8FB2
:1037A000FEE72A46F0E70023324669463846FFF72F
:1037B00041FBFEBD6C0000209D02000800000000DF
:1037C00080380008491400080000000000000000D4
:1037D0008000000000000000000000005C380008CD
:1037E000A11400080000000000000000800000009C
:1037F00000000000000000006838000851140008B4
:103800000000000000000000800000000000000038
:1038100000000000743800080515000800000000D2
:103820000000000080000000000000000000000018
:10383000010202030405060708090A0B0C0D0E0F0E
:103840001010000000000000000001020304060741
:103850000809000000000102030400005461736BBA
:103860005F4B4559300000006D795461736B303106
:10387000000000005461736B5F4B4559310000003C
:1038800064656661756C745461736B00AC380008D4
:1038900000000020B0000000381900085C39000862
:1038A000B000002050190000481900080000000076
:1038B0000000000000000000000000000000000008
:1038C00000000000000000000000000001000000F7
:1038D000100000000000000000127A00000000004C
:1038E00000000000000000000000000000000000D8
:1038F00000000000000000000000000000000000C8
:1039000000000000000000000000000000000000B7
:1039100000000000000000000000000000000000A7
:103920000000000000000000000000000000000097
:103930000000000000000000000000000000000087
:103940000000000000000000000000000000000077
:0C395000AAAAAAAA0000000000000000C3
:0400000508000131BD
:00000001FF
