:020000040800F2
:10000000C8060020B5010008950E0008050E00087E
:10001000910E000871020008B516000800000000EB
:10002000000000000000000000000000A916000809
:100030007502000800000000A5160008AD160008B3
:10004000CF010008CF010008CF010008CF01000850
:10005000CF010008CF010008CF010008CF01000840
:10006000CF010008CF010008CF010008CF01000830
:10007000CF010008CF010008CF010008CF01000820
:10008000CF010008CF010008CF010008CF01000810
:10009000CF010008CF010008CF010008CF01000800
:1000A000CF010008CF010008CF010008CF010008F0
:1000B000CF010008CF010008CF010008CF010008E0
:1000C000CF010008CF010008CF010008CF010008D0
:1000D000CF010008CF010008CF010008CF010008C0
:1000E000CF010008CF010008CF01000800F002F89E
:1000F00000F050F814A696E8000CB244B344DA4578
:1001000001D100F047F8BAE80F000FA696E83000DA
:10011000A5EB040504EB0607AAEB0704A7F101070A
:100120004FEA15154FEA3414A4F10104AC4201D38F
:1001300000F030F813F0010F18BFFB1A43F0010371
:1001400000F001F8DBE71847541C0000741C0000A5
:10015000103A24BF78C878C1FAD8520724BF30C8F3
:1001600030C144BF04680C60704700007047000055
:100170000023002400250026103A28BF78C1FBD8B0
:10018000520728BF30C148BF0B6070471FB51FBD65
:1001900010B510BD00F031F81146FFF7F7FF01F080
:1001A0008BFA00F04FF803B4FFF7F2FF03BC00F046
:1001B00057F800000948804709480047FEE7FEE776
:1001C000FEE7FEE7FEE7FEE7FEE7FEE7FEE7FEE707
:1001D00004480549054A064B70470000B11600085F
:1001E000ED000008C8000020C8060020C80200205A
:1001F000C8020020704770477047754600F02CF821
:10020000AE4605006946534620F00700854618B003
:1002100020B5FFF7DDFFBDE820404FF000064FF0AE
:1002200000074FF000084FF0000BAC46ACE8C009E7
:10023000ACE8C009ACE8C009ACE8C00921F007018E
:100240008D46704710B50446AFF300802046BDE8E8
:100250001040FFF7A8BF00000048704710000020C2
:1002600001491820ABBEFEE72600020070470000DF
:10027000FEE7000070470000EFF3108072B600BF89
:10028000FEE700002DE9F04F82B00E68002E00F06E
:10029000FD8041F20042C4F20102042340F2004E0C
:1002A000904208BF03234FF6FF7CC4F2010E009377
:1002B00000240123C1F2100C4FF0000A4FF0000996
:1002C0004BE000BF41F20002C4F20102009F9042E5
:1002D00008BF022704F00C030F229A402BEA020207
:1002E00007FA03F34FEA9A051A4346F825204E68A9
:1002F00040F20C45F202DEF8082054BF22EA080260
:1003000042EA0802C4F20105CEF808202A68B302C6
:1003100054BF22EA080242EA08022A60B303DEF868
:10032000042054BF22EA080242EA0802F303CEF88E
:100330000420DEF800204FF0010354BF22EA080237
:1003400042EA0802CEF800200E680AF1010A36FAE5
:100350000AF204F1040400F0998003FA0AFB16EA99
:100360000B08F1D04E68664512DC122E56D8DFE835
:1003700006F0350B4D49555555555555555555555F
:1003800055555545510000BFD1F80C9046E000BFCF
:100390004FF6FF72C1F2210296420FDC0022C1F239
:1003A000110296421AD00022C1F21202964215D0D2
:1003B0000022C1F22102964210D02FE00022C1F2A9
:1003C000220296420AD00022C1F23102964205D0A2
:1003D0000022C1F23202964220D100BF8A684AB19F
:1003E000012A14BFC0F814B0C0F810B04FF00809CB
:1003F00014E000BF4FF0040910E000BFCA6802F12A
:1004000004090BE04FF0000908E000BFCA6802F1E0
:10041000080903E0CA6802F10C0900BF024626463B
:10042000B8F5807F24BF0432203E17680F25B54001
:1004300027EA050509FA06F635431560CA79D2069A
:100440007FF582AF41F21803C4F202031A68AEF5D9
:100450007E7642F001021A601A6802F001020192EF
:10046000019A2AF0030256F802B040F60002C4F2E4
:100470000102904208D040F60042C4F201029042CC
:100480007FF420AF012725E7002723E702B0BDE86E
:10049000F08F0000002A08BF0904016170470000C6
:1004A00040F2C400C2F2000000687047002804BF98
:1004B00001207047F0B581B0044690F83D0028B99E
:1004C000002084F83C00204600F0A2F8242084F8A4
:1004D0003D002068016821F001010160016841F4DC
:1004E00000410160016821F40041016000F060FA00
:1004F000636848F2A16CC0F2010C40F60011C0F232
:100500003D0163453CBF48F28041C0F21E01884274
:1005100002D2012001B0F0BD4DF68361C4F21B315F
:10052000A0FB01122168970CD1F804E04FF49676F5
:100530002EF03F0545EA92454D60774348F6381660
:100540000D6AC0F24106A7FB067625F03F0763451A
:1005500038BF960C721C3A430A62CA6948F2A06618
:100560004CF6FF77C0F20106B34222EA07020BD82D
:1005700001385B00B0FBF3F001306FF31F3004284B
:1005800098BF04201BE000BFA768013857B11927A6
:100590007B43B0FBF3F001306FF31F3070B100F517
:1005A000804007E003EB4303B0FBF3F001306FF34F
:1005B0001F3018B100F5004001E000BF01201043DA
:1005C000C8610868D4E9072320F0C000104318432D
:1005D0000860886848F2FF3204F10C0790438CCF22
:1005E00018431043A6698860C86820F0FF003843AC
:1005F0003043C860086840F00100086000202021F6
:10060000206484F83D10206384F83E0001B0F0BD02
:1006100010B586B0016845F20040C4F20000814286
:100620004FF00001CDE90411CDE9021102D006B06E
:1006300010BD00BF41F21804C4F20204216800F5A5
:10064000384041F008012160216801F00801019162
:100650000199C0210291122103910321059102A960
:10066000FFF710FE606840F400106060606800F4FE
:1006700000100190019806B010BD000040F200008B
:1006800040F2C401C2F20000C2F2000100780A6820
:10069000104408607047000080B542F20000C4F2C8
:1006A0000200016841F010010160032000F07AF8B7
:1006B0000F2000F005F800F027F8002080BD0000B2
:1006C00070B540F20006C2F2000640F2080132782E
:1006D000C2F200014FF47A730968B3FBF2F20446E8
:1006E000B1FBF2F1084600F077FB0F2C4FF001054B
:1006F00008D838B94FF0FF3021460022002500F01D
:1007000025F87460284670BD82B041F21800C4F22A
:1007100002000168022241F001010160016801F05C
:10072000010101910199416841F0805141604068A7
:1007300000F08050009000980420C4F2010001688D
:1007400062F31A61016002B07047000010B54EF606
:100750000C5CCEF2000CDCF80030C3F3022E8EF0FD
:100760000704042C28BF0424BEF103034FF0FF3E0E
:100770000EFA04F438BF0023A14399400EFA03F3A4
:100780009A43114300F00F0200F160430901043A5B
:1007900003F564436244002848BF02F10C0319705A
:1007A00010BD00004EF60C51CEF200010A684FF663
:1007B000FF031A4060F30A2242F0806040F0FD70AF
:1007C000086070472020C4F20E20002101607047AD
:1007D00090FAA0F08021B0FA80F0C4F20E2100223D
:1007E00041F82020704700002020C4F20E20012193
:1007F00001607047002804BF012070472DE9F043D5
:1008000081B042F20008C4F202080446D8F80000A1
:100810000D4600F0070081420CD9D8F8000020F006
:1008200007002843C8F80000D8F8000000F00700CF
:10083000A8426CD1206841F204098107C4F2020980
:1008400017D5410705D5D9F8001041F4E061C9F882
:100850000010010705D5D9F8001041F46051C9F81E
:100860000010D9F80010A26821F0F0011143C9F876
:100870000010C00742D1D8F8000000F00700854200
:100880000CD2D8F8000020F007002843C8F8000078
:10089000D8F8000000F00700A84238D120684107CE
:1008A00007D5D9F80010E26821F4E0611143C9F8D6
:1008B0000010000708D5D9F80000216920F4605025
:1008C00040EAC100C9F80000D9F8002002F00C008D
:1008D000082841F20020C0F27A004DD141F68A5337
:1008E000C2F38341C0F60003595CD20338D440F60A
:1008F0000010C0F23D0048433EE000BF606859F878
:10090000041C022808D0012826D1890306D401201E
:1009100001B0BDE8F08300BF8901F8D5D9F8001017
:1009200021F003010843C9F80000FFF7B9FD0646AE
:1009300041F28837D9F80000616800F00C00B0EB94
:10094000810F98D0FFF7ACFD801BB842F2D903208D
:1009500001B0BDE8F08300BF8907D8D5DEE700BF4E
:10096000D9F8002041F29873C2F34042C0F6000368
:100970009A5C4843B0FBF2F0D9F8001041F2807263
:10098000C1F30311C0F60002515C40F2080220FAE4
:1009900001F140F20400C2F200000068C2F200025D
:1009A0001160FFF78DFE002001B0BDE8F08300006C
:1009B00040F2080041F20401C2F20000C4F2020158
:1009C0000068096841F29072C1F30221C0F600028A
:1009D000515CC84070470000002804BF01207047E8
:1009E0002DE9F04182B00446007841F20006C007CC
:1009F000C4F202060CD0706800F00C00042840F02D
:100A000081803068800303D56068002800F046814B
:100A1000207880071BD5706810F00C0F09D0706823
:100A200000F00C00082840F087807068C00300F1D7
:100A300083803068800703D52069012840F02E812B
:100A40003068616920F0F80040EAC1003060207829
:100A5000000713D4207840072CD4E569002D00F05E
:100A60001881706800F00C00082840F0A780012D64
:100A700040F00481012002B0BDE8F081A0690028A7
:100A800000F084800020C4F242200121C0F88014CC
:100A9000FFF706FD054600BF706A800700F1B280CF
:100AA000FFF7FEFC401B0228F6D9032002B0BDE888
:100AB000F08100BFF0695FEAC00808D4F06940F037
:100AC0008050F061F06900F080500090009847F28B
:100AD0000007C4F200073868C00549D4386840F4FC
:100AE00080703860FFF7DCFC054600BF3868C00541
:100AF0003ED4FFF7D5FC401B6428F7D9032002B091
:100B0000BDE8F081706800F00C00082803D170681F
:100B1000C0033FF576AF61683068002900F00C81B2
:100B2000B1F5A02F00F00081B1F5803F40F01A81AF
:100B300040F480301CE100BF2069002840F2000032
:100B4000C4F2422000F0888001210160FFF7A8FC78
:100B5000054600BF306880073FF572AFFFF7A0FC85
:100B6000401B0228F6D9032002B0BDE8F08100BF87
:100B7000E168306A002900F09D80052900F092802C
:100B8000012940F0AF8040F00100B1E00020C4F244
:100B900042200021C0F88014FFF782FC054600BF08
:100BA000706A80077FF556AFFFF77AFC401B02287A
:100BB000F6D9032002B0BDE8F08100BF0027C4F2DF
:100BC000422700203866FFF76BFC022D05460DD149
:100BD0003068800140F1DE80FFF762FC401B022894
:100BE0004FF00300F4D902B0BDE8F0813068800115
:100BF0004FD5FFF755FC401B02284FF00300F5D9F5
:100C0000F1E700BF40F20800C2F20000006844F6BD
:100C1000D351C1F26201A0FB0101480A019000BF5B
:100C200000BF0198411E002801913FF413AF00BF9F
:100C30000198411E002801913FF40CAF00BF0198BC
:100C4000411E002801913FF405AF00BF0198411EED
:100C500000280191E4D1FDE600210160FFF720FCAE
:100C6000054600BF306880077FF5F1AEFFF718FC3E
:100C7000401B02284FF00300F4D9B4E77068216AE2
:100C800000F480328A4209D1616A00F4701088420F
:100C900004D1002002B0BDE8F08100BF012002B005
:100CA000BDE8F08140F004003062306A40F001009D
:100CB0001EE000BF20F001003062306A20F0040026
:100CC0003062FFF7EDFB054641F28837306A800756
:100CD00020D5FFF7E5FB401BB8424FF00300F5D9E4
:100CE00081E700BF20F001003062306A20F004008C
:100CF0003062FFF7D5FB054641F28837306A80073E
:100D000008D4FFF7CDFB401BB842F7D9032002B04F
:100D1000BDE8F081B8F1000F3FF59FAEF06920F01B
:100D20008050F06199E600BF40F480203060306868
:100D300040F480301CE000BF20F480303060306828
:100D400020F480203060FFF7ABFB0546306880035D
:100D50007FF55EAEFFF7A4FB401B64284FF0030055
:100D6000F4D940E720F480303060306820F48020EF
:100D70003060FFF795FB0546306880033FF548AECD
:100D8000FFF78EFB401B6428F6D9032002B0BDE8B4
:100D9000F08100BF206AB0F5803F05D17168A2687C
:100DA00021F40031114371607168626A21F4741199
:100DB00011430843706001203866FFF771FB044659
:100DC000306880013FF565AFFFF76AFB001B022822
:100DD0004FF00300F4D906E7411E0020B0EB116F7D
:100DE0001CBF012070474EF21002CEF2000251608B
:100DF0004EF62351CEF20001F0230B7007219060D4
:100E000011607047FEE7000083B041F21800C4F2A1
:100E10000200016841F020010160016801F0200139
:100E200002910299016841F004010160016801F03A
:100E3000040101910199016841F008010160006815
:100E400000F008000090009803B0704780B540F2B1
:100E5000700045F20041C2F20000C4F2000148F205
:100E6000A06200234FF4804CC0F2010280E80E0023
:100E7000C0E9033CC0E90533C0E90733FFF716FBBF
:100E8000002808BF80BDBDE88040FFF7F5B900002D
:100E9000FEE70000FEE7000070B541F20004002507
:100EA000C4F2010445F0B000C0B200F083FB102092
:100EB00000F080FB0020002600F07CFB20464FF471
:100EC00080410122FFF7E6FA20464FF4005101224B
:100ED000FFF7E0FA20464FF480410022FFF7DAFAEC
:100EE00020464FF400510022FFF7D4FA782000F09A
:100EF00087F8402000F084F8002000F081F82046B8
:100F00004FF480410022FFF7C5FA20464FF400510C
:100F10000122FFF7BFFA20464FF480410122FFF77C
:100F2000B9FA701C46B2B6F1FF3FC7DCE8B2013532
:100F3000072828BF70BDB5E7F0B58FB041F218069D
:100F4000C4F20206306840F010003060306800F0F3
:100F5000100005900598306840F00100306030685E
:100F600000F0010005900598FFF73EFC0420059075
:100F7000002705A80897FFF72FFD706840F0805004
:100F80007060706800F08050019001984FF480709C
:100F9000FFF71EFC4FF460400190012041F2000475
:100FA00002900220C4F2010401AD049020462946BB
:100FB000FFF768F9FFF706FC3068294640F00800A3
:100FC0003060306800F00800009000984FF4C04096
:100FD00001901120CDE9020703200490A4F5806060
:100FE000FFF750F920464FF400510122FFF752FA63
:100FF00020464FF480410122FFF74CFA0FB0F0BDBC
:10100000B0B541F20004C4F20104054600F08002CC
:1010100020464FF48041FFF73DFA20464FF400513F
:101020000122FFF737FA20464FF400510022FFF764
:1010300031FA05F0400220464FF48041FFF72AFACA
:1010400020464FF400510122FFF724FA20464FF4C6
:1010500000510022FFF71EFA05F0200220464FF44F
:101060008041FFF717FA20464FF400510122FFF7A5
:1010700011FA20464FF400510022FFF70BFA05F059
:10108000100220464FF48041FFF704FA20464FF447
:1010900000510122FFF7FEF920464FF400510022D3
:1010A000FFF7F8F905F0080220464FF48041FFF7FA
:1010B000F1F920464FF400510122FFF7EBF92046E9
:1010C0004FF400510022FFF7E5F905F00402204635
:1010D0004FF48041FFF7DEF920464FF40051012222
:1010E000FFF7D8F920464FF400510022FFF7D2F95C
:1010F00005F0020220464FF48041FFF7CBF920466D
:101100004FF400510122FFF7C5F920464FF400517A
:101110000022FFF7BFF905F0010220464FF480419D
:10112000FFF7B8F920464FF400510122FFF7B2F95A
:1011300020464FF400510022FFF7ACF920464FF44F
:1011400080410122FFF7A6F920464FF40051012209
:10115000FFF7A0F920464FF400510022BDE8B0404F
:10116000FFF798B980B5FFF7E7FEAE2000F022FA4E
:10117000D52000F01FFA802000F01CFAA82000F013
:1011800019FA3F2000F016FAD32000F013FA0020DD
:1011900000F010FA402000F00DFAA12000F00AFA49
:1011A000C82000F007FADA2000F004FA122000F05C
:1011B00001FA812000F0FEF9CF2000F0FBF9D920E0
:1011C00000F0F8F9F12000F0F5F9DB2000F0F2F979
:1011D000302000F0EFF9A42000F0ECF9A62000F098
:1011E000E9F98D2000F0E6F9142000F0E3F9AF20D2
:1011F00000F0E0F9BDE88040FFF74EBE002B08BFCD
:1012000070472DE9F04F81B01C4691468A468346CF
:10121000A3F102085D425E1E002710E00120B9FB29
:10122000F0F20AEB0700182161F35F02C1B25846E1
:1012300000F02CF80137A742A6F1010622D087EA78
:1012400005000130EAD0A8EB0700032802D20120F4
:1012500008E000BF26F00301012000BF04394FEA77
:101260000010FBD1F943214411F00301D7D001292B
:1012700002D14000D3E700BFC200022908BF8200AC
:101280001046CCE701B0BDE8F04F70472DE9F047BC
:1012900080467E2000EB480017466FF0070240F0C2
:1012A000B00002EBC104C0B2E5B200F083F9280936
:1012B00000F11009484600F07DF904F0080A504694
:1012C00000F078F941F29A70C0F6000000EB0711C7
:1012D0004FF60060CFF6FF70085CA1F5007600F0D5
:1012E000A5F97078B778F478357900F09FF9384629
:1012F00000F09CF9204600F099F9284600F096F994
:10130000707900F093F9B07900F090F9F07900F07D
:101310008DF94FF0FF3000EB480040F0B000C0B254
:1013200000F048F9484600F045F9504600F042F90F
:10133000307A00F07BF9707A00F078F9B07A00F03A
:1013400075F9F07A00F072F9307B00F06FF9707B7C
:1013500000F06CF9B07B00F069F9F07BBDE8F04774
:1013600000F064B9002B08BF70472DE9F04F81B041
:101370001C4691468A468346A3F102085D425E1EE2
:10138000002715E00120B9FBF0F00AEB070100F09F
:101390000F0000F137020A2838BF00F13002C9B24D
:1013A0005846FFF773FF0137A742A6F1010621D087
:1013B00087EA05000130E5D0A8EB0700032801D239
:1013C000012007E026F00301012000BF04394FEAA5
:1013D0000040FBD1F943214411F00301D3D001298E
:1013E00002D10001CFE700BF0203022908BF0202B9
:1013F0001046C8E701B0BDE8F04F7047002B08BFAA
:1014000070472DE9F04F81B01C4691468A468346CD
:10141000981E5D425E1E002742F2107800901BE08D
:101420000120B9FBF0F04CF6CD41CCF6CC41A0FB4D
:101430000112D20802EB8202A0EB42000AEB070184
:1014400040F03000C2B2C9B25846FFF71FFF013763
:10145000A742A6F1010629D087EA05000130DFD0B6
:101460000098C01B032801D2012007E026F00301E9
:10147000012000BF043900FB08F0FBD1F9432144EF
:1014800011F00301CDD0012904D100EB8000400010
:10149000C7E700BF4FF47A72424302294FF064015C
:1014A00008BF00FB01F21046BBE700BF01B0BDE87A
:1014B000F04F70472DE9F04F81B01C4691460F4622
:1014C000002A824604D42B22FFF7E0FE3CB957E005
:1014D0002D22FFF7DBFEC9F10009002C50D007F1E7
:1014E000010BA01E6542661E002742F21078009094
:1014F0001CE000BF0120B9FBF0F04CF6CD41CCF66A
:10150000CC41A0FB0112D20802EB8202A0EB420008
:101510000BEB070140F03000C2B2C9B25046FFF7F2
:10152000B5FE0137A742A6F1010629D087EA0500DA
:101530000130DFD00098C01B032801D2012007E052
:1015400026F00301012000BF043900FB08F0FBD1A5
:10155000F943214411F00301CDD0012904D100EB5E
:1015600080004000C7E700BF4FF47A72424302296F
:101570004FF0640108BF00FB01F21046BBE700BF5B
:1015800001B0BDE8F08F0000F0B581B014461278CC
:101590006AB10D46064600277819C1B2D2B230466C
:1015A000FFF774FE0137F8B2225C002AF4D101B0D3
:1015B000F0BD0000B0B541F20004C4F201040546DC
:1015C00020464FF480410122FEF764FF20464FF48D
:1015D00000510122FEF75EFF20464FF480410022B9
:1015E000FEF758FF20464FF400510022FEF752FF4D
:1015F0007820FFF705FD0020FFF702FD2846FFF7E2
:10160000FFFC20464FF480410022FEF743FF2046B6
:101610004FF400510122FEF73DFF20464FF4804178
:101620000122BDE8B040FEF735BF0000B0B541F281
:101630000004C4F20104054620464FF48041012213
:10164000FEF728FF20464FF400510122FEF722FF4B
:1016500020464FF480410022FEF71CFF20464FF445
:1016600000510022FEF716FF7820FFF7C9FC40204A
:10167000FFF7C6FC2846FFF7C3FC20464FF4804125
:101680000022FEF707FF20464FF400510122FEF72B
:1016900001FF20464FF480410122BDE8B040FEF733
:1016A000F9BE00007047000070470000FEF7E6BF7B
:1016B00070470000FEE7000090B0FEF7EDFF002449
:1016C0000120CDE90B44CDE9094406900A904FF47E
:1016D000E0104FF4803102250F9006A8CDE90714E1
:1016E000CDE90D51FFF778F920B1EFF3108072B614
:1016F000FEE700BF0F20CDE901054FF48060CDE982
:10170000040401A802210394FFF774F820B1EFF359
:10171000108072B6FEE700BFFFF776FBFFF796FB7F
:10172000FFF720FD012001214F22FFF7AFFD11A29D
:1017300001200321FFF728FF0220012143F2390293
:101740000523FFF75BFE022007216FF04102022311
:10175000FFF7B0FE032001214AF655220423FFF7CC
:1017600001FE042001214AF655221023FFF746FD11
:10177000FEE700BF48656C6C6F576F726C642100A8
:101780000000000000000000010203040607080931
:10179000000000000102030401020000000000003C
:1017A00000000000000000000000000000F8000041
:1017B0000000000000333000000000100C06100C88
:1017C0000600000000000000000040C07840C07823
:1017D0004000043F04043F040400007088FC08300B
:1017E0000000001820FF211E0000F008F000E018A3
:1017F000000000211C031E211E0000F0088870005C
:1018000000001E2123241927211010160E000000AD
:1018100000000000000000000000000000E01804CC
:101820000200000000071820400000020418E00039
:1018300000000040201807000000404080F0804079
:1018400040000202010F01020200000000F000004F
:1018500000000101011F0101010000000000000063
:10186000000080B0700000000000000000000000D8
:101870000000000101010101010100000000000061
:101880000000003030000000000000000000806018
:101890001804006018060100000000E0100808109D
:1018A000E000000F102020100F00001010F80000C2
:1018B00000000020203F2020000000700808088859
:1018C0007000003028242221300000300888884829
:1018D00030000018202020110E000000C02010F859
:1018E000000000070424243F240000F8088888082A
:1018F00008000019212020110E0000E0108888182F
:101900000000000F112020110E0000380808C83810
:1019100008000000003F00000000007088080888F0
:101920007000001C222121221C0000E01008081079
:10193000E0000000312222110F00000000C0C000B2
:1019400000000000003030000000000000800000B7
:1019500000000000806000000000000080402010B7
:1019600008000001020408102000404040404040B0
:101970004000040404040404040000081020408013
:101980000000002010080402010000704808080848
:10199000F0000000003036010000C030C828E81018
:1019A000E0000718272423140B000000C038E000D3
:1019B0000000203C23020227382008F8888888701D
:1019C0000000203F202020110E00C0300808080829
:1019D0003800071820202010080008F80808081010
:1019E000E000203F202020100F0008F88888E80839
:1019F0001000203F20202320180008F88888E808DD
:101A00001000203F200003000000C0300808083804
:101A1000000007182020221E020008F80800000815
:101A2000F808203F210101213F20000808F808089C
:101A300000000020203F2020000000000808F808D7
:101A40000800C08080807F00000008F888C0281847
:101A50000800203F20012638200008F80800000078
:101A60000000203F20202020300008F8F800F8F87F
:101A70000800203F003F003F200008F830C0000869
:101A8000F808203F200007183F00E0100808081061
:101A9000E0000F10202020100F0008F808080808A8
:101AA000F000203F210101010000E01008080810AB
:101AB000E0000F18242438504F0008F888888888E0
:101AC0007000203F2000030C3020007088080808B8
:101AD00038000038202121221C00180808F80808C6
:101AE00018000000203F2000000008F8080000084F
:101AF000F808001F202020201F000878880000C858
:101B00003808000007380E010000F80800F8000847
:101B1000F800033C0700073C030008186880806851
:101B2000180820302C03032C30200838C800C8388F
:101B300008000000203F2000000010080808C838F6
:101B400008002038262120201800000000FE020294
:101B500002000000007F40404000000C30C0000048
:101B60000000000000010638C00000020202FE0072
:101B70000000004040407F0000000000040202021C
:101B80000400000000000000000000000000000051
:101B9000000080808080808080800002020400003D
:101BA0000000000000000000000000008080808035
:101BB00000000019242222223F2008F80080800023
:101BC0000000003F112020110E00000000808080E6
:101BD0000000000E112020201100000000808088ED
:101BE000F800000E112020103F200000808080802F
:101BF0000000001F222222221300008080F088882B
:101C000088180020203F2020000000008080808075
:101C10008000006B94949493600008F800808080AA
:101C20000000203F210000203F2000809898000005
:101C300000000020203F2020000000000080989835
:101C4000000000C08080807F000008F800008080D5
:101C50008000203F24022D302000000808F80000FA
:101C600000000020203F20200000808080808080B5
:101C70008000203F20003F20003F80800080808047
:101C80000000203F210000203F2000008080808055
:101C90000000001F202020201F0080800080800086
:101CA000000080FFA12020110E0000000080808035
:101CB0008000000E112020A0FF80808080008080A6
:101CC000800020203F2120000100000080808080D3
:101CD00080000033242424241900008080E08080C8
:101CE00000000000001F2020000080800000008015
:101CF0008000001F202020103F2080808000008076
:101D0000808000010E300806010080800080008085
:101D100080800F300C030C300F000080800080802A
:101D200080000020312E0E31200080808000008055
:101D3000808080818E701806010000808080808005
:101D400080000021302C2221300000000000807C27
:101D5000020200000000003F404000000000FF00C1
:101D6000000000000000FF0000000002027C800074
:101D700000000040403F0000000000060101020298
:101D80000404000000000000000002030405060730
:101D900008090A0B0C0D0E0F10100000C01D0008E2
:101DA000000000201000000050010008D01D0008B5
:101DB00010000020B80600007001000800000000BC
:101DC00001000000100000000024F40000000000EA
:04000005080000ED02
:00000001FF
